{
  "_format": "hh-sol-artifact-1",
  "contractName": "Gluwacoin",
  "sourceName": "contracts/Gluwacoin.sol",
  "abi": [
    {
      "anonymous": false,
      "inputs": [
        {
          "indexed": true,
          "internalType": "address",
          "name": "owner",
          "type": "address"
        },
        {
          "indexed": true,
          "internalType": "address",
          "name": "spender",
          "type": "address"
        },
        {
          "indexed": false,
          "internalType": "uint256",
          "name": "value",
          "type": "uint256"
        }
      ],
      "name": "Approval",
      "type": "event"
    },
    {
      "anonymous": false,
      "inputs": [
        {
          "indexed": true,
          "internalType": "address",
          "name": "sender",
          "type": "address"
        },
        {
          "indexed": true,
          "internalType": "contract IERC20",
          "name": "token",
          "type": "address"
        },
        {
          "indexed": false,
          "internalType": "uint256",
          "name": "_value",
          "type": "uint256"
        }
      ],
      "name": "Locked",
      "type": "event"
    },
    {
      "anonymous": false,
      "inputs": [
        {
          "indexed": false,
          "internalType": "address",
          "name": "account",
          "type": "address"
        }
      ],
      "name": "Paused",
      "type": "event"
    },
    {
      "anonymous": false,
      "inputs": [
        {
          "indexed": true,
          "internalType": "bytes32",
          "name": "role",
          "type": "bytes32"
        },
        {
          "indexed": true,
          "internalType": "bytes32",
          "name": "previousAdminRole",
          "type": "bytes32"
        },
        {
          "indexed": true,
          "internalType": "bytes32",
          "name": "newAdminRole",
          "type": "bytes32"
        }
      ],
      "name": "RoleAdminChanged",
      "type": "event"
    },
    {
      "anonymous": false,
      "inputs": [
        {
          "indexed": true,
          "internalType": "bytes32",
          "name": "role",
          "type": "bytes32"
        },
        {
          "indexed": true,
          "internalType": "address",
          "name": "account",
          "type": "address"
        },
        {
          "indexed": true,
          "internalType": "address",
          "name": "sender",
          "type": "address"
        }
      ],
      "name": "RoleGranted",
      "type": "event"
    },
    {
      "anonymous": false,
      "inputs": [
        {
          "indexed": true,
          "internalType": "bytes32",
          "name": "role",
          "type": "bytes32"
        },
        {
          "indexed": true,
          "internalType": "address",
          "name": "account",
          "type": "address"
        },
        {
          "indexed": true,
          "internalType": "address",
          "name": "sender",
          "type": "address"
        }
      ],
      "name": "RoleRevoked",
      "type": "event"
    },
    {
      "anonymous": false,
      "inputs": [
        {
          "indexed": true,
          "internalType": "address",
          "name": "from",
          "type": "address"
        },
        {
          "indexed": true,
          "internalType": "address",
          "name": "to",
          "type": "address"
        },
        {
          "indexed": false,
          "internalType": "uint256",
          "name": "value",
          "type": "uint256"
        }
      ],
      "name": "Transfer",
      "type": "event"
    },
    {
      "anonymous": false,
      "inputs": [
        {
          "indexed": false,
          "internalType": "address",
          "name": "account",
          "type": "address"
        }
      ],
      "name": "Unpaused",
      "type": "event"
    },
    {
      "inputs": [],
      "name": "DEFAULT_ADMIN_ROLE",
      "outputs": [
        {
          "internalType": "bytes32",
          "name": "",
          "type": "bytes32"
        }
      ],
      "stateMutability": "view",
      "type": "function"
    },
    {
      "inputs": [],
      "name": "RELAYER_ROLE",
      "outputs": [
        {
          "internalType": "bytes32",
          "name": "",
          "type": "bytes32"
        }
      ],
      "stateMutability": "view",
      "type": "function"
    },
    {
      "inputs": [
        {
          "internalType": "address",
          "name": "owner",
          "type": "address"
        },
        {
          "internalType": "address",
          "name": "spender",
          "type": "address"
        }
      ],
      "name": "allowance",
      "outputs": [
        {
          "internalType": "uint256",
          "name": "",
          "type": "uint256"
        }
      ],
      "stateMutability": "view",
      "type": "function"
    },
    {
      "inputs": [
        {
          "internalType": "address",
          "name": "spender",
          "type": "address"
        },
        {
          "internalType": "uint256",
          "name": "amount",
          "type": "uint256"
        }
      ],
      "name": "approve",
      "outputs": [
        {
          "internalType": "bool",
          "name": "",
          "type": "bool"
        }
      ],
      "stateMutability": "nonpayable",
      "type": "function"
    },
    {
      "inputs": [
        {
          "internalType": "address",
          "name": "account",
          "type": "address"
        }
      ],
      "name": "balanceOf",
      "outputs": [
        {
          "internalType": "uint256",
          "name": "",
          "type": "uint256"
        }
      ],
      "stateMutability": "view",
      "type": "function"
    },
    {
      "inputs": [
        {
          "internalType": "uint256",
          "name": "amount",
          "type": "uint256"
        }
      ],
      "name": "burn",
      "outputs": [
        {
          "internalType": "bool",
          "name": "",
          "type": "bool"
        }
      ],
      "stateMutability": "nonpayable",
      "type": "function"
    },
    {
      "inputs": [
        {
          "internalType": "contract IERC20",
          "name": "token",
          "type": "address"
        },
        {
          "internalType": "uint256",
          "name": "amount",
          "type": "uint256"
        }
      ],
      "name": "convert",
      "outputs": [
        {
          "internalType": "bool",
          "name": "",
          "type": "bool"
        }
      ],
      "stateMutability": "nonpayable",
      "type": "function"
    },
    {
      "inputs": [
        {
          "internalType": "contract IERC20",
          "name": "token",
          "type": "address"
        }
      ],
      "name": "convertAll",
      "outputs": [
        {
          "internalType": "bool",
          "name": "",
          "type": "bool"
        }
      ],
      "stateMutability": "nonpayable",
      "type": "function"
    },
    {
      "inputs": [
        {
          "internalType": "address",
          "name": "account",
          "type": "address"
        },
        {
          "internalType": "contract IERC20",
          "name": "token",
          "type": "address"
        }
      ],
      "name": "convertAllFrom",
      "outputs": [
        {
          "internalType": "bool",
          "name": "",
          "type": "bool"
        }
      ],
      "stateMutability": "nonpayable",
      "type": "function"
    },
    {
      "inputs": [
        {
          "internalType": "address",
          "name": "account",
          "type": "address"
        },
        {
          "internalType": "contract IERC20",
          "name": "token",
          "type": "address"
        },
        {
          "internalType": "uint256",
          "name": "amount",
          "type": "uint256"
        }
      ],
      "name": "convertFrom",
      "outputs": [
        {
          "internalType": "bool",
          "name": "",
          "type": "bool"
        }
      ],
      "stateMutability": "nonpayable",
      "type": "function"
    },
    {
      "inputs": [],
      "name": "decimals",
      "outputs": [
        {
          "internalType": "uint8",
          "name": "",
          "type": "uint8"
        }
      ],
      "stateMutability": "view",
      "type": "function"
    },
    {
      "inputs": [
        {
          "internalType": "address",
          "name": "spender",
          "type": "address"
        },
        {
          "internalType": "uint256",
          "name": "subtractedValue",
          "type": "uint256"
        }
      ],
      "name": "decreaseAllowance",
      "outputs": [
        {
          "internalType": "bool",
          "name": "",
          "type": "bool"
        }
      ],
      "stateMutability": "nonpayable",
      "type": "function"
    },
    {
      "inputs": [
        {
          "internalType": "address",
          "name": "sender",
          "type": "address"
        },
        {
          "internalType": "uint256",
          "name": "nonce",
          "type": "uint256"
        }
      ],
      "name": "execute",
      "outputs": [
        {
          "internalType": "bool",
          "name": "success",
          "type": "bool"
        }
      ],
      "stateMutability": "nonpayable",
      "type": "function"
    },
    {
      "inputs": [],
      "name": "getFee",
      "outputs": [
        {
          "internalType": "uint256",
          "name": "",
          "type": "uint256"
        }
      ],
      "stateMutability": "view",
      "type": "function"
    },
    {
      "inputs": [],
      "name": "getFeeCollectionAddress",
      "outputs": [
        {
          "internalType": "address",
          "name": "",
          "type": "address"
        }
      ],
      "stateMutability": "view",
      "type": "function"
    },
    {
      "inputs": [
        {
          "internalType": "address",
          "name": "account",
          "type": "address"
        },
        {
          "internalType": "contract IERC20",
          "name": "token",
          "type": "address"
        }
      ],
      "name": "getLocked",
      "outputs": [
        {
          "internalType": "uint256",
          "name": "",
          "type": "uint256"
        }
      ],
      "stateMutability": "view",
      "type": "function"
    },
    {
      "inputs": [
        {
          "internalType": "address",
          "name": "sender",
          "type": "address"
        },
        {
          "internalType": "uint256",
          "name": "nonce",
          "type": "uint256"
        }
      ],
      "name": "getReservation",
      "outputs": [
        {
          "internalType": "uint256",
          "name": "amount",
          "type": "uint256"
        },
        {
          "internalType": "uint256",
          "name": "fee",
          "type": "uint256"
        },
        {
          "internalType": "address",
          "name": "recipient",
          "type": "address"
        },
        {
          "internalType": "address",
          "name": "executor",
          "type": "address"
        },
        {
          "internalType": "uint256",
          "name": "expiryBlockNum",
          "type": "uint256"
        },
        {
          "internalType": "enum ERC20Reservable.ReservationStatus",
          "name": "status",
          "type": "uint8"
        }
      ],
      "stateMutability": "view",
      "type": "function"
    },
    {
      "inputs": [
        {
          "internalType": "bytes32",
          "name": "role",
          "type": "bytes32"
        }
      ],
      "name": "getRoleAdmin",
      "outputs": [
        {
          "internalType": "bytes32",
          "name": "",
          "type": "bytes32"
        }
      ],
      "stateMutability": "view",
      "type": "function"
    },
    {
      "inputs": [
        {
          "internalType": "bytes32",
          "name": "role",
          "type": "bytes32"
        },
        {
          "internalType": "uint256",
          "name": "index",
          "type": "uint256"
        }
      ],
      "name": "getRoleMember",
      "outputs": [
        {
          "internalType": "address",
          "name": "",
          "type": "address"
        }
      ],
      "stateMutability": "view",
      "type": "function"
    },
    {
      "inputs": [
        {
          "internalType": "bytes32",
          "name": "role",
          "type": "bytes32"
        }
      ],
      "name": "getRoleMemberCount",
      "outputs": [
        {
          "internalType": "uint256",
          "name": "",
          "type": "uint256"
        }
      ],
      "stateMutability": "view",
      "type": "function"
    },
    {
      "inputs": [
        {
          "internalType": "contract IERC20",
          "name": "token",
          "type": "address"
        }
      ],
      "name": "getTokenExchangeDetails",
      "outputs": [
        {
          "components": [
            {
              "internalType": "uint32",
              "name": "rate",
              "type": "uint32"
            },
            {
              "internalType": "uint32",
              "name": "decimalPlaceBase",
              "type": "uint32"
            }
          ],
          "internalType": "struct ConversionModels.TokenExchangeModel",
          "name": "",
          "type": "tuple"
        }
      ],
      "stateMutability": "view",
      "type": "function"
    },
    {
      "inputs": [
        {
          "internalType": "bytes32",
          "name": "role",
          "type": "bytes32"
        },
        {
          "internalType": "address",
          "name": "account",
          "type": "address"
        }
      ],
      "name": "grantRole",
      "outputs": [],
      "stateMutability": "nonpayable",
      "type": "function"
    },
    {
      "inputs": [
        {
          "internalType": "bytes32",
          "name": "role",
          "type": "bytes32"
        },
        {
          "internalType": "address",
          "name": "account",
          "type": "address"
        }
      ],
      "name": "hasRole",
      "outputs": [
        {
          "internalType": "bool",
          "name": "",
          "type": "bool"
        }
      ],
      "stateMutability": "view",
      "type": "function"
    },
    {
      "inputs": [
        {
          "internalType": "address",
          "name": "spender",
          "type": "address"
        },
        {
          "internalType": "uint256",
          "name": "addedValue",
          "type": "uint256"
        }
      ],
      "name": "increaseAllowance",
      "outputs": [
        {
          "internalType": "bool",
          "name": "",
          "type": "bool"
        }
      ],
      "stateMutability": "nonpayable",
      "type": "function"
    },
    {
      "inputs": [],
      "name": "info",
      "outputs": [
        {
          "internalType": "contract IERC20",
          "name": "",
          "type": "address"
        },
        {
          "internalType": "uint8",
          "name": "",
          "type": "uint8"
        }
      ],
      "stateMutability": "view",
      "type": "function"
    },
    {
      "inputs": [
        {
          "internalType": "uint256",
          "name": "fee",
          "type": "uint256"
        }
      ],
      "name": "initialize",
      "outputs": [],
      "stateMutability": "nonpayable",
      "type": "function"
    },
    {
      "inputs": [
        {
          "internalType": "contract IERC20",
          "name": "token",
          "type": "address"
        },
        {
          "internalType": "uint256",
          "name": "amount",
          "type": "uint256"
        }
      ],
      "name": "lock",
      "outputs": [
        {
          "internalType": "bool",
          "name": "",
          "type": "bool"
        }
      ],
      "stateMutability": "nonpayable",
      "type": "function"
    },
    {
      "inputs": [
        {
          "internalType": "address",
          "name": "account",
          "type": "address"
        },
        {
          "internalType": "contract IERC20",
          "name": "token",
          "type": "address"
        },
        {
          "internalType": "uint256",
          "name": "amount",
          "type": "uint256"
        }
      ],
      "name": "lockFrom",
      "outputs": [
        {
          "internalType": "bool",
          "name": "",
          "type": "bool"
        }
      ],
      "stateMutability": "nonpayable",
      "type": "function"
    },
    {
      "inputs": [],
      "name": "name",
      "outputs": [
        {
          "internalType": "string",
          "name": "",
          "type": "string"
        }
      ],
      "stateMutability": "view",
      "type": "function"
    },
    {
      "inputs": [],
      "name": "pause",
      "outputs": [
        {
          "internalType": "bool",
          "name": "",
          "type": "bool"
        }
      ],
      "stateMutability": "nonpayable",
      "type": "function"
    },
    {
      "inputs": [],
      "name": "paused",
      "outputs": [
        {
          "internalType": "bool",
          "name": "",
          "type": "bool"
        }
      ],
      "stateMutability": "view",
      "type": "function"
    },
    {
      "inputs": [
        {
          "internalType": "address",
          "name": "sender",
          "type": "address"
        },
        {
          "internalType": "uint256",
          "name": "nonce",
          "type": "uint256"
        }
      ],
      "name": "reclaim",
      "outputs": [
        {
          "internalType": "bool",
          "name": "success",
          "type": "bool"
        }
      ],
      "stateMutability": "nonpayable",
      "type": "function"
    },
    {
      "inputs": [
        {
          "internalType": "bytes32",
          "name": "role",
          "type": "bytes32"
        },
        {
          "internalType": "address",
          "name": "account",
          "type": "address"
        }
      ],
      "name": "renounceRole",
      "outputs": [],
      "stateMutability": "nonpayable",
      "type": "function"
    },
    {
      "inputs": [
        {
          "internalType": "address",
          "name": "sender",
          "type": "address"
        },
        {
          "internalType": "address",
          "name": "recipient",
          "type": "address"
        },
        {
          "internalType": "address",
          "name": "executor",
          "type": "address"
        },
        {
          "internalType": "uint256",
          "name": "amount",
          "type": "uint256"
        },
        {
          "internalType": "uint256",
          "name": "fee",
          "type": "uint256"
        },
        {
          "internalType": "uint256",
          "name": "nonce",
          "type": "uint256"
        },
        {
          "internalType": "uint256",
          "name": "expiryBlockNum",
          "type": "uint256"
        },
        {
          "internalType": "bytes",
          "name": "sig",
          "type": "bytes"
        }
      ],
      "name": "reserve",
      "outputs": [
        {
          "internalType": "bool",
          "name": "success",
          "type": "bool"
        }
      ],
      "stateMutability": "nonpayable",
      "type": "function"
    },
    {
      "inputs": [
        {
          "internalType": "address",
          "name": "account",
          "type": "address"
        }
      ],
      "name": "reservedBalanceOf",
      "outputs": [
        {
          "internalType": "uint256",
          "name": "amount",
          "type": "uint256"
        }
      ],
      "stateMutability": "view",
      "type": "function"
    },
    {
      "inputs": [
        {
          "internalType": "bytes32",
          "name": "role",
          "type": "bytes32"
        },
        {
          "internalType": "address",
          "name": "account",
          "type": "address"
        }
      ],
      "name": "revokeRole",
      "outputs": [],
      "stateMutability": "nonpayable",
      "type": "function"
    },
    {
      "inputs": [
        {
          "internalType": "uint256",
          "name": "amount",
          "type": "uint256"
        }
      ],
      "name": "setFee",
      "outputs": [
        {
          "internalType": "bool",
          "name": "",
          "type": "bool"
        }
      ],
      "stateMutability": "nonpayable",
      "type": "function"
    },
    {
      "inputs": [
        {
          "internalType": "contract IERC20",
          "name": "token",
          "type": "address"
        },
        {
          "internalType": "uint8",
          "name": "decimals",
          "type": "uint8"
        },
        {
          "internalType": "uint32",
          "name": "newExchangeRate",
          "type": "uint32"
        },
        {
          "internalType": "uint32",
          "name": "newExchangeRateDecimalPlaceBase",
          "type": "uint32"
        }
      ],
      "name": "setTokenExchange",
      "outputs": [
        {
          "internalType": "bool",
          "name": "",
          "type": "bool"
        }
      ],
      "stateMutability": "nonpayable",
      "type": "function"
    },
    {
      "inputs": [
        {
          "internalType": "bytes4",
          "name": "interfaceId",
          "type": "bytes4"
        }
      ],
      "name": "supportsInterface",
      "outputs": [
        {
          "internalType": "bool",
          "name": "",
          "type": "bool"
        }
      ],
      "stateMutability": "view",
      "type": "function"
    },
    {
      "inputs": [],
      "name": "symbol",
      "outputs": [
        {
          "internalType": "string",
          "name": "",
          "type": "string"
        }
      ],
      "stateMutability": "view",
      "type": "function"
    },
    {
      "inputs": [],
      "name": "totalSupply",
      "outputs": [
        {
          "internalType": "uint256",
          "name": "",
          "type": "uint256"
        }
      ],
      "stateMutability": "view",
      "type": "function"
    },
    {
      "inputs": [
        {
          "internalType": "address",
          "name": "sender",
          "type": "address"
        },
        {
          "internalType": "address",
          "name": "recipient",
          "type": "address"
        },
        {
          "internalType": "uint256",
          "name": "amount",
          "type": "uint256"
        },
        {
          "internalType": "uint256",
          "name": "fee",
          "type": "uint256"
        },
        {
          "internalType": "uint256",
          "name": "nonce",
          "type": "uint256"
        },
        {
          "internalType": "bytes",
          "name": "sig",
          "type": "bytes"
        }
      ],
      "name": "transfer",
      "outputs": [
        {
          "internalType": "bool",
          "name": "success",
          "type": "bool"
        }
      ],
      "stateMutability": "nonpayable",
      "type": "function"
    },
    {
      "inputs": [
        {
          "internalType": "address",
          "name": "recipient",
          "type": "address"
        },
        {
          "internalType": "uint256",
          "name": "amount",
          "type": "uint256"
        }
      ],
      "name": "transfer",
      "outputs": [
        {
          "internalType": "bool",
          "name": "",
          "type": "bool"
        }
      ],
      "stateMutability": "nonpayable",
      "type": "function"
    },
    {
      "inputs": [
        {
          "internalType": "address",
          "name": "sender",
          "type": "address"
        },
        {
          "internalType": "address",
          "name": "recipient",
          "type": "address"
        },
        {
          "internalType": "uint256",
          "name": "amount",
          "type": "uint256"
        }
      ],
      "name": "transferFrom",
      "outputs": [
        {
          "internalType": "bool",
          "name": "",
          "type": "bool"
        }
      ],
      "stateMutability": "nonpayable",
      "type": "function"
    },
    {
      "inputs": [],
      "name": "unpause",
      "outputs": [
        {
          "internalType": "bool",
          "name": "",
          "type": "bool"
        }
      ],
      "stateMutability": "nonpayable",
      "type": "function"
    },
    {
      "inputs": [
        {
          "internalType": "address",
          "name": "account",
          "type": "address"
        }
      ],
      "name": "unreservedBalanceOf",
      "outputs": [
        {
          "internalType": "uint256",
          "name": "amount",
          "type": "uint256"
        }
      ],
      "stateMutability": "view",
      "type": "function"
    },
    {
      "inputs": [
        {
          "internalType": "contract IERC20",
          "name": "token",
          "type": "address"
        },
        {
          "internalType": "uint256",
          "name": "amount",
          "type": "uint256"
        }
      ],
      "name": "withdraw",
      "outputs": [
        {
          "internalType": "bool",
          "name": "",
          "type": "bool"
        }
      ],
      "stateMutability": "nonpayable",
      "type": "function"
    }
  ],
  "bytecode": "0x608060405234801561001057600080fd5b50616fd680620000216000396000f3fe608060405234801561001057600080fd5b50600436106102945760003560e01c806367c6e39c11610167578063a22ac5a9116100ce578063ced72f8711610087578063ced72f8714610961578063d547741f1461097f578063da7195201461099b578063dd62ed3e146109cb578063f3fef3a3146109fb578063fe4b84df14610a2b57610294565b8063a22ac5a91461084e578063a457c2d714610883578063a86e6ee4146108b3578063a9059cbb146108e3578063b686b2c314610913578063ca15c8731461093157610294565b80638bd317eb116101205780638bd317eb146107645780639010d07c1461079457806391d14854146107c4578063926d7d7f146107f457806395d89b4114610812578063a217fddf1461083057610294565b806367c6e39c1461065657806369fe0e2d14610686578063708e91e5146106b657806370a08231146106e657806380c9dcf7146107165780638456cb591461074657610294565b806332ff99d11161020b5780633c8796e0116101c45780633c8796e01461055a5780633f4ba83a1461058a57806342966c68146105a85780635c975abb146105d8578063604abf9e146105f6578063615a1e2c1461062657610294565b806332ff99d11461045f57806336568abe1461048f57806336bd063a146104ab578063370158ea146104db57806339509351146104fa5780633b89bb861461052a57610294565b806318160ddd1161025d57806318160ddd1461037757806323b872dd14610395578063248a9ca3146103c5578063282d3fdf146103f55780632f2ff15d14610425578063313ce5671461044157610294565b8062aa0bce1461029957806301ffc9a7146102c957806306fdde03146102f9578063095ea7b3146103175780630982d5b014610347575b600080fd5b6102b360048036038101906102ae9190614a95565b610a47565b6040516102c09190615e58565b60405180910390f35b6102e360048036038101906102de9190614e87565b610a6c565b6040516102f091906158d7565b60405180910390f35b610301610ae6565b60405161030e919061597b565b60405180910390f35b610331600480360381019061032c9190614d6d565b610b78565b60405161033e91906158d7565b60405180910390f35b610361600480360381019061035c9190614c2b565b610b96565b60405161036e91906158d7565b60405180910390f35b61037f610c04565b60405161038c9190615e58565b60405180910390f35b6103af60048036038101906103aa9190614bd8565b610c0e565b6040516103bc91906158d7565b60405180910390f35b6103df60048036038101906103da9190614dda565b610ca2565b6040516103ec91906158f2565b60405180910390f35b61040f600480360381019061040a9190614ee1565b610cc2565b60405161041c91906158d7565b60405180910390f35b61043f600480360381019061043a9190614e07565b610cde565b005b610449610d12565b6040516104569190615ed4565b60405180910390f35b61047960048036038101906104749190614d1a565b610d1b565b60405161048691906158d7565b60405180910390f35b6104a960048036038101906104a49190614e07565b610d47565b005b6104c560048036038101906104c09190614a95565b610d7b565b6040516104d29190615e58565b60405180910390f35b6104e3610d8d565b6040516104f1929190615952565b60405180910390f35b610514600480360381019061050f9190614d6d565b610dcd565b60405161052191906158d7565b60405180910390f35b610544600480360381019061053f9190614d6d565b610e79565b60405161055191906158d7565b60405180910390f35b610574600480360381019061056f9190614cda565b611252565b60405161058191906158d7565b60405180910390f35b61059261127c565b60405161059f91906158d7565b60405180910390f35b6105c260048036038101906105bd9190614f88565b6112a1565b6040516105cf91906158d7565b60405180910390f35b6105e06112bd565b6040516105ed91906158d7565b60405180910390f35b610610600480360381019061060b9190614eb4565b6112d4565b60405161061d9190615e3d565b60405180910390f35b610640600480360381019061063b9190614f21565b61137a565b60405161064d91906158d7565b60405180910390f35b610670600480360381019061066b9190614ee1565b6113a8565b60405161067d91906158d7565b60405180910390f35b6106a0600480360381019061069b9190614f88565b6113c4565b6040516106ad91906158d7565b60405180910390f35b6106d060048036038101906106cb9190614d1a565b6113ef565b6040516106dd91906158d7565b60405180910390f35b61070060048036038101906106fb9190614a95565b61141b565b60405161070d9190615e58565b60405180910390f35b610730600480360381019061072b9190614b02565b611464565b60405161073d91906158d7565b60405180910390f35b61074e6118d4565b60405161075b91906158d7565b60405180910390f35b61077e60048036038101906107799190614d6d565b6118f9565b60405161078b91906158d7565b60405180910390f35b6107ae60048036038101906107a99190614e47565b611cb8565b6040516107bb919061585c565b60405180910390f35b6107de60048036038101906107d99190614e07565b611ce7565b6040516107eb91906158d7565b60405180910390f35b6107fc611d52565b60405161080991906158f2565b60405180910390f35b61081a611d76565b604051610827919061597b565b60405180910390f35b610838611e09565b60405161084591906158f2565b60405180910390f35b61086860048036038101906108639190614d6d565b611e10565b60405161087a96959493929190615e73565b60405180910390f35b61089d60048036038101906108989190614d6d565b611ef0565b6040516108aa91906158d7565b60405180910390f35b6108cd60048036038101906108c89190614cda565b611fdb565b6040516108da9190615e58565b60405180910390f35b6108fd60048036038101906108f89190614d6d565b612063565b60405161090a91906158d7565b60405180910390f35b61091b612103565b604051610928919061585c565b60405180910390f35b61094b60048036038101906109469190614dda565b61212e565b6040516109589190615e58565b60405180910390f35b610969612152565b6040516109769190615e58565b60405180910390f35b61099960048036038101906109949190614e07565b61215d565b005b6109b560048036038101906109b09190614eb4565b612191565b6040516109c291906158d7565b60405180910390f35b6109e560048036038101906109e09190614ac2565b6121ab565b6040516109f29190615e58565b60405180910390f35b610a156004803603810190610a109190614ee1565b612232565b604051610a2291906158d7565b60405180910390f35b610a456004803603810190610a409190614f88565b612470565b005b6000610a52826125a8565b610a5b8361141b565b610a659190615fc6565b9050919050565b60007f5a05180f000000000000000000000000000000000000000000000000000000007bffffffffffffffffffffffffffffffffffffffffffffffffffffffff1916827bffffffffffffffffffffffffffffffffffffffffffffffffffffffff19161480610adf5750610ade82612605565b5b9050919050565b606060ff8054610af590616172565b80601f0160208091040260200160405190810160405280929190818152602001828054610b2190616172565b8015610b6e5780601f10610b4357610100808354040283529160200191610b6e565b820191906000526020600020905b815481529060010190602001808311610b5157829003601f168201915b5050505050905090565b6000610b8c610b8561267f565b8484612687565b6001905092915050565b6000603360009054906101000a900460ff1615610be8576040517f08c379a0000000000000000000000000000000000000000000000000000000008152600401610bdf90615bdd565b60405180910390fd5b610bf788888888888888612852565b9050979650505050505050565b600060fe54905090565b6000603360009054906101000a900460ff1615610c60576040517f08c379a0000000000000000000000000000000000000000000000000000000008152600401610c5790615bdd565b60405180910390fd5b60006101995483610c719190615f16565b9050610c7e858583612968565b610c8b8561019954612983565b610c968585856129c2565b60019150509392505050565b600060986000838152602001908152602001600020600101549050919050565b6000610cd6610ccf61267f565b8484612c46565b905092915050565b610ce88282612ffc565b610d0d8160ca600085815260200190815260200160002061302590919063ffffffff16565b505050565b60006012905090565b60008060001b610d3281610d2d61267f565b613055565b610d3d8585856130f2565b9150509392505050565b610d5182826130ff565b610d768160ca600085815260200190815260200160002061318290919063ffffffff16565b505050565b6000610d86826125a8565b9050919050565b60008061016560019054906101000a900473ffffffffffffffffffffffffffffffffffffffff1661016560009054906101000a900460ff16915091509091565b6000610e6f610dda61267f565b848460fd6000610de861267f565b73ffffffffffffffffffffffffffffffffffffffff1673ffffffffffffffffffffffffffffffffffffffff16815260200190815260200160002060008873ffffffffffffffffffffffffffffffffffffffff1673ffffffffffffffffffffffffffffffffffffffff16815260200190815260200160002054610e6a9190615f16565b612687565b6001905092915050565b60008061012e60008573ffffffffffffffffffffffffffffffffffffffff1673ffffffffffffffffffffffffffffffffffffffff16815260200190815260200160002060008481526020019081526020016000209050600081600401541415610f17576040517f08c379a0000000000000000000000000000000000000000000000000000000008152600401610f0e90615dbd565b60405180910390fd5b8373ffffffffffffffffffffffffffffffffffffffff16610f3661267f565b73ffffffffffffffffffffffffffffffffffffffff161480610fae57508060030160009054906101000a900473ffffffffffffffffffffffffffffffffffffffff1673ffffffffffffffffffffffffffffffffffffffff16610f9661267f565b73ffffffffffffffffffffffffffffffffffffffff16145b610fed576040517f08c379a0000000000000000000000000000000000000000000000000000000008152600401610fe490615d7d565b60405180910390fd5b43816004015411611033576040517f08c379a000000000000000000000000000000000000000000000000000000000815260040161102a90615add565b60405180910390fd5b600160038111156110475761104661621d565b5b8160050160009054906101000a900460ff16600381111561106b5761106a61621d565b5b146110ab576040517f08c379a00000000000000000000000000000000000000000000000000000000081526004016110a290615c9d565b60405180910390fd5b60008160030160009054906101000a900473ffffffffffffffffffffffffffffffffffffffff16905060008260020160009054906101000a900473ffffffffffffffffffffffffffffffffffffffff1690506000836001015490506000846000015490506000828261111d9190615f16565b9050600361012e60008b73ffffffffffffffffffffffffffffffffffffffff1673ffffffffffffffffffffffffffffffffffffffff16815260200190815260200160002060008a815260200190815260200160002060050160006101000a81548160ff021916908360038111156111975761119661621d565b5b02179055508061012f60008b73ffffffffffffffffffffffffffffffffffffffff1673ffffffffffffffffffffffffffffffffffffffff168152602001908152602001600020546111e89190615fc6565b61012f60008b73ffffffffffffffffffffffffffffffffffffffff1673ffffffffffffffffffffffffffffffffffffffff168152602001908152602001600020819055506112378986856129c2565b6112428985846129c2565b6001965050505050505092915050565b60008060001b6112698161126461267f565b613055565b61127384846131b2565b91505092915050565b60008060001b6112938161128e61267f565b613055565b61129b6131be565b91505090565b60006112b46112ae61267f565b8361327d565b60019050919050565b6000603360009054906101000a900460ff16905090565b6112dc61495c565b61016360008373ffffffffffffffffffffffffffffffffffffffff1673ffffffffffffffffffffffffffffffffffffffff1681526020019081526020016000206040518060400160405290816000820160009054906101000a900463ffffffff1663ffffffff1663ffffffff1681526020016000820160049054906101000a900463ffffffff1663ffffffff1663ffffffff16815250509050919050565b60008060001b6113918161138c61267f565b613055565b61139d86868686613456565b915050949350505050565b60006113bc6113b561267f565b84846130f2565b905092915050565b60008060001b6113db816113d661267f565b613055565b6113e483613581565b506001915050919050565b60008060001b6114068161140161267f565b613055565b611411858585612c46565b9150509392505050565b600060fc60008373ffffffffffffffffffffffffffffffffffffffff1673ffffffffffffffffffffffffffffffffffffffff168152602001908152602001600020549050919050565b60008061012e60008c73ffffffffffffffffffffffffffffffffffffffff1673ffffffffffffffffffffffffffffffffffffffff168152602001908152602001600020600087815260200190815260200160002060040154146114fc576040517f08c379a00000000000000000000000000000000000000000000000000000000081526004016114f390615d1d565b60405180910390fd5b43841161153e576040517f08c379a000000000000000000000000000000000000000000000000000000000815260040161153590615e1d565b60405180910390fd5b600073ffffffffffffffffffffffffffffffffffffffff168873ffffffffffffffffffffffffffffffffffffffff1614156115ae576040517f08c379a00000000000000000000000000000000000000000000000000000000081526004016115a590615a7d565b60405180910390fd5b600086886115bc9190615f16565b9050806115c88c6125a8565b1015611609576040517f08c379a000000000000000000000000000000000000000000000000000000000815260040161160090615b9d565b60405180910390fd5b6000600446308e8e8d8d8d8d60405160200161162d99989796959493929190615759565b604051602081830303815290604052805190602001209050611694818d87878080601f016020809104026020016040519081016040528093929190818152602001838380828437600081840152601f19601f82011690508083019250505050505050613594565b506040518060c001604052808a81526020018981526020018c73ffffffffffffffffffffffffffffffffffffffff1681526020018b73ffffffffffffffffffffffffffffffffffffffff168152602001878152602001600160038111156116fe576116fd61621d565b5b81525061012e60008e73ffffffffffffffffffffffffffffffffffffffff1673ffffffffffffffffffffffffffffffffffffffff1681526020019081526020016000206000898152602001908152602001600020600082015181600001556020820151816001015560408201518160020160006101000a81548173ffffffffffffffffffffffffffffffffffffffff021916908373ffffffffffffffffffffffffffffffffffffffff16021790555060608201518160030160006101000a81548173ffffffffffffffffffffffffffffffffffffffff021916908373ffffffffffffffffffffffffffffffffffffffff1602179055506080820151816004015560a08201518160050160006101000a81548160ff021916908360038111156118295761182861621d565b5b02179055509050508161012f60008e73ffffffffffffffffffffffffffffffffffffffff1673ffffffffffffffffffffffffffffffffffffffff1681526020019081526020016000205461187d9190615f16565b61012f60008e73ffffffffffffffffffffffffffffffffffffffff1673ffffffffffffffffffffffffffffffffffffffff168152602001908152602001600020819055506001925050509998505050505050505050565b60008060001b6118eb816118e661267f565b613055565b6118f3613634565b91505090565b60008061012e60008573ffffffffffffffffffffffffffffffffffffffff1673ffffffffffffffffffffffffffffffffffffffff16815260200190815260200160002060008481526020019081526020016000209050600081600401541415611997576040517f08c379a000000000000000000000000000000000000000000000000000000000815260040161198e90615dbd565b60405180910390fd5b8373ffffffffffffffffffffffffffffffffffffffff166119b661267f565b73ffffffffffffffffffffffffffffffffffffffff161480611a2e57508060030160009054906101000a900473ffffffffffffffffffffffffffffffffffffffff1673ffffffffffffffffffffffffffffffffffffffff16611a1661267f565b73ffffffffffffffffffffffffffffffffffffffff16145b611a6d576040517f08c379a0000000000000000000000000000000000000000000000000000000008152600401611a6490615c3d565b60405180910390fd5b438160040154111580611ad657508060030160009054906101000a900473ffffffffffffffffffffffffffffffffffffffff1673ffffffffffffffffffffffffffffffffffffffff16611abe61267f565b73ffffffffffffffffffffffffffffffffffffffff16145b611b15576040517f08c379a0000000000000000000000000000000000000000000000000000000008152600401611b0c90615bbd565b60405180910390fd5b60016003811115611b2957611b2861621d565b5b8160050160009054906101000a900460ff166003811115611b4d57611b4c61621d565b5b14611b8d576040517f08c379a0000000000000000000000000000000000000000000000000000000008152600401611b8490615b3d565b60405180910390fd5b600261012e60008673ffffffffffffffffffffffffffffffffffffffff1673ffffffffffffffffffffffffffffffffffffffff168152602001908152602001600020600085815260200190815260200160002060050160006101000a81548160ff02191690836003811115611c0557611c0461621d565b5b02179055508060010154816000015461012f60008773ffffffffffffffffffffffffffffffffffffffff1673ffffffffffffffffffffffffffffffffffffffff16815260200190815260200160002054611c5f9190615fc6565b611c699190615fc6565b61012f60008673ffffffffffffffffffffffffffffffffffffffff1673ffffffffffffffffffffffffffffffffffffffff16815260200190815260200160002081905550600191505092915050565b6000611cdf8260ca60008681526020019081526020016000206136f490919063ffffffff16565b905092915050565b60006098600084815260200190815260200160002060000160008373ffffffffffffffffffffffffffffffffffffffff1673ffffffffffffffffffffffffffffffffffffffff16815260200190815260200160002060009054906101000a900460ff16905092915050565b7fe2b7fb3b832174769106daebcfd6d1970523240dda11281102db9363b83b0dc481565b60606101008054611d8690616172565b80601f0160208091040260200160405190810160405280929190818152602001828054611db290616172565b8015611dff5780601f10611dd457610100808354040283529160200191611dff565b820191906000526020600020905b815481529060010190602001808311611de257829003601f168201915b5050505050905090565b6000801b81565b600080600080600080600061012e60008a73ffffffffffffffffffffffffffffffffffffffff1673ffffffffffffffffffffffffffffffffffffffff1681526020019081526020016000206000898152602001908152602001600020905080600001549650806001015495508060020160009054906101000a900473ffffffffffffffffffffffffffffffffffffffff1694508060030160009054906101000a900473ffffffffffffffffffffffffffffffffffffffff169350806004015492508060050160009054906101000a900460ff169150509295509295509295565b60008060fd6000611eff61267f565b73ffffffffffffffffffffffffffffffffffffffff1673ffffffffffffffffffffffffffffffffffffffff16815260200190815260200160002060008573ffffffffffffffffffffffffffffffffffffffff1673ffffffffffffffffffffffffffffffffffffffff16815260200190815260200160002054905082811015611fbc576040517f08c379a0000000000000000000000000000000000000000000000000000000008152600401611fb390615ddd565b60405180910390fd5b611fd0611fc761267f565b85858403612687565b600191505092915050565b600061016260008473ffffffffffffffffffffffffffffffffffffffff1673ffffffffffffffffffffffffffffffffffffffff16815260200190815260200160002060008373ffffffffffffffffffffffffffffffffffffffff1673ffffffffffffffffffffffffffffffffffffffff16815260200190815260200160002054905092915050565b6000603360009054906101000a900460ff16156120b5576040517f08c379a00000000000000000000000000000000000000000000000000000000081526004016120ac90615bdd565b60405180910390fd5b600061019954836120c69190615f16565b905060006120d261267f565b90506120df818684612968565b6120ec8161019954612983565b6120f78186866129c2565b60019250505092915050565b600061019860009054906101000a900473ffffffffffffffffffffffffffffffffffffffff16905090565b600061214b60ca600084815260200190815260200160002061370e565b9050919050565b600061019954905090565b6121678282613723565b61218c8160ca600085815260200190815260200160002061318290919063ffffffff16565b505050565b60006121a461219e61267f565b836131b2565b9050919050565b600060fd60008473ffffffffffffffffffffffffffffffffffffffff1673ffffffffffffffffffffffffffffffffffffffff16815260200190815260200160002060008373ffffffffffffffffffffffffffffffffffffffff1673ffffffffffffffffffffffffffffffffffffffff16815260200190815260200160002054905092915050565b60008061223d61267f565b9050600061016260008373ffffffffffffffffffffffffffffffffffffffff1673ffffffffffffffffffffffffffffffffffffffff16815260200190815260200160002060008673ffffffffffffffffffffffffffffffffffffffff1673ffffffffffffffffffffffffffffffffffffffff16815260200190815260200160002054905083811015612304576040517f08c379a00000000000000000000000000000000000000000000000000000000081526004016122fb90615d3d565b60405180910390fd5b8361016260008473ffffffffffffffffffffffffffffffffffffffff1673ffffffffffffffffffffffffffffffffffffffff16815260200190815260200160002060008773ffffffffffffffffffffffffffffffffffffffff1673ffffffffffffffffffffffffffffffffffffffff16815260200190815260200160002060008282546123919190615fc6565b925050819055508473ffffffffffffffffffffffffffffffffffffffff1663a9059cbb83866040518363ffffffff1660e01b81526004016123d39291906158ae565b602060405180830381600087803b1580156123ed57600080fd5b505af1158015612401573d6000803e3d6000fd5b505050506040513d601f19601f820116820180604052508101906124259190614dad565b612464576040517f08c379a000000000000000000000000000000000000000000000000000000000815260040161245b90615d9d565b60405180910390fd5b60019250505092915050565b600060019054906101000a900460ff1680612496575060008054906101000a900460ff16155b6124d5576040517f08c379a00000000000000000000000000000000000000000000000000000000081526004016124cc90615c1d565b60405180910390fd5b60008060019054906101000a900460ff161590508015612525576001600060016101000a81548160ff02191690831515021790555060016000806101000a81548160ff0219169083151502179055505b61252d61374c565b612535613825565b61254630612541610d12565b6138fe565b61254e613a37565b612556613b10565b61255e613be9565b61256f61256961267f565b83613cf3565b6125836000801b61257e61267f565b613e18565b80156125a45760008060016101000a81548160ff0219169083151502179055505b5050565b600061012f60008373ffffffffffffffffffffffffffffffffffffffff1673ffffffffffffffffffffffffffffffffffffffff168152602001908152602001600020546125f48361141b565b6125fe9190615fc6565b9050919050565b60007f7965db0b000000000000000000000000000000000000000000000000000000007bffffffffffffffffffffffffffffffffffffffffffffffffffffffff1916827bffffffffffffffffffffffffffffffffffffffffffffffffffffffff19161480612678575061267782613e4c565b5b9050919050565b600033905090565b600073ffffffffffffffffffffffffffffffffffffffff168373ffffffffffffffffffffffffffffffffffffffff1614156126f7576040517f08c379a00000000000000000000000000000000000000000000000000000000081526004016126ee90615d5d565b60405180910390fd5b600073ffffffffffffffffffffffffffffffffffffffff168273ffffffffffffffffffffffffffffffffffffffff161415612767576040517f08c379a000000000000000000000000000000000000000000000000000000000815260040161275e90615abd565b60405180910390fd5b8060fd60008573ffffffffffffffffffffffffffffffffffffffff1673ffffffffffffffffffffffffffffffffffffffff16815260200190815260200160002060008473ffffffffffffffffffffffffffffffffffffffff1673ffffffffffffffffffffffffffffffffffffffff168152602001908152602001600020819055508173ffffffffffffffffffffffffffffffffffffffff168373ffffffffffffffffffffffffffffffffffffffff167f8c5be1e5ebec7d5bd14f71427d1e84f3dd0314c0f7b2291e5b200ac8c7c3b925836040516128459190615e58565b60405180910390a3505050565b60008061285e8961141b565b9050858761286c9190615f16565b8110156128ae576040517f08c379a00000000000000000000000000000000000000000000000000000000081526004016128a590615c7d565b60405180910390fd5b6128b88986613eb6565b6000600346308c8c8c8c8c6040516020016128da9897969594939291906156c7565b604051602081830303815290604052805190602001209050612941818b87878080601f016020809104026020016040519081016040528093929190818152602001838380828437600081840152601f19601f82011690508083019250505050505050613594565b5061294c8a88612983565b6129578a8a8a6129c2565b600192505050979650505050505050565b612973838383613fc3565b61297e83838361401e565b505050565b60006129b07fe2b7fb3b832174769106daebcfd6d1970523240dda11281102db9363b83b0dc46000611cb8565b90506129bd8382846129c2565b505050565b600073ffffffffffffffffffffffffffffffffffffffff168373ffffffffffffffffffffffffffffffffffffffff161415612a32576040517f08c379a0000000000000000000000000000000000000000000000000000000008152600401612a2990615cdd565b60405180910390fd5b600073ffffffffffffffffffffffffffffffffffffffff168273ffffffffffffffffffffffffffffffffffffffff161415612aa2576040517f08c379a0000000000000000000000000000000000000000000000000000000008152600401612a99906159dd565b60405180910390fd5b612aad838383612968565b600060fc60008573ffffffffffffffffffffffffffffffffffffffff1673ffffffffffffffffffffffffffffffffffffffff16815260200190815260200160002054905081811015612b34576040517f08c379a0000000000000000000000000000000000000000000000000000000008152600401612b2b90615b1d565b60405180910390fd5b81810360fc60008673ffffffffffffffffffffffffffffffffffffffff1673ffffffffffffffffffffffffffffffffffffffff168152602001908152602001600020819055508160fc60008573ffffffffffffffffffffffffffffffffffffffff1673ffffffffffffffffffffffffffffffffffffffff1681526020019081526020016000206000828254612bc99190615f16565b925050819055508273ffffffffffffffffffffffffffffffffffffffff168473ffffffffffffffffffffffffffffffffffffffff167fddf252ad1be2c89b69c2b068fc378daa952ba7f163c4a11628f55a4df523b3ef84604051612c2d9190615e58565b60405180910390a3612c408484846140ae565b50505050565b6000808373ffffffffffffffffffffffffffffffffffffffff166370a08231866040518263ffffffff1660e01b8152600401612c82919061585c565b60206040518083038186803b158015612c9a57600080fd5b505afa158015612cae573d6000803e3d6000fd5b505050506040513d601f19601f82011682018060405250810190612cd29190614fb5565b9050600061016360008673ffffffffffffffffffffffffffffffffffffffff1673ffffffffffffffffffffffffffffffffffffffff16815260200190815260200160002060000160009054906101000a900463ffffffff1663ffffffff1611612d70576040517f08c379a0000000000000000000000000000000000000000000000000000000008152600401612d6790615bfd565b60405180910390fd5b82811015612db3576040517f08c379a0000000000000000000000000000000000000000000000000000000008152600401612daa906159fd565b60405180910390fd5b8373ffffffffffffffffffffffffffffffffffffffff166323b872dd8630866040518463ffffffff1660e01b8152600401612df093929190615877565b602060405180830381600087803b158015612e0a57600080fd5b505af1158015612e1e573d6000803e3d6000fd5b505050506040513d601f19601f82011682018060405250810190612e429190614dad565b612e81576040517f08c379a0000000000000000000000000000000000000000000000000000000008152600401612e7890615d9d565b60405180910390fd5b8261016260008773ffffffffffffffffffffffffffffffffffffffff1673ffffffffffffffffffffffffffffffffffffffff16815260200190815260200160002060008673ffffffffffffffffffffffffffffffffffffffff1673ffffffffffffffffffffffffffffffffffffffff16815260200190815260200160002054612f0a9190615f16565b61016260008773ffffffffffffffffffffffffffffffffffffffff1673ffffffffffffffffffffffffffffffffffffffff16815260200190815260200160002060008673ffffffffffffffffffffffffffffffffffffffff1673ffffffffffffffffffffffffffffffffffffffff168152602001908152602001600020819055508373ffffffffffffffffffffffffffffffffffffffff168573ffffffffffffffffffffffffffffffffffffffff167f989eaa915cbb416ea3d6f9a63b1a3de51770c7674b11fe21ecdf76b4e1d1391085604051612fe89190615e58565b60405180910390a360019150509392505050565b61300582610ca2565b6130168161301161267f565b613055565b61302083836140b3565b505050565b600061304d836000018373ffffffffffffffffffffffffffffffffffffffff1660001b614194565b905092915050565b61305f8282611ce7565b6130ee576130848173ffffffffffffffffffffffffffffffffffffffff166014614204565b6130928360001c6020614204565b6040516020016130a3929190615822565b6040516020818303038152906040526040517f08c379a00000000000000000000000000000000000000000000000000000000081526004016130e5919061597b565b60405180910390fd5b5050565b6000600190509392505050565b61310761267f565b73ffffffffffffffffffffffffffffffffffffffff168173ffffffffffffffffffffffffffffffffffffffff1614613174576040517f08c379a000000000000000000000000000000000000000000000000000000000815260040161316b90615dfd565b60405180910390fd5b61317e8282614440565b5050565b60006131aa836000018373ffffffffffffffffffffffffffffffffffffffff1660001b614522565b905092915050565b60006001905092915050565b6000603360009054906101000a900460ff1661320f576040517f08c379a000000000000000000000000000000000000000000000000000000000815260040161320690615a1d565b60405180910390fd5b6000603360006101000a81548160ff0219169083151502179055507f5db9ee0a495bf2e6ff9c91a7834c1ba4fdd244a5e8aa4e537bd38aeae4b073aa61325361267f565b604051613260919061585c565b60405180910390a1603360009054906101000a900460ff16905090565b600073ffffffffffffffffffffffffffffffffffffffff168273ffffffffffffffffffffffffffffffffffffffff1614156132ed576040517f08c379a00000000000000000000000000000000000000000000000000000000081526004016132e490615cbd565b60405180910390fd5b6132f982600083612968565b600060fc60008473ffffffffffffffffffffffffffffffffffffffff1673ffffffffffffffffffffffffffffffffffffffff16815260200190815260200160002054905081811015613380576040517f08c379a000000000000000000000000000000000000000000000000000000000815260040161337790615a5d565b60405180910390fd5b81810360fc60008573ffffffffffffffffffffffffffffffffffffffff1673ffffffffffffffffffffffffffffffffffffffff168152602001908152602001600020819055508160fe60008282546133d89190615fc6565b92505081905550600073ffffffffffffffffffffffffffffffffffffffff168373ffffffffffffffffffffffffffffffffffffffff167fddf252ad1be2c89b69c2b068fc378daa952ba7f163c4a11628f55a4df523b3ef8460405161343d9190615e58565b60405180910390a3613451836000846140ae565b505050565b60008361016460008773ffffffffffffffffffffffffffffffffffffffff1673ffffffffffffffffffffffffffffffffffffffff16815260200190815260200160002060006101000a81548160ff021916908360ff1602179055508261016360008773ffffffffffffffffffffffffffffffffffffffff1673ffffffffffffffffffffffffffffffffffffffff16815260200190815260200160002060000160006101000a81548163ffffffff021916908363ffffffff1602179055508161016360008773ffffffffffffffffffffffffffffffffffffffff1673ffffffffffffffffffffffffffffffffffffffff16815260200190815260200160002060000160046101000a81548163ffffffff021916908363ffffffff16021790555060019050949350505050565b6000816101998190555060019050919050565b6000806135a085614636565b905060006135b7848361466690919063ffffffff16565b90508473ffffffffffffffffffffffffffffffffffffffff168173ffffffffffffffffffffffffffffffffffffffff1614613627576040517f08c379a000000000000000000000000000000000000000000000000000000000815260040161361e90615a3d565b60405180910390fd5b6001925050509392505050565b6000603360009054906101000a900460ff1615613686576040517f08c379a000000000000000000000000000000000000000000000000000000000815260040161367d90615bdd565b60405180910390fd5b6001603360006101000a81548160ff0219169083151502179055507f62e78cea01bee320cd4e420270b5ea74000d11b0c9f74754ebdbfc544b05a2586136ca61267f565b6040516136d7919061585c565b60405180910390a1603360009054906101000a900460ff16905090565b60006137038360000183614715565b60001c905092915050565b600061371c82600001614740565b9050919050565b61372c82610ca2565b61373d8161373861267f565b613055565b6137478383614440565b505050565b600060019054906101000a900460ff1680613772575060008054906101000a900460ff16155b6137b1576040517f08c379a00000000000000000000000000000000000000000000000000000000081526004016137a890615c1d565b60405180910390fd5b60008060019054906101000a900460ff161590508015613801576001600060016101000a81548160ff02191690831515021790555060016000806101000a81548160ff0219169083151502179055505b80156138225760008060016101000a81548160ff0219169083151502179055505b50565b600060019054906101000a900460ff168061384b575060008054906101000a900460ff16155b61388a576040517f08c379a000000000000000000000000000000000000000000000000000000000815260040161388190615c1d565b60405180910390fd5b60008060019054906101000a900460ff1615905080156138da576001600060016101000a81548160ff02191690831515021790555060016000806101000a81548160ff0219169083151502179055505b80156138fb5760008060016101000a81548160ff0219169083151502179055505b50565b600060019054906101000a900460ff1680613924575060008054906101000a900460ff16155b613963576040517f08c379a000000000000000000000000000000000000000000000000000000000815260040161395a90615c1d565b60405180910390fd5b60008060019054906101000a900460ff1615905080156139b3576001600060016101000a81548160ff02191690831515021790555060016000806101000a81548160ff0219169083151502179055505b8261016560016101000a81548173ffffffffffffffffffffffffffffffffffffffff021916908373ffffffffffffffffffffffffffffffffffffffff1602179055508161016560006101000a81548160ff021916908360ff1602179055508015613a325760008060016101000a81548160ff0219169083151502179055505b505050565b600060019054906101000a900460ff1680613a5d575060008054906101000a900460ff16155b613a9c576040517f08c379a0000000000000000000000000000000000000000000000000000000008152600401613a9390615c1d565b60405180910390fd5b60008060019054906101000a900460ff161590508015613aec576001600060016101000a81548160ff02191690831515021790555060016000806101000a81548160ff0219169083151502179055505b8015613b0d5760008060016101000a81548160ff0219169083151502179055505b50565b600060019054906101000a900460ff1680613b36575060008054906101000a900460ff16155b613b75576040517f08c379a0000000000000000000000000000000000000000000000000000000008152600401613b6c90615c1d565b60405180910390fd5b60008060019054906101000a900460ff161590508015613bc5576001600060016101000a81548160ff02191690831515021790555060016000806101000a81548160ff0219169083151502179055505b8015613be65760008060016101000a81548160ff0219169083151502179055505b50565b600060019054906101000a900460ff1680613c0f575060008054906101000a900460ff16155b613c4e576040517f08c379a0000000000000000000000000000000000000000000000000000000008152600401613c4590615c1d565b60405180910390fd5b60008060019054906101000a900460ff161590508015613c9e576001600060016101000a81548160ff02191690831515021790555060016000806101000a81548160ff0219169083151502179055505b613ccf7fe2b7fb3b832174769106daebcfd6d1970523240dda11281102db9363b83b0dc4613cca61267f565b613e18565b8015613cf05760008060016101000a81548160ff0219169083151502179055505b50565b600060019054906101000a900460ff1680613d19575060008054906101000a900460ff16155b613d58576040517f08c379a0000000000000000000000000000000000000000000000000000000008152600401613d4f90615c1d565b60405180910390fd5b60008060019054906101000a900460ff161590508015613da8576001600060016101000a81548160ff02191690831515021790555060016000806101000a81548160ff0219169083151502179055505b8261019860006101000a81548173ffffffffffffffffffffffffffffffffffffffff021916908373ffffffffffffffffffffffffffffffffffffffff16021790555081610199819055508015613e135760008060016101000a81548160ff0219169083151502179055505b505050565b613e228282614751565b613e478160ca600085815260200190815260200160002061302590919063ffffffff16565b505050565b60007f01ffc9a7000000000000000000000000000000000000000000000000000000007bffffffffffffffffffffffffffffffffffffffffffffffffffffffff1916827bffffffffffffffffffffffffffffffffffffffffffffffffffffffff1916149050919050565b6101cc60008373ffffffffffffffffffffffffffffffffffffffff1673ffffffffffffffffffffffffffffffffffffffff168152602001908152602001600020600082815260200190815260200160002060009054906101000a900460ff1615613f55576040517f08c379a0000000000000000000000000000000000000000000000000000000008152600401613f4c90615afd565b60405180910390fd5b60016101cc60008473ffffffffffffffffffffffffffffffffffffffff1673ffffffffffffffffffffffffffffffffffffffff168152602001908152602001600020600083815260200190815260200160002060006101000a81548160ff0219169083151502179055505050565b80613fcd8461141b565b101561400e576040517f08c379a000000000000000000000000000000000000000000000000000000000815260040161400590615b7d565b60405180910390fd5b61401983838361475f565b505050565b600073ffffffffffffffffffffffffffffffffffffffff168373ffffffffffffffffffffffffffffffffffffffff161461409e578061405c846125a8565b101561409d576040517f08c379a000000000000000000000000000000000000000000000000000000000815260040161409490615cfd565b60405180910390fd5b5b6140a983838361475f565b505050565b505050565b6140bd8282611ce7565b6141905760016098600084815260200190815260200160002060000160008373ffffffffffffffffffffffffffffffffffffffff1673ffffffffffffffffffffffffffffffffffffffff16815260200190815260200160002060006101000a81548160ff02191690831515021790555061413561267f565b73ffffffffffffffffffffffffffffffffffffffff168173ffffffffffffffffffffffffffffffffffffffff16837f2f8788117e7eff1d82e926ec794901d17c78024a50270940304540a733656f0d60405160405180910390a45b5050565b60006141a08383614764565b6141f95782600001829080600181540180825580915050600190039060005260206000200160009091909190915055826000018054905083600101600084815260200190815260200160002081905550600190506141fe565b600090505b92915050565b6060600060028360026142179190615f6c565b6142219190615f16565b67ffffffffffffffff81111561423a576142396162d9565b5b6040519080825280601f01601f19166020018201604052801561426c5781602001600182028036833780820191505090505b5090507f3000000000000000000000000000000000000000000000000000000000000000816000815181106142a4576142a36162aa565b5b60200101907effffffffffffffffffffffffffffffffffffffffffffffffffffffffffffff1916908160001a9053507f780000000000000000000000000000000000000000000000000000000000000081600181518110614308576143076162aa565b5b60200101907effffffffffffffffffffffffffffffffffffffffffffffffffffffffffffff1916908160001a905350600060018460026143489190615f6c565b6143529190615f16565b90505b60018111156143f2577f3031323334353637383961626364656600000000000000000000000000000000600f861660108110614394576143936162aa565b5b1a60f81b8282815181106143ab576143aa6162aa565b5b60200101907effffffffffffffffffffffffffffffffffffffffffffffffffffffffffffff1916908160001a905350600485901c9450806143eb90616148565b9050614355565b5060008414614436576040517f08c379a000000000000000000000000000000000000000000000000000000000815260040161442d906159bd565b60405180910390fd5b8091505092915050565b61444a8282611ce7565b1561451e5760006098600084815260200190815260200160002060000160008373ffffffffffffffffffffffffffffffffffffffff1673ffffffffffffffffffffffffffffffffffffffff16815260200190815260200160002060006101000a81548160ff0219169083151502179055506144c361267f565b73ffffffffffffffffffffffffffffffffffffffff168173ffffffffffffffffffffffffffffffffffffffff16837ff6391f5c32d9c69d2a47ea670b442974b53935d1edc7fd64eb21e047a839171b60405160405180910390a45b5050565b6000808360010160008481526020019081526020016000205490506000811461462a5760006001826145549190615fc6565b905060006001866000018054905061456c9190615fc6565b90508181146145db57600086600001828154811061458d5761458c6162aa565b5b90600052602060002001549050808760000184815481106145b1576145b06162aa565b5b90600052602060002001819055508387600101600083815260200190815260200160002081905550505b856000018054806145ef576145ee61627b565b5b600190038181906000526020600020016000905590558560010160008681526020019081526020016000206000905560019350505050614630565b60009150505b92915050565b60008160405160200161464991906157fc565b604051602081830303815290604052805190602001209050919050565b60006041825114156146a55760008060006020850151925060408501519150606085015160001a905061469b86828585614787565b935050505061470f565b6040825114156146d45760008060208401519150604084015190506146cb858383614912565b9250505061470f565b6040517f08c379a000000000000000000000000000000000000000000000000000000000815260040161470690615a9d565b60405180910390fd5b92915050565b600082600001828154811061472d5761472c6162aa565b5b9060005260206000200154905092915050565b600081600001805490509050919050565b61475b82826140b3565b5050565b505050565b600080836001016000848152602001908152602001600020541415905092915050565b60007f7fffffffffffffffffffffffffffffff5d576e7357a4501ddfe92f46681b20a08260001c11156147ef576040517f08c379a00000000000000000000000000000000000000000000000000000000081526004016147e690615b5d565b60405180910390fd5b601b8460ff1614806148045750601c8460ff16145b614843576040517f08c379a000000000000000000000000000000000000000000000000000000000815260040161483a90615c5d565b60405180910390fd5b600060018686868660405160008152602001604052604051614868949392919061590d565b6020604051602081039080840390855afa15801561488a573d6000803e3d6000fd5b505050602060405103519050600073ffffffffffffffffffffffffffffffffffffffff168173ffffffffffffffffffffffffffffffffffffffff161415614906576040517f08c379a00000000000000000000000000000000000000000000000000000000081526004016148fd9061599d565b60405180910390fd5b80915050949350505050565b60008060007f7fffffffffffffffffffffffffffffffffffffffffffffffffffffffffffffff84169150601b8460ff1c01905061495186828785614787565b925050509392505050565b6040518060400160405280600063ffffffff168152602001600063ffffffff1681525090565b60008135905061499181616ee8565b92915050565b6000815190506149a681616eff565b92915050565b6000813590506149bb81616f16565b92915050565b6000813590506149d081616f2d565b92915050565b60008083601f8401126149ec576149eb61630d565b5b8235905067ffffffffffffffff811115614a0957614a08616308565b5b602083019150836001820283011115614a2557614a24616312565b5b9250929050565b600081359050614a3b81616f44565b92915050565b600081359050614a5081616f5b565b92915050565b600081519050614a6581616f5b565b92915050565b600081359050614a7a81616f72565b92915050565b600081359050614a8f81616f89565b92915050565b600060208284031215614aab57614aaa61631c565b5b6000614ab984828501614982565b91505092915050565b60008060408385031215614ad957614ad861631c565b5b6000614ae785828601614982565b9250506020614af885828601614982565b9150509250929050565b60008060008060008060008060006101008a8c031215614b2557614b2461631c565b5b6000614b338c828d01614982565b9950506020614b448c828d01614982565b9850506040614b558c828d01614982565b9750506060614b668c828d01614a41565b9650506080614b778c828d01614a41565b95505060a0614b888c828d01614a41565b94505060c0614b998c828d01614a41565b93505060e08a013567ffffffffffffffff811115614bba57614bb9616317565b5b614bc68c828d016149d6565b92509250509295985092959850929598565b600080600060608486031215614bf157614bf061631c565b5b6000614bff86828701614982565b9350506020614c1086828701614982565b9250506040614c2186828701614a41565b9150509250925092565b600080600080600080600060c0888a031215614c4a57614c4961631c565b5b6000614c588a828b01614982565b9750506020614c698a828b01614982565b9650506040614c7a8a828b01614a41565b9550506060614c8b8a828b01614a41565b9450506080614c9c8a828b01614a41565b93505060a088013567ffffffffffffffff811115614cbd57614cbc616317565b5b614cc98a828b016149d6565b925092505092959891949750929550565b60008060408385031215614cf157614cf061631c565b5b6000614cff85828601614982565b9250506020614d1085828601614a2c565b9150509250929050565b600080600060608486031215614d3357614d3261631c565b5b6000614d4186828701614982565b9350506020614d5286828701614a2c565b9250506040614d6386828701614a41565b9150509250925092565b60008060408385031215614d8457614d8361631c565b5b6000614d9285828601614982565b9250506020614da385828601614a41565b9150509250929050565b600060208284031215614dc357614dc261631c565b5b6000614dd184828501614997565b91505092915050565b600060208284031215614df057614def61631c565b5b6000614dfe848285016149ac565b91505092915050565b60008060408385031215614e1e57614e1d61631c565b5b6000614e2c858286016149ac565b9250506020614e3d85828601614982565b9150509250929050565b60008060408385031215614e5e57614e5d61631c565b5b6000614e6c858286016149ac565b9250506020614e7d85828601614a41565b9150509250929050565b600060208284031215614e9d57614e9c61631c565b5b6000614eab848285016149c1565b91505092915050565b600060208284031215614eca57614ec961631c565b5b6000614ed884828501614a2c565b91505092915050565b60008060408385031215614ef857614ef761631c565b5b6000614f0685828601614a2c565b9250506020614f1785828601614a41565b9150509250929050565b60008060008060808587031215614f3b57614f3a61631c565b5b6000614f4987828801614a2c565b9450506020614f5a87828801614a80565b9350506040614f6b87828801614a6b565b9250506060614f7c87828801614a6b565b91505092959194509250565b600060208284031215614f9e57614f9d61631c565b5b6000614fac84828501614a41565b91505092915050565b600060208284031215614fcb57614fca61631c565b5b6000614fd984828501614a56565b91505092915050565b614feb81615ffa565b82525050565b615002614ffd82615ffa565b6161a4565b82525050565b6150118161600c565b82525050565b61502081616018565b82525050565b61503761503282616018565b6161b6565b82525050565b615046816160cd565b82525050565b615055816160f1565b82525050565b61506c61506782616103565b6161dc565b82525050565b600061507d82615eef565b6150878185615efa565b9350615097818560208601616115565b6150a081616321565b840191505092915050565b60006150b682615eef565b6150c08185615f0b565b93506150d0818560208601616115565b80840191505092915050565b60006150e9601883615efa565b91506150f48261634c565b602082019050919050565b600061510c602083615efa565b915061511782616375565b602082019050919050565b600061512f602383615efa565b915061513a8261639e565b604082019050919050565b6000615152604083615efa565b915061515d826163ed565b604082019050919050565b6000615175601483615efa565b91506151808261643c565b602082019050919050565b6000615198601b83615efa565b91506151a382616465565b602082019050919050565b60006151bb602283615efa565b91506151c68261648e565b604082019050919050565b60006151de603183615efa565b91506151e9826164dd565b604082019050919050565b6000615201601f83615efa565b915061520c8261652c565b602082019050919050565b6000615224601c83615f0b565b915061522f82616555565b601c82019050919050565b6000615247602283615efa565b91506152528261657e565b604082019050919050565b600061526a603f83615efa565b9150615275826165cd565b604082019050919050565b600061528d603983615efa565b91506152988261661c565b604082019050919050565b60006152b0602683615efa565b91506152bb8261666b565b604082019050919050565b60006152d3603683615efa565b91506152de826166ba565b604082019050919050565b60006152f6602283615efa565b915061530182616709565b604082019050919050565b6000615319601b83615efa565b915061532482616758565b602082019050919050565b600061533c603083615efa565b915061534782616781565b604082019050919050565b600061535f606083615efa565b915061536a826167d0565b606082019050919050565b6000615382601083615efa565b915061538d82616845565b602082019050919050565b60006153a5602d83615efa565b91506153b08261686e565b604082019050919050565b60006153c8602e83615efa565b91506153d3826168bd565b604082019050919050565b60006153eb605f83615efa565b91506153f68261690c565b606082019050919050565b600061540e602283615efa565b915061541982616981565b604082019050919050565b6000615431602b83615efa565b915061543c826169d0565b604082019050919050565b6000615454603683615efa565b915061545f82616a1f565b604082019050919050565b6000615477602183615efa565b915061548282616a6e565b604082019050919050565b600061549a602583615efa565b91506154a582616abd565b604082019050919050565b60006154bd603b83615efa565b91506154c882616b0c565b604082019050919050565b60006154e0603283615efa565b91506154eb82616b5b565b604082019050919050565b6000615503604383615efa565b915061550e82616baa565b606082019050919050565b6000615526602483615efa565b915061553182616c1f565b604082019050919050565b6000615549601783615f0b565b915061555482616c6e565b601782019050919050565b600061556c604b83615efa565b915061557782616c97565b606082019050919050565b600061558f602883615efa565b915061559a82616d0c565b604082019050919050565b60006155b2602b83615efa565b91506155bd82616d5b565b604082019050919050565b60006155d5602583615efa565b91506155e082616daa565b604082019050919050565b60006155f8601183615f0b565b915061560382616df9565b601182019050919050565b600061561b602f83615efa565b915061562682616e22565b604082019050919050565b600061563e602c83615efa565b915061564982616e71565b604082019050919050565b60408201600082015161566a60008501826156a9565b50602082015161567d60208501826156a9565b50505050565b61568c816160a6565b82525050565b6156a361569e826160a6565b6161d2565b82525050565b6156b2816160b0565b82525050565b6156c1816160c0565b82525050565b60006156d3828b61505b565b6001820191506156e3828a615692565b6020820191506156f38289614ff1565b6014820191506157038288614ff1565b6014820191506157138287614ff1565b6014820191506157238286615692565b6020820191506157338285615692565b6020820191506157438284615692565b6020820191508190509998505050505050505050565b6000615765828c61505b565b600182019150615775828b615692565b602082019150615785828a614ff1565b6014820191506157958289614ff1565b6014820191506157a58288614ff1565b6014820191506157b58287615692565b6020820191506157c58286615692565b6020820191506157d58285615692565b6020820191506157e58284615692565b6020820191508190509a9950505050505050505050565b600061580782615217565b91506158138284615026565b60208201915081905092915050565b600061582d8261553c565b915061583982856150ab565b9150615844826155eb565b915061585082846150ab565b91508190509392505050565b60006020820190506158716000830184614fe2565b92915050565b600060608201905061588c6000830186614fe2565b6158996020830185614fe2565b6158a66040830184615683565b949350505050565b60006040820190506158c36000830185614fe2565b6158d06020830184615683565b9392505050565b60006020820190506158ec6000830184615008565b92915050565b60006020820190506159076000830184615017565b92915050565b60006080820190506159226000830187615017565b61592f60208301866156b8565b61593c6040830185615017565b6159496060830184615017565b95945050505050565b6000604082019050615967600083018561503d565b61597460208301846156b8565b9392505050565b600060208201905081810360008301526159958184615072565b905092915050565b600060208201905081810360008301526159b6816150dc565b9050919050565b600060208201905081810360008301526159d6816150ff565b9050919050565b600060208201905081810360008301526159f681615122565b9050919050565b60006020820190508181036000830152615a1681615145565b9050919050565b60006020820190508181036000830152615a3681615168565b9050919050565b60006020820190508181036000830152615a568161518b565b9050919050565b60006020820190508181036000830152615a76816151ae565b9050919050565b60006020820190508181036000830152615a96816151d1565b9050919050565b60006020820190508181036000830152615ab6816151f4565b9050919050565b60006020820190508181036000830152615ad68161523a565b9050919050565b60006020820190508181036000830152615af68161525d565b9050919050565b60006020820190508181036000830152615b1681615280565b9050919050565b60006020820190508181036000830152615b36816152a3565b9050919050565b60006020820190508181036000830152615b56816152c6565b9050919050565b60006020820190508181036000830152615b76816152e9565b9050919050565b60006020820190508181036000830152615b968161530c565b9050919050565b60006020820190508181036000830152615bb68161532f565b9050919050565b60006020820190508181036000830152615bd681615352565b9050919050565b60006020820190508181036000830152615bf681615375565b9050919050565b60006020820190508181036000830152615c1681615398565b9050919050565b60006020820190508181036000830152615c36816153bb565b9050919050565b60006020820190508181036000830152615c56816153de565b9050919050565b60006020820190508181036000830152615c7681615401565b9050919050565b60006020820190508181036000830152615c9681615424565b9050919050565b60006020820190508181036000830152615cb681615447565b9050919050565b60006020820190508181036000830152615cd68161546a565b9050919050565b60006020820190508181036000830152615cf68161548d565b9050919050565b60006020820190508181036000830152615d16816154b0565b9050919050565b60006020820190508181036000830152615d36816154d3565b9050919050565b60006020820190508181036000830152615d56816154f6565b9050919050565b60006020820190508181036000830152615d7681615519565b9050919050565b60006020820190508181036000830152615d968161555f565b9050919050565b60006020820190508181036000830152615db681615582565b9050919050565b60006020820190508181036000830152615dd6816155a5565b9050919050565b60006020820190508181036000830152615df6816155c8565b9050919050565b60006020820190508181036000830152615e168161560e565b9050919050565b60006020820190508181036000830152615e3681615631565b9050919050565b6000604082019050615e526000830184615654565b92915050565b6000602082019050615e6d6000830184615683565b92915050565b600060c082019050615e886000830189615683565b615e956020830188615683565b615ea26040830187614fe2565b615eaf6060830186614fe2565b615ebc6080830185615683565b615ec960a083018461504c565b979650505050505050565b6000602082019050615ee960008301846156b8565b92915050565b600081519050919050565b600082825260208201905092915050565b600081905092915050565b6000615f21826160a6565b9150615f2c836160a6565b9250827fffffffffffffffffffffffffffffffffffffffffffffffffffffffffffffffff03821115615f6157615f606161ee565b5b828201905092915050565b6000615f77826160a6565b9150615f82836160a6565b9250817fffffffffffffffffffffffffffffffffffffffffffffffffffffffffffffffff0483118215151615615fbb57615fba6161ee565b5b828202905092915050565b6000615fd1826160a6565b9150615fdc836160a6565b925082821015615fef57615fee6161ee565b5b828203905092915050565b600061600582616086565b9050919050565b60008115159050919050565b6000819050919050565b60007fffffffff0000000000000000000000000000000000000000000000000000000082169050919050565b600061605982615ffa565b9050919050565b600081905061606e82616ec0565b919050565b600081905061608182616ed4565b919050565b600073ffffffffffffffffffffffffffffffffffffffff82169050919050565b6000819050919050565b600063ffffffff82169050919050565b600060ff82169050919050565b60006160d8826160df565b9050919050565b60006160ea82616086565b9050919050565b60006160fc82616060565b9050919050565b600061610e82616073565b9050919050565b60005b83811015616133578082015181840152602081019050616118565b83811115616142576000848401525b50505050565b6000616153826160a6565b91506000821415616167576161666161ee565b5b600182039050919050565b6000600282049050600182168061618a57607f821691505b6020821081141561619e5761619d61624c565b5b50919050565b60006161af826161c0565b9050919050565b6000819050919050565b60006161cb8261633f565b9050919050565b6000819050919050565b60006161e782616332565b9050919050565b7f4e487b7100000000000000000000000000000000000000000000000000000000600052601160045260246000fd5b7f4e487b7100000000000000000000000000000000000000000000000000000000600052602160045260246000fd5b7f4e487b7100000000000000000000000000000000000000000000000000000000600052602260045260246000fd5b7f4e487b7100000000000000000000000000000000000000000000000000000000600052603160045260246000fd5b7f4e487b7100000000000000000000000000000000000000000000000000000000600052603260045260246000fd5b7f4e487b7100000000000000000000000000000000000000000000000000000000600052604160045260246000fd5b600080fd5b600080fd5b600080fd5b600080fd5b600080fd5b6000601f19601f8301169050919050565b60008160f81b9050919050565b60008160601b9050919050565b7f45434453413a20696e76616c6964207369676e61747572650000000000000000600082015250565b7f537472696e67733a20686578206c656e67746820696e73756666696369656e74600082015250565b7f45524332303a207472616e7366657220746f20746865207a65726f206164647260008201527f6573730000000000000000000000000000000000000000000000000000000000602082015250565b7f436f6e7665727469626c653a20546865206c6f636b656420616d6f756e74206960008201527f7320686967686572207468616e207468652062616c616e636520616d6f756e74602082015250565b7f5061757361626c653a206e6f7420706175736564000000000000000000000000600082015250565b7f56616c69646174653a20696e76616c6964207369676e61747572650000000000600082015250565b7f45524332303a206275726e20616d6f756e7420657863656564732062616c616e60008201527f6365000000000000000000000000000000000000000000000000000000000000602082015250565b7f455243323052657365727661626c653a2063616e6e6f7420657865637574652060008201527f66726f6d207a65726f2061646472657373000000000000000000000000000000602082015250565b7f45434453413a20696e76616c6964207369676e6174757265206c656e67746800600082015250565b7f19457468657265756d205369676e6564204d6573736167653a0a333200000000600082015250565b7f45524332303a20617070726f766520746f20746865207a65726f20616464726560008201527f7373000000000000000000000000000000000000000000000000000000000000602082015250565b7f455243323052657365727661626c653a207265736572766174696f6e2068617360008201527f206578706972656420616e642063616e6e6f7420626520657865637574656400602082015250565b7f4554486c6573733a20746865206e6f6e63652068617320616c7265616479206260008201527f65656e207573656420666f722074686973206164647265737300000000000000602082015250565b7f45524332303a207472616e7366657220616d6f756e742065786365656473206260008201527f616c616e63650000000000000000000000000000000000000000000000000000602082015250565b7f455243323052657365727661626c653a20696e76616c6964207265736572766160008201527f74696f6e2073746174757320746f207265636c61696d00000000000000000000602082015250565b7f45434453413a20696e76616c6964207369676e6174757265202773272076616c60008201527f7565000000000000000000000000000000000000000000000000000000000000602082015250565b7f45524332303a20696e73756666696369656e742062616c616e63650000000000600082015250565b7f455243323052657365727661626c653a20696e73756666696369656e7420756e60008201527f72657365727665642062616c616e636500000000000000000000000000000000602082015250565b7f455243323052657365727661626c653a207265736572766174696f6e2068617360008201527f206e6f742065787069726564206f7220796f7520617265206e6f74207468652060208201527f6578656375746f7220616e642063616e6e6f74206265207265636c61696d6564604082015250565b7f5061757361626c653a2070617573656400000000000000000000000000000000600082015250565b7f436f6e7665727469626c653a20546865206261736520746f6b656e206973206e60008201527f6f7420737570706f727465642e00000000000000000000000000000000000000602082015250565b7f496e697469616c697a61626c653a20636f6e747261637420697320616c72656160008201527f647920696e697469616c697a6564000000000000000000000000000000000000602082015250565b7f455243323052657365727661626c653a206f6e6c79207468652073656e64657260008201527f206f7220746865206578656375746f722063616e207265636c61696d2074686560208201527f207265736572766174696f6e206261636b20746f207468652073656e64657200604082015250565b7f45434453413a20696e76616c6964207369676e6174757265202776272076616c60008201527f7565000000000000000000000000000000000000000000000000000000000000602082015250565b7f45524332304554486c6573733a207468652062616c616e6365206973206e6f7460008201527f2073756666696369656e74000000000000000000000000000000000000000000602082015250565b7f455243323052657365727661626c653a20696e76616c6964207265736572766160008201527f74696f6e2073746174757320746f206578656375746500000000000000000000602082015250565b7f45524332303a206275726e2066726f6d20746865207a65726f2061646472657360008201527f7300000000000000000000000000000000000000000000000000000000000000602082015250565b7f45524332303a207472616e736665722066726f6d20746865207a65726f20616460008201527f6472657373000000000000000000000000000000000000000000000000000000602082015250565b7f455243323052657365727661626c653a207472616e7366657220616d6f756e7460008201527f206578636565647320756e72657365727665642062616c616e63650000000000602082015250565b7f455243323052657365727661626c653a207468652073656e646572207573656460008201527f20746865206e6f6e636520616c72656164790000000000000000000000000000602082015250565b7f436f6e7665727469626c653a20546865207769746864726177616c20616d6f7560008201527f6e7420697320686967686572207468616e20746865206c6f636b656420616d6f60208201527f756e740000000000000000000000000000000000000000000000000000000000604082015250565b7f45524332303a20617070726f76652066726f6d20746865207a65726f2061646460008201527f7265737300000000000000000000000000000000000000000000000000000000602082015250565b7f416363657373436f6e74726f6c3a206163636f756e7420000000000000000000600082015250565b7f455243323052657365727661626c653a2074686973206164647265737320697360008201527f206e6f7420617574686f72697a656420746f206578656375746520746869732060208201527f7265736572766174696f6e000000000000000000000000000000000000000000604082015250565b7f436f6e7665727469626c653a2043616e2774206c6f636b2074686520746f6b6560008201527f6e20616d6f756e74000000000000000000000000000000000000000000000000602082015250565b7f455243323052657365727661626c653a207265736572766174696f6e20646f6560008201527f73206e6f74206578697374000000000000000000000000000000000000000000602082015250565b7f45524332303a2064656372656173656420616c6c6f77616e63652062656c6f7760008201527f207a65726f000000000000000000000000000000000000000000000000000000602082015250565b7f206973206d697373696e6720726f6c6520000000000000000000000000000000600082015250565b7f416363657373436f6e74726f6c3a2063616e206f6e6c792072656e6f756e636560008201527f20726f6c657320666f722073656c660000000000000000000000000000000000602082015250565b7f455243323052657365727661626c653a20696e76616c696420626c6f636b206560008201527f7870697279206e756d6265720000000000000000000000000000000000000000602082015250565b60048110616ed157616ed061621d565b5b50565b60058110616ee557616ee461621d565b5b50565b616ef181615ffa565b8114616efc57600080fd5b50565b616f088161600c565b8114616f1357600080fd5b50565b616f1f81616018565b8114616f2a57600080fd5b50565b616f3681616022565b8114616f4157600080fd5b50565b616f4d8161604e565b8114616f5857600080fd5b50565b616f64816160a6565b8114616f6f57600080fd5b50565b616f7b816160b0565b8114616f8657600080fd5b50565b616f92816160c0565b8114616f9d57600080fd5b5056fea264697066735822122080ee3fff9e4cd4fdbf109427c550bfbcb7ca03f20aeea01d98e6625ea720386b64736f6c63430008060033",
  "linkReferences": {},
  "deployedLinkReferences": {}
}