{
  "_format": "hh-sol-artifact-1",
  "contractName": "Convertible",
  "sourceName": "contracts/abstracts/Convertible.sol",
  "abi": [
    {
      "anonymous": false,
      "inputs": [
        {
          "indexed": true,
          "internalType": "address",
          "name": "sender",
          "type": "address"
        },
        {
          "indexed": true,
          "internalType": "contract IERC20",
          "name": "token",
          "type": "address"
        },
        {
          "indexed": false,
          "internalType": "uint256",
          "name": "_value",
          "type": "uint256"
        }
      ],
      "name": "Locked",
      "type": "event"
    },
    {
      "inputs": [
        {
          "internalType": "address",
          "name": "account",
          "type": "address"
        },
        {
          "internalType": "contract IERC20",
          "name": "token",
          "type": "address"
        }
      ],
      "name": "getLocked",
      "outputs": [
        {
          "internalType": "uint256",
          "name": "",
          "type": "uint256"
        }
      ],
      "stateMutability": "view",
      "type": "function"
    },
    {
      "inputs": [
        {
          "internalType": "contract IERC20",
          "name": "token",
          "type": "address"
        }
      ],
      "name": "getTokenExchangeDetails",
      "outputs": [
        {
          "components": [
            {
              "internalType": "uint32",
              "name": "rate",
              "type": "uint32"
            },
            {
              "internalType": "uint32",
              "name": "decimalPlaceBase",
              "type": "uint32"
            }
          ],
          "internalType": "struct ConversionModels.TokenExchangeModel",
          "name": "",
          "type": "tuple"
        }
      ],
      "stateMutability": "view",
      "type": "function"
    },
    {
      "inputs": [],
      "name": "info",
      "outputs": [
        {
          "internalType": "contract IERC20",
          "name": "",
          "type": "address"
        },
        {
          "internalType": "uint8",
          "name": "",
          "type": "uint8"
        }
      ],
      "stateMutability": "view",
      "type": "function"
    },
    {
      "inputs": [
        {
          "internalType": "contract IERC20",
          "name": "token",
          "type": "address"
        },
        {
          "internalType": "uint256",
          "name": "amount",
          "type": "uint256"
        }
      ],
      "name": "lock",
      "outputs": [
        {
          "internalType": "bool",
          "name": "",
          "type": "bool"
        }
      ],
      "stateMutability": "nonpayable",
      "type": "function"
    },
    {
      "inputs": [
        {
          "internalType": "contract IERC20",
          "name": "token",
          "type": "address"
        },
        {
          "internalType": "uint256",
          "name": "amount",
          "type": "uint256"
        }
      ],
      "name": "withdraw",
      "outputs": [
        {
          "internalType": "bool",
          "name": "",
          "type": "bool"
        }
      ],
      "stateMutability": "nonpayable",
      "type": "function"
    }
  ],
  "bytecode": "0x608060405234801561001057600080fd5b50611036806100206000396000f3fe608060405234801561001057600080fd5b50600436106100575760003560e01c8063282d3fdf1461005c578063370158ea1461008c578063604abf9e146100ab578063a86e6ee4146100db578063f3fef3a31461010b575b600080fd5b610076600480360381019061007191906109e1565b61013b565b6040516100839190610bde565b60405180910390f35b610094610157565b6040516100a2929190610bf9565b60405180910390f35b6100c560048036038101906100c091906109b4565b610195565b6040516100d29190610ca2565b60405180910390f35b6100f560048036038101906100f09190610947565b61023a565b6040516101029190610cbd565b60405180910390f35b610125600480360381019061012091906109e1565b6102c1565b6040516101329190610bde565b60405180910390f35b600061014f6101486104fd565b8484610505565b905092915050565b600080603660019054906101000a900473ffffffffffffffffffffffffffffffffffffffff16603660009054906101000a900460ff16915091509091565b61019d6108b8565b603460008373ffffffffffffffffffffffffffffffffffffffff1673ffffffffffffffffffffffffffffffffffffffff1681526020019081526020016000206040518060400160405290816000820160009054906101000a900463ffffffff1663ffffffff1663ffffffff1681526020016000820160049054906101000a900463ffffffff1663ffffffff1663ffffffff16815250509050919050565b6000603360008473ffffffffffffffffffffffffffffffffffffffff1673ffffffffffffffffffffffffffffffffffffffff16815260200190815260200160002060008373ffffffffffffffffffffffffffffffffffffffff1673ffffffffffffffffffffffffffffffffffffffff16815260200190815260200160002054905092915050565b6000806102cc6104fd565b90506000603360008373ffffffffffffffffffffffffffffffffffffffff1673ffffffffffffffffffffffffffffffffffffffff16815260200190815260200160002060008673ffffffffffffffffffffffffffffffffffffffff1673ffffffffffffffffffffffffffffffffffffffff16815260200190815260200160002054905083811015610392576040517f08c379a000000000000000000000000000000000000000000000000000000000815260040161038990610c62565b60405180910390fd5b83603360008473ffffffffffffffffffffffffffffffffffffffff1673ffffffffffffffffffffffffffffffffffffffff16815260200190815260200160002060008773ffffffffffffffffffffffffffffffffffffffff1673ffffffffffffffffffffffffffffffffffffffff168152602001908152602001600020600082825461041e9190610d3f565b925050819055508473ffffffffffffffffffffffffffffffffffffffff1663a9059cbb83866040518363ffffffff1660e01b8152600401610460929190610bb5565b602060405180830381600087803b15801561047a57600080fd5b505af115801561048e573d6000803e3d6000fd5b505050506040513d601f19601f820116820180604052508101906104b29190610987565b6104f1576040517f08c379a00000000000000000000000000000000000000000000000000000000081526004016104e890610c82565b60405180910390fd5b60019250505092915050565b600033905090565b6000808373ffffffffffffffffffffffffffffffffffffffff166370a08231866040518263ffffffff1660e01b81526004016105419190610b63565b60206040518083038186803b15801561055957600080fd5b505afa15801561056d573d6000803e3d6000fd5b505050506040513d601f19601f820116820180604052508101906105919190610a21565b90506000603460008673ffffffffffffffffffffffffffffffffffffffff1673ffffffffffffffffffffffffffffffffffffffff16815260200190815260200160002060000160009054906101000a900463ffffffff1663ffffffff161161062e576040517f08c379a000000000000000000000000000000000000000000000000000000000815260040161062590610c42565b60405180910390fd5b82811015610671576040517f08c379a000000000000000000000000000000000000000000000000000000000815260040161066890610c22565b60405180910390fd5b8373ffffffffffffffffffffffffffffffffffffffff166323b872dd8630866040518463ffffffff1660e01b81526004016106ae93929190610b7e565b602060405180830381600087803b1580156106c857600080fd5b505af11580156106dc573d6000803e3d6000fd5b505050506040513d601f19601f820116820180604052508101906107009190610987565b61073f576040517f08c379a000000000000000000000000000000000000000000000000000000000815260040161073690610c82565b60405180910390fd5b82603360008773ffffffffffffffffffffffffffffffffffffffff1673ffffffffffffffffffffffffffffffffffffffff16815260200190815260200160002060008673ffffffffffffffffffffffffffffffffffffffff1673ffffffffffffffffffffffffffffffffffffffff168152602001908152602001600020546107c79190610ce9565b603360008773ffffffffffffffffffffffffffffffffffffffff1673ffffffffffffffffffffffffffffffffffffffff16815260200190815260200160002060008673ffffffffffffffffffffffffffffffffffffffff1673ffffffffffffffffffffffffffffffffffffffff168152602001908152602001600020819055508373ffffffffffffffffffffffffffffffffffffffff168573ffffffffffffffffffffffffffffffffffffffff167f989eaa915cbb416ea3d6f9a63b1a3de51770c7674b11fe21ecdf76b4e1d13910856040516108a49190610cbd565b60405180910390a360019150509392505050565b6040518060400160405280600063ffffffff168152602001600063ffffffff1681525090565b6000813590506108ed81610fa4565b92915050565b60008151905061090281610fbb565b92915050565b60008135905061091781610fd2565b92915050565b60008135905061092c81610fe9565b92915050565b60008151905061094181610fe9565b92915050565b6000806040838503121561095e5761095d610e3d565b5b600061096c858286016108de565b925050602061097d85828601610908565b9150509250929050565b60006020828403121561099d5761099c610e3d565b5b60006109ab848285016108f3565b91505092915050565b6000602082840312156109ca576109c9610e3d565b5b60006109d884828501610908565b91505092915050565b600080604083850312156109f8576109f7610e3d565b5b6000610a0685828601610908565b9250506020610a178582860161091d565b9150509250929050565b600060208284031215610a3757610a36610e3d565b5b6000610a4584828501610932565b91505092915050565b610a5781610d73565b82525050565b610a6681610d85565b82525050565b610a7581610dea565b82525050565b6000610a88604083610cd8565b9150610a9382610e42565b604082019050919050565b6000610aab602d83610cd8565b9150610ab682610e91565b604082019050919050565b6000610ace604383610cd8565b9150610ad982610ee0565b606082019050919050565b6000610af1602883610cd8565b9150610afc82610f55565b604082019050919050565b604082016000820151610b1d6000850182610b45565b506020820151610b306020850182610b45565b50505050565b610b3f81610dc3565b82525050565b610b4e81610dcd565b82525050565b610b5d81610ddd565b82525050565b6000602082019050610b786000830184610a4e565b92915050565b6000606082019050610b936000830186610a4e565b610ba06020830185610a4e565b610bad6040830184610b36565b949350505050565b6000604082019050610bca6000830185610a4e565b610bd76020830184610b36565b9392505050565b6000602082019050610bf36000830184610a5d565b92915050565b6000604082019050610c0e6000830185610a6c565b610c1b6020830184610b54565b9392505050565b60006020820190508181036000830152610c3b81610a7b565b9050919050565b60006020820190508181036000830152610c5b81610a9e565b9050919050565b60006020820190508181036000830152610c7b81610ac1565b9050919050565b60006020820190508181036000830152610c9b81610ae4565b9050919050565b6000604082019050610cb76000830184610b07565b92915050565b6000602082019050610cd26000830184610b36565b92915050565b600082825260208201905092915050565b6000610cf482610dc3565b9150610cff83610dc3565b9250827fffffffffffffffffffffffffffffffffffffffffffffffffffffffffffffffff03821115610d3457610d33610e0e565b5b828201905092915050565b6000610d4a82610dc3565b9150610d5583610dc3565b925082821015610d6857610d67610e0e565b5b828203905092915050565b6000610d7e82610da3565b9050919050565b60008115159050919050565b6000610d9c82610d73565b9050919050565b600073ffffffffffffffffffffffffffffffffffffffff82169050919050565b6000819050919050565b600063ffffffff82169050919050565b600060ff82169050919050565b6000610df582610dfc565b9050919050565b6000610e0782610da3565b9050919050565b7f4e487b7100000000000000000000000000000000000000000000000000000000600052601160045260246000fd5b600080fd5b7f436f6e7665727469626c653a20546865206c6f636b656420616d6f756e74206960008201527f7320686967686572207468616e207468652062616c616e636520616d6f756e74602082015250565b7f436f6e7665727469626c653a20546865206261736520746f6b656e206973206e60008201527f6f7420737570706f727465642e00000000000000000000000000000000000000602082015250565b7f436f6e7665727469626c653a20546865207769746864726177616c20616d6f7560008201527f6e7420697320686967686572207468616e20746865206c6f636b656420616d6f60208201527f756e740000000000000000000000000000000000000000000000000000000000604082015250565b7f436f6e7665727469626c653a2043616e2774206c6f636b2074686520746f6b6560008201527f6e20616d6f756e74000000000000000000000000000000000000000000000000602082015250565b610fad81610d73565b8114610fb857600080fd5b50565b610fc481610d85565b8114610fcf57600080fd5b50565b610fdb81610d91565b8114610fe657600080fd5b50565b610ff281610dc3565b8114610ffd57600080fd5b5056fea26469706673582212208b52382a48bc1a2904f65bcbbd3c709176fcee57304df0100ba3f9cdafb9826c64736f6c63430008060033",
  "linkReferences": {},
  "deployedLinkReferences": {}
}