{
  "_format": "hh-sol-artifact-1",
  "contractName": "TransactionFee",
  "sourceName": "contracts/abstracts/TransactionFee.sol",
  "abi": [
    {
      "inputs": [],
      "name": "getFee",
      "outputs": [
        {
          "internalType": "uint256",
          "name": "",
          "type": "uint256"
        }
      ],
      "stateMutability": "view",
      "type": "function"
    },
    {
      "inputs": [],
      "name": "getFeeCollectionAddress",
      "outputs": [
        {
          "internalType": "address",
          "name": "",
          "type": "address"
        }
      ],
      "stateMutability": "view",
      "type": "function"
    }
  ],
  "bytecode": "0x608060405234801561001057600080fd5b50610170806100206000396000f3fe608060405234801561001057600080fd5b50600436106100365760003560e01c8063b686b2c31461003b578063ced72f8714610059575b600080fd5b610043610077565b60405161005091906100c8565b60405180910390f35b6100616100a0565b60405161006e91906100e3565b60405180910390f35b60008060029054906101000a900473ffffffffffffffffffffffffffffffffffffffff16905090565b6000600154905090565b6100b3816100fe565b82525050565b6100c281610130565b82525050565b60006020820190506100dd60008301846100aa565b92915050565b60006020820190506100f860008301846100b9565b92915050565b600061010982610110565b9050919050565b600073ffffffffffffffffffffffffffffffffffffffff82169050919050565b600081905091905056fea2646970667358221220a80f39f7e87987e603c91d6a616f3c0157108c0d7c1a22fad75c59eeb6b3d45d64736f6c63430008060033",
  "linkReferences": {},
  "deployedLinkReferences": {}
}