{
  "contractName": "Convertible",
  "abi": [
    {
      "anonymous": false,
      "inputs": [
        {
          "indexed": true,
          "internalType": "bytes32",
          "name": "lockerHash",
          "type": "bytes32"
        },
        {
          "indexed": true,
          "internalType": "address",
          "name": "sender",
          "type": "address"
        },
        {
          "indexed": false,
          "internalType": "uint256",
          "name": "_value",
          "type": "uint256"
        }
      ],
      "name": "Locked",
      "type": "event"
    },
    {
      "inputs": [],
      "name": "getTokenExchangeDetails",
      "outputs": [
        {
          "components": [
            {
              "internalType": "uint32",
              "name": "rate",
              "type": "uint32"
            },
            {
              "internalType": "uint32",
              "name": "decimalPlaceBase",
              "type": "uint32"
            }
          ],
          "internalType": "struct GluwacoinModels.TokenExchangeModel",
          "name": "",
          "type": "tuple"
        }
      ],
      "stateMutability": "view",
      "type": "function"
    },
    {
      "inputs": [
        {
          "internalType": "bytes32",
          "name": "lockerHash",
          "type": "bytes32"
        }
      ],
      "name": "getLocker",
      "outputs": [
        {
          "components": [
            {
              "internalType": "uint256",
              "name": "idx",
              "type": "uint256"
            },
            {
              "internalType": "address",
              "name": "owner",
              "type": "address"
            },
            {
              "internalType": "uint256",
              "name": "amount",
              "type": "uint256"
            },
            {
              "internalType": "enum GluwacoinModels.LockerState",
              "name": "state",
              "type": "uint8"
            },
            {
              "components": [
                {
                  "internalType": "uint32",
                  "name": "rate",
                  "type": "uint32"
                },
                {
                  "internalType": "uint32",
                  "name": "decimalPlaceBase",
                  "type": "uint32"
                }
              ],
              "internalType": "struct GluwacoinModels.TokenExchangeModel",
              "name": "exchangeRate",
              "type": "tuple"
            }
          ],
          "internalType": "struct GluwacoinModels.Locker",
          "name": "",
          "type": "tuple"
        }
      ],
      "stateMutability": "view",
      "type": "function"
    }
  ],
  "bytecode": "0x608060405234801561001057600080fd5b506102a2806100206000396000f3fe608060405234801561001057600080fd5b50600436106100365760003560e01c8063851ad6541461003b578063fd635d6114610064575b600080fd5b61004e6100493660046101a8565b610079565b60405161005b91906101d9565b60405180910390f35b61006c61012c565b60405161005b9190610242565b61008161015d565b6000828152603a6020908152604091829020825160a0810184528154815260018201546001600160a01b03169281019290925260028082015493830193909352600381015491929091606084019160ff909116908111156100e4576100e4610256565b60028111156100f5576100f5610256565b8152604080518082019091526004929092015463ffffffff8082168452600160201b90910416602083810191909152015292915050565b610134610191565b506040805180820190915260345463ffffffff8082168352600160201b90910416602082015290565b6040805160a081018252600080825260208201819052918101829052906060820190815260200161018c610191565b905290565b604080518082019091526000808252602082015290565b6000602082840312156101ba57600080fd5b5035919050565b805163ffffffff908116835260209182015116910152565b815181526020808301516001600160a01b03169082015260408083015190820152606082015160c08201906003811061022257634e487b7160e01b600052602160045260246000fd5b80606084015250608083015161023b60808401826101c1565b5092915050565b6040810161025082846101c1565b92915050565b634e487b7160e01b600052602160045260246000fdfea26469706673582212204565a6f083184cf0fa9cf63a618f4bd800d106893aa212c740c31a2967cc736464736f6c63430008070033",
  "immutableReferences": {},
  "source": "pragma solidity >=0.8.7;\n\nimport \"@openzeppelin/contracts-upgradeable/utils/ContextUpgradeable.sol\";\nimport \"@openzeppelin/contracts-upgradeable/proxy/utils/Initializable.sol\";\nimport \"@openzeppelin/contracts/token/ERC20/IERC20.sol\";\nimport \"../libs/GluwacoinModels.sol\";\nimport \"../libs/HashMapIndex.sol\";\n\ncontract Convertible is Initializable, ContextUpgradeable {\n    using HashMapIndex for HashMapIndex.HashMapping;\n\n    uint8 private _baseTokenDecimal;\n    uint8 private _convertedTokenDecimal;\n    IERC20 private _baseToken;\n    GluwacoinModels.TokenExchangeModel private _exchangeRate;\n\n    HashMapIndex.HashMapping private _lockerIndex;\n\n    mapping(bytes32 => GluwacoinModels.Locker) internal _locker;\n    mapping(address => bytes32) internal _lockerOwner;\n\n    event Locked(\n        bytes32 indexed lockerHash,\n        address indexed sender,\n        uint256 _value\n    );\n\n    function __Convertible_init_unchained(\n        IERC20 token,\n        uint8 convertedTokenDecimal\n    ) internal initializer {\n        _baseToken = token;\n        _convertedTokenDecimal = convertedTokenDecimal;\n        _lockerIndex.firstIdx = 1;\n        _lockerIndex.nextIdx = 1;\n        _lockerIndex.count = 0;\n    }\n\n    function getTokenExchangeDetails()\n        public\n        view\n        returns (GluwacoinModels.TokenExchangeModel memory)\n    {\n        return _exchangeRate;\n    }\n\n    function getLocker(bytes32 lockerHash)\n        public\n        view\n        returns (GluwacoinModels.Locker memory)\n    {\n        return _locker[lockerHash];\n    }\n\n    function _setTokenExchange(\n        uint32 newExchangeRate,\n        uint32 newExchangeRateDecimalPlaceBase\n    ) internal returns (bool) {\n        _exchangeRate.rate = newExchangeRate;\n        _exchangeRate.decimalPlaceBase = newExchangeRateDecimalPlaceBase;\n        return true;\n    }\n\n    function _lockFrom(\n        address account,\n        uint256 amount,\n        uint256 fee\n    ) internal returns (bool) {\n        require(\n            _baseToken.transferFrom(account, address(this), amount),\n            \"Convertible: Can't lock the token amount\"\n        );\n        bytes32 lockerHash;\n        uint256 lockedAmount = amount - fee;\n\n        bytes32 existingLockerHash = _lockerOwner[account];\n\n        if (_locker[existingLockerHash].idx > 0) {\n          _locker[existingLockerHash].amount += lockedAmount;      \n        } else {\n            lockerHash = keccak256(\n                abi.encodePacked(_lockerIndex.nextIdx, address(this), account)\n            );\n\n            _locker[lockerHash] = GluwacoinModels.Locker({\n                idx: _lockerIndex.nextIdx,\n                owner: account,\n                amount: lockedAmount,\n                exchangeRate: _exchangeRate,\n                state: GluwacoinModels.LockerState.Active\n            });\n\n            _lockerIndex.add(lockerHash);\n            _lockerOwner[account] = lockerHash;\n        }\n\n        emit Locked(lockerHash, account, lockedAmount);\n\n        return true;\n    }\n\n    function _withdraw(\n        address account,\n        uint256 amount,\n        uint256 fee\n    ) internal returns (bool) {\n        bytes32 lockerHash = _lockerOwner[account];\n        require(\n            _locker[lockerHash].amount >= amount,\n            \"Convertible: Can't withdraw token from the locker\"\n        );\n        uint256 withdrawnAmount = _calculateWithdrawal(\n            amount,\n            _locker[lockerHash].exchangeRate.rate,\n            _locker[lockerHash].exchangeRate.decimalPlaceBase\n        );\n        require(\n            withdrawnAmount > fee,\n            \"Convertible: Withdrawn amount must be higher than fee\"\n        );\n        _locker[lockerHash].amount -= withdrawnAmount;\n        _baseToken.transfer(account, withdrawnAmount - fee);\n        return true;\n    }\n\n    function _withdrawBaseToken(address collector, uint256 amount)\n        internal\n        returns (bool)\n    {\n        _baseToken.transfer(collector, amount);\n        return true;\n    }\n\n    function _calculateConversion(uint256 amount)\n        internal\n        view\n        returns (uint256)\n    {\n        return (amount * _exchangeRate.rate) / _exchangeRate.decimalPlaceBase;\n    }\n\n    function _calculateWithdrawal(\n        uint256 amount,\n        uint32 rate,\n        uint32 decimalPlaceBase\n    ) internal pure returns (uint256) {\n        return (amount * decimalPlaceBase) / rate;\n    }\n\n    uint256[50] private __gap;\n}\n",
  "sourcePath": "/home/osboxes/KRWC-G-1/contracts/abstracts/Convertible.sol",
  "compiler": {
    "name": "solc",
    "version": "0.8.7+commit.e28d00a7.Emscripten.clang"
  },
  "schemaVersion": "3.3.4",
  "updatedAt": "2021-09-02T02:54:55.059Z",
  "devdoc": {
    "kind": "dev",
    "methods": {},
    "version": 1
  },
  "userdoc": {
    "kind": "user",
    "methods": {},
    "version": 1
  }
}