{
  "contractName": "Convertible",
  "abi": [
    {
      "anonymous": false,
      "inputs": [
        {
          "indexed": true,
          "internalType": "address",
          "name": "sender",
          "type": "address"
        },
        {
          "indexed": true,
          "internalType": "contract IERC20",
          "name": "token",
          "type": "address"
        },
        {
          "indexed": false,
          "internalType": "uint256",
          "name": "_value",
          "type": "uint256"
        }
      ],
      "name": "Locked",
      "type": "event"
    },
    {
      "inputs": [
        {
          "internalType": "contract IERC20",
          "name": "token",
          "type": "address"
        }
      ],
      "name": "getTokenExchangeDetails",
      "outputs": [
        {
          "components": [
            {
              "internalType": "uint32",
              "name": "rate",
              "type": "uint32"
            },
            {
              "internalType": "uint32",
              "name": "decimalPlaceBase",
              "type": "uint32"
            }
          ],
          "internalType": "struct GluwacoinModel.TokenExchangeModel",
          "name": "",
          "type": "tuple"
        }
      ],
      "stateMutability": "view",
      "type": "function"
    },
    {
      "inputs": [
        {
          "internalType": "address",
          "name": "account",
          "type": "address"
        },
        {
          "internalType": "contract IERC20",
          "name": "token",
          "type": "address"
        }
      ],
      "name": "getLocked",
      "outputs": [
        {
          "internalType": "uint256",
          "name": "",
          "type": "uint256"
        }
      ],
      "stateMutability": "view",
      "type": "function"
    },
    {
      "inputs": [
        {
          "internalType": "contract IERC20",
          "name": "token",
          "type": "address"
        },
        {
          "internalType": "uint256",
          "name": "amount",
          "type": "uint256"
        }
      ],
      "name": "lock",
      "outputs": [
        {
          "internalType": "bool",
          "name": "",
          "type": "bool"
        }
      ],
      "stateMutability": "nonpayable",
      "type": "function"
    },
    {
      "inputs": [
        {
          "internalType": "contract IERC20",
          "name": "token",
          "type": "address"
        },
        {
          "internalType": "uint256",
          "name": "amount",
          "type": "uint256"
        }
      ],
      "name": "withdraw",
      "outputs": [
        {
          "internalType": "bool",
          "name": "",
          "type": "bool"
        }
      ],
      "stateMutability": "nonpayable",
      "type": "function"
    }
  ],
  "bytecode": "0x608060405234801561001057600080fd5b506105dc806100206000396000f3fe608060405234801561001057600080fd5b506004361061004c5760003560e01c8063282d3fdf14610051578063604abf9e14610079578063a86e6ee4146100fe578063f3fef3a314610145575b600080fd5b61006461005f36600461051d565b610158565b60405190151581526020015b60405180910390f35b6100da610087366004610500565b6040805180820190915260008082526020820152506001600160a01b031660009081526033602090815260409182902082518084019093525463ffffffff8082168452600160201b909104169082015290565b60408051825163ffffffff9081168252602093840151169281019290925201610070565b61013761010c3660046104a5565b6001600160a01b03918216600090815260366020908152604080832093909416825291909152205490565b604051908152602001610070565b61006461015336600461051d565b61016c565b60006101653384846102a5565b9392505050565b3360009081526036602090815260408083206001600160a01b03861684529091528120805483919083906101a1908490610561565b90915550506001600160a01b03831663a9059cbb336040516001600160e01b031960e084901b1681526001600160a01b03909116600482015260248101859052604401602060405180830381600087803b1580156101fe57600080fd5b505af1158015610212573d6000803e3d6000fd5b505050506040513d601f19601f8201168201806040525081019061023691906104de565b61029c5760405162461bcd60e51b815260206004820152602c60248201527f436f6e7665727469626c653a2043616e2774207769746864726177207468652060448201526b1d1bdad95b88185b5bdd5b9d60a21b60648201526084015b60405180910390fd5b50600192915050565b6001600160a01b03821660009081526033602052604081205463ffffffff166103255760405162461bcd60e51b815260206004820152602c60248201527f436f6e7665727469626c653a20546865206261736520746f6b656e206973206e60448201526b1bdd081cdd5c1c1bdc9d195960a21b6064820152608401610293565b6040516323b872dd60e01b81526001600160a01b038581166004830152306024830152604482018490528416906323b872dd90606401602060405180830381600087803b15801561037557600080fd5b505af1158015610389573d6000803e3d6000fd5b505050506040513d601f19601f820116820180604052508101906103ad91906104de565b61040a5760405162461bcd60e51b815260206004820152602860248201527f436f6e7665727469626c653a2043616e2774206c6f636b2074686520746f6b656044820152671b88185b5bdd5b9d60c21b6064820152608401610293565b6001600160a01b0380851660009081526036602090815260408083209387168352929052205461043b908390610549565b6001600160a01b038581166000818152603660209081526040808320948916808452948252918290209490945551858152919290917f989eaa915cbb416ea3d6f9a63b1a3de51770c7674b11fe21ecdf76b4e1d13910910160405180910390a35060019392505050565b600080604083850312156104b857600080fd5b82356104c38161058e565b915060208301356104d38161058e565b809150509250929050565b6000602082840312156104f057600080fd5b8151801515811461016557600080fd5b60006020828403121561051257600080fd5b81356101658161058e565b6000806040838503121561053057600080fd5b823561053b8161058e565b946020939093013593505050565b6000821982111561055c5761055c610578565b500190565b60008282101561057357610573610578565b500390565b634e487b7160e01b600052601160045260246000fd5b6001600160a01b03811681146105a357600080fd5b5056fea26469706673582212205ca12dbf68635de6e58718c9b16c4dc050eb3760aeb6074f382865fabd2ad47064736f6c63430008070033",
  "immutableReferences": {},
  "source": "pragma solidity >=0.8.6;\n\nimport \"./ContextUpgradeable.sol\";\nimport \"@openzeppelin/contracts-upgradeable/proxy/utils/Initializable.sol\";\nimport \"@openzeppelin/contracts/token/ERC20/IERC20.sol\";\nimport \"../libs/GluwacoinModel.sol\";\n\ncontract Convertible is Initializable, ContextUpgradeable {\n    mapping(IERC20 => GluwacoinModel.TokenExchangeModel) private _baseTokens;\n\n    mapping(IERC20 => uint8) private _baseTokenDecimals;\n\n    uint8 private _convertedTokenDecimal;\n\n    mapping(address => mapping(IERC20 => uint256)) internal _locks;\n\n    event Locked(address indexed sender, IERC20 indexed token, uint256 _value);\n\n    function __Convertible_init_unchained(\n        uint8 convertedTokenDecimal\n    ) internal initializer {\n        _convertedTokenDecimal = convertedTokenDecimal;\n    }\n\n    function getTokenExchangeDetails(IERC20 token)\n        public\n        view\n        returns (GluwacoinModel.TokenExchangeModel memory)\n    {\n        return _baseTokens[token];\n    }\n\n    function getLocked(address account, IERC20 token)\n        public\n        view\n        returns (uint256)\n    {\n        return _locks[account][token];\n    }\n\n    function _setTokenExchange(\n        IERC20 token,\n        uint8 decimals,\n        uint32 newExchangeRate,\n        uint32 newExchangeRateDecimalPlaceBase\n    ) internal returns (bool) {\n        _baseTokenDecimals[token] = decimals;\n        _baseTokens[token].rate = newExchangeRate;\n        _baseTokens[token].decimalPlaceBase = newExchangeRateDecimalPlaceBase;\n        return true;\n    }\n\n    function lock(IERC20 token, uint256 amount) public returns (bool) {\n        return _lockFrom(_msgSender(), token, amount);\n    }\n\n    function _lockFrom(\n        address account,\n        IERC20 token,\n        uint256 amount\n    ) internal returns (bool) {\n        require(\n            _baseTokens[token].rate > 0,\n            \"Convertible: The base token is not supported\"\n        );\n        \n        require(\n            token.transferFrom(account, address(this), amount),\n            \"Convertible: Can't lock the token amount\"\n        );\n\n        _locks[account][token] = _locks[account][token] + amount;\n\n        emit Locked(account, token, amount);\n\n        return true;\n    }\n\n    function _release(\n        address account,\n        IERC20 token,\n        uint256 amount\n    ) internal returns (uint256) {        \n        _locks[account][token] -= amount;\n        return amount;\n    }\n    \n    function withdraw(IERC20 token, uint256 amount) public returns (bool) {    \n        _locks[_msgSender()][token] -= amount;\n        require(\n            token.transfer(_msgSender(), amount),\n            \"Convertible: Can't withdraw the token amount\"\n        );\n\n        return true;\n    }\n\n    function _calculateConversion(IERC20 token, uint256 amount)\n        internal\n        view\n        returns (uint256)\n    {\n        GluwacoinModel.TokenExchangeModel storage rateModel = _baseTokens[\n            token\n        ];\n        require(\n            rateModel.rate > 0,\n            \"Convertible: The base token is not supported\"\n        );\n        return\n            _decimalConversionFromBaseToken(\n                _baseTokenDecimals[token],\n                _convertedTokenDecimal,\n                (amount * _baseTokens[token].rate) /\n                    (_baseTokens[token].decimalPlaceBase)\n            );\n    }    \n\n    function _decimalConversionFromBaseToken(\n        uint8 baseTokenDecimal,\n        uint8 convertedTokenDecimal,\n        uint256 amount\n    ) internal pure returns (uint256) {\n        if (baseTokenDecimal < convertedTokenDecimal) {\n            return amount * (10**(convertedTokenDecimal - baseTokenDecimal));\n        } else {\n            return amount / (10**(baseTokenDecimal - convertedTokenDecimal));\n        }\n    }    \n\n    uint256[50] private __gap;\n}\n",
  "sourcePath": "/home/osboxes/KRWC-G-1/contracts/abstracts/Convertible.sol",
  "compiler": {
    "name": "solc",
    "version": "0.8.7+commit.e28d00a7.Emscripten.clang"
  },
  "schemaVersion": "3.3.4",
  "updatedAt": "2021-08-24T00:55:58.203Z",
  "devdoc": {
    "kind": "dev",
    "methods": {},
    "version": 1
  },
  "userdoc": {
    "kind": "user",
    "methods": {},
    "version": 1
  }
}