{
  "contractName": "ETHlessTransfer",
  "abi": [
    {
      "anonymous": false,
      "inputs": [
        {
          "indexed": true,
          "internalType": "address",
          "name": "owner",
          "type": "address"
        },
        {
          "indexed": true,
          "internalType": "address",
          "name": "spender",
          "type": "address"
        },
        {
          "indexed": false,
          "internalType": "uint256",
          "name": "value",
          "type": "uint256"
        }
      ],
      "name": "Approval",
      "type": "event"
    },
    {
      "anonymous": false,
      "inputs": [
        {
          "indexed": true,
          "internalType": "bytes32",
          "name": "role",
          "type": "bytes32"
        },
        {
          "indexed": true,
          "internalType": "bytes32",
          "name": "previousAdminRole",
          "type": "bytes32"
        },
        {
          "indexed": true,
          "internalType": "bytes32",
          "name": "newAdminRole",
          "type": "bytes32"
        }
      ],
      "name": "RoleAdminChanged",
      "type": "event"
    },
    {
      "anonymous": false,
      "inputs": [
        {
          "indexed": true,
          "internalType": "bytes32",
          "name": "role",
          "type": "bytes32"
        },
        {
          "indexed": true,
          "internalType": "address",
          "name": "account",
          "type": "address"
        },
        {
          "indexed": true,
          "internalType": "address",
          "name": "sender",
          "type": "address"
        }
      ],
      "name": "RoleGranted",
      "type": "event"
    },
    {
      "anonymous": false,
      "inputs": [
        {
          "indexed": true,
          "internalType": "bytes32",
          "name": "role",
          "type": "bytes32"
        },
        {
          "indexed": true,
          "internalType": "address",
          "name": "account",
          "type": "address"
        },
        {
          "indexed": true,
          "internalType": "address",
          "name": "sender",
          "type": "address"
        }
      ],
      "name": "RoleRevoked",
      "type": "event"
    },
    {
      "anonymous": false,
      "inputs": [
        {
          "indexed": true,
          "internalType": "address",
          "name": "from",
          "type": "address"
        },
        {
          "indexed": true,
          "internalType": "address",
          "name": "to",
          "type": "address"
        },
        {
          "indexed": false,
          "internalType": "uint256",
          "name": "value",
          "type": "uint256"
        }
      ],
      "name": "Transfer",
      "type": "event"
    },
    {
      "inputs": [],
      "name": "DEFAULT_ADMIN_ROLE",
      "outputs": [
        {
          "internalType": "bytes32",
          "name": "",
          "type": "bytes32"
        }
      ],
      "stateMutability": "view",
      "type": "function"
    },
    {
      "inputs": [],
      "name": "RELAYER_ROLE",
      "outputs": [
        {
          "internalType": "bytes32",
          "name": "",
          "type": "bytes32"
        }
      ],
      "stateMutability": "view",
      "type": "function"
    },
    {
      "inputs": [
        {
          "internalType": "address",
          "name": "owner",
          "type": "address"
        },
        {
          "internalType": "address",
          "name": "spender",
          "type": "address"
        }
      ],
      "name": "allowance",
      "outputs": [
        {
          "internalType": "uint256",
          "name": "",
          "type": "uint256"
        }
      ],
      "stateMutability": "view",
      "type": "function"
    },
    {
      "inputs": [
        {
          "internalType": "address",
          "name": "spender",
          "type": "address"
        },
        {
          "internalType": "uint256",
          "name": "amount",
          "type": "uint256"
        }
      ],
      "name": "approve",
      "outputs": [
        {
          "internalType": "bool",
          "name": "",
          "type": "bool"
        }
      ],
      "stateMutability": "nonpayable",
      "type": "function"
    },
    {
      "inputs": [
        {
          "internalType": "address",
          "name": "account",
          "type": "address"
        }
      ],
      "name": "balanceOf",
      "outputs": [
        {
          "internalType": "uint256",
          "name": "",
          "type": "uint256"
        }
      ],
      "stateMutability": "view",
      "type": "function"
    },
    {
      "inputs": [],
      "name": "decimals",
      "outputs": [
        {
          "internalType": "uint8",
          "name": "",
          "type": "uint8"
        }
      ],
      "stateMutability": "view",
      "type": "function"
    },
    {
      "inputs": [
        {
          "internalType": "address",
          "name": "spender",
          "type": "address"
        },
        {
          "internalType": "uint256",
          "name": "subtractedValue",
          "type": "uint256"
        }
      ],
      "name": "decreaseAllowance",
      "outputs": [
        {
          "internalType": "bool",
          "name": "",
          "type": "bool"
        }
      ],
      "stateMutability": "nonpayable",
      "type": "function"
    },
    {
      "inputs": [
        {
          "internalType": "bytes32",
          "name": "role",
          "type": "bytes32"
        }
      ],
      "name": "getRoleAdmin",
      "outputs": [
        {
          "internalType": "bytes32",
          "name": "",
          "type": "bytes32"
        }
      ],
      "stateMutability": "view",
      "type": "function"
    },
    {
      "inputs": [
        {
          "internalType": "bytes32",
          "name": "role",
          "type": "bytes32"
        },
        {
          "internalType": "uint256",
          "name": "index",
          "type": "uint256"
        }
      ],
      "name": "getRoleMember",
      "outputs": [
        {
          "internalType": "address",
          "name": "",
          "type": "address"
        }
      ],
      "stateMutability": "view",
      "type": "function"
    },
    {
      "inputs": [
        {
          "internalType": "bytes32",
          "name": "role",
          "type": "bytes32"
        }
      ],
      "name": "getRoleMemberCount",
      "outputs": [
        {
          "internalType": "uint256",
          "name": "",
          "type": "uint256"
        }
      ],
      "stateMutability": "view",
      "type": "function"
    },
    {
      "inputs": [
        {
          "internalType": "bytes32",
          "name": "role",
          "type": "bytes32"
        },
        {
          "internalType": "address",
          "name": "account",
          "type": "address"
        }
      ],
      "name": "grantRole",
      "outputs": [],
      "stateMutability": "nonpayable",
      "type": "function"
    },
    {
      "inputs": [
        {
          "internalType": "bytes32",
          "name": "role",
          "type": "bytes32"
        },
        {
          "internalType": "address",
          "name": "account",
          "type": "address"
        }
      ],
      "name": "hasRole",
      "outputs": [
        {
          "internalType": "bool",
          "name": "",
          "type": "bool"
        }
      ],
      "stateMutability": "view",
      "type": "function"
    },
    {
      "inputs": [
        {
          "internalType": "address",
          "name": "spender",
          "type": "address"
        },
        {
          "internalType": "uint256",
          "name": "addedValue",
          "type": "uint256"
        }
      ],
      "name": "increaseAllowance",
      "outputs": [
        {
          "internalType": "bool",
          "name": "",
          "type": "bool"
        }
      ],
      "stateMutability": "nonpayable",
      "type": "function"
    },
    {
      "inputs": [],
      "name": "name",
      "outputs": [
        {
          "internalType": "string",
          "name": "",
          "type": "string"
        }
      ],
      "stateMutability": "view",
      "type": "function"
    },
    {
      "inputs": [
        {
          "internalType": "bytes32",
          "name": "role",
          "type": "bytes32"
        },
        {
          "internalType": "address",
          "name": "account",
          "type": "address"
        }
      ],
      "name": "renounceRole",
      "outputs": [],
      "stateMutability": "nonpayable",
      "type": "function"
    },
    {
      "inputs": [
        {
          "internalType": "bytes32",
          "name": "role",
          "type": "bytes32"
        },
        {
          "internalType": "address",
          "name": "account",
          "type": "address"
        }
      ],
      "name": "revokeRole",
      "outputs": [],
      "stateMutability": "nonpayable",
      "type": "function"
    },
    {
      "inputs": [
        {
          "internalType": "bytes4",
          "name": "interfaceId",
          "type": "bytes4"
        }
      ],
      "name": "supportsInterface",
      "outputs": [
        {
          "internalType": "bool",
          "name": "",
          "type": "bool"
        }
      ],
      "stateMutability": "view",
      "type": "function"
    },
    {
      "inputs": [],
      "name": "symbol",
      "outputs": [
        {
          "internalType": "string",
          "name": "",
          "type": "string"
        }
      ],
      "stateMutability": "view",
      "type": "function"
    },
    {
      "inputs": [],
      "name": "totalSupply",
      "outputs": [
        {
          "internalType": "uint256",
          "name": "",
          "type": "uint256"
        }
      ],
      "stateMutability": "view",
      "type": "function"
    },
    {
      "inputs": [
        {
          "internalType": "address",
          "name": "recipient",
          "type": "address"
        },
        {
          "internalType": "uint256",
          "name": "amount",
          "type": "uint256"
        }
      ],
      "name": "transfer",
      "outputs": [
        {
          "internalType": "bool",
          "name": "",
          "type": "bool"
        }
      ],
      "stateMutability": "nonpayable",
      "type": "function"
    },
    {
      "inputs": [
        {
          "internalType": "address",
          "name": "sender",
          "type": "address"
        },
        {
          "internalType": "address",
          "name": "recipient",
          "type": "address"
        },
        {
          "internalType": "uint256",
          "name": "amount",
          "type": "uint256"
        }
      ],
      "name": "transferFrom",
      "outputs": [
        {
          "internalType": "bool",
          "name": "",
          "type": "bool"
        }
      ],
      "stateMutability": "nonpayable",
      "type": "function"
    }
  ],
  "bytecode": "0x608060405234801561001057600080fd5b50611074806100206000396000f3fe608060405234801561001057600080fd5b50600436106101075760003560e01c806301ffc9a71461010c57806306fdde0314610134578063095ea7b31461014957806318160ddd1461015c57806323b872dd1461016e578063248a9ca3146101815780632f2ff15d14610194578063313ce567146101a957806336568abe146101b857806339509351146101cb57806370a08231146101de5780639010d07c1461020757806391d1485414610232578063926d7d7f1461024557806395d89b411461026c578063a217fddf14610274578063a457c2d71461027c578063a9059cbb1461028f578063ca15c873146102a2578063d547741f146102b5578063dd62ed3e146102c8575b600080fd5b61011f61011a366004610e4e565b610301565b60405190151581526020015b60405180910390f35b61013c61032c565b60405161012b9190610ee7565b61011f610157366004610dc6565b6103be565b60cc545b60405190815260200161012b565b61011f61017c366004610d8a565b6103d4565b61016061018f366004610df0565b610427565b6101a76101a2366004610e09565b61043c565b005b6040516012815260200161012b565b6101a76101c6366004610e09565b610463565b61011f6101d9366004610dc6565b610485565b6101606101ec366004610d3c565b6001600160a01b0316600090815260ca602052604090205490565b61021a610215366004610e2c565b6104bc565b6040516001600160a01b03909116815260200161012b565b61011f610240366004610e09565b6104db565b6101607fe2b7fb3b832174769106daebcfd6d1970523240dda11281102db9363b83b0dc481565b61013c610506565b610160600081565b61011f61028a366004610dc6565b610515565b61011f61029d366004610dc6565b610554565b6101606102b0366004610df0565b610561565b6101a76102c3366004610e09565b610578565b6101606102d6366004610d57565b6001600160a01b03918216600090815260cb6020908152604080832093909416825291909152205490565b60006001600160e01b03198216635a05180f60e01b1480610326575061032682610582565b92915050565b606060cd805461033b90610fab565b80601f016020809104026020016040519081016040528092919081815260200182805461036790610fab565b80156103b45780601f10610389576101008083540402835291602001916103b4565b820191906000526020600020905b81548152906001019060200180831161039757829003601f168201915b5050505050905090565b60006103cb3384846105b7565b50600192915050565b60006103e184848461069c565b6001600160a01b038416600090815260cb60209081526040808320338085529252909120549061041c9086906104178685610f51565b6105b7565b506001949350505050565b60009081526065602052604090206001015490565b61044682826107d0565b600082815260976020526040902061045e90826107ed565b505050565b61046d8282610802565b600082815260976020526040902061045e9082610880565b33600081815260cb602090815260408083206001600160a01b038716845290915281205490916103cb918590610417908690610f1a565b60008281526097602052604081206104d49083610895565b9392505050565b60009182526065602090815260408084206001600160a01b0393909316845291905290205460ff1690565b606060ce805461033b90610fab565b33600081815260cb602090815260408083206001600160a01b0387168452909152812054909161054a90856104178685610f51565b5060019392505050565b60006103cb33848461069c565b6000818152609760205260408120610326906108a1565b61046d82826108ab565b60006001600160e01b03198216637965db0b60e01b148061032657506301ffc9a760e01b6001600160e01b0319831614610326565b6001600160a01b038316158015906105d757506001600160a01b03821615155b61063b5760405162461bcd60e51b815260206004820152602a60248201527f45524332303a20617070726f76652066726f6d206f7220746f20746865207a65604482015269726f206164647265737360b01b60648201526084015b60405180910390fd5b6001600160a01b03838116600081815260cb602090815260408083209487168084529482529182902085905590518481527f8c5be1e5ebec7d5bd14f71427d1e84f3dd0314c0f7b2291e5b200ac8c7c3b925910160405180910390a3505050565b6001600160a01b038316158015906106bc57506001600160a01b03821615155b61071c5760405162461bcd60e51b815260206004820152602b60248201527f45524332303a207472616e736665722066726f6d206f7220746f20746865207a60448201526a65726f206164647265737360a81b6064820152608401610632565b6001600160a01b038316600090815260ca602052604090205461073f8282610f51565b6001600160a01b03808616600090815260ca60205260408082209390935590851681529081208054849290610775908490610f1a565b92505081905550826001600160a01b0316846001600160a01b03167fddf252ad1be2c89b69c2b068fc378daa952ba7f163c4a11628f55a4df523b3ef846040516107c191815260200190565b60405180910390a35b50505050565b6107d982610427565b6107e381336108c8565b61045e838361092c565b60006104d4836001600160a01b0384166109b2565b6001600160a01b03811633146108725760405162461bcd60e51b815260206004820152602f60248201527f416363657373436f6e74726f6c3a2063616e206f6e6c792072656e6f756e636560448201526e103937b632b9903337b91039b2b63360891b6064820152608401610632565b61087c8282610a01565b5050565b60006104d4836001600160a01b038416610a68565b60006104d48383610b5b565b6000610326825490565b6108b482610427565b6108be81336108c8565b61045e8383610a01565b6108d282826104db565b61087c576108ea816001600160a01b03166014610b85565b6108f5836020610b85565b604051602001610906929190610e78565b60408051601f198184030181529082905262461bcd60e51b825261063291600401610ee7565b61093682826104db565b61087c5760008281526065602090815260408083206001600160a01b03851684529091529020805460ff1916600117905561096e3390565b6001600160a01b0316816001600160a01b0316837f2f8788117e7eff1d82e926ec794901d17c78024a50270940304540a733656f0d60405160405180910390a45050565b60008181526001830160205260408120546109f957508154600181810184556000848152602080822090930184905584548482528286019093526040902091909155610326565b506000610326565b610a0b82826104db565b1561087c5760008281526065602090815260408083206001600160a01b0385168085529252808320805460ff1916905551339285917ff6391f5c32d9c69d2a47ea670b442974b53935d1edc7fd64eb21e047a839171b9190a45050565b60008181526001830160205260408120548015610b51576000610a8c600183610f51565b8554909150600090610aa090600190610f51565b9050818114610b05576000866000018281548110610ac057610ac0611012565b9060005260206000200154905080876000018481548110610ae357610ae3611012565b6000918252602080832090910192909255918252600188019052604090208390555b8554869080610b1657610b16610ffc565b600190038181906000526020600020016000905590558560010160008681526020019081526020016000206000905560019350505050610326565b6000915050610326565b6000826000018281548110610b7257610b72611012565b9060005260206000200154905092915050565b60606000610b94836002610f32565b610b9f906002610f1a565b6001600160401b03811115610bb657610bb6611028565b6040519080825280601f01601f191660200182016040528015610be0576020820181803683370190505b509050600360fc1b81600081518110610bfb57610bfb611012565b60200101906001600160f81b031916908160001a905350600f60fb1b81600181518110610c2a57610c2a611012565b60200101906001600160f81b031916908160001a9053506000610c4e846002610f32565b610c59906001610f1a565b90505b6001811115610cd1576f181899199a1a9b1b9c1cb0b131b232b360811b85600f1660108110610c8d57610c8d611012565b1a60f81b828281518110610ca357610ca3611012565b60200101906001600160f81b031916908160001a90535060049490941c93610cca81610f94565b9050610c5c565b5083156104d45760405162461bcd60e51b815260206004820181905260248201527f537472696e67733a20686578206c656e67746820696e73756666696369656e746044820152606401610632565b80356001600160a01b0381168114610d3757600080fd5b919050565b600060208284031215610d4e57600080fd5b6104d482610d20565b60008060408385031215610d6a57600080fd5b610d7383610d20565b9150610d8160208401610d20565b90509250929050565b600080600060608486031215610d9f57600080fd5b610da884610d20565b9250610db660208501610d20565b9150604084013590509250925092565b60008060408385031215610dd957600080fd5b610de283610d20565b946020939093013593505050565b600060208284031215610e0257600080fd5b5035919050565b60008060408385031215610e1c57600080fd5b82359150610d8160208401610d20565b60008060408385031215610e3f57600080fd5b50508035926020909101359150565b600060208284031215610e6057600080fd5b81356001600160e01b0319811681146104d457600080fd5b76020b1b1b2b9b9a1b7b73a3937b61d1030b1b1b7bab73a1604d1b815260008351610eaa816017850160208801610f68565b7001034b99036b4b9b9b4b733903937b6329607d1b6017918401918201528351610edb816028840160208801610f68565b01602801949350505050565b6020815260008251806020840152610f06816040850160208701610f68565b601f01601f19169190910160400192915050565b60008219821115610f2d57610f2d610fe6565b500190565b6000816000190483118215151615610f4c57610f4c610fe6565b500290565b600082821015610f6357610f63610fe6565b500390565b60005b83811015610f83578181015183820152602001610f6b565b838111156107ca5750506000910152565b600081610fa357610fa3610fe6565b506000190190565b600181811c90821680610fbf57607f821691505b60208210811415610fe057634e487b7160e01b600052602260045260246000fd5b50919050565b634e487b7160e01b600052601160045260246000fd5b634e487b7160e01b600052603160045260246000fd5b634e487b7160e01b600052603260045260246000fd5b634e487b7160e01b600052604160045260246000fdfea264697066735822122089c007fd24574caf017a728f4ffc1a8ac7b96dbc7c1d9c1bf83f7bf91b42342c64736f6c63430008070033",
  "immutableReferences": {},
  "source": "// SPDX-License-Identifier: MIT\npragma solidity >=0.8.6;\n\nimport \"./AccessControlEnumerableUpgradeable.sol\";\nimport \"@openzeppelin/contracts-upgradeable/proxy/utils/Initializable.sol\";\nimport \"./ERC20Upgradeable.sol\";\nimport \"../libs/GluwacoinModel.sol\";\n\nimport \"../libs/Validate.sol\";\n\n/**\n * @dev Extension of {ERC20} that allows users to send ETHless transfer by hiring a transaction relayer to pay the\n * gas fee for them. The relayer gets paid in this ERC20 token for `fee`.\n */\ncontract ETHlessTransfer is\n    Initializable,\n    AccessControlEnumerableUpgradeable,\n    ERC20Upgradeable\n{\n    using AddressUpgradeable for address;\n    using ECDSAUpgradeable for bytes32;\n\n    mapping(address => mapping(uint256 => bool)) private _usedNonces;\n\n    // collects transaction relay fee\n    bytes32 public constant RELAYER_ROLE = keccak256(\"RELAYER_ROLE\");\n\n    function __ERC20ETHless_init_unchained(\n        string memory name_,\n        string memory symbol_\n    ) internal initializer {\n        __ERC20_init_unchained(name_, symbol_);\n        _setupRole(RELAYER_ROLE, _msgSender());\n    }\n\n    /**\n     * @dev Moves `amount` tokens from the `sender`'s account to `recipient`\n     * and moves `fee` tokens from the `sender`'s account to a relayer's address.\n     *\n     * Returns a boolean value indicating whether the operation succeeded.\n     *\n     * Emits two {Transfer} events.\n     *\n     * Requirements:\n     *\n     * - `recipient` cannot be the zero address.\n     * - the `sender` must have a balance of at least the sum of `amount` and `fee`.\n     * - the `nonce` is only used once per `sender`.\n     */\n    function _transfer(\n        address sender,\n        address recipient,\n        uint256 amount,\n        uint256 fee,\n        uint256 nonce,\n        bytes calldata sig\n    ) internal virtual returns (bool success) {\n        uint256 senderBalance = balanceOf(sender);\n        require(\n            senderBalance >= (amount + fee),\n            \"ERC20ETHless: the balance is not sufficient\"\n        );\n\n        _useNonce(sender, nonce);\n\n        bytes32 hash = keccak256(\n            abi.encodePacked(\n                GluwacoinModel.SigDomain.Transfer,\n                block.chainid,\n                address(this),\n                sender,\n                recipient,\n                amount,\n                fee,\n                nonce\n            )\n        );\n        Validate._validateSignature(hash, sender, sig);\n\n        _collect(sender, fee);\n        _transfer(sender, recipient, amount);\n\n        return true;\n    }\n\n    function _useNonce(address signer, uint256 nonce) internal {\n        require(\n            !_usedNonces[signer][nonce],\n            \"ETHless: the nonce has already been used for this address\"\n        );\n        _usedNonces[signer][nonce] = true;\n    }\n\n    /** @dev check the amount of available tokens of sender to transfer.\n     *\n     * Do 2 checks:\n     * - Total balance must be equal or higher than the transferring amount.\n     * - Unreserving (the amount of tokens are not put as a reserve) must be equal or higher than the transferring amount.\n     */\n\n    function _beforeTokenTransfer(\n        address from,\n        address to,\n        uint256 amount\n    ) internal virtual override(ERC20Upgradeable) {\n        ERC20Upgradeable._beforeTokenTransfer(from, to, amount);\n    }\n\n    /** @dev Collects `fee` from the sender.\n     *\n     * Emits a {Transfer} event.\n     */\n    function _collect(address sender, uint256 amount) internal {\n        address relayer = getRoleMember(RELAYER_ROLE, 0);\n\n        _transfer(sender, relayer, amount);\n    }\n\n    uint256[50] private __gap;\n}\n",
  "sourcePath": "/home/osboxes/KRWC-G-1/contracts/abstracts/ETHlessTransfer.sol",
  "compiler": {
    "name": "solc",
    "version": "0.8.7+commit.e28d00a7.Emscripten.clang"
  },
  "schemaVersion": "3.3.4",
  "updatedAt": "2021-08-13T23:43:40.173Z",
  "devdoc": {
    "details": "Extension of {ERC20} that allows users to send ETHless transfer by hiring a transaction relayer to pay the gas fee for them. The relayer gets paid in this ERC20 token for `fee`.",
    "kind": "dev",
    "methods": {
      "allowance(address,address)": {
        "details": "See {IERC20-allowance}."
      },
      "approve(address,uint256)": {
        "details": "See {IERC20-approve}. Requirements: - `spender` cannot be the zero address."
      },
      "balanceOf(address)": {
        "details": "See {IERC20-balanceOf}."
      },
      "decimals()": {
        "details": "Returns the number of decimals used to get its user representation. For example, if `decimals` equals `2`, a balance of `505` tokens should be displayed to a user as `5,05` (`505 / 10 ** 2`). Tokens usually opt for a value of 18, imitating the relationship between Ether and Wei. This is the value {ERC20} uses, unless this function is overridden; NOTE: This information is only used for _display_ purposes: it in no way affects any of the arithmetic of the contract, including {IERC20-balanceOf} and {IERC20-transfer}."
      },
      "decreaseAllowance(address,uint256)": {
        "details": "Atomically decreases the allowance granted to `spender` by the caller. This is an alternative to {approve} that can be used as a mitigation for problems described in {IERC20-approve}. Emits an {Approval} event indicating the updated allowance. Requirements: - `spender` cannot be the zero address. - `spender` must have allowance for the caller of at least `subtractedValue`."
      },
      "getRoleAdmin(bytes32)": {
        "details": "Returns the admin role that controls `role`. See {grantRole} and {revokeRole}. To change a role's admin, use {_setRoleAdmin}."
      },
      "getRoleMember(bytes32,uint256)": {
        "details": "Returns one of the accounts that have `role`. `index` must be a value between 0 and {getRoleMemberCount}, non-inclusive. Role bearers are not sorted in any particular way, and their ordering may change at any point. WARNING: When using {getRoleMember} and {getRoleMemberCount}, make sure you perform all queries on the same block. See the following https://forum.openzeppelin.com/t/iterating-over-elements-on-enumerableset-in-openzeppelin-contracts/2296[forum post] for more information."
      },
      "getRoleMemberCount(bytes32)": {
        "details": "Returns the number of accounts that have `role`. Can be used together with {getRoleMember} to enumerate all bearers of a role."
      },
      "grantRole(bytes32,address)": {
        "details": "Overload {grantRole} to track enumerable memberships"
      },
      "hasRole(bytes32,address)": {
        "details": "Returns `true` if `account` has been granted `role`."
      },
      "increaseAllowance(address,uint256)": {
        "details": "Atomically increases the allowance granted to `spender` by the caller. This is an alternative to {approve} that can be used as a mitigation for problems described in {IERC20-approve}. Emits an {Approval} event indicating the updated allowance. Requirements: - `spender` cannot be the zero address."
      },
      "name()": {
        "details": "Returns the name of the token."
      },
      "renounceRole(bytes32,address)": {
        "details": "Overload {renounceRole} to track enumerable memberships"
      },
      "revokeRole(bytes32,address)": {
        "details": "Overload {revokeRole} to track enumerable memberships"
      },
      "supportsInterface(bytes4)": {
        "details": "See {IERC165-supportsInterface}."
      },
      "symbol()": {
        "details": "Returns the symbol of the token, usually a shorter version of the name."
      },
      "totalSupply()": {
        "details": "See {IERC20-totalSupply}."
      },
      "transfer(address,uint256)": {
        "details": "See {IERC20-transfer}. Requirements: - `recipient` cannot be the zero address. - the caller must have a balance of at least `amount`."
      },
      "transferFrom(address,address,uint256)": {
        "details": "See {IERC20-transferFrom}. Emits an {Approval} event indicating the updated allowance. This is not required by the EIP. See the note at the beginning of {ERC20}. Requirements: - `sender` and `recipient` cannot be the zero address. - `sender` must have a balance of at least `amount`. - the caller must have allowance for ``sender``'s tokens of at least `amount`."
      }
    },
    "version": 1
  },
  "userdoc": {
    "kind": "user",
    "methods": {},
    "version": 1
  }
}