{
  "contractName": "ETHlessTransfer",
  "abi": [
    {
      "anonymous": false,
      "inputs": [
        {
          "indexed": true,
          "internalType": "address",
          "name": "owner",
          "type": "address"
        },
        {
          "indexed": true,
          "internalType": "address",
          "name": "spender",
          "type": "address"
        },
        {
          "indexed": false,
          "internalType": "uint256",
          "name": "value",
          "type": "uint256"
        }
      ],
      "name": "Approval",
      "type": "event"
    },
    {
      "anonymous": false,
      "inputs": [
        {
          "indexed": true,
          "internalType": "bytes32",
          "name": "role",
          "type": "bytes32"
        },
        {
          "indexed": true,
          "internalType": "bytes32",
          "name": "previousAdminRole",
          "type": "bytes32"
        },
        {
          "indexed": true,
          "internalType": "bytes32",
          "name": "newAdminRole",
          "type": "bytes32"
        }
      ],
      "name": "RoleAdminChanged",
      "type": "event"
    },
    {
      "anonymous": false,
      "inputs": [
        {
          "indexed": true,
          "internalType": "bytes32",
          "name": "role",
          "type": "bytes32"
        },
        {
          "indexed": true,
          "internalType": "address",
          "name": "account",
          "type": "address"
        },
        {
          "indexed": true,
          "internalType": "address",
          "name": "sender",
          "type": "address"
        }
      ],
      "name": "RoleGranted",
      "type": "event"
    },
    {
      "anonymous": false,
      "inputs": [
        {
          "indexed": true,
          "internalType": "bytes32",
          "name": "role",
          "type": "bytes32"
        },
        {
          "indexed": true,
          "internalType": "address",
          "name": "account",
          "type": "address"
        },
        {
          "indexed": true,
          "internalType": "address",
          "name": "sender",
          "type": "address"
        }
      ],
      "name": "RoleRevoked",
      "type": "event"
    },
    {
      "anonymous": false,
      "inputs": [
        {
          "indexed": true,
          "internalType": "address",
          "name": "from",
          "type": "address"
        },
        {
          "indexed": true,
          "internalType": "address",
          "name": "to",
          "type": "address"
        },
        {
          "indexed": false,
          "internalType": "uint256",
          "name": "value",
          "type": "uint256"
        }
      ],
      "name": "Transfer",
      "type": "event"
    },
    {
      "inputs": [],
      "name": "DEFAULT_ADMIN_ROLE",
      "outputs": [
        {
          "internalType": "bytes32",
          "name": "",
          "type": "bytes32"
        }
      ],
      "stateMutability": "view",
      "type": "function"
    },
    {
      "inputs": [],
      "name": "RELAYER_ROLE",
      "outputs": [
        {
          "internalType": "bytes32",
          "name": "",
          "type": "bytes32"
        }
      ],
      "stateMutability": "view",
      "type": "function"
    },
    {
      "inputs": [
        {
          "internalType": "address",
          "name": "owner",
          "type": "address"
        },
        {
          "internalType": "address",
          "name": "spender",
          "type": "address"
        }
      ],
      "name": "allowance",
      "outputs": [
        {
          "internalType": "uint256",
          "name": "",
          "type": "uint256"
        }
      ],
      "stateMutability": "view",
      "type": "function"
    },
    {
      "inputs": [
        {
          "internalType": "address",
          "name": "spender",
          "type": "address"
        },
        {
          "internalType": "uint256",
          "name": "amount",
          "type": "uint256"
        }
      ],
      "name": "approve",
      "outputs": [
        {
          "internalType": "bool",
          "name": "",
          "type": "bool"
        }
      ],
      "stateMutability": "nonpayable",
      "type": "function"
    },
    {
      "inputs": [
        {
          "internalType": "address",
          "name": "account",
          "type": "address"
        }
      ],
      "name": "balanceOf",
      "outputs": [
        {
          "internalType": "uint256",
          "name": "",
          "type": "uint256"
        }
      ],
      "stateMutability": "view",
      "type": "function"
    },
    {
      "inputs": [],
      "name": "decimals",
      "outputs": [
        {
          "internalType": "uint8",
          "name": "",
          "type": "uint8"
        }
      ],
      "stateMutability": "view",
      "type": "function"
    },
    {
      "inputs": [
        {
          "internalType": "address",
          "name": "spender",
          "type": "address"
        },
        {
          "internalType": "uint256",
          "name": "subtractedValue",
          "type": "uint256"
        }
      ],
      "name": "decreaseAllowance",
      "outputs": [
        {
          "internalType": "bool",
          "name": "",
          "type": "bool"
        }
      ],
      "stateMutability": "nonpayable",
      "type": "function"
    },
    {
      "inputs": [
        {
          "internalType": "bytes32",
          "name": "role",
          "type": "bytes32"
        }
      ],
      "name": "getRoleAdmin",
      "outputs": [
        {
          "internalType": "bytes32",
          "name": "",
          "type": "bytes32"
        }
      ],
      "stateMutability": "view",
      "type": "function"
    },
    {
      "inputs": [
        {
          "internalType": "bytes32",
          "name": "role",
          "type": "bytes32"
        },
        {
          "internalType": "uint256",
          "name": "index",
          "type": "uint256"
        }
      ],
      "name": "getRoleMember",
      "outputs": [
        {
          "internalType": "address",
          "name": "",
          "type": "address"
        }
      ],
      "stateMutability": "view",
      "type": "function"
    },
    {
      "inputs": [
        {
          "internalType": "bytes32",
          "name": "role",
          "type": "bytes32"
        }
      ],
      "name": "getRoleMemberCount",
      "outputs": [
        {
          "internalType": "uint256",
          "name": "",
          "type": "uint256"
        }
      ],
      "stateMutability": "view",
      "type": "function"
    },
    {
      "inputs": [
        {
          "internalType": "bytes32",
          "name": "role",
          "type": "bytes32"
        },
        {
          "internalType": "address",
          "name": "account",
          "type": "address"
        }
      ],
      "name": "grantRole",
      "outputs": [],
      "stateMutability": "nonpayable",
      "type": "function"
    },
    {
      "inputs": [
        {
          "internalType": "bytes32",
          "name": "role",
          "type": "bytes32"
        },
        {
          "internalType": "address",
          "name": "account",
          "type": "address"
        }
      ],
      "name": "hasRole",
      "outputs": [
        {
          "internalType": "bool",
          "name": "",
          "type": "bool"
        }
      ],
      "stateMutability": "view",
      "type": "function"
    },
    {
      "inputs": [
        {
          "internalType": "address",
          "name": "spender",
          "type": "address"
        },
        {
          "internalType": "uint256",
          "name": "addedValue",
          "type": "uint256"
        }
      ],
      "name": "increaseAllowance",
      "outputs": [
        {
          "internalType": "bool",
          "name": "",
          "type": "bool"
        }
      ],
      "stateMutability": "nonpayable",
      "type": "function"
    },
    {
      "inputs": [],
      "name": "name",
      "outputs": [
        {
          "internalType": "string",
          "name": "",
          "type": "string"
        }
      ],
      "stateMutability": "view",
      "type": "function"
    },
    {
      "inputs": [
        {
          "internalType": "bytes32",
          "name": "role",
          "type": "bytes32"
        },
        {
          "internalType": "address",
          "name": "account",
          "type": "address"
        }
      ],
      "name": "renounceRole",
      "outputs": [],
      "stateMutability": "nonpayable",
      "type": "function"
    },
    {
      "inputs": [
        {
          "internalType": "bytes32",
          "name": "role",
          "type": "bytes32"
        },
        {
          "internalType": "address",
          "name": "account",
          "type": "address"
        }
      ],
      "name": "revokeRole",
      "outputs": [],
      "stateMutability": "nonpayable",
      "type": "function"
    },
    {
      "inputs": [
        {
          "internalType": "bytes4",
          "name": "interfaceId",
          "type": "bytes4"
        }
      ],
      "name": "supportsInterface",
      "outputs": [
        {
          "internalType": "bool",
          "name": "",
          "type": "bool"
        }
      ],
      "stateMutability": "view",
      "type": "function"
    },
    {
      "inputs": [],
      "name": "symbol",
      "outputs": [
        {
          "internalType": "string",
          "name": "",
          "type": "string"
        }
      ],
      "stateMutability": "view",
      "type": "function"
    },
    {
      "inputs": [],
      "name": "totalSupply",
      "outputs": [
        {
          "internalType": "uint256",
          "name": "",
          "type": "uint256"
        }
      ],
      "stateMutability": "view",
      "type": "function"
    },
    {
      "inputs": [
        {
          "internalType": "address",
          "name": "sender",
          "type": "address"
        },
        {
          "internalType": "address",
          "name": "recipient",
          "type": "address"
        },
        {
          "internalType": "uint256",
          "name": "amount",
          "type": "uint256"
        }
      ],
      "name": "transferFrom",
      "outputs": [
        {
          "internalType": "bool",
          "name": "",
          "type": "bool"
        }
      ],
      "stateMutability": "nonpayable",
      "type": "function"
    },
    {
      "inputs": [
        {
          "internalType": "address",
          "name": "sender",
          "type": "address"
        },
        {
          "internalType": "address",
          "name": "recipient",
          "type": "address"
        },
        {
          "internalType": "uint256",
          "name": "amount",
          "type": "uint256"
        },
        {
          "internalType": "uint256",
          "name": "fee",
          "type": "uint256"
        },
        {
          "internalType": "uint256",
          "name": "nonce",
          "type": "uint256"
        },
        {
          "internalType": "bytes",
          "name": "sig",
          "type": "bytes"
        }
      ],
      "name": "transfer",
      "outputs": [
        {
          "internalType": "bool",
          "name": "success",
          "type": "bool"
        }
      ],
      "stateMutability": "nonpayable",
      "type": "function"
    },
    {
      "inputs": [
        {
          "internalType": "address",
          "name": "recipient",
          "type": "address"
        },
        {
          "internalType": "uint256",
          "name": "amount",
          "type": "uint256"
        }
      ],
      "name": "transfer",
      "outputs": [
        {
          "internalType": "bool",
          "name": "",
          "type": "bool"
        }
      ],
      "stateMutability": "nonpayable",
      "type": "function"
    }
  ],
  "bytecode": "0x608060405234801561001057600080fd5b50611717806100206000396000f3fe608060405234801561001057600080fd5b50600436106101125760003560e01c806301ffc9a71461011757806306fdde031461013f578063095ea7b3146101545780630982d5b01461016757806318160ddd1461017a57806323b872dd1461018c578063248a9ca31461019f5780632f2ff15d146101b2578063313ce567146101c757806336568abe146101d657806339509351146101e957806370a08231146101fc5780639010d07c1461020f57806391d148541461023a578063926d7d7f1461024d57806395d89b4114610262578063a217fddf1461026a578063a457c2d714610272578063a9059cbb14610285578063ca15c87314610298578063d547741f146102ab578063dd62ed3e146102be575b600080fd5b61012a61012536600461145d565b6102f7565b60405190151581526020015b60405180910390f35b610147610322565b604051610136919061156a565b61012a6101623660046113d5565b6103b4565b61012a610175366004611325565b6103ca565b60cc545b604051908152602001610136565b61012a61019a3660046112e9565b6104f5565b61017e6101ad3660046113ff565b610548565b6101c56101c0366004611418565b61055d565b005b60405160128152602001610136565b6101c56101e4366004611418565b610584565b61012a6101f73660046113d5565b6105a6565b61017e61020a36600461129b565b6105dd565b61022261021d36600461143b565b6105f8565b6040516001600160a01b039091168152602001610136565b61012a610248366004611418565b610617565b61017e6000805160206116c283398151915281565b610147610642565b61017e600081565b61012a6102803660046113d5565b610651565b61012a6102933660046113d5565b610690565b61017e6102a63660046113ff565b61069d565b6101c56102b9366004611418565b6106b4565b61017e6102cc3660046112b6565b6001600160a01b03918216600090815260cb6020908152604080832093909416825291909152205490565b60006001600160e01b03198216635a05180f60e01b148061031c575061031c826106be565b92915050565b606060cd80546103319061162e565b80601f016020809104026020016040519081016040528092919081815260200182805461035d9061162e565b80156103aa5780601f1061037f576101008083540402835291602001916103aa565b820191906000526020600020905b81548152906001019060200180831161038d57829003601f168201915b5050505050905090565b60006103c13384846106f3565b50600192915050565b6000806103d6896105dd565b90506103e2868861159d565b81101561044a5760405162461bcd60e51b815260206004820152602b60248201527f45524332304554486c6573733a207468652062616c616e6365206973206e6f7460448201526a081cdd59999a58da595b9d60aa1b60648201526084015b60405180910390fd5b61045489866107d3565b6000600346308c8c8c8c8c604051602001610476989796959493929190611487565b6040516020818303038152906040528051906020012090506104cf818b87878080601f01602080910402602001604051908101604052809392919081815260200183838082843760009201919091525061089b92505050565b506104da8a8861096f565b6104e58a8a8a610993565b5060019998505050505050505050565b6000610502848484610993565b6001600160a01b038416600090815260cb60209081526040808320338085529252909120549061053d90869061053886856115d4565b6106f3565b506001949350505050565b60009081526065602052604090206001015490565b6105678282610ac7565b600082815260976020526040902061057f9082610ae4565b505050565b61058e8282610af9565b600082815260976020526040902061057f9082610b77565b33600081815260cb602090815260408083206001600160a01b038716845290915281205490916103c191859061053890869061159d565b6001600160a01b0316600090815260ca602052604090205490565b60008281526097602052604081206106109083610b8c565b9392505050565b60009182526065602090815260408084206001600160a01b0393909316845291905290205460ff1690565b606060ce80546103319061162e565b33600081815260cb602090815260408083206001600160a01b03871684529091528120549091610686908561053886856115d4565b5060019392505050565b60006103c1338484610993565b600081815260976020526040812061031c90610b98565b61058e8282610ba2565b60006001600160e01b03198216637965db0b60e01b148061031c57506301ffc9a760e01b6001600160e01b031983161461031c565b6001600160a01b0383161580159061071357506001600160a01b03821615155b6107725760405162461bcd60e51b815260206004820152602a60248201527f45524332303a20617070726f76652066726f6d206f7220746f20746865207a65604482015269726f206164647265737360b01b6064820152608401610441565b6001600160a01b03838116600081815260cb602090815260408083209487168084529482529182902085905590518481527f8c5be1e5ebec7d5bd14f71427d1e84f3dd0314c0f7b2291e5b200ac8c7c3b925910160405180910390a3505050565b6001600160a01b03821660009081526101016020908152604080832084845290915290205460ff161561086a5760405162461bcd60e51b815260206004820152603960248201527f4554486c6573733a20746865206e6f6e63652068617320616c7265616479206260448201527865656e207573656420666f722074686973206164647265737360381b6064820152608401610441565b6001600160a01b0390911660009081526101016020908152604080832093835292905220805460ff19166001179055565b6000806108f4856040517b0ca2ba3432b932bab69029b4b3b732b21026b2b9b9b0b3b29d05199960211b6020820152603c8101829052600090605c01604051602081830303815290604052805190602001209050919050565b905060006109028285610bbf565b9050846001600160a01b0316816001600160a01b0316146109635760405162461bcd60e51b815260206004820152601b60248201527a56616c69646174653a20696e76616c6964207369676e617475726560281b6044820152606401610441565b50600195945050505050565b600061098a6000805160206116c283398151915260006105f8565b905061057f8382845b6001600160a01b038316158015906109b357506001600160a01b03821615155b610a135760405162461bcd60e51b815260206004820152602b60248201527f45524332303a207472616e736665722066726f6d206f7220746f20746865207a60448201526a65726f206164647265737360a81b6064820152608401610441565b6001600160a01b038316600090815260ca6020526040902054610a3682826115d4565b6001600160a01b03808616600090815260ca60205260408082209390935590851681529081208054849290610a6c90849061159d565b92505081905550826001600160a01b0316846001600160a01b03167fddf252ad1be2c89b69c2b068fc378daa952ba7f163c4a11628f55a4df523b3ef84604051610ab891815260200190565b60405180910390a35b50505050565b610ad082610548565b610ada8133610c63565b61057f8383610cc7565b6000610610836001600160a01b038416610d4d565b6001600160a01b0381163314610b695760405162461bcd60e51b815260206004820152602f60248201527f416363657373436f6e74726f6c3a2063616e206f6e6c792072656e6f756e636560448201526e103937b632b9903337b91039b2b63360891b6064820152608401610441565b610b738282610d9c565b5050565b6000610610836001600160a01b038416610e03565b60006106108383610ef6565b600061031c825490565b610bab82610548565b610bb58133610c63565b61057f8383610d9c565b6000815160411415610bf35760208201516040830151606084015160001a610be986828585610f20565b935050505061031c565b815160401415610c1b5760208201516040830151610c128583836110ba565b9250505061031c565b60405162461bcd60e51b815260206004820152601f60248201527f45434453413a20696e76616c6964207369676e6174757265206c656e677468006044820152606401610441565b610c6d8282610617565b610b7357610c85816001600160a01b031660146110e4565b610c908360206110e4565b604051602001610ca19291906114fb565b60408051601f198184030181529082905262461bcd60e51b82526104419160040161156a565b610cd18282610617565b610b735760008281526065602090815260408083206001600160a01b03851684529091529020805460ff19166001179055610d093390565b6001600160a01b0316816001600160a01b0316837f2f8788117e7eff1d82e926ec794901d17c78024a50270940304540a733656f0d60405160405180910390a45050565b6000818152600183016020526040812054610d945750815460018181018455600084815260208082209093018490558454848252828601909352604090209190915561031c565b50600061031c565b610da68282610617565b15610b735760008281526065602090815260408083206001600160a01b0385168085529252808320805460ff1916905551339285917ff6391f5c32d9c69d2a47ea670b442974b53935d1edc7fd64eb21e047a839171b9190a45050565b60008181526001830160205260408120548015610eec576000610e276001836115d4565b8554909150600090610e3b906001906115d4565b9050818114610ea0576000866000018281548110610e5b57610e5b611695565b9060005260206000200154905080876000018481548110610e7e57610e7e611695565b6000918252602080832090910192909255918252600188019052604090208390555b8554869080610eb157610eb161167f565b60019003818190600052602060002001600090559055856001016000868152602001908152602001600020600090556001935050505061031c565b600091505061031c565b6000826000018281548110610f0d57610f0d611695565b9060005260206000200154905092915050565b60006fa2a8918ca85bafe22016d0b997e4df60600160ff1b03821115610f935760405162461bcd60e51b815260206004820152602260248201527f45434453413a20696e76616c6964207369676e6174757265202773272076616c604482015261756560f01b6064820152608401610441565b8360ff16601b1480610fa857508360ff16601c145b610fff5760405162461bcd60e51b815260206004820152602260248201527f45434453413a20696e76616c6964207369676e6174757265202776272076616c604482015261756560f01b6064820152608401610441565b6040805160008082526020820180845288905260ff871692820192909252606081018590526080810184905260019060a0016020604051602081039080840390855afa158015611053573d6000803e3d6000fd5b5050604051601f1901519150506001600160a01b0381166110b15760405162461bcd60e51b815260206004820152601860248201527745434453413a20696e76616c6964207369676e617475726560401b6044820152606401610441565b95945050505050565b60006001600160ff1b03821660ff83901c601b016110da86828785610f20565b9695505050505050565b606060006110f38360026115b5565b6110fe90600261159d565b6001600160401b03811115611115576111156116ab565b6040519080825280601f01601f19166020018201604052801561113f576020820181803683370190505b509050600360fc1b8160008151811061115a5761115a611695565b60200101906001600160f81b031916908160001a905350600f60fb1b8160018151811061118957611189611695565b60200101906001600160f81b031916908160001a90535060006111ad8460026115b5565b6111b890600161159d565b90505b6001811115611230576f181899199a1a9b1b9c1cb0b131b232b360811b85600f16601081106111ec576111ec611695565b1a60f81b82828151811061120257611202611695565b60200101906001600160f81b031916908160001a90535060049490941c9361122981611617565b90506111bb565b5083156106105760405162461bcd60e51b815260206004820181905260248201527f537472696e67733a20686578206c656e67746820696e73756666696369656e746044820152606401610441565b80356001600160a01b038116811461129657600080fd5b919050565b6000602082840312156112ad57600080fd5b6106108261127f565b600080604083850312156112c957600080fd5b6112d28361127f565b91506112e06020840161127f565b90509250929050565b6000806000606084860312156112fe57600080fd5b6113078461127f565b92506113156020850161127f565b9150604084013590509250925092565b600080600080600080600060c0888a03121561134057600080fd5b6113498861127f565b96506113576020890161127f565b955060408801359450606088013593506080880135925060a08801356001600160401b038082111561138857600080fd5b818a0191508a601f83011261139c57600080fd5b8135818111156113ab57600080fd5b8b60208285010111156113bd57600080fd5b60208301945080935050505092959891949750929550565b600080604083850312156113e857600080fd5b6113f18361127f565b946020939093013593505050565b60006020828403121561141157600080fd5b5035919050565b6000806040838503121561142b57600080fd5b823591506112e06020840161127f565b6000806040838503121561144e57600080fd5b50508035926020909101359150565b60006020828403121561146f57600080fd5b81356001600160e01b03198116811461061057600080fd5b600060058a106114a757634e487b7160e01b600052602160045260246000fd5b5060f89890981b885260018801969096526001600160601b0319606095861b8116602189015293851b841660358801529190931b9091166049850152605d840191909152607d830152609d82015260bd0190565b76020b1b1b2b9b9a1b7b73a3937b61d1030b1b1b7bab73a1604d1b81526000835161152d8160178501602088016115eb565b7001034b99036b4b9b9b4b733903937b6329607d1b601791840191820152835161155e8160288401602088016115eb565b01602801949350505050565b60208152600082518060208401526115898160408501602087016115eb565b601f01601f19169190910160400192915050565b600082198211156115b0576115b0611669565b500190565b60008160001904831182151516156115cf576115cf611669565b500290565b6000828210156115e6576115e6611669565b500390565b60005b838110156116065781810151838201526020016115ee565b83811115610ac15750506000910152565b60008161162657611626611669565b506000190190565b600181811c9082168061164257607f821691505b6020821081141561166357634e487b7160e01b600052602260045260246000fd5b50919050565b634e487b7160e01b600052601160045260246000fd5b634e487b7160e01b600052603160045260246000fd5b634e487b7160e01b600052603260045260246000fd5b634e487b7160e01b600052604160045260246000fdfee2b7fb3b832174769106daebcfd6d1970523240dda11281102db9363b83b0dc4a2646970667358221220ba4b676c75f2870cb006ab36da5f589ffd659d2d2852dbbdd745c95d74bbdf0964736f6c63430008070033",
  "immutableReferences": {},
  "source": "// SPDX-License-Identifier: MIT\npragma solidity >=0.8.6;\n\nimport \"./AccessControlEnumerableUpgradeable.sol\";\nimport \"@openzeppelin/contracts-upgradeable/proxy/utils/Initializable.sol\";\nimport \"./ERC20Upgradeable.sol\";\nimport \"../libs/GluwacoinModel.sol\";\n\nimport \"../libs/Validate.sol\";\n\n/**\n * @dev Extension of {ERC20} that allows users to send ETHless transfer by hiring a transaction relayer to pay the\n * gas fee for them. The relayer gets paid in this ERC20 token for `fee`.\n */\ncontract ETHlessTransfer is\n    Initializable,\n    AccessControlEnumerableUpgradeable,\n    ERC20Upgradeable\n{\n    using AddressUpgradeable for address;\n    using ECDSAUpgradeable for bytes32;\n\n    mapping(address => mapping(uint256 => bool)) private _usedNonces;\n\n    // collects transaction relay fee\n    bytes32 public constant RELAYER_ROLE = keccak256(\"RELAYER_ROLE\");\n\n    function __ERC20ETHless_init_unchained(\n        string memory name_,\n        string memory symbol_\n    ) internal initializer {\n        __ERC20_init_unchained(name_, symbol_);\n        _setupRole(RELAYER_ROLE, _msgSender());\n    }\n\n    /**\n     * @dev Moves `amount` tokens from the `sender`'s account to `recipient`\n     * and moves `fee` tokens from the `sender`'s account to a relayer's address.\n     *\n     * Returns a boolean value indicating whether the operation succeeded.\n     *\n     * Emits two {Transfer} events.\n     *\n     * Requirements:\n     *\n     * - `recipient` cannot be the zero address.\n     * - the `sender` must have a balance of at least the sum of `amount` and `fee`.\n     * - the `nonce` is only used once per `sender`.\n     */\n    function transfer(\n        address sender,\n        address recipient,\n        uint256 amount,\n        uint256 fee,\n        uint256 nonce,\n        bytes calldata sig\n    ) public virtual returns (bool success) {\n        uint256 senderBalance = balanceOf(sender);\n        require(\n            senderBalance >= (amount + fee),\n            \"ERC20ETHless: the balance is not sufficient\"\n        );\n\n        _useNonce(sender, nonce);\n\n        bytes32 hash = keccak256(\n            abi.encodePacked(\n                GluwacoinModel.SigDomain.Transfer,\n                block.chainid,\n                address(this),\n                sender,\n                recipient,\n                amount,\n                fee,\n                nonce\n            )\n        );\n        Validate._validateSignature(hash, sender, sig);\n\n        _collect(sender, fee);\n        _transfer(sender, recipient, amount);\n\n        return true;\n    }\n\n    function _useNonce(address signer, uint256 nonce) internal {\n        require(\n            !_usedNonces[signer][nonce],\n            \"ETHless: the nonce has already been used for this address\"\n        );\n        _usedNonces[signer][nonce] = true;\n    }\n\n    /** @dev check the amount of available tokens of sender to transfer.\n     *\n     * Do 2 checks:\n     * - Total balance must be equal or higher than the transferring amount.\n     * - Unreserving (the amount of tokens are not put as a reserve) must be equal or higher than the transferring amount.\n     */\n\n    function _beforeTokenTransfer(\n        address from,\n        address to,\n        uint256 amount\n    ) internal virtual override(ERC20Upgradeable) {\n        ERC20Upgradeable._beforeTokenTransfer(from, to, amount);\n    }\n\n    /** @dev Collects `fee` from the sender.\n     *\n     * Emits a {Transfer} event.\n     */\n    function _collect(address sender, uint256 amount) internal {\n        address relayer = getRoleMember(RELAYER_ROLE, 0);\n\n        _transfer(sender, relayer, amount);\n    }\n\n    uint256[50] private __gap;\n}\n",
  "sourcePath": "/home/osboxes/KRWC-G-1/contracts/abstracts/ETHlessTransfer.sol",
  "compiler": {
    "name": "solc",
    "version": "0.8.7+commit.e28d00a7.Emscripten.clang"
  },
  "schemaVersion": "3.3.4",
  "updatedAt": "2021-08-24T00:55:58.280Z",
  "devdoc": {
    "details": "Extension of {ERC20} that allows users to send ETHless transfer by hiring a transaction relayer to pay the gas fee for them. The relayer gets paid in this ERC20 token for `fee`.",
    "kind": "dev",
    "methods": {
      "allowance(address,address)": {
        "details": "See {IERC20-allowance}."
      },
      "approve(address,uint256)": {
        "details": "See {IERC20-approve}. Requirements: - `spender` cannot be the zero address."
      },
      "balanceOf(address)": {
        "details": "See {IERC20-balanceOf}."
      },
      "decimals()": {
        "details": "Returns the number of decimals used to get its user representation. For example, if `decimals` equals `2`, a balance of `505` tokens should be displayed to a user as `5,05` (`505 / 10 ** 2`). Tokens usually opt for a value of 18, imitating the relationship between Ether and Wei. This is the value {ERC20} uses, unless this function is overridden; NOTE: This information is only used for _display_ purposes: it in no way affects any of the arithmetic of the contract, including {IERC20-balanceOf} and {IERC20-transfer}."
      },
      "decreaseAllowance(address,uint256)": {
        "details": "Atomically decreases the allowance granted to `spender` by the caller. This is an alternative to {approve} that can be used as a mitigation for problems described in {IERC20-approve}. Emits an {Approval} event indicating the updated allowance. Requirements: - `spender` cannot be the zero address. - `spender` must have allowance for the caller of at least `subtractedValue`."
      },
      "getRoleAdmin(bytes32)": {
        "details": "Returns the admin role that controls `role`. See {grantRole} and {revokeRole}. To change a role's admin, use {_setRoleAdmin}."
      },
      "getRoleMember(bytes32,uint256)": {
        "details": "Returns one of the accounts that have `role`. `index` must be a value between 0 and {getRoleMemberCount}, non-inclusive. Role bearers are not sorted in any particular way, and their ordering may change at any point. WARNING: When using {getRoleMember} and {getRoleMemberCount}, make sure you perform all queries on the same block. See the following https://forum.openzeppelin.com/t/iterating-over-elements-on-enumerableset-in-openzeppelin-contracts/2296[forum post] for more information."
      },
      "getRoleMemberCount(bytes32)": {
        "details": "Returns the number of accounts that have `role`. Can be used together with {getRoleMember} to enumerate all bearers of a role."
      },
      "grantRole(bytes32,address)": {
        "details": "Overload {grantRole} to track enumerable memberships"
      },
      "hasRole(bytes32,address)": {
        "details": "Returns `true` if `account` has been granted `role`."
      },
      "increaseAllowance(address,uint256)": {
        "details": "Atomically increases the allowance granted to `spender` by the caller. This is an alternative to {approve} that can be used as a mitigation for problems described in {IERC20-approve}. Emits an {Approval} event indicating the updated allowance. Requirements: - `spender` cannot be the zero address."
      },
      "name()": {
        "details": "Returns the name of the token."
      },
      "renounceRole(bytes32,address)": {
        "details": "Overload {renounceRole} to track enumerable memberships"
      },
      "revokeRole(bytes32,address)": {
        "details": "Overload {revokeRole} to track enumerable memberships"
      },
      "supportsInterface(bytes4)": {
        "details": "See {IERC165-supportsInterface}."
      },
      "symbol()": {
        "details": "Returns the symbol of the token, usually a shorter version of the name."
      },
      "totalSupply()": {
        "details": "See {IERC20-totalSupply}."
      },
      "transfer(address,address,uint256,uint256,uint256,bytes)": {
        "details": "Moves `amount` tokens from the `sender`'s account to `recipient` and moves `fee` tokens from the `sender`'s account to a relayer's address. Returns a boolean value indicating whether the operation succeeded. Emits two {Transfer} events. Requirements: - `recipient` cannot be the zero address. - the `sender` must have a balance of at least the sum of `amount` and `fee`. - the `nonce` is only used once per `sender`."
      },
      "transfer(address,uint256)": {
        "details": "See {IERC20-transfer}. Requirements: - `recipient` cannot be the zero address. - the caller must have a balance of at least `amount`."
      },
      "transferFrom(address,address,uint256)": {
        "details": "See {IERC20-transferFrom}. Emits an {Approval} event indicating the updated allowance. This is not required by the EIP. See the note at the beginning of {ERC20}. Requirements: - `sender` and `recipient` cannot be the zero address. - `sender` must have a balance of at least `amount`. - the caller must have allowance for ``sender``'s tokens of at least `amount`."
      }
    },
    "version": 1
  },
  "userdoc": {
    "kind": "user",
    "methods": {},
    "version": 1
  }
}