{
  "contractName": "ETHlessTransfer",
  "abi": [
    {
      "anonymous": false,
      "inputs": [
        {
          "indexed": true,
          "internalType": "address",
          "name": "owner",
          "type": "address"
        },
        {
          "indexed": true,
          "internalType": "address",
          "name": "spender",
          "type": "address"
        },
        {
          "indexed": false,
          "internalType": "uint256",
          "name": "value",
          "type": "uint256"
        }
      ],
      "name": "Approval",
      "type": "event"
    },
    {
      "anonymous": false,
      "inputs": [
        {
          "indexed": true,
          "internalType": "bytes32",
          "name": "role",
          "type": "bytes32"
        },
        {
          "indexed": true,
          "internalType": "bytes32",
          "name": "previousAdminRole",
          "type": "bytes32"
        },
        {
          "indexed": true,
          "internalType": "bytes32",
          "name": "newAdminRole",
          "type": "bytes32"
        }
      ],
      "name": "RoleAdminChanged",
      "type": "event"
    },
    {
      "anonymous": false,
      "inputs": [
        {
          "indexed": true,
          "internalType": "bytes32",
          "name": "role",
          "type": "bytes32"
        },
        {
          "indexed": true,
          "internalType": "address",
          "name": "account",
          "type": "address"
        },
        {
          "indexed": true,
          "internalType": "address",
          "name": "sender",
          "type": "address"
        }
      ],
      "name": "RoleGranted",
      "type": "event"
    },
    {
      "anonymous": false,
      "inputs": [
        {
          "indexed": true,
          "internalType": "bytes32",
          "name": "role",
          "type": "bytes32"
        },
        {
          "indexed": true,
          "internalType": "address",
          "name": "account",
          "type": "address"
        },
        {
          "indexed": true,
          "internalType": "address",
          "name": "sender",
          "type": "address"
        }
      ],
      "name": "RoleRevoked",
      "type": "event"
    },
    {
      "anonymous": false,
      "inputs": [
        {
          "indexed": true,
          "internalType": "address",
          "name": "from",
          "type": "address"
        },
        {
          "indexed": true,
          "internalType": "address",
          "name": "to",
          "type": "address"
        },
        {
          "indexed": false,
          "internalType": "uint256",
          "name": "value",
          "type": "uint256"
        }
      ],
      "name": "Transfer",
      "type": "event"
    },
    {
      "inputs": [],
      "name": "DEFAULT_ADMIN_ROLE",
      "outputs": [
        {
          "internalType": "bytes32",
          "name": "",
          "type": "bytes32"
        }
      ],
      "stateMutability": "view",
      "type": "function"
    },
    {
      "inputs": [],
      "name": "RELAYER_ROLE",
      "outputs": [
        {
          "internalType": "bytes32",
          "name": "",
          "type": "bytes32"
        }
      ],
      "stateMutability": "view",
      "type": "function"
    },
    {
      "inputs": [
        {
          "internalType": "address",
          "name": "owner",
          "type": "address"
        },
        {
          "internalType": "address",
          "name": "spender",
          "type": "address"
        }
      ],
      "name": "allowance",
      "outputs": [
        {
          "internalType": "uint256",
          "name": "",
          "type": "uint256"
        }
      ],
      "stateMutability": "view",
      "type": "function"
    },
    {
      "inputs": [
        {
          "internalType": "address",
          "name": "spender",
          "type": "address"
        },
        {
          "internalType": "uint256",
          "name": "amount",
          "type": "uint256"
        }
      ],
      "name": "approve",
      "outputs": [
        {
          "internalType": "bool",
          "name": "",
          "type": "bool"
        }
      ],
      "stateMutability": "nonpayable",
      "type": "function"
    },
    {
      "inputs": [
        {
          "internalType": "address",
          "name": "account",
          "type": "address"
        }
      ],
      "name": "balanceOf",
      "outputs": [
        {
          "internalType": "uint256",
          "name": "",
          "type": "uint256"
        }
      ],
      "stateMutability": "view",
      "type": "function"
    },
    {
      "inputs": [],
      "name": "decimals",
      "outputs": [
        {
          "internalType": "uint8",
          "name": "",
          "type": "uint8"
        }
      ],
      "stateMutability": "view",
      "type": "function"
    },
    {
      "inputs": [
        {
          "internalType": "address",
          "name": "spender",
          "type": "address"
        },
        {
          "internalType": "uint256",
          "name": "subtractedValue",
          "type": "uint256"
        }
      ],
      "name": "decreaseAllowance",
      "outputs": [
        {
          "internalType": "bool",
          "name": "",
          "type": "bool"
        }
      ],
      "stateMutability": "nonpayable",
      "type": "function"
    },
    {
      "inputs": [
        {
          "internalType": "bytes32",
          "name": "role",
          "type": "bytes32"
        }
      ],
      "name": "getRoleAdmin",
      "outputs": [
        {
          "internalType": "bytes32",
          "name": "",
          "type": "bytes32"
        }
      ],
      "stateMutability": "view",
      "type": "function"
    },
    {
      "inputs": [
        {
          "internalType": "bytes32",
          "name": "role",
          "type": "bytes32"
        },
        {
          "internalType": "uint256",
          "name": "index",
          "type": "uint256"
        }
      ],
      "name": "getRoleMember",
      "outputs": [
        {
          "internalType": "address",
          "name": "",
          "type": "address"
        }
      ],
      "stateMutability": "view",
      "type": "function"
    },
    {
      "inputs": [
        {
          "internalType": "bytes32",
          "name": "role",
          "type": "bytes32"
        }
      ],
      "name": "getRoleMemberCount",
      "outputs": [
        {
          "internalType": "uint256",
          "name": "",
          "type": "uint256"
        }
      ],
      "stateMutability": "view",
      "type": "function"
    },
    {
      "inputs": [
        {
          "internalType": "bytes32",
          "name": "role",
          "type": "bytes32"
        },
        {
          "internalType": "address",
          "name": "account",
          "type": "address"
        }
      ],
      "name": "grantRole",
      "outputs": [],
      "stateMutability": "nonpayable",
      "type": "function"
    },
    {
      "inputs": [
        {
          "internalType": "bytes32",
          "name": "role",
          "type": "bytes32"
        },
        {
          "internalType": "address",
          "name": "account",
          "type": "address"
        }
      ],
      "name": "hasRole",
      "outputs": [
        {
          "internalType": "bool",
          "name": "",
          "type": "bool"
        }
      ],
      "stateMutability": "view",
      "type": "function"
    },
    {
      "inputs": [
        {
          "internalType": "address",
          "name": "spender",
          "type": "address"
        },
        {
          "internalType": "uint256",
          "name": "addedValue",
          "type": "uint256"
        }
      ],
      "name": "increaseAllowance",
      "outputs": [
        {
          "internalType": "bool",
          "name": "",
          "type": "bool"
        }
      ],
      "stateMutability": "nonpayable",
      "type": "function"
    },
    {
      "inputs": [],
      "name": "name",
      "outputs": [
        {
          "internalType": "string",
          "name": "",
          "type": "string"
        }
      ],
      "stateMutability": "view",
      "type": "function"
    },
    {
      "inputs": [
        {
          "internalType": "bytes32",
          "name": "role",
          "type": "bytes32"
        },
        {
          "internalType": "address",
          "name": "account",
          "type": "address"
        }
      ],
      "name": "renounceRole",
      "outputs": [],
      "stateMutability": "nonpayable",
      "type": "function"
    },
    {
      "inputs": [
        {
          "internalType": "bytes32",
          "name": "role",
          "type": "bytes32"
        },
        {
          "internalType": "address",
          "name": "account",
          "type": "address"
        }
      ],
      "name": "revokeRole",
      "outputs": [],
      "stateMutability": "nonpayable",
      "type": "function"
    },
    {
      "inputs": [
        {
          "internalType": "bytes4",
          "name": "interfaceId",
          "type": "bytes4"
        }
      ],
      "name": "supportsInterface",
      "outputs": [
        {
          "internalType": "bool",
          "name": "",
          "type": "bool"
        }
      ],
      "stateMutability": "view",
      "type": "function"
    },
    {
      "inputs": [],
      "name": "symbol",
      "outputs": [
        {
          "internalType": "string",
          "name": "",
          "type": "string"
        }
      ],
      "stateMutability": "view",
      "type": "function"
    },
    {
      "inputs": [],
      "name": "totalSupply",
      "outputs": [
        {
          "internalType": "uint256",
          "name": "",
          "type": "uint256"
        }
      ],
      "stateMutability": "view",
      "type": "function"
    },
    {
      "inputs": [
        {
          "internalType": "address",
          "name": "recipient",
          "type": "address"
        },
        {
          "internalType": "uint256",
          "name": "amount",
          "type": "uint256"
        }
      ],
      "name": "transfer",
      "outputs": [
        {
          "internalType": "bool",
          "name": "",
          "type": "bool"
        }
      ],
      "stateMutability": "nonpayable",
      "type": "function"
    },
    {
      "inputs": [
        {
          "internalType": "address",
          "name": "sender",
          "type": "address"
        },
        {
          "internalType": "address",
          "name": "recipient",
          "type": "address"
        },
        {
          "internalType": "uint256",
          "name": "amount",
          "type": "uint256"
        }
      ],
      "name": "transferFrom",
      "outputs": [
        {
          "internalType": "bool",
          "name": "",
          "type": "bool"
        }
      ],
      "stateMutability": "nonpayable",
      "type": "function"
    }
  ],
  "bytecode": "0x608060405234801561001057600080fd5b50612199806100206000396000f3fe608060405234801561001057600080fd5b50600436106101075760003560e01c806301ffc9a71461010c57806306fdde031461013c578063095ea7b31461015a57806318160ddd1461018a57806323b872dd146101a8578063248a9ca3146101d85780632f2ff15d14610208578063313ce5671461022457806336568abe14610242578063395093511461025e57806370a082311461028e5780639010d07c146102be57806391d14854146102ee578063926d7d7f1461031e57806395d89b411461033c578063a217fddf1461035a578063a457c2d714610378578063a9059cbb146103a8578063ca15c873146103d8578063d547741f14610408578063dd62ed3e14610424575b600080fd5b61012660048036038101906101219190611962565b610454565b6040516101339190611b6b565b60405180910390f35b6101446104ce565b6040516101519190611ba1565b60405180910390f35b610174600480360381019061016f9190611875565b610560565b6040516101819190611b6b565b60405180910390f35b61019261057e565b60405161019f9190611c43565b60405180910390f35b6101c260048036038101906101bd9190611822565b610588565b6040516101cf9190611b6b565b60405180910390f35b6101f260048036038101906101ed91906118b5565b610646565b6040516101ff9190611b86565b60405180910390f35b610222600480360381019061021d91906118e2565b610666565b005b61022c61069a565b6040516102399190611c5e565b60405180910390f35b61025c600480360381019061025791906118e2565b6106a3565b005b61027860048036038101906102739190611875565b6106d7565b6040516102859190611b6b565b60405180910390f35b6102a860048036038101906102a391906117b5565b610783565b6040516102b59190611c43565b60405180910390f35b6102d860048036038101906102d39190611922565b6107cc565b6040516102e59190611b50565b60405180910390f35b610308600480360381019061030391906118e2565b6107fb565b6040516103159190611b6b565b60405180910390f35b610326610866565b6040516103339190611b86565b60405180910390f35b61034461088a565b6040516103519190611ba1565b60405180910390f35b61036261091c565b60405161036f9190611b86565b60405180910390f35b610392600480360381019061038d9190611875565b610923565b60405161039f9190611b6b565b60405180910390f35b6103c260048036038101906103bd9190611875565b6109d4565b6040516103cf9190611b6b565b60405180910390f35b6103f260048036038101906103ed91906118b5565b6109f2565b6040516103ff9190611c43565b60405180910390f35b610422600480360381019061041d91906118e2565b610a16565b005b61043e600480360381019061043991906117e2565b610a4a565b60405161044b9190611c43565b60405180910390f35b60007f5a05180f000000000000000000000000000000000000000000000000000000007bffffffffffffffffffffffffffffffffffffffffffffffffffffffff1916827bffffffffffffffffffffffffffffffffffffffffffffffffffffffff191614806104c757506104c682610ad1565b5b9050919050565b606060cd80546104dd90611e6c565b80601f016020809104026020016040519081016040528092919081815260200182805461050990611e6c565b80156105565780601f1061052b57610100808354040283529160200191610556565b820191906000526020600020905b81548152906001019060200180831161053957829003601f168201915b5050505050905090565b600061057461056d610b4b565b8484610b53565b6001905092915050565b600060cc54905090565b6000610595848484610ce7565b600060cb60008673ffffffffffffffffffffffffffffffffffffffff1673ffffffffffffffffffffffffffffffffffffffff16815260200190815260200160002060006105e0610b4b565b73ffffffffffffffffffffffffffffffffffffffff1673ffffffffffffffffffffffffffffffffffffffff16815260200190815260200160002054905061063a85610629610b4b565b85846106359190611d50565b610b53565b60019150509392505050565b600060656000838152602001908152602001600020600101549050919050565b6106708282610efa565b6106958160976000858152602001908152602001600020610f2390919063ffffffff16565b505050565b60006012905090565b6106ad8282610f53565b6106d28160976000858152602001908152602001600020610fd690919063ffffffff16565b505050565b60006107796106e4610b4b565b848460cb60006106f2610b4b565b73ffffffffffffffffffffffffffffffffffffffff1673ffffffffffffffffffffffffffffffffffffffff16815260200190815260200160002060008873ffffffffffffffffffffffffffffffffffffffff1673ffffffffffffffffffffffffffffffffffffffff168152602001908152602001600020546107749190611ca0565b610b53565b6001905092915050565b600060ca60008373ffffffffffffffffffffffffffffffffffffffff1673ffffffffffffffffffffffffffffffffffffffff168152602001908152602001600020549050919050565b60006107f3826097600086815260200190815260200160002061100690919063ffffffff16565b905092915050565b60006065600084815260200190815260200160002060000160008373ffffffffffffffffffffffffffffffffffffffff1673ffffffffffffffffffffffffffffffffffffffff16815260200190815260200160002060009054906101000a900460ff16905092915050565b7fe2b7fb3b832174769106daebcfd6d1970523240dda11281102db9363b83b0dc481565b606060ce805461089990611e6c565b80601f01602080910402602001604051908101604052809291908181526020018280546108c590611e6c565b80156109125780601f106108e757610100808354040283529160200191610912565b820191906000526020600020905b8154815290600101906020018083116108f557829003601f168201915b5050505050905090565b6000801b81565b60008060cb6000610932610b4b565b73ffffffffffffffffffffffffffffffffffffffff1673ffffffffffffffffffffffffffffffffffffffff16815260200190815260200160002060008573ffffffffffffffffffffffffffffffffffffffff1673ffffffffffffffffffffffffffffffffffffffff1681526020019081526020016000205490506109c96109b7610b4b565b8585846109c49190611d50565b610b53565b600191505092915050565b60006109e86109e1610b4b565b8484610ce7565b6001905092915050565b6000610a0f60976000848152602001908152602001600020611020565b9050919050565b610a208282611035565b610a458160976000858152602001908152602001600020610fd690919063ffffffff16565b505050565b600060cb60008473ffffffffffffffffffffffffffffffffffffffff1673ffffffffffffffffffffffffffffffffffffffff16815260200190815260200160002060008373ffffffffffffffffffffffffffffffffffffffff1673ffffffffffffffffffffffffffffffffffffffff16815260200190815260200160002054905092915050565b60007f7965db0b000000000000000000000000000000000000000000000000000000007bffffffffffffffffffffffffffffffffffffffffffffffffffffffff1916827bffffffffffffffffffffffffffffffffffffffffffffffffffffffff19161480610b445750610b438261105e565b5b9050919050565b600033905090565b600073ffffffffffffffffffffffffffffffffffffffff168373ffffffffffffffffffffffffffffffffffffffff1614158015610bbd5750600073ffffffffffffffffffffffffffffffffffffffff168273ffffffffffffffffffffffffffffffffffffffff1614155b610bfc576040517f08c379a0000000000000000000000000000000000000000000000000000000008152600401610bf390611c03565b60405180910390fd5b8060cb60008573ffffffffffffffffffffffffffffffffffffffff1673ffffffffffffffffffffffffffffffffffffffff16815260200190815260200160002060008473ffffffffffffffffffffffffffffffffffffffff1673ffffffffffffffffffffffffffffffffffffffff168152602001908152602001600020819055508173ffffffffffffffffffffffffffffffffffffffff168373ffffffffffffffffffffffffffffffffffffffff167f8c5be1e5ebec7d5bd14f71427d1e84f3dd0314c0f7b2291e5b200ac8c7c3b92583604051610cda9190611c43565b60405180910390a3505050565b600073ffffffffffffffffffffffffffffffffffffffff168373ffffffffffffffffffffffffffffffffffffffff1614158015610d515750600073ffffffffffffffffffffffffffffffffffffffff168273ffffffffffffffffffffffffffffffffffffffff1614155b610d90576040517f08c379a0000000000000000000000000000000000000000000000000000000008152600401610d8790611be3565b60405180910390fd5b610d9b8383836110c8565b600060ca60008573ffffffffffffffffffffffffffffffffffffffff1673ffffffffffffffffffffffffffffffffffffffff1681526020019081526020016000205490508181610deb9190611d50565b60ca60008673ffffffffffffffffffffffffffffffffffffffff1673ffffffffffffffffffffffffffffffffffffffff168152602001908152602001600020819055508160ca60008573ffffffffffffffffffffffffffffffffffffffff1673ffffffffffffffffffffffffffffffffffffffff1681526020019081526020016000206000828254610e7d9190611ca0565b925050819055508273ffffffffffffffffffffffffffffffffffffffff168473ffffffffffffffffffffffffffffffffffffffff167fddf252ad1be2c89b69c2b068fc378daa952ba7f163c4a11628f55a4df523b3ef84604051610ee19190611c43565b60405180910390a3610ef48484846110d8565b50505050565b610f0382610646565b610f1481610f0f610b4b565b6110dd565b610f1e838361117a565b505050565b6000610f4b836000018373ffffffffffffffffffffffffffffffffffffffff1660001b61125b565b905092915050565b610f5b610b4b565b73ffffffffffffffffffffffffffffffffffffffff168173ffffffffffffffffffffffffffffffffffffffff1614610fc8576040517f08c379a0000000000000000000000000000000000000000000000000000000008152600401610fbf90611c23565b60405180910390fd5b610fd282826112cb565b5050565b6000610ffe836000018373ffffffffffffffffffffffffffffffffffffffff1660001b6113ad565b905092915050565b600061101583600001836114c1565b60001c905092915050565b600061102e826000016114ec565b9050919050565b61103e82610646565b61104f8161104a610b4b565b6110dd565b61105983836112cb565b505050565b60007f01ffc9a7000000000000000000000000000000000000000000000000000000007bffffffffffffffffffffffffffffffffffffffffffffffffffffffff1916827bffffffffffffffffffffffffffffffffffffffffffffffffffffffff1916149050919050565b6110d38383836114fd565b505050565b505050565b6110e782826107fb565b6111765761110c8173ffffffffffffffffffffffffffffffffffffffff166014611502565b61111a8360001c6020611502565b60405160200161112b929190611b16565b6040516020818303038152906040526040517f08c379a000000000000000000000000000000000000000000000000000000000815260040161116d9190611ba1565b60405180910390fd5b5050565b61118482826107fb565b6112575760016065600084815260200190815260200160002060000160008373ffffffffffffffffffffffffffffffffffffffff1673ffffffffffffffffffffffffffffffffffffffff16815260200190815260200160002060006101000a81548160ff0219169083151502179055506111fc610b4b565b73ffffffffffffffffffffffffffffffffffffffff168173ffffffffffffffffffffffffffffffffffffffff16837f2f8788117e7eff1d82e926ec794901d17c78024a50270940304540a733656f0d60405160405180910390a45b5050565b6000611267838361173e565b6112c05782600001829080600181540180825580915050600190039060005260206000200160009091909190915055826000018054905083600101600084815260200190815260200160002081905550600190506112c5565b600090505b92915050565b6112d582826107fb565b156113a95760006065600084815260200190815260200160002060000160008373ffffffffffffffffffffffffffffffffffffffff1673ffffffffffffffffffffffffffffffffffffffff16815260200190815260200160002060006101000a81548160ff02191690831515021790555061134e610b4b565b73ffffffffffffffffffffffffffffffffffffffff168173ffffffffffffffffffffffffffffffffffffffff16837ff6391f5c32d9c69d2a47ea670b442974b53935d1edc7fd64eb21e047a839171b60405160405180910390a45b5050565b600080836001016000848152602001908152602001600020549050600081146114b55760006001826113df9190611d50565b90506000600186600001805490506113f79190611d50565b905081811461146657600086600001828154811061141857611417611f2b565b5b906000526020600020015490508087600001848154811061143c5761143b611f2b565b5b90600052602060002001819055508387600101600083815260200190815260200160002081905550505b8560000180548061147a57611479611efc565b5b6001900381819060005260206000200160009055905585600101600086815260200190815260200160002060009055600193505050506114bb565b60009150505b92915050565b60008260000182815481106114d9576114d8611f2b565b5b9060005260206000200154905092915050565b600081600001805490509050919050565b505050565b6060600060028360026115159190611cf6565b61151f9190611ca0565b67ffffffffffffffff81111561153857611537611f5a565b5b6040519080825280601f01601f19166020018201604052801561156a5781602001600182028036833780820191505090505b5090507f3000000000000000000000000000000000000000000000000000000000000000816000815181106115a2576115a1611f2b565b5b60200101907effffffffffffffffffffffffffffffffffffffffffffffffffffffffffffff1916908160001a9053507f78000000000000000000000000000000000000000000000000000000000000008160018151811061160657611605611f2b565b5b60200101907effffffffffffffffffffffffffffffffffffffffffffffffffffffffffffff1916908160001a905350600060018460026116469190611cf6565b6116509190611ca0565b90505b60018111156116f0577f3031323334353637383961626364656600000000000000000000000000000000600f86166010811061169257611691611f2b565b5b1a60f81b8282815181106116a9576116a8611f2b565b5b60200101907effffffffffffffffffffffffffffffffffffffffffffffffffffffffffffff1916908160001a905350600485901c9450806116e990611e42565b9050611653565b5060008414611734576040517f08c379a000000000000000000000000000000000000000000000000000000000815260040161172b90611bc3565b60405180910390fd5b8091505092915050565b600080836001016000848152602001908152602001600020541415905092915050565b60008135905061177081612107565b92915050565b6000813590506117858161211e565b92915050565b60008135905061179a81612135565b92915050565b6000813590506117af8161214c565b92915050565b6000602082840312156117cb576117ca611f89565b5b60006117d984828501611761565b91505092915050565b600080604083850312156117f9576117f8611f89565b5b600061180785828601611761565b925050602061181885828601611761565b9150509250929050565b60008060006060848603121561183b5761183a611f89565b5b600061184986828701611761565b935050602061185a86828701611761565b925050604061186b868287016117a0565b9150509250925092565b6000806040838503121561188c5761188b611f89565b5b600061189a85828601611761565b92505060206118ab858286016117a0565b9150509250929050565b6000602082840312156118cb576118ca611f89565b5b60006118d984828501611776565b91505092915050565b600080604083850312156118f9576118f8611f89565b5b600061190785828601611776565b925050602061191885828601611761565b9150509250929050565b6000806040838503121561193957611938611f89565b5b600061194785828601611776565b9250506020611958858286016117a0565b9150509250929050565b60006020828403121561197857611977611f89565b5b60006119868482850161178b565b91505092915050565b61199881611d84565b82525050565b6119a781611d96565b82525050565b6119b681611da2565b82525050565b60006119c782611c79565b6119d18185611c84565b93506119e1818560208601611e0f565b6119ea81611f8e565b840191505092915050565b6000611a0082611c79565b611a0a8185611c95565b9350611a1a818560208601611e0f565b80840191505092915050565b6000611a33602083611c84565b9150611a3e82611f9f565b602082019050919050565b6000611a56602b83611c84565b9150611a6182611fc8565b604082019050919050565b6000611a79601783611c95565b9150611a8482612017565b601782019050919050565b6000611a9c601183611c95565b9150611aa782612040565b601182019050919050565b6000611abf602a83611c84565b9150611aca82612069565b604082019050919050565b6000611ae2602f83611c84565b9150611aed826120b8565b604082019050919050565b611b0181611df8565b82525050565b611b1081611e02565b82525050565b6000611b2182611a6c565b9150611b2d82856119f5565b9150611b3882611a8f565b9150611b4482846119f5565b91508190509392505050565b6000602082019050611b65600083018461198f565b92915050565b6000602082019050611b80600083018461199e565b92915050565b6000602082019050611b9b60008301846119ad565b92915050565b60006020820190508181036000830152611bbb81846119bc565b905092915050565b60006020820190508181036000830152611bdc81611a26565b9050919050565b60006020820190508181036000830152611bfc81611a49565b9050919050565b60006020820190508181036000830152611c1c81611ab2565b9050919050565b60006020820190508181036000830152611c3c81611ad5565b9050919050565b6000602082019050611c586000830184611af8565b92915050565b6000602082019050611c736000830184611b07565b92915050565b600081519050919050565b600082825260208201905092915050565b600081905092915050565b6000611cab82611df8565b9150611cb683611df8565b9250827fffffffffffffffffffffffffffffffffffffffffffffffffffffffffffffffff03821115611ceb57611cea611e9e565b5b828201905092915050565b6000611d0182611df8565b9150611d0c83611df8565b9250817fffffffffffffffffffffffffffffffffffffffffffffffffffffffffffffffff0483118215151615611d4557611d44611e9e565b5b828202905092915050565b6000611d5b82611df8565b9150611d6683611df8565b925082821015611d7957611d78611e9e565b5b828203905092915050565b6000611d8f82611dd8565b9050919050565b60008115159050919050565b6000819050919050565b60007fffffffff0000000000000000000000000000000000000000000000000000000082169050919050565b600073ffffffffffffffffffffffffffffffffffffffff82169050919050565b6000819050919050565b600060ff82169050919050565b60005b83811015611e2d578082015181840152602081019050611e12565b83811115611e3c576000848401525b50505050565b6000611e4d82611df8565b91506000821415611e6157611e60611e9e565b5b600182039050919050565b60006002820490506001821680611e8457607f821691505b60208210811415611e9857611e97611ecd565b5b50919050565b7f4e487b7100000000000000000000000000000000000000000000000000000000600052601160045260246000fd5b7f4e487b7100000000000000000000000000000000000000000000000000000000600052602260045260246000fd5b7f4e487b7100000000000000000000000000000000000000000000000000000000600052603160045260246000fd5b7f4e487b7100000000000000000000000000000000000000000000000000000000600052603260045260246000fd5b7f4e487b7100000000000000000000000000000000000000000000000000000000600052604160045260246000fd5b600080fd5b6000601f19601f8301169050919050565b7f537472696e67733a20686578206c656e67746820696e73756666696369656e74600082015250565b7f45524332303a207472616e736665722066726f6d206f7220746f20746865207a60008201527f65726f2061646472657373000000000000000000000000000000000000000000602082015250565b7f416363657373436f6e74726f6c3a206163636f756e7420000000000000000000600082015250565b7f206973206d697373696e6720726f6c6520000000000000000000000000000000600082015250565b7f45524332303a20617070726f76652066726f6d206f7220746f20746865207a6560008201527f726f206164647265737300000000000000000000000000000000000000000000602082015250565b7f416363657373436f6e74726f6c3a2063616e206f6e6c792072656e6f756e636560008201527f20726f6c657320666f722073656c660000000000000000000000000000000000602082015250565b61211081611d84565b811461211b57600080fd5b50565b61212781611da2565b811461213257600080fd5b50565b61213e81611dac565b811461214957600080fd5b50565b61215581611df8565b811461216057600080fd5b5056fea26469706673582212200bc1d1f143fdcc64a9d360cfdbdab4bf31126481d75c865d40d75c5c4f9678e664736f6c63430008060033",
  "immutableReferences": {},
  "source": "// SPDX-License-Identifier: MIT\npragma solidity >=0.8.6;\n\nimport \"./AccessControlEnumerableUpgradeable.sol\";\nimport \"@openzeppelin/contracts-upgradeable/proxy/utils/Initializable.sol\";\nimport \"./ERC20Upgradeable.sol\";\nimport \"../libs/GluwacoinModel.sol\";\n\nimport \"../libs/Validate.sol\";\n\n/**\n * @dev Extension of {ERC20} that allows users to send ETHless transfer by hiring a transaction relayer to pay the\n * gas fee for them. The relayer gets paid in this ERC20 token for `fee`.\n */\ncontract ETHlessTransfer is\n    Initializable,\n    AccessControlEnumerableUpgradeable,\n    ERC20Upgradeable\n{\n    using AddressUpgradeable for address;\n    using ECDSAUpgradeable for bytes32;\n\n    mapping(address => mapping(uint256 => bool)) private _usedNonces;\n\n    // collects transaction relay fee\n    bytes32 public constant RELAYER_ROLE = keccak256(\"RELAYER_ROLE\");\n\n    function __ERC20ETHless_init_unchained(\n        string memory name_,\n        string memory symbol_\n    ) internal initializer {\n        __ERC20_init_unchained(name_, symbol_);\n        __ERC165_init_unchained();\n        _setupRole(RELAYER_ROLE, _msgSender());\n    }\n\n    /**\n     * @dev Moves `amount` tokens from the `sender`'s account to `recipient`\n     * and moves `fee` tokens from the `sender`'s account to a relayer's address.\n     *\n     * Returns a boolean value indicating whether the operation succeeded.\n     *\n     * Emits two {Transfer} events.\n     *\n     * Requirements:\n     *\n     * - `recipient` cannot be the zero address.\n     * - the `sender` must have a balance of at least the sum of `amount` and `fee`.\n     * - the `nonce` is only used once per `sender`.\n     */\n    function _transfer(\n        address sender,\n        address recipient,\n        uint256 amount,\n        uint256 fee,\n        uint256 nonce,\n        bytes calldata sig\n    ) internal virtual returns (bool success) {\n        uint256 senderBalance = balanceOf(sender);\n        require(\n            senderBalance >= (amount + fee),\n            \"ERC20ETHless: the balance is not sufficient\"\n        );\n\n        _useNonce(sender, nonce);\n\n        bytes32 hash = keccak256(\n            abi.encodePacked(\n                GluwacoinModel.SigDomain.Transfer,\n                block.chainid,\n                address(this),\n                sender,\n                recipient,\n                amount,\n                fee,\n                nonce\n            )\n        );\n        Validate._validateSignature(hash, sender, sig);\n\n        _collect(sender, fee);\n        _transfer(sender, recipient, amount);\n\n        return true;\n    }\n\n    function _useNonce(address signer, uint256 nonce) internal {\n        require(\n            !_usedNonces[signer][nonce],\n            \"ETHless: the nonce has already been used for this address\"\n        );\n        _usedNonces[signer][nonce] = true;\n    }\n\n    /** @dev check the amount of available tokens of sender to transfer.\n     *\n     * Do 2 checks:\n     * - Total balance must be equal or higher than the transferring amount.\n     * - Unreserving (the amount of tokens are not put as a reserve) must be equal or higher than the transferring amount.\n     */\n\n    function _beforeTokenTransfer(\n        address from,\n        address to,\n        uint256 amount\n    ) internal virtual override(ERC20Upgradeable) {\n        ERC20Upgradeable._beforeTokenTransfer(from, to, amount);\n    }\n\n    /** @dev Collects `fee` from the sender.\n     *\n     * Emits a {Transfer} event.\n     */\n    function _collect(address sender, uint256 amount) internal {\n        address relayer = getRoleMember(RELAYER_ROLE, 0);\n\n        _transfer(sender, relayer, amount);\n    }\n\n    uint256[50] private __gap;\n}\n",
  "sourcePath": "/home/osboxes/KRWC-G-1/contracts/abstracts/ETHlessTransfer.sol",
  "compiler": {
    "name": "solc",
    "version": "0.8.6+commit.11564f7e.Emscripten.clang"
  },
  "schemaVersion": "3.3.4",
  "updatedAt": "2021-08-11T01:21:12.531Z",
  "devdoc": {
    "details": "Extension of {ERC20} that allows users to send ETHless transfer by hiring a transaction relayer to pay the gas fee for them. The relayer gets paid in this ERC20 token for `fee`.",
    "kind": "dev",
    "methods": {
      "allowance(address,address)": {
        "details": "See {IERC20-allowance}."
      },
      "approve(address,uint256)": {
        "details": "See {IERC20-approve}. Requirements: - `spender` cannot be the zero address."
      },
      "balanceOf(address)": {
        "details": "See {IERC20-balanceOf}."
      },
      "decimals()": {
        "details": "Returns the number of decimals used to get its user representation. For example, if `decimals` equals `2`, a balance of `505` tokens should be displayed to a user as `5,05` (`505 / 10 ** 2`). Tokens usually opt for a value of 18, imitating the relationship between Ether and Wei. This is the value {ERC20} uses, unless this function is overridden; NOTE: This information is only used for _display_ purposes: it in no way affects any of the arithmetic of the contract, including {IERC20-balanceOf} and {IERC20-transfer}."
      },
      "decreaseAllowance(address,uint256)": {
        "details": "Atomically decreases the allowance granted to `spender` by the caller. This is an alternative to {approve} that can be used as a mitigation for problems described in {IERC20-approve}. Emits an {Approval} event indicating the updated allowance. Requirements: - `spender` cannot be the zero address. - `spender` must have allowance for the caller of at least `subtractedValue`."
      },
      "getRoleAdmin(bytes32)": {
        "details": "Returns the admin role that controls `role`. See {grantRole} and {revokeRole}. To change a role's admin, use {_setRoleAdmin}."
      },
      "getRoleMember(bytes32,uint256)": {
        "details": "Returns one of the accounts that have `role`. `index` must be a value between 0 and {getRoleMemberCount}, non-inclusive. Role bearers are not sorted in any particular way, and their ordering may change at any point. WARNING: When using {getRoleMember} and {getRoleMemberCount}, make sure you perform all queries on the same block. See the following https://forum.openzeppelin.com/t/iterating-over-elements-on-enumerableset-in-openzeppelin-contracts/2296[forum post] for more information."
      },
      "getRoleMemberCount(bytes32)": {
        "details": "Returns the number of accounts that have `role`. Can be used together with {getRoleMember} to enumerate all bearers of a role."
      },
      "grantRole(bytes32,address)": {
        "details": "Overload {grantRole} to track enumerable memberships"
      },
      "hasRole(bytes32,address)": {
        "details": "Returns `true` if `account` has been granted `role`."
      },
      "increaseAllowance(address,uint256)": {
        "details": "Atomically increases the allowance granted to `spender` by the caller. This is an alternative to {approve} that can be used as a mitigation for problems described in {IERC20-approve}. Emits an {Approval} event indicating the updated allowance. Requirements: - `spender` cannot be the zero address."
      },
      "name()": {
        "details": "Returns the name of the token."
      },
      "renounceRole(bytes32,address)": {
        "details": "Overload {renounceRole} to track enumerable memberships"
      },
      "revokeRole(bytes32,address)": {
        "details": "Overload {revokeRole} to track enumerable memberships"
      },
      "supportsInterface(bytes4)": {
        "details": "See {IERC165-supportsInterface}."
      },
      "symbol()": {
        "details": "Returns the symbol of the token, usually a shorter version of the name."
      },
      "totalSupply()": {
        "details": "See {IERC20-totalSupply}."
      },
      "transfer(address,uint256)": {
        "details": "See {IERC20-transfer}. Requirements: - `recipient` cannot be the zero address. - the caller must have a balance of at least `amount`."
      },
      "transferFrom(address,address,uint256)": {
        "details": "See {IERC20-transferFrom}. Emits an {Approval} event indicating the updated allowance. This is not required by the EIP. See the note at the beginning of {ERC20}. Requirements: - `sender` and `recipient` cannot be the zero address. - `sender` must have a balance of at least `amount`. - the caller must have allowance for ``sender``'s tokens of at least `amount`."
      }
    },
    "version": 1
  },
  "userdoc": {
    "kind": "user",
    "methods": {},
    "version": 1
  }
}