{
  "contractName": "Gluwacoin",
  "abi": [
    {
      "anonymous": false,
      "inputs": [
        {
          "indexed": true,
          "internalType": "address",
          "name": "owner",
          "type": "address"
        },
        {
          "indexed": true,
          "internalType": "address",
          "name": "spender",
          "type": "address"
        },
        {
          "indexed": false,
          "internalType": "uint256",
          "name": "value",
          "type": "uint256"
        }
      ],
      "name": "Approval",
      "type": "event"
    },
    {
      "anonymous": false,
      "inputs": [
        {
          "indexed": true,
          "internalType": "bytes32",
          "name": "lockerHash",
          "type": "bytes32"
        },
        {
          "indexed": true,
          "internalType": "address",
          "name": "sender",
          "type": "address"
        },
        {
          "indexed": false,
          "internalType": "uint256",
          "name": "_value",
          "type": "uint256"
        }
      ],
      "name": "Locked",
      "type": "event"
    },
    {
      "anonymous": false,
      "inputs": [
        {
          "indexed": true,
          "internalType": "bytes32",
          "name": "role",
          "type": "bytes32"
        },
        {
          "indexed": true,
          "internalType": "bytes32",
          "name": "previousAdminRole",
          "type": "bytes32"
        },
        {
          "indexed": true,
          "internalType": "bytes32",
          "name": "newAdminRole",
          "type": "bytes32"
        }
      ],
      "name": "RoleAdminChanged",
      "type": "event"
    },
    {
      "anonymous": false,
      "inputs": [
        {
          "indexed": true,
          "internalType": "bytes32",
          "name": "role",
          "type": "bytes32"
        },
        {
          "indexed": true,
          "internalType": "address",
          "name": "account",
          "type": "address"
        },
        {
          "indexed": true,
          "internalType": "address",
          "name": "sender",
          "type": "address"
        }
      ],
      "name": "RoleGranted",
      "type": "event"
    },
    {
      "anonymous": false,
      "inputs": [
        {
          "indexed": true,
          "internalType": "bytes32",
          "name": "role",
          "type": "bytes32"
        },
        {
          "indexed": true,
          "internalType": "address",
          "name": "account",
          "type": "address"
        },
        {
          "indexed": true,
          "internalType": "address",
          "name": "sender",
          "type": "address"
        }
      ],
      "name": "RoleRevoked",
      "type": "event"
    },
    {
      "anonymous": false,
      "inputs": [
        {
          "indexed": true,
          "internalType": "address",
          "name": "from",
          "type": "address"
        },
        {
          "indexed": true,
          "internalType": "address",
          "name": "to",
          "type": "address"
        },
        {
          "indexed": false,
          "internalType": "uint256",
          "name": "value",
          "type": "uint256"
        }
      ],
      "name": "Transfer",
      "type": "event"
    },
    {
      "inputs": [],
      "name": "DEFAULT_ADMIN_ROLE",
      "outputs": [
        {
          "internalType": "bytes32",
          "name": "",
          "type": "bytes32"
        }
      ],
      "stateMutability": "view",
      "type": "function"
    },
    {
      "inputs": [],
      "name": "RELAYER_ROLE",
      "outputs": [
        {
          "internalType": "bytes32",
          "name": "",
          "type": "bytes32"
        }
      ],
      "stateMutability": "view",
      "type": "function"
    },
    {
      "inputs": [
        {
          "internalType": "address",
          "name": "owner",
          "type": "address"
        },
        {
          "internalType": "address",
          "name": "spender",
          "type": "address"
        }
      ],
      "name": "allowance",
      "outputs": [
        {
          "internalType": "uint256",
          "name": "",
          "type": "uint256"
        }
      ],
      "stateMutability": "view",
      "type": "function"
    },
    {
      "inputs": [
        {
          "internalType": "address",
          "name": "spender",
          "type": "address"
        },
        {
          "internalType": "uint256",
          "name": "amount",
          "type": "uint256"
        }
      ],
      "name": "approve",
      "outputs": [
        {
          "internalType": "bool",
          "name": "",
          "type": "bool"
        }
      ],
      "stateMutability": "nonpayable",
      "type": "function"
    },
    {
      "inputs": [
        {
          "internalType": "address",
          "name": "account",
          "type": "address"
        }
      ],
      "name": "balanceOf",
      "outputs": [
        {
          "internalType": "uint256",
          "name": "",
          "type": "uint256"
        }
      ],
      "stateMutability": "view",
      "type": "function"
    },
    {
      "inputs": [],
      "name": "decimals",
      "outputs": [
        {
          "internalType": "uint8",
          "name": "",
          "type": "uint8"
        }
      ],
      "stateMutability": "view",
      "type": "function"
    },
    {
      "inputs": [
        {
          "internalType": "address",
          "name": "spender",
          "type": "address"
        },
        {
          "internalType": "uint256",
          "name": "subtractedValue",
          "type": "uint256"
        }
      ],
      "name": "decreaseAllowance",
      "outputs": [
        {
          "internalType": "bool",
          "name": "",
          "type": "bool"
        }
      ],
      "stateMutability": "nonpayable",
      "type": "function"
    },
    {
      "inputs": [
        {
          "internalType": "address",
          "name": "sender",
          "type": "address"
        },
        {
          "internalType": "uint256",
          "name": "nonce",
          "type": "uint256"
        }
      ],
      "name": "execute",
      "outputs": [
        {
          "internalType": "bool",
          "name": "success",
          "type": "bool"
        }
      ],
      "stateMutability": "nonpayable",
      "type": "function"
    },
    {
      "inputs": [
        {
          "internalType": "bytes32",
          "name": "lockerHash",
          "type": "bytes32"
        }
      ],
      "name": "getLocker",
      "outputs": [
        {
          "components": [
            {
              "internalType": "uint256",
              "name": "idx",
              "type": "uint256"
            },
            {
              "internalType": "address",
              "name": "owner",
              "type": "address"
            },
            {
              "internalType": "uint256",
              "name": "amount",
              "type": "uint256"
            },
            {
              "internalType": "enum GluwacoinModels.LockerState",
              "name": "state",
              "type": "uint8"
            },
            {
              "components": [
                {
                  "internalType": "uint32",
                  "name": "rate",
                  "type": "uint32"
                },
                {
                  "internalType": "uint32",
                  "name": "decimalPlaceBase",
                  "type": "uint32"
                }
              ],
              "internalType": "struct GluwacoinModels.TokenExchangeModel",
              "name": "exchangeRate",
              "type": "tuple"
            }
          ],
          "internalType": "struct GluwacoinModels.Locker",
          "name": "",
          "type": "tuple"
        }
      ],
      "stateMutability": "view",
      "type": "function"
    },
    {
      "inputs": [
        {
          "internalType": "address",
          "name": "sender",
          "type": "address"
        },
        {
          "internalType": "uint256",
          "name": "nonce",
          "type": "uint256"
        }
      ],
      "name": "getReservation",
      "outputs": [
        {
          "internalType": "uint256",
          "name": "amount",
          "type": "uint256"
        },
        {
          "internalType": "uint256",
          "name": "fee",
          "type": "uint256"
        },
        {
          "internalType": "address",
          "name": "recipient",
          "type": "address"
        },
        {
          "internalType": "address",
          "name": "executor",
          "type": "address"
        },
        {
          "internalType": "uint256",
          "name": "expiryBlockNum",
          "type": "uint256"
        },
        {
          "internalType": "enum ERC20Reservable.ReservationStatus",
          "name": "status",
          "type": "uint8"
        }
      ],
      "stateMutability": "view",
      "type": "function"
    },
    {
      "inputs": [
        {
          "internalType": "bytes32",
          "name": "role",
          "type": "bytes32"
        }
      ],
      "name": "getRoleAdmin",
      "outputs": [
        {
          "internalType": "bytes32",
          "name": "",
          "type": "bytes32"
        }
      ],
      "stateMutability": "view",
      "type": "function"
    },
    {
      "inputs": [
        {
          "internalType": "bytes32",
          "name": "role",
          "type": "bytes32"
        },
        {
          "internalType": "uint256",
          "name": "index",
          "type": "uint256"
        }
      ],
      "name": "getRoleMember",
      "outputs": [
        {
          "internalType": "address",
          "name": "",
          "type": "address"
        }
      ],
      "stateMutability": "view",
      "type": "function"
    },
    {
      "inputs": [
        {
          "internalType": "bytes32",
          "name": "role",
          "type": "bytes32"
        }
      ],
      "name": "getRoleMemberCount",
      "outputs": [
        {
          "internalType": "uint256",
          "name": "",
          "type": "uint256"
        }
      ],
      "stateMutability": "view",
      "type": "function"
    },
    {
      "inputs": [],
      "name": "getTokenExchangeDetails",
      "outputs": [
        {
          "components": [
            {
              "internalType": "uint32",
              "name": "rate",
              "type": "uint32"
            },
            {
              "internalType": "uint32",
              "name": "decimalPlaceBase",
              "type": "uint32"
            }
          ],
          "internalType": "struct GluwacoinModels.TokenExchangeModel",
          "name": "",
          "type": "tuple"
        }
      ],
      "stateMutability": "view",
      "type": "function"
    },
    {
      "inputs": [
        {
          "internalType": "bytes32",
          "name": "role",
          "type": "bytes32"
        },
        {
          "internalType": "address",
          "name": "account",
          "type": "address"
        }
      ],
      "name": "grantRole",
      "outputs": [],
      "stateMutability": "nonpayable",
      "type": "function"
    },
    {
      "inputs": [
        {
          "internalType": "bytes32",
          "name": "role",
          "type": "bytes32"
        },
        {
          "internalType": "address",
          "name": "account",
          "type": "address"
        }
      ],
      "name": "hasRole",
      "outputs": [
        {
          "internalType": "bool",
          "name": "",
          "type": "bool"
        }
      ],
      "stateMutability": "view",
      "type": "function"
    },
    {
      "inputs": [
        {
          "internalType": "address",
          "name": "spender",
          "type": "address"
        },
        {
          "internalType": "uint256",
          "name": "addedValue",
          "type": "uint256"
        }
      ],
      "name": "increaseAllowance",
      "outputs": [
        {
          "internalType": "bool",
          "name": "",
          "type": "bool"
        }
      ],
      "stateMutability": "nonpayable",
      "type": "function"
    },
    {
      "inputs": [],
      "name": "name",
      "outputs": [
        {
          "internalType": "string",
          "name": "",
          "type": "string"
        }
      ],
      "stateMutability": "view",
      "type": "function"
    },
    {
      "inputs": [
        {
          "internalType": "address",
          "name": "sender",
          "type": "address"
        },
        {
          "internalType": "uint256",
          "name": "nonce",
          "type": "uint256"
        }
      ],
      "name": "reclaim",
      "outputs": [
        {
          "internalType": "bool",
          "name": "success",
          "type": "bool"
        }
      ],
      "stateMutability": "nonpayable",
      "type": "function"
    },
    {
      "inputs": [
        {
          "internalType": "bytes32",
          "name": "role",
          "type": "bytes32"
        },
        {
          "internalType": "address",
          "name": "account",
          "type": "address"
        }
      ],
      "name": "renounceRole",
      "outputs": [],
      "stateMutability": "nonpayable",
      "type": "function"
    },
    {
      "inputs": [
        {
          "internalType": "address",
          "name": "sender",
          "type": "address"
        },
        {
          "internalType": "address",
          "name": "recipient",
          "type": "address"
        },
        {
          "internalType": "address",
          "name": "executor",
          "type": "address"
        },
        {
          "internalType": "uint256",
          "name": "amount",
          "type": "uint256"
        },
        {
          "internalType": "uint256",
          "name": "fee",
          "type": "uint256"
        },
        {
          "internalType": "uint256",
          "name": "nonce",
          "type": "uint256"
        },
        {
          "internalType": "uint256",
          "name": "expiryBlockNum",
          "type": "uint256"
        },
        {
          "internalType": "bytes",
          "name": "sig",
          "type": "bytes"
        }
      ],
      "name": "reserve",
      "outputs": [
        {
          "internalType": "bool",
          "name": "success",
          "type": "bool"
        }
      ],
      "stateMutability": "nonpayable",
      "type": "function"
    },
    {
      "inputs": [
        {
          "internalType": "address",
          "name": "account",
          "type": "address"
        }
      ],
      "name": "reservedBalanceOf",
      "outputs": [
        {
          "internalType": "uint256",
          "name": "amount",
          "type": "uint256"
        }
      ],
      "stateMutability": "view",
      "type": "function"
    },
    {
      "inputs": [
        {
          "internalType": "bytes32",
          "name": "role",
          "type": "bytes32"
        },
        {
          "internalType": "address",
          "name": "account",
          "type": "address"
        }
      ],
      "name": "revokeRole",
      "outputs": [],
      "stateMutability": "nonpayable",
      "type": "function"
    },
    {
      "inputs": [
        {
          "internalType": "bytes4",
          "name": "interfaceId",
          "type": "bytes4"
        }
      ],
      "name": "supportsInterface",
      "outputs": [
        {
          "internalType": "bool",
          "name": "",
          "type": "bool"
        }
      ],
      "stateMutability": "view",
      "type": "function"
    },
    {
      "inputs": [],
      "name": "symbol",
      "outputs": [
        {
          "internalType": "string",
          "name": "",
          "type": "string"
        }
      ],
      "stateMutability": "view",
      "type": "function"
    },
    {
      "inputs": [],
      "name": "totalSupply",
      "outputs": [
        {
          "internalType": "uint256",
          "name": "",
          "type": "uint256"
        }
      ],
      "stateMutability": "view",
      "type": "function"
    },
    {
      "inputs": [
        {
          "internalType": "address",
          "name": "sender",
          "type": "address"
        },
        {
          "internalType": "address",
          "name": "recipient",
          "type": "address"
        },
        {
          "internalType": "uint256",
          "name": "amount",
          "type": "uint256"
        },
        {
          "internalType": "uint256",
          "name": "fee",
          "type": "uint256"
        },
        {
          "internalType": "uint256",
          "name": "nonce",
          "type": "uint256"
        },
        {
          "internalType": "bytes",
          "name": "sig",
          "type": "bytes"
        }
      ],
      "name": "transfer",
      "outputs": [
        {
          "internalType": "bool",
          "name": "success",
          "type": "bool"
        }
      ],
      "stateMutability": "nonpayable",
      "type": "function"
    },
    {
      "inputs": [
        {
          "internalType": "address",
          "name": "recipient",
          "type": "address"
        },
        {
          "internalType": "uint256",
          "name": "amount",
          "type": "uint256"
        }
      ],
      "name": "transfer",
      "outputs": [
        {
          "internalType": "bool",
          "name": "",
          "type": "bool"
        }
      ],
      "stateMutability": "nonpayable",
      "type": "function"
    },
    {
      "inputs": [
        {
          "internalType": "address",
          "name": "sender",
          "type": "address"
        },
        {
          "internalType": "address",
          "name": "recipient",
          "type": "address"
        },
        {
          "internalType": "uint256",
          "name": "amount",
          "type": "uint256"
        }
      ],
      "name": "transferFrom",
      "outputs": [
        {
          "internalType": "bool",
          "name": "",
          "type": "bool"
        }
      ],
      "stateMutability": "nonpayable",
      "type": "function"
    },
    {
      "inputs": [
        {
          "internalType": "address",
          "name": "account",
          "type": "address"
        }
      ],
      "name": "unreservedBalanceOf",
      "outputs": [
        {
          "internalType": "uint256",
          "name": "amount",
          "type": "uint256"
        }
      ],
      "stateMutability": "view",
      "type": "function"
    },
    {
      "inputs": [
        {
          "internalType": "contract IERC20",
          "name": "token",
          "type": "address"
        },
        {
          "internalType": "string",
          "name": "name_",
          "type": "string"
        },
        {
          "internalType": "string",
          "name": "symbol_",
          "type": "string"
        }
      ],
      "name": "initialize",
      "outputs": [],
      "stateMutability": "nonpayable",
      "type": "function"
    },
    {
      "inputs": [
        {
          "internalType": "uint32",
          "name": "newExchangeRate",
          "type": "uint32"
        },
        {
          "internalType": "uint32",
          "name": "newExchangeRateDecimalPlaceBase",
          "type": "uint32"
        }
      ],
      "name": "setTokenExchange",
      "outputs": [
        {
          "internalType": "bool",
          "name": "",
          "type": "bool"
        }
      ],
      "stateMutability": "nonpayable",
      "type": "function"
    },
    {
      "inputs": [
        {
          "internalType": "address",
          "name": "account",
          "type": "address"
        }
      ],
      "name": "getLockerByAcccount",
      "outputs": [
        {
          "components": [
            {
              "internalType": "uint256",
              "name": "idx",
              "type": "uint256"
            },
            {
              "internalType": "address",
              "name": "owner",
              "type": "address"
            },
            {
              "internalType": "uint256",
              "name": "amount",
              "type": "uint256"
            },
            {
              "internalType": "enum GluwacoinModels.LockerState",
              "name": "state",
              "type": "uint8"
            },
            {
              "components": [
                {
                  "internalType": "uint32",
                  "name": "rate",
                  "type": "uint32"
                },
                {
                  "internalType": "uint32",
                  "name": "decimalPlaceBase",
                  "type": "uint32"
                }
              ],
              "internalType": "struct GluwacoinModels.TokenExchangeModel",
              "name": "exchangeRate",
              "type": "tuple"
            }
          ],
          "internalType": "struct GluwacoinModels.Locker",
          "name": "",
          "type": "tuple"
        }
      ],
      "stateMutability": "view",
      "type": "function"
    },
    {
      "inputs": [
        {
          "internalType": "uint256",
          "name": "amount",
          "type": "uint256"
        }
      ],
      "name": "burn",
      "outputs": [
        {
          "internalType": "bool",
          "name": "",
          "type": "bool"
        }
      ],
      "stateMutability": "nonpayable",
      "type": "function"
    },
    {
      "inputs": [
        {
          "internalType": "address",
          "name": "account",
          "type": "address"
        },
        {
          "internalType": "uint256",
          "name": "amount",
          "type": "uint256"
        },
        {
          "internalType": "uint256",
          "name": "fee",
          "type": "uint256"
        }
      ],
      "name": "burn",
      "outputs": [
        {
          "internalType": "bool",
          "name": "",
          "type": "bool"
        }
      ],
      "stateMutability": "nonpayable",
      "type": "function"
    },
    {
      "inputs": [
        {
          "internalType": "address",
          "name": "account",
          "type": "address"
        },
        {
          "internalType": "uint256",
          "name": "amount",
          "type": "uint256"
        },
        {
          "internalType": "uint256",
          "name": "fee",
          "type": "uint256"
        }
      ],
      "name": "mint",
      "outputs": [
        {
          "internalType": "bool",
          "name": "",
          "type": "bool"
        }
      ],
      "stateMutability": "nonpayable",
      "type": "function"
    },
    {
      "inputs": [
        {
          "internalType": "uint256",
          "name": "amount",
          "type": "uint256"
        }
      ],
      "name": "mint",
      "outputs": [
        {
          "internalType": "bool",
          "name": "",
          "type": "bool"
        }
      ],
      "stateMutability": "nonpayable",
      "type": "function"
    },
    {
      "inputs": [
        {
          "internalType": "address",
          "name": "collector",
          "type": "address"
        },
        {
          "internalType": "uint256",
          "name": "amount",
          "type": "uint256"
        }
      ],
      "name": "collectFee",
      "outputs": [
        {
          "internalType": "bool",
          "name": "",
          "type": "bool"
        }
      ],
      "stateMutability": "nonpayable",
      "type": "function"
    }
  ],
  "bytecode": "0x608060405234801561001057600080fd5b506138d8806100206000396000f3fe608060405234801561001057600080fd5b50600436106101c15760003560e01c8062aa0bce146101c657806301ffc9a7146101ec57806306fdde031461020f578063095ea7b3146102245780630982d5b014610237578063156e29f61461024a57806318160ddd1461025d57806323b872dd14610265578063248a9ca3146102785780632ec0ff6c1461028b5780632f2ff15d1461029e578063313ce567146102b357806336568abe146102c257806336bd063a146102d557806339509351146102e85780633b89bb86146102fb57806342966c681461030e57806370a082311461032157806380c9dcf714610334578063851ad65414610347578063892bf622146103675780638bd317eb1461037a5780639010d07c1461038d57806390657147146103b857806391d14854146103cb578063926d7d7f146103de57806395d89b41146103f3578063a0712d68146103fb578063a217fddf1461040e578063a22ac5a914610416578063a3d25ded1461048a578063a457c2d71461049d578063a9059cbb146104b0578063ca15c873146104c3578063d547741f146104d6578063dd62ed3e146104e9578063f5298aca14610522578063fd635d6114610535575b600080fd5b6101d96101d4366004613016565b61054a565b6040519081526020015b60405180910390f35b6101ff6101fa3660046132b9565b61056e565b60405190151581526020016101e3565b610217610593565b6040516101e39190613505565b6101ff6102323660046131d6565b610625565b6101ff610245366004613151565b61063b565b6101ff610258366004613202565b610766565b60cb546101d9565b6101ff610273366004613110565b610787565b6101d9610286366004613259565b610831565b6101ff6102993660046131d6565b610846565b6102b16102ac366004613272565b610867565b005b604051601281526020016101e3565b6102b16102d0366004613272565b61088e565b6101d96102e3366004613016565b6108b0565b6101ff6102f63660046131d6565b6108bb565b6101ff6103093660046131d6565b6108f7565b6101ff61031c366004613259565b610b7c565b6101d961032f366004613016565b610b94565b6101ff61034236600461306c565b610baf565b61035a610355366004613259565b610f53565b6040516101e391906135d1565b6101ff610375366004613358565b611007565b6101ff6103883660046131d6565b611047565b6103a061039b366004613297565b6112ef565b6040516001600160a01b0390911681526020016101e3565b6102b16103c63660046132e3565b61130e565b6101ff6103d9366004613272565b61139d565b6101d960008051602061382383398151915281565b6102176113c8565b6101ff610409366004613259565b6113d7565b6101d9600081565b6104786104243660046131d6565b6001600160a01b03918216600090815260fb6020908152604080832093835292905220805460018201546002830154600384015460048501546005909501549396929591821694911692909160ff90911690565b6040516101e396959493929190613633565b61035a610498366004613016565b6113e5565b6101ff6104ab3660046131d6565b6114aa565b6101ff6104be3660046131d6565b611543565b6101d96104d1366004613259565b611550565b6102b16104e4366004613272565b611567565b6101d96104f7366004613033565b6001600160a01b03918216600090815260ca6020908152604080832093909416825291909152205490565b6101ff610530366004613202565b611571565b61053d611593565b6040516101e39190613625565b6000610555826115c5565b61055e83610b94565b61056891906136d9565b92915050565b60006001600160e01b03198216635a05180f60e01b14806105685750610568826115e7565b606060cc80546105a290613733565b80601f01602080910402602001604051908101604052809291908181526020018280546105ce90613733565b801561061b5780601f106105f05761010080835404028352916020019161061b565b820191906000526020600020905b8154815290600101906020018083116105fe57829003601f168201915b5050505050905090565b600061063233848461161c565b50600192915050565b60008061064789610b94565b90506106538688613680565b8110156106bb5760405162461bcd60e51b815260206004820152602b60248201527f45524332304554486c6573733a207468652062616c616e6365206973206e6f7460448201526a081cdd59999a58da595b9d60aa1b60648201526084015b60405180910390fd5b6106c58986611740565b6000600346308c8c8c8c8c6040516020016106e7989796959493929190613423565b604051602081830303815290604052805190602001209050610740818b87878080601f01602080910402602001604051908101604052809392919081815260200183838082843760009201919091525061180c92505050565b5061074b8a886118e0565b6107568a8a8a611904565b5060019998505050505050505050565b6000806107738133611acb565b61077e858585611b33565b95945050505050565b6000610794848484611904565b6001600160a01b038416600090815260ca60209081526040808320338452909152902054828110156108195760405162461bcd60e51b815260206004820152602860248201527f45524332303a207472616e7366657220616d6f756e74206578636565647320616044820152676c6c6f77616e636560c01b60648201526084016106b2565b610826853385840361161c565b506001949350505050565b60009081526065602052604090206001015490565b6000806108538133611acb565b61085d8484611b61565b91505b5092915050565b6108718282611bed565b60008281526097602052604090206108899082611c0a565b505050565b6108988282611c1f565b60008281526097602052604090206108899082611c99565b6000610568826115c5565b33600081815260ca602090815260408083206001600160a01b038716845290915281205490916106329185906108f2908690613680565b61161c565b6001600160a01b038216600090815260fb602090815260408083208484529091528120600481015461093b5760405162461bcd60e51b81526004016106b290613586565b336001600160a01b0385161480610967575060038101546001600160a01b0316336001600160a01b0316145b6109ed5760405162461bcd60e51b815260206004820152604b60248201527f455243323052657365727661626c653a2074686973206164647265737320697360448201527f206e6f7420617574686f72697a656420746f206578656375746520746869732060648201526a3932b9b2b93b30ba34b7b760a91b608482015260a4016106b2565b43816004015411610a545760405162461bcd60e51b815260206004820152603f602482015260008051602061384383398151915260448201527f206578706972656420616e642063616e6e6f742062652065786563757465640060648201526084016106b2565b6001600582015460ff166003811115610a6f57610a6f6137b5565b14610ac95760405162461bcd60e51b8152602060048201526036602482015260008051602061388383398151915260448201527574696f6e2073746174757320746f206578656375746560501b60648201526084016106b2565b60038101546002820154600183015483546001600160a01b0393841693909216916000610af68383613680565b6001600160a01b038a16600081815260fb602090815260408083208d84528252808320600501805460ff1916600317905592825260fc90522054909150610b3e9082906136d9565b6001600160a01b038a16600090815260fc6020526040902055610b62898685611904565b610b6d898584611904565b50600198975050505050505050565b6000610b883383611cae565b61056833836000611df6565b6001600160a01b0316600090815260c9602052604090205490565b6001600160a01b038916600090815260fb6020908152604080832087845290915281206004015415610c3e5760405162461bcd60e51b815260206004820152603260248201527f455243323052657365727661626c653a207468652073656e646572207573656460448201527120746865206e6f6e636520616c726561647960701b60648201526084016106b2565b438411610ca25760405162461bcd60e51b815260206004820152602c60248201527f455243323052657365727661626c653a20696e76616c696420626c6f636b206560448201526b3c3834b93c90373ab6b132b960a11b60648201526084016106b2565b6001600160a01b038816610d125760405162461bcd60e51b815260206004820152603160248201527f455243323052657365727661626c653a2063616e6e6f7420657865637574652060448201527066726f6d207a65726f206164647265737360781b60648201526084016106b2565b6000610d1e8789613680565b905080610d2a8c6115c5565b1015610d915760405162461bcd60e51b815260206004820152603060248201527f455243323052657365727661626c653a20696e73756666696369656e7420756e60448201526f72657365727665642062616c616e636560801b60648201526084016106b2565b6000600446308e8e8e8e8e8e8e604051602001610db79a999897969594939291906133ba565b604051602081830303815290604052805190602001209050610e10818d87878080601f01602080910402602001604051908101604052809392919081815260200183838082843760009201919091525061180c92505050565b506040518060c001604052808a81526020018981526020018c6001600160a01b031681526020018b6001600160a01b0316815260200187815260200160016003811115610e5f57610e5f6137b5565b90526001600160a01b03808e16600090815260fb602090815260408083208c84528252918290208451815590840151600180830191909155918401516002820180549185166001600160a01b03199283161790556060850151600380840180549290961691909216179093556080840151600482015560a084015160058201805492949193909260ff1916918490811115610efc57610efc6137b5565b021790555050506001600160a01b038c16600090815260fc6020526040902054610f27908390613680565b6001600160a01b038d16600090815260fc60205260409020555060019150509998505050505050505050565b610f5b612e45565b60008281526101366020908152604091829020825160a0810184528154815260018201546001600160a01b03169281019290925260028082015493830193909352600381015491929091606084019160ff90911690811115610fbf57610fbf6137b5565b6002811115610fd057610fd06137b5565b8152604080518082019091526004929092015463ffffffff8082168452600160201b90910416602083810191909152015292915050565b6000806110148133611acb565b61085d8484610130805463ffffffff838116600160201b026001600160401b031990921690851617179055600192915050565b6001600160a01b038216600090815260fb602090815260408083208484529091528120600481015461108b5760405162461bcd60e51b81526004016106b290613586565b336001600160a01b03851614806110b7575060038101546001600160a01b0316336001600160a01b0316145b61114f5760405162461bcd60e51b815260206004820152605f60248201527f455243323052657365727661626c653a206f6e6c79207468652073656e64657260448201527f206f7220746865206578656375746f722063616e207265636c61696d2074686560648201527f207265736572766174696f6e206261636b20746f207468652073656e64657200608482015260a4016106b2565b438160040154111580611177575060038101546001600160a01b0316336001600160a01b0316145b6111fd5760405162461bcd60e51b8152602060048201526060602482015260008051602061384383398151915260448201527f206e6f742065787069726564206f7220796f7520617265206e6f74207468652060648201527f6578656375746f7220616e642063616e6e6f74206265207265636c61696d6564608482015260a4016106b2565b6001600582015460ff166003811115611218576112186137b5565b146112725760405162461bcd60e51b8152602060048201526036602482015260008051602061388383398151915260448201527574696f6e2073746174757320746f207265636c61696d60501b60648201526084016106b2565b6001600160a01b038416600081815260fb602090815260408083208784528252808320600501805460ff191660021790556001850154855494845260fc9092529091205490916112c1916136d9565b6112cb91906136d9565b6001600160a01b038516600090815260fc6020526040902055506001905092915050565b60008281526097602052604081206113079083611fef565b9392505050565b600054610100900460ff1680611327575060005460ff16155b6113435760405162461bcd60e51b81526004016106b290613538565b600054610100900460ff16158015611365576000805461ffff19166101011790555b61136f8383611ffb565b61137a846012612092565b611385600033612141565b8015611397576000805461ff00191690555b50505050565b60009182526065602090815260408084206001600160a01b0393909316845291905290205460ff1690565b606060cd80546105a290613733565b600061056833836000611b33565b6113ed612e45565b6001600160a01b0380831660009081526101376020908152604080832054808452610136835292819020815160a08101835281548152600182015490951692850192909252600280830154918501919091526003820154929392606084019160ff90911690811115611461576114616137b5565b6002811115611472576114726137b5565b8152604080518082019091526004929092015463ffffffff8082168452600160201b9091041660208381019190915201529392505050565b33600090815260ca602090815260408083206001600160a01b03861684529091528120548281101561152c5760405162461bcd60e51b815260206004820152602560248201527f45524332303a2064656372656173656420616c6c6f77616e63652062656c6f77604482015264207a65726f60d81b60648201526084016106b2565b611539338585840361161c565b5060019392505050565b6000610632338484611904565b60008181526097602052604081206105689061214b565b6108988282612155565b60008061157e8133611acb565b6115888585611cae565b61077e858585611df6565b61159b612e79565b50604080518082019091526101305463ffffffff8082168352600160201b90910416602082015290565b6001600160a01b038116600090815260fc602052604081205461055e83610b94565b60006001600160e01b03198216637965db0b60e01b148061056857506301ffc9a760e01b6001600160e01b0319831614610568565b6001600160a01b03831661167e5760405162461bcd60e51b8152602060048201526024808201527f45524332303a20617070726f76652066726f6d20746865207a65726f206164646044820152637265737360e01b60648201526084016106b2565b6001600160a01b0382166116df5760405162461bcd60e51b815260206004820152602260248201527f45524332303a20617070726f766520746f20746865207a65726f206164647265604482015261737360f01b60648201526084016106b2565b6001600160a01b03838116600081815260ca602090815260408083209487168084529482529182902085905590518481527f8c5be1e5ebec7d5bd14f71427d1e84f3dd0314c0f7b2291e5b200ac8c7c3b925910160405180910390a3505050565b6001600160a01b038216600090815261016a6020908152604080832084845290915290205460ff16156117db5760405162461bcd60e51b815260206004820152603e60248201527f45524332304554486c6573733a20746865206e6f6e63652068617320616c726560448201527f616479206265656e207573656420666f7220746869732061646472657373000060648201526084016106b2565b6001600160a01b03909116600090815261016a6020908152604080832093835292905220805460ff19166001179055565b600080611865856040517b0ca2ba3432b932bab69029b4b3b732b21026b2b9b9b0b3b29d05199960211b6020820152603c8101829052600090605c01604051602081830303815290604052805190602001209050919050565b905060006118738285612172565b9050846001600160a01b0316816001600160a01b0316146118d45760405162461bcd60e51b815260206004820152601b60248201527a56616c69646174653a20696e76616c6964207369676e617475726560281b60448201526064016106b2565b50600195945050505050565b60006118fb60008051602061382383398151915260006112ef565b90506108898382845b6001600160a01b0383166119685760405162461bcd60e51b815260206004820152602560248201527f45524332303a207472616e736665722066726f6d20746865207a65726f206164604482015264647265737360d81b60648201526084016106b2565b6001600160a01b0382166119ca5760405162461bcd60e51b815260206004820152602360248201527f45524332303a207472616e7366657220746f20746865207a65726f206164647260448201526265737360e81b60648201526084016106b2565b6119d5838383612216565b6001600160a01b038316600090815260c9602052604090205481811015611a4d5760405162461bcd60e51b815260206004820152602660248201527f45524332303a207472616e7366657220616d6f756e7420657863656564732062604482015265616c616e636560d01b60648201526084016106b2565b6001600160a01b03808516600090815260c96020526040808220858503905591851681529081208054849290611a84908490613680565b92505081905550826001600160a01b0316846001600160a01b031660008051602061386383398151915284604051611abe91815260200190565b60405180910390a3611397565b611ad5828261139d565b611b2f57611aed816001600160a01b03166014612221565b611af8836020612221565b604051602001611b0992919061347d565b60408051601f198184030181529082905262461bcd60e51b82526106b291600401613505565b5050565b6000611b408484846123bc565b506000611b55611b5084866136d9565b6126de565b90506108268582612709565b61012f5460405163a9059cbb60e01b81526000916201000090046001600160a01b03169063a9059cbb90611b9b90869086906004016134ec565b602060405180830381600087803b158015611bb557600080fd5b505af1158015611bc9573d6000803e3d6000fd5b505050506040513d601f19601f820116820180604052508101906115399190613237565b611bf682610831565b611c008133611acb565b61088983836127e2565b6000611307836001600160a01b038416612868565b6001600160a01b0381163314611c8f5760405162461bcd60e51b815260206004820152602f60248201527f416363657373436f6e74726f6c3a2063616e206f6e6c792072656e6f756e636560448201526e103937b632b9903337b91039b2b63360891b60648201526084016106b2565b611b2f82826128b7565b6000611307836001600160a01b03841661291e565b6001600160a01b038216611d0e5760405162461bcd60e51b815260206004820152602160248201527f45524332303a206275726e2066726f6d20746865207a65726f206164647265736044820152607360f81b60648201526084016106b2565b611d1a82600083612216565b6001600160a01b038216600090815260c9602052604090205481811015611d8e5760405162461bcd60e51b815260206004820152602260248201527f45524332303a206275726e20616d6f756e7420657863656564732062616c616e604482015261636560f01b60648201526084016106b2565b6001600160a01b038316600090815260c960205260408120838303905560cb8054849290611dbd9084906136d9565b90915550506040518281526000906001600160a01b038516906000805160206138638339815191529060200160405180910390a3505050565b6001600160a01b03831660009081526101376020908152604080832054808452610136909252822060020154841115611e8b5760405162461bcd60e51b815260206004820152603160248201527f436f6e7665727469626c653a2043616e277420776974686472617720746f6b656044820152703710333937b6903a3432903637b1b5b2b960791b60648201526084016106b2565b60008181526101366020526040812060040154611eba90869063ffffffff80821691600160201b900416612a11565b9050838111611f295760405162461bcd60e51b815260206004820152603560248201527f436f6e7665727469626c653a2057697468647261776e20616d6f756e74206d75604482015274737420626520686967686572207468616e2066656560581b60648201526084016106b2565b6000828152610136602052604081206002018054839290611f4b9084906136d9565b909155505061012f546201000090046001600160a01b031663a9059cbb87611f7387856136d9565b6040518363ffffffff1660e01b8152600401611f909291906134ec565b602060405180830381600087803b158015611faa57600080fd5b505af1158015611fbe573d6000803e3d6000fd5b505050506040513d601f19601f82011682018060405250810190611fe29190613237565b5060019695505050505050565b60006113078383612a3e565b600054610100900460ff1680612014575060005460ff16155b6120305760405162461bcd60e51b81526004016106b290613538565b600054610100900460ff16158015612052576000805461ffff19166101011790555b61205c8383612a68565b612064612afd565b61207c60008051602061382383398151915233612141565b8015610889576000805461ff0019169055505050565b600054610100900460ff16806120ab575060005460ff16155b6120c75760405162461bcd60e51b81526004016106b290613538565b600054610100900460ff161580156120e9576000805461ffff19166101011790555b61012f8054610100600160b01b031916620100006001600160a01b0386160261ff0019161761010060ff8516021790556001610133819055610134556000610135558015610889576000805461ff0019169055505050565b6108718282612b69565b6000610568825490565b61215e82610831565b6121688133611acb565b61088983836128b7565b60008151604114156121a65760208201516040830151606084015160001a61219c86828585612b73565b9350505050610568565b8151604014156121ce57602082015160408301516121c5858383612d04565b92505050610568565b60405162461bcd60e51b815260206004820152601f60248201527f45434453413a20696e76616c6964207369676e6174757265206c656e6774680060448201526064016106b2565b610889838383612d2e565b606060006122308360026136ba565b61223b906002613680565b6001600160401b03811115612252576122526137f7565b6040519080825280601f01601f19166020018201604052801561227c576020820181803683370190505b509050600360fc1b81600081518110612297576122976137e1565b60200101906001600160f81b031916908160001a905350600f60fb1b816001815181106122c6576122c66137e1565b60200101906001600160f81b031916908160001a90535060006122ea8460026136ba565b6122f5906001613680565b90505b600181111561236d576f181899199a1a9b1b9c1cb0b131b232b360811b85600f1660108110612329576123296137e1565b1a60f81b82828151811061233f5761233f6137e1565b60200101906001600160f81b031916908160001a90535060049490941c936123668161371c565b90506122f8565b5083156113075760405162461bcd60e51b815260206004820181905260248201527f537472696e67733a20686578206c656e67746820696e73756666696369656e7460448201526064016106b2565b61012f546040516323b872dd60e01b81526001600160a01b0385811660048301523060248301526044820185905260009262010000900416906323b872dd90606401602060405180830381600087803b15801561241857600080fd5b505af115801561242c573d6000803e3d6000fd5b505050506040513d601f19601f820116820180604052508101906124509190613237565b6124ad5760405162461bcd60e51b815260206004820152602860248201527f436f6e7665727469626c653a2043616e2774206c6f636b2074686520746f6b656044820152671b88185b5bdd5b9d60c21b60648201526084016106b2565b6000806124ba84866136d9565b6001600160a01b0387166000908152610137602090815260408083205480845261013690925290912054919250901561251a57600081815261013660205260408120600201805484929061250f908490613680565b9091555061268d9050565b61013454604051612554919030908a90602001928352606091821b6001600160601b03199081166020850152911b16603482015260480190565b60408051601f19818403018152828252805160209182012060a0840183526101345484526001600160a01b038b8116838601908152858501888152600160608801818152875180890189526101305463ffffffff8082168352600160201b909104168189015260808a015260008681526101369097529690952087518155915182860180546001600160a01b03191691909416179092559051600280830191909155935160038201805493995091949093919260ff19169190849081111561261e5761261e6137b5565b02179055506080919091015180516004909201805460209092015163ffffffff908116600160201b026001600160401b03199093169381169390931791909117905561267090610131908590612db916565b6001600160a01b0387166000908152610137602052604090208390555b866001600160a01b0316837f515a19a1c83edb8613fd7de44c592958807d317b9d2c72a2b2f582ed9786b833846040516126c991815260200190565b60405180910390a35060019695505050505050565b6101305460009063ffffffff600160201b82048116916126ff9116846136ba565b6105689190613698565b6001600160a01b03821661275f5760405162461bcd60e51b815260206004820152601f60248201527f45524332303a206d696e7420746f20746865207a65726f20616464726573730060448201526064016106b2565b61276b60008383612216565b8060cb600082825461277d9190613680565b90915550506001600160a01b038216600090815260c96020526040812080548392906127aa908490613680565b90915550506040518181526001600160a01b038316906000906000805160206138638339815191529060200160405180910390a35050565b6127ec828261139d565b611b2f5760008281526065602090815260408083206001600160a01b03851684529091529020805460ff191660011790556128243390565b6001600160a01b0316816001600160a01b0316837f2f8788117e7eff1d82e926ec794901d17c78024a50270940304540a733656f0d60405160405180910390a45050565b60008181526001830160205260408120546128af57508154600181810184556000848152602080822090930184905584548482528286019093526040902091909155610568565b506000610568565b6128c1828261139d565b15611b2f5760008281526065602090815260408083206001600160a01b0385168085529252808320805460ff1916905551339285917ff6391f5c32d9c69d2a47ea670b442974b53935d1edc7fd64eb21e047a839171b9190a45050565b60008181526001830160205260408120548015612a075760006129426001836136d9565b8554909150600090612956906001906136d9565b90508181146129bb576000866000018281548110612976576129766137e1565b9060005260206000200154905080876000018481548110612999576129996137e1565b6000918252602080832090910192909255918252600188019052604090208390555b85548690806129cc576129cc6137cb565b600190038181906000526020600020016000905590558560010160008681526020019081526020016000206000905560019350505050610568565b6000915050610568565b60008263ffffffff168263ffffffff1685612a2c91906136ba565b612a369190613698565b949350505050565b6000826000018281548110612a5557612a556137e1565b9060005260206000200154905092915050565b600054610100900460ff1680612a81575060005460ff16155b612a9d5760405162461bcd60e51b81526004016106b290613538565b600054610100900460ff16158015612abf576000805461ffff19166101011790555b8251612ad29060cc906020860190612e90565b508151612ae69060cd906020850190612e90565b508015610889576000805461ff0019169055505050565b600054610100900460ff1680612b16575060005460ff16155b612b325760405162461bcd60e51b81526004016106b290613538565b600054610100900460ff16158015612b54576000805461ffff19166101011790555b8015612b66576000805461ff00191690555b50565b611b2f82826127e2565b60006fa2a8918ca85bafe22016d0b997e4df60600160ff1b03821115612be65760405162461bcd60e51b815260206004820152602260248201527f45434453413a20696e76616c6964207369676e6174757265202773272076616c604482015261756560f01b60648201526084016106b2565b8360ff16601b1480612bfb57508360ff16601c145b612c525760405162461bcd60e51b815260206004820152602260248201527f45434453413a20696e76616c6964207369676e6174757265202776272076616c604482015261756560f01b60648201526084016106b2565b6040805160008082526020820180845288905260ff871692820192909252606081018590526080810184905260019060a0016020604051602081039080840390855afa158015612ca6573d6000803e3d6000fd5b5050604051601f1901519150506001600160a01b03811661077e5760405162461bcd60e51b815260206004820152601860248201527745434453413a20696e76616c6964207369676e617475726560401b60448201526064016106b2565b60006001600160ff1b03821660ff83901c601b01612d2486828785612b73565b9695505050505050565b6001600160a01b038316156108895780612d47846115c5565b10156108895760405162461bcd60e51b815260206004820152603b60248201527f455243323052657365727661626c653a207472616e7366657220616d6f756e7460448201527a206578636565647320756e72657365727665642062616c616e636560281b60648201526084016106b2565b60008181526020839052604081205460ff166002811115612ddc57612ddc6137b5565b14612de957612de9613789565b600081815260208381526040808320805460ff1916600190811790915560038601805485529086019092528220839055805491612e258361376e565b9091555050600482018054906000612e3c8361376e565b91905055505050565b6040805160a0810182526000808252602082018190529181018290529060608201908152602001612e74612e79565b905290565b604080518082019091526000808252602082015290565b828054612e9c90613733565b90600052602060002090601f016020900481019282612ebe5760008555612f04565b82601f10612ed757805160ff1916838001178555612f04565b82800160010185558215612f04579182015b82811115612f04578251825591602001919060010190612ee9565b50612f10929150612f14565b5090565b5b80821115612f105760008155600101612f15565b60008083601f840112612f3b57600080fd5b5081356001600160401b03811115612f5257600080fd5b602083019150836020828501011115612f6a57600080fd5b9250929050565b600082601f830112612f8257600080fd5b81356001600160401b0380821115612f9c57612f9c6137f7565b604051601f8301601f19908116603f01168101908282118183101715612fc457612fc46137f7565b81604052838152866020858801011115612fdd57600080fd5b836020870160208301376000602085830101528094505050505092915050565b803563ffffffff8116811461301157600080fd5b919050565b60006020828403121561302857600080fd5b81356113078161380d565b6000806040838503121561304657600080fd5b82356130518161380d565b915060208301356130618161380d565b809150509250929050565b60008060008060008060008060006101008a8c03121561308b57600080fd5b89356130968161380d565b985060208a01356130a68161380d565b975060408a01356130b68161380d565b965060608a0135955060808a0135945060a08a0135935060c08a0135925060e08a01356001600160401b038111156130ed57600080fd5b6130f98c828d01612f29565b915080935050809150509295985092959850929598565b60008060006060848603121561312557600080fd5b83356131308161380d565b925060208401356131408161380d565b929592945050506040919091013590565b600080600080600080600060c0888a03121561316c57600080fd5b87356131778161380d565b965060208801356131878161380d565b955060408801359450606088013593506080880135925060a08801356001600160401b038111156131b757600080fd5b6131c38a828b01612f29565b989b979a50959850939692959293505050565b600080604083850312156131e957600080fd5b82356131f48161380d565b946020939093013593505050565b60008060006060848603121561321757600080fd5b83356132228161380d565b95602085013595506040909401359392505050565b60006020828403121561324957600080fd5b8151801515811461130757600080fd5b60006020828403121561326b57600080fd5b5035919050565b6000806040838503121561328557600080fd5b8235915060208301356130618161380d565b600080604083850312156132aa57600080fd5b50508035926020909101359150565b6000602082840312156132cb57600080fd5b81356001600160e01b03198116811461130757600080fd5b6000806000606084860312156132f857600080fd5b83356133038161380d565b925060208401356001600160401b038082111561331f57600080fd5b61332b87838801612f71565b9350604086013591508082111561334157600080fd5b5061334e86828701612f71565b9150509250925092565b6000806040838503121561336b57600080fd5b61337483612ffd565b915061338260208401612ffd565b90509250929050565b6005811061339b5761339b6137b5565b60f81b9052565b805163ffffffff908116835260209182015116910152565b6133c4818c61338b565b60018101999099526001600160601b0319606098891b811660218b015296881b871660358a015294871b861660498901529290951b909316605d8601526071850192909252609184019290925260b183015260d182015260f101919050565b61342d818a61338b565b60018101979097526001600160601b0319606096871b8116602189015294861b851660358801529290941b9092166049850152605d840191909152607d830191909152609d82015260bd01919050565b76020b1b1b2b9b9a1b7b73a3937b61d1030b1b1b7bab73a1604d1b8152600083516134af8160178501602088016136f0565b7001034b99036b4b9b9b4b733903937b6329607d1b60179184019182015283516134e08160288401602088016136f0565b01602801949350505050565b6001600160a01b03929092168252602082015260400190565b60208152600082518060208401526135248160408501602087016136f0565b601f01601f19169190910160400192915050565b6020808252602e908201527f496e697469616c697a61626c653a20636f6e747261637420697320616c72656160408201526d191e481a5b9a5d1a585b1a5e995960921b606082015260800190565b6020808252602b908201527f455243323052657365727661626c653a207265736572766174696f6e20646f6560408201526a1cc81b9bdd08195e1a5cdd60aa1b606082015260800190565b815181526020808301516001600160a01b03169082015260408083015190820152606082015160c08201906003811061360c5761360c6137b5565b80606084015250608083015161086060808401826133a2565b6040810161056882846133a2565b868152602081018690526001600160a01b038581166040830152841660608201526080810183905260c081016004831061366f5761366f6137b5565b8260a0830152979650505050505050565b600082198211156136935761369361379f565b500190565b6000826136b557634e487b7160e01b600052601260045260246000fd5b500490565b60008160001904831182151516156136d4576136d461379f565b500290565b6000828210156136eb576136eb61379f565b500390565b60005b8381101561370b5781810151838201526020016136f3565b838111156113975750506000910152565b60008161372b5761372b61379f565b506000190190565b600181811c9082168061374757607f821691505b6020821081141561376857634e487b7160e01b600052602260045260246000fd5b50919050565b60006000198214156137825761378261379f565b5060010190565b634e487b7160e01b600052600160045260246000fd5b634e487b7160e01b600052601160045260246000fd5b634e487b7160e01b600052602160045260246000fd5b634e487b7160e01b600052603160045260246000fd5b634e487b7160e01b600052603260045260246000fd5b634e487b7160e01b600052604160045260246000fd5b6001600160a01b0381168114612b6657600080fdfee2b7fb3b832174769106daebcfd6d1970523240dda11281102db9363b83b0dc4455243323052657365727661626c653a207265736572766174696f6e20686173ddf252ad1be2c89b69c2b068fc378daa952ba7f163c4a11628f55a4df523b3ef455243323052657365727661626c653a20696e76616c69642072657365727661a2646970667358221220f66bc81a1fb8339eefc97d2a618fddd45645795e7931716cc95f0cf8689cbbf864736f6c63430008070033",
  "immutableReferences": {},
  "source": "// SPDX-License-Identifier: MIT\npragma solidity >=0.8.7;\n\nimport \"@openzeppelin/contracts-upgradeable/utils/ContextUpgradeable.sol\";\nimport \"./abstracts/ERC20Reservable.sol\";\nimport \"./abstracts/Convertible.sol\";\nimport \"./abstracts/ERC20ETHless.sol\";\n\n/**\n * @dev Extension of {ERC20} that adds a set of accounts with the {MinterRole},\n * which have permission to mint (create) new tokens as they see fit.\n *\n * At construction, the deployer of the contract is the only minter.\n */\ncontract Gluwacoin is\n    ContextUpgradeable,\n    ERC20Reservable,\n    Convertible,\n    ERC20ETHless\n{\n    function initialize(\n        IERC20 token,\n        string memory name_,\n        string memory symbol_\n    ) external initializer {\n        __ERC20ETHless_init_unchained(name_, symbol_);\n        __Convertible_init_unchained(token, decimals());\n        _setupRole(DEFAULT_ADMIN_ROLE, _msgSender());\n    }\n\n    function setTokenExchange(\n        uint32 newExchangeRate,\n        uint32 newExchangeRateDecimalPlaceBase\n    ) external onlyRole(DEFAULT_ADMIN_ROLE) returns (bool) {\n        return\n            _setTokenExchange(newExchangeRate, newExchangeRateDecimalPlaceBase);\n    }\n\n    function getLockerByAcccount(address account)\n        external\n        view\n        returns (GluwacoinModels.Locker memory)\n    {\n        bytes32 lockerHash = _lockerOwner[account];\n        return _locker[lockerHash];\n    }    \n\n    /**\n     * @dev Gluwa triggers the withdraw (burn) onbehalf of users.\n     * `fee` is used to pay gas for the transaction.\n     *\n     * Requirements:\n     * - the account must have at least `amount` of `gluwacoin` in the locker.\n     * - `withdrawn amount` must be greater than fee.\n     * - `fee` will be deducted from the `amount` of `base token`.\n     */\n    function burn(\n        address account,\n        uint256 amount,\n        uint256 fee\n    ) external onlyRole(DEFAULT_ADMIN_ROLE) returns (bool) {\n        _burn(account, amount);\n        return _withdraw(account, amount, fee);\n    }\n\n    /**\n     * @dev Users burn Gluwacoin to withdraw token by themselves.\n     * `fee` will be 0 as users will need to pay gas from their account.\n     *\n     * Requirements:\n     * - Only owner can `withdraw`.\n     * - the account must have sufficient eth to pay gas.\n     */\n    function burn(uint256 amount) external returns (bool) {\n        _burn(_msgSender(), amount);\n        return _withdraw(_msgSender(), amount, 0);\n    }\n\n    /**\n     * @dev Gluwa triggers the conversion (mint) onbehalf of users.\n     * `fee` is used to pay gas for the transaction.\n     *\n     * Requirements:\n     * - the account must have at least `amount` of `base token`.\n     * - `amount` must be greater than fee.\n     * - `fee` will be deducted from the `amount` of `base token`.\n     */\n    function mint(\n        address account,\n        uint256 amount,\n        uint256 fee\n    ) external onlyRole(DEFAULT_ADMIN_ROLE) returns (bool) {\n        return _convert(account, amount, fee);\n    }\n\n    /**\n     * @dev Users convert (mint) token by themselves.\n     * `fee` will be 0 as users will need to pay gas from their account.\n     *\n     * Requirements:\n     * - the account must have at least `amount` of `base token`.\n     * - the account must have sufficient eth to pay gas.\n     */\n    function mint(uint256 amount) external returns (bool) {\n        return _convert(_msgSender(), amount, 0);\n    }\n\n    function _convert(\n        address account,\n        uint256 amount,\n        uint256 fee\n    ) private returns (bool) {\n        _lockFrom(account, amount, fee);\n\n        uint256 convertedAmount = _calculateConversion(amount - fee);\n        _mint(account, convertedAmount);\n\n        return true;\n    }\n\n    /** @dev The contract admin can withdraw an amount of the received `fee` from the contract.\n     */\n    function collectFee(address collector, uint256 amount)\n        external\n        onlyRole(DEFAULT_ADMIN_ROLE)\n        returns (bool)\n    {\n        return _withdrawBaseToken(collector, amount);\n    }\n\n    /** @dev check the amount of available tokens of sender to transfer.\n     * Must override all the parent's functions\n     * Do 2 checks:\n     * - Total balance must be equal or higher than the transferring amount.\n     * - Unreserving (the amount of tokens are not put as a reserve) must be equal or higher than the transferring amount.\n     */\n\n    function _beforeTokenTransfer(\n        address from,\n        address to,\n        uint256 amount\n    ) internal override(ERC20ETHless, ERC20Reservable) {\n        ERC20ETHless._beforeTokenTransfer(from, to, amount);\n        ERC20Reservable._beforeTokenTransfer(from, to, amount);\n    }\n\n    uint256[50] private __gap;\n}\n",
  "sourcePath": "/home/osboxes/KRWC-G-1/contracts/Gluwacoin.sol",
  "compiler": {
    "name": "solc",
    "version": "0.8.7+commit.e28d00a7.Emscripten.clang"
  },
  "schemaVersion": "3.3.4",
  "updatedAt": "2021-09-02T02:54:54.993Z",
  "devdoc": {
    "details": "Extension of {ERC20} that adds a set of accounts with the {MinterRole}, which have permission to mint (create) new tokens as they see fit. At construction, the deployer of the contract is the only minter.",
    "kind": "dev",
    "methods": {
      "allowance(address,address)": {
        "details": "See {IERC20-allowance}."
      },
      "approve(address,uint256)": {
        "details": "See {IERC20-approve}. Requirements: - `spender` cannot be the zero address."
      },
      "balanceOf(address)": {
        "details": "See {IERC20-balanceOf}."
      },
      "burn(address,uint256,uint256)": {
        "details": "Gluwa triggers the withdraw (burn) onbehalf of users. `fee` is used to pay gas for the transaction. Requirements: - the account must have at least `amount` of `gluwacoin` in the locker. - `withdrawn amount` must be greater than fee. - `fee` will be deducted from the `amount` of `base token`."
      },
      "burn(uint256)": {
        "details": "Users burn Gluwacoin to withdraw token by themselves. `fee` will be 0 as users will need to pay gas from their account. Requirements: - Only owner can `withdraw`. - the account must have sufficient eth to pay gas."
      },
      "collectFee(address,uint256)": {
        "details": "The contract admin can withdraw an amount of the received `fee` from the contract."
      },
      "decimals()": {
        "details": "Returns the number of decimals used to get its user representation. For example, if `decimals` equals `2`, a balance of `505` tokens should be displayed to a user as `5,05` (`505 / 10 ** 2`). Tokens usually opt for a value of 18, imitating the relationship between Ether and Wei. This is the value {ERC20} uses, unless this function is overridden; NOTE: This information is only used for _display_ purposes: it in no way affects any of the arithmetic of the contract, including {IERC20-balanceOf} and {IERC20-transfer}."
      },
      "decreaseAllowance(address,uint256)": {
        "details": "Atomically decreases the allowance granted to `spender` by the caller. This is an alternative to {approve} that can be used as a mitigation for problems described in {IERC20-approve}. Emits an {Approval} event indicating the updated allowance. Requirements: - `spender` cannot be the zero address. - `spender` must have allowance for the caller of at least `subtractedValue`."
      },
      "getRoleAdmin(bytes32)": {
        "details": "Returns the admin role that controls `role`. See {grantRole} and {revokeRole}. To change a role's admin, use {_setRoleAdmin}."
      },
      "getRoleMember(bytes32,uint256)": {
        "details": "Returns one of the accounts that have `role`. `index` must be a value between 0 and {getRoleMemberCount}, non-inclusive. Role bearers are not sorted in any particular way, and their ordering may change at any point. WARNING: When using {getRoleMember} and {getRoleMemberCount}, make sure you perform all queries on the same block. See the following https://forum.openzeppelin.com/t/iterating-over-elements-on-enumerableset-in-openzeppelin-contracts/2296[forum post] for more information."
      },
      "getRoleMemberCount(bytes32)": {
        "details": "Returns the number of accounts that have `role`. Can be used together with {getRoleMember} to enumerate all bearers of a role."
      },
      "grantRole(bytes32,address)": {
        "details": "Overload {grantRole} to track enumerable memberships"
      },
      "hasRole(bytes32,address)": {
        "details": "Returns `true` if `account` has been granted `role`."
      },
      "increaseAllowance(address,uint256)": {
        "details": "Atomically increases the allowance granted to `spender` by the caller. This is an alternative to {approve} that can be used as a mitigation for problems described in {IERC20-approve}. Emits an {Approval} event indicating the updated allowance. Requirements: - `spender` cannot be the zero address."
      },
      "mint(address,uint256,uint256)": {
        "details": "Gluwa triggers the conversion (mint) onbehalf of users. `fee` is used to pay gas for the transaction. Requirements: - the account must have at least `amount` of `base token`. - `amount` must be greater than fee. - `fee` will be deducted from the `amount` of `base token`."
      },
      "mint(uint256)": {
        "details": "Users convert (mint) token by themselves. `fee` will be 0 as users will need to pay gas from their account. Requirements: - the account must have at least `amount` of `base token`. - the account must have sufficient eth to pay gas."
      },
      "name()": {
        "details": "Returns the name of the token."
      },
      "renounceRole(bytes32,address)": {
        "details": "Overload {renounceRole} to track enumerable memberships"
      },
      "revokeRole(bytes32,address)": {
        "details": "Overload {revokeRole} to track enumerable memberships"
      },
      "supportsInterface(bytes4)": {
        "details": "See {IERC165-supportsInterface}."
      },
      "symbol()": {
        "details": "Returns the symbol of the token, usually a shorter version of the name."
      },
      "totalSupply()": {
        "details": "See {IERC20-totalSupply}."
      },
      "transfer(address,address,uint256,uint256,uint256,bytes)": {
        "details": "Moves `amount` tokens from the `sender`'s account to `recipient` and moves `fee` tokens from the `sender`'s account to a relayer's address. Returns a boolean value indicating whether the operation succeeded. Emits two {Transfer} events. Requirements: - `recipient` cannot be the zero address. - the `sender` must have a balance of at least the sum of `amount` and `fee`. - the `nonce` is only used once per `sender`."
      },
      "transfer(address,uint256)": {
        "details": "See {IERC20-transfer}. Requirements: - `recipient` cannot be the zero address. - the caller must have a balance of at least `amount`."
      },
      "transferFrom(address,address,uint256)": {
        "details": "See {IERC20-transferFrom}. Emits an {Approval} event indicating the updated allowance. This is not required by the EIP. See the note at the beginning of {ERC20}. Requirements: - `sender` and `recipient` cannot be the zero address. - `sender` must have a balance of at least `amount`. - the caller must have allowance for ``sender``'s tokens of at least `amount`."
      }
    },
    "version": 1
  },
  "userdoc": {
    "kind": "user",
    "methods": {},
    "version": 1
  }
}