{
  "contractName": "GluwacoinV0",
  "abi": [
    {
      "anonymous": false,
      "inputs": [
        {
          "indexed": true,
          "internalType": "address",
          "name": "owner",
          "type": "address"
        },
        {
          "indexed": true,
          "internalType": "address",
          "name": "spender",
          "type": "address"
        },
        {
          "indexed": false,
          "internalType": "uint256",
          "name": "value",
          "type": "uint256"
        }
      ],
      "name": "Approval",
      "type": "event"
    },
    {
      "anonymous": false,
      "inputs": [
        {
          "indexed": true,
          "internalType": "address",
          "name": "sender",
          "type": "address"
        },
        {
          "indexed": true,
          "internalType": "contract IERC20",
          "name": "token",
          "type": "address"
        },
        {
          "indexed": false,
          "internalType": "uint256",
          "name": "_value",
          "type": "uint256"
        }
      ],
      "name": "Locked",
      "type": "event"
    },
    {
      "anonymous": false,
      "inputs": [
        {
          "indexed": true,
          "internalType": "bytes32",
          "name": "role",
          "type": "bytes32"
        },
        {
          "indexed": true,
          "internalType": "bytes32",
          "name": "previousAdminRole",
          "type": "bytes32"
        },
        {
          "indexed": true,
          "internalType": "bytes32",
          "name": "newAdminRole",
          "type": "bytes32"
        }
      ],
      "name": "RoleAdminChanged",
      "type": "event"
    },
    {
      "anonymous": false,
      "inputs": [
        {
          "indexed": true,
          "internalType": "bytes32",
          "name": "role",
          "type": "bytes32"
        },
        {
          "indexed": true,
          "internalType": "address",
          "name": "account",
          "type": "address"
        },
        {
          "indexed": true,
          "internalType": "address",
          "name": "sender",
          "type": "address"
        }
      ],
      "name": "RoleGranted",
      "type": "event"
    },
    {
      "anonymous": false,
      "inputs": [
        {
          "indexed": true,
          "internalType": "bytes32",
          "name": "role",
          "type": "bytes32"
        },
        {
          "indexed": true,
          "internalType": "address",
          "name": "account",
          "type": "address"
        },
        {
          "indexed": true,
          "internalType": "address",
          "name": "sender",
          "type": "address"
        }
      ],
      "name": "RoleRevoked",
      "type": "event"
    },
    {
      "anonymous": false,
      "inputs": [
        {
          "indexed": true,
          "internalType": "address",
          "name": "from",
          "type": "address"
        },
        {
          "indexed": true,
          "internalType": "address",
          "name": "to",
          "type": "address"
        },
        {
          "indexed": false,
          "internalType": "uint256",
          "name": "value",
          "type": "uint256"
        }
      ],
      "name": "Transfer",
      "type": "event"
    },
    {
      "inputs": [],
      "name": "DEFAULT_ADMIN_ROLE",
      "outputs": [
        {
          "internalType": "bytes32",
          "name": "",
          "type": "bytes32"
        }
      ],
      "stateMutability": "view",
      "type": "function"
    },
    {
      "inputs": [],
      "name": "DEFAULT_ADMIN_ROLE_V0",
      "outputs": [
        {
          "internalType": "bytes32",
          "name": "",
          "type": "bytes32"
        }
      ],
      "stateMutability": "view",
      "type": "function"
    },
    {
      "inputs": [],
      "name": "RELAYER_ROLE",
      "outputs": [
        {
          "internalType": "bytes32",
          "name": "",
          "type": "bytes32"
        }
      ],
      "stateMutability": "view",
      "type": "function"
    },
    {
      "inputs": [
        {
          "internalType": "address",
          "name": "owner",
          "type": "address"
        },
        {
          "internalType": "address",
          "name": "spender",
          "type": "address"
        }
      ],
      "name": "allowance",
      "outputs": [
        {
          "internalType": "uint256",
          "name": "",
          "type": "uint256"
        }
      ],
      "stateMutability": "view",
      "type": "function"
    },
    {
      "inputs": [
        {
          "internalType": "address",
          "name": "spender",
          "type": "address"
        },
        {
          "internalType": "uint256",
          "name": "amount",
          "type": "uint256"
        }
      ],
      "name": "approve",
      "outputs": [
        {
          "internalType": "bool",
          "name": "",
          "type": "bool"
        }
      ],
      "stateMutability": "nonpayable",
      "type": "function"
    },
    {
      "inputs": [
        {
          "internalType": "address",
          "name": "account",
          "type": "address"
        }
      ],
      "name": "balanceOf",
      "outputs": [
        {
          "internalType": "uint256",
          "name": "",
          "type": "uint256"
        }
      ],
      "stateMutability": "view",
      "type": "function"
    },
    {
      "inputs": [
        {
          "internalType": "address",
          "name": "spender",
          "type": "address"
        },
        {
          "internalType": "uint256",
          "name": "subtractedValue",
          "type": "uint256"
        }
      ],
      "name": "decreaseAllowance",
      "outputs": [
        {
          "internalType": "bool",
          "name": "",
          "type": "bool"
        }
      ],
      "stateMutability": "nonpayable",
      "type": "function"
    },
    {
      "inputs": [
        {
          "internalType": "address",
          "name": "sender",
          "type": "address"
        },
        {
          "internalType": "uint256",
          "name": "nonce",
          "type": "uint256"
        }
      ],
      "name": "execute",
      "outputs": [
        {
          "internalType": "bool",
          "name": "success",
          "type": "bool"
        }
      ],
      "stateMutability": "nonpayable",
      "type": "function"
    },
    {
      "inputs": [
        {
          "internalType": "address",
          "name": "account",
          "type": "address"
        },
        {
          "internalType": "contract IERC20",
          "name": "token",
          "type": "address"
        }
      ],
      "name": "getLocked",
      "outputs": [
        {
          "internalType": "uint256",
          "name": "",
          "type": "uint256"
        }
      ],
      "stateMutability": "view",
      "type": "function"
    },
    {
      "inputs": [
        {
          "internalType": "address",
          "name": "sender",
          "type": "address"
        },
        {
          "internalType": "uint256",
          "name": "nonce",
          "type": "uint256"
        }
      ],
      "name": "getReservation",
      "outputs": [
        {
          "internalType": "uint256",
          "name": "amount",
          "type": "uint256"
        },
        {
          "internalType": "uint256",
          "name": "fee",
          "type": "uint256"
        },
        {
          "internalType": "address",
          "name": "recipient",
          "type": "address"
        },
        {
          "internalType": "address",
          "name": "executor",
          "type": "address"
        },
        {
          "internalType": "uint256",
          "name": "expiryBlockNum",
          "type": "uint256"
        },
        {
          "internalType": "enum ERC20Reservable.ReservationStatus",
          "name": "status",
          "type": "uint8"
        }
      ],
      "stateMutability": "view",
      "type": "function"
    },
    {
      "inputs": [
        {
          "internalType": "bytes32",
          "name": "role",
          "type": "bytes32"
        }
      ],
      "name": "getRoleAdmin",
      "outputs": [
        {
          "internalType": "bytes32",
          "name": "",
          "type": "bytes32"
        }
      ],
      "stateMutability": "view",
      "type": "function"
    },
    {
      "inputs": [
        {
          "internalType": "bytes32",
          "name": "role",
          "type": "bytes32"
        },
        {
          "internalType": "uint256",
          "name": "index",
          "type": "uint256"
        }
      ],
      "name": "getRoleMember",
      "outputs": [
        {
          "internalType": "address",
          "name": "",
          "type": "address"
        }
      ],
      "stateMutability": "view",
      "type": "function"
    },
    {
      "inputs": [
        {
          "internalType": "bytes32",
          "name": "role",
          "type": "bytes32"
        }
      ],
      "name": "getRoleMemberCount",
      "outputs": [
        {
          "internalType": "uint256",
          "name": "",
          "type": "uint256"
        }
      ],
      "stateMutability": "view",
      "type": "function"
    },
    {
      "inputs": [
        {
          "internalType": "contract IERC20",
          "name": "token",
          "type": "address"
        }
      ],
      "name": "getTokenExchangeDetails",
      "outputs": [
        {
          "components": [
            {
              "internalType": "uint32",
              "name": "rate",
              "type": "uint32"
            },
            {
              "internalType": "uint32",
              "name": "decimalPlaceBase",
              "type": "uint32"
            }
          ],
          "internalType": "struct GluwacoinModel.TokenExchangeModel",
          "name": "",
          "type": "tuple"
        }
      ],
      "stateMutability": "view",
      "type": "function"
    },
    {
      "inputs": [
        {
          "internalType": "bytes32",
          "name": "role",
          "type": "bytes32"
        },
        {
          "internalType": "address",
          "name": "account",
          "type": "address"
        }
      ],
      "name": "grantRole",
      "outputs": [],
      "stateMutability": "nonpayable",
      "type": "function"
    },
    {
      "inputs": [
        {
          "internalType": "bytes32",
          "name": "role",
          "type": "bytes32"
        },
        {
          "internalType": "address",
          "name": "account",
          "type": "address"
        }
      ],
      "name": "hasRole",
      "outputs": [
        {
          "internalType": "bool",
          "name": "",
          "type": "bool"
        }
      ],
      "stateMutability": "view",
      "type": "function"
    },
    {
      "inputs": [
        {
          "internalType": "address",
          "name": "spender",
          "type": "address"
        },
        {
          "internalType": "uint256",
          "name": "addedValue",
          "type": "uint256"
        }
      ],
      "name": "increaseAllowance",
      "outputs": [
        {
          "internalType": "bool",
          "name": "",
          "type": "bool"
        }
      ],
      "stateMutability": "nonpayable",
      "type": "function"
    },
    {
      "inputs": [
        {
          "internalType": "contract IERC20",
          "name": "token",
          "type": "address"
        },
        {
          "internalType": "uint256",
          "name": "amount",
          "type": "uint256"
        }
      ],
      "name": "lock",
      "outputs": [
        {
          "internalType": "bool",
          "name": "",
          "type": "bool"
        }
      ],
      "stateMutability": "nonpayable",
      "type": "function"
    },
    {
      "inputs": [],
      "name": "name",
      "outputs": [
        {
          "internalType": "string",
          "name": "",
          "type": "string"
        }
      ],
      "stateMutability": "view",
      "type": "function"
    },
    {
      "inputs": [
        {
          "internalType": "address",
          "name": "sender",
          "type": "address"
        },
        {
          "internalType": "uint256",
          "name": "nonce",
          "type": "uint256"
        }
      ],
      "name": "reclaim",
      "outputs": [
        {
          "internalType": "bool",
          "name": "success",
          "type": "bool"
        }
      ],
      "stateMutability": "nonpayable",
      "type": "function"
    },
    {
      "inputs": [
        {
          "internalType": "bytes32",
          "name": "role",
          "type": "bytes32"
        },
        {
          "internalType": "address",
          "name": "account",
          "type": "address"
        }
      ],
      "name": "renounceRole",
      "outputs": [],
      "stateMutability": "nonpayable",
      "type": "function"
    },
    {
      "inputs": [
        {
          "internalType": "address",
          "name": "sender",
          "type": "address"
        },
        {
          "internalType": "address",
          "name": "recipient",
          "type": "address"
        },
        {
          "internalType": "address",
          "name": "executor",
          "type": "address"
        },
        {
          "internalType": "uint256",
          "name": "amount",
          "type": "uint256"
        },
        {
          "internalType": "uint256",
          "name": "fee",
          "type": "uint256"
        },
        {
          "internalType": "uint256",
          "name": "nonce",
          "type": "uint256"
        },
        {
          "internalType": "uint256",
          "name": "expiryBlockNum",
          "type": "uint256"
        },
        {
          "internalType": "bytes",
          "name": "sig",
          "type": "bytes"
        }
      ],
      "name": "reserve",
      "outputs": [
        {
          "internalType": "bool",
          "name": "success",
          "type": "bool"
        }
      ],
      "stateMutability": "nonpayable",
      "type": "function"
    },
    {
      "inputs": [
        {
          "internalType": "address",
          "name": "account",
          "type": "address"
        }
      ],
      "name": "reservedBalanceOf",
      "outputs": [
        {
          "internalType": "uint256",
          "name": "amount",
          "type": "uint256"
        }
      ],
      "stateMutability": "view",
      "type": "function"
    },
    {
      "inputs": [
        {
          "internalType": "bytes32",
          "name": "role",
          "type": "bytes32"
        },
        {
          "internalType": "address",
          "name": "account",
          "type": "address"
        }
      ],
      "name": "revokeRole",
      "outputs": [],
      "stateMutability": "nonpayable",
      "type": "function"
    },
    {
      "inputs": [
        {
          "internalType": "bytes4",
          "name": "interfaceId",
          "type": "bytes4"
        }
      ],
      "name": "supportsInterface",
      "outputs": [
        {
          "internalType": "bool",
          "name": "",
          "type": "bool"
        }
      ],
      "stateMutability": "view",
      "type": "function"
    },
    {
      "inputs": [],
      "name": "symbol",
      "outputs": [
        {
          "internalType": "string",
          "name": "",
          "type": "string"
        }
      ],
      "stateMutability": "view",
      "type": "function"
    },
    {
      "inputs": [],
      "name": "totalSupply",
      "outputs": [
        {
          "internalType": "uint256",
          "name": "",
          "type": "uint256"
        }
      ],
      "stateMutability": "view",
      "type": "function"
    },
    {
      "inputs": [
        {
          "internalType": "address",
          "name": "sender",
          "type": "address"
        },
        {
          "internalType": "address",
          "name": "recipient",
          "type": "address"
        },
        {
          "internalType": "uint256",
          "name": "amount",
          "type": "uint256"
        },
        {
          "internalType": "uint256",
          "name": "fee",
          "type": "uint256"
        },
        {
          "internalType": "uint256",
          "name": "nonce",
          "type": "uint256"
        },
        {
          "internalType": "bytes",
          "name": "sig",
          "type": "bytes"
        }
      ],
      "name": "transfer",
      "outputs": [
        {
          "internalType": "bool",
          "name": "success",
          "type": "bool"
        }
      ],
      "stateMutability": "nonpayable",
      "type": "function"
    },
    {
      "inputs": [
        {
          "internalType": "address",
          "name": "recipient",
          "type": "address"
        },
        {
          "internalType": "uint256",
          "name": "amount",
          "type": "uint256"
        }
      ],
      "name": "transfer",
      "outputs": [
        {
          "internalType": "bool",
          "name": "",
          "type": "bool"
        }
      ],
      "stateMutability": "nonpayable",
      "type": "function"
    },
    {
      "inputs": [
        {
          "internalType": "address",
          "name": "sender",
          "type": "address"
        },
        {
          "internalType": "address",
          "name": "recipient",
          "type": "address"
        },
        {
          "internalType": "uint256",
          "name": "amount",
          "type": "uint256"
        }
      ],
      "name": "transferFrom",
      "outputs": [
        {
          "internalType": "bool",
          "name": "",
          "type": "bool"
        }
      ],
      "stateMutability": "nonpayable",
      "type": "function"
    },
    {
      "inputs": [
        {
          "internalType": "address",
          "name": "account",
          "type": "address"
        }
      ],
      "name": "unreservedBalanceOf",
      "outputs": [
        {
          "internalType": "uint256",
          "name": "amount",
          "type": "uint256"
        }
      ],
      "stateMutability": "view",
      "type": "function"
    },
    {
      "inputs": [
        {
          "internalType": "contract IERC20",
          "name": "token",
          "type": "address"
        },
        {
          "internalType": "uint256",
          "name": "amount",
          "type": "uint256"
        }
      ],
      "name": "withdraw",
      "outputs": [
        {
          "internalType": "bool",
          "name": "",
          "type": "bool"
        }
      ],
      "stateMutability": "nonpayable",
      "type": "function"
    },
    {
      "inputs": [
        {
          "internalType": "string",
          "name": "name_",
          "type": "string"
        },
        {
          "internalType": "string",
          "name": "symbol_",
          "type": "string"
        }
      ],
      "name": "initialize",
      "outputs": [],
      "stateMutability": "nonpayable",
      "type": "function"
    },
    {
      "inputs": [
        {
          "internalType": "address",
          "name": "account",
          "type": "address"
        },
        {
          "internalType": "contract IERC20",
          "name": "token",
          "type": "address"
        },
        {
          "internalType": "uint256",
          "name": "amount",
          "type": "uint256"
        }
      ],
      "name": "lockFrom",
      "outputs": [
        {
          "internalType": "bool",
          "name": "",
          "type": "bool"
        }
      ],
      "stateMutability": "nonpayable",
      "type": "function"
    },
    {
      "inputs": [
        {
          "internalType": "address",
          "name": "account",
          "type": "address"
        },
        {
          "internalType": "contract IERC20",
          "name": "token",
          "type": "address"
        }
      ],
      "name": "convertAllFrom",
      "outputs": [
        {
          "internalType": "bool",
          "name": "",
          "type": "bool"
        }
      ],
      "stateMutability": "nonpayable",
      "type": "function"
    },
    {
      "inputs": [],
      "name": "decimals",
      "outputs": [
        {
          "internalType": "uint8",
          "name": "",
          "type": "uint8"
        }
      ],
      "stateMutability": "pure",
      "type": "function"
    },
    {
      "inputs": [
        {
          "internalType": "address",
          "name": "account",
          "type": "address"
        },
        {
          "internalType": "contract IERC20",
          "name": "token",
          "type": "address"
        },
        {
          "internalType": "uint256",
          "name": "amount",
          "type": "uint256"
        }
      ],
      "name": "convertFrom",
      "outputs": [
        {
          "internalType": "bool",
          "name": "",
          "type": "bool"
        }
      ],
      "stateMutability": "nonpayable",
      "type": "function"
    },
    {
      "inputs": [
        {
          "internalType": "contract IERC20",
          "name": "token",
          "type": "address"
        },
        {
          "internalType": "uint256",
          "name": "amount",
          "type": "uint256"
        }
      ],
      "name": "convert",
      "outputs": [
        {
          "internalType": "bool",
          "name": "",
          "type": "bool"
        }
      ],
      "stateMutability": "nonpayable",
      "type": "function"
    }
  ],
  "bytecode": "0x608060405234801561001057600080fd5b50613151806100206000396000f3fe608060405234801561001057600080fd5b50600436106101c15760003560e01c8062aa0bce146101c657806301ffc9a7146101ec57806306fdde031461020f578063095ea7b3146102245780630982d5b01461023757806318160ddd1461024a57806323b872dd14610252578063248a9ca314610265578063282d3fdf146102785780632f2ff15d1461028b578063313ce567146102a057806332ff99d1146102af57806336568abe146102c257806336bd063a146102d557806339509351146102e85780633b89bb86146102fb5780633c8796e01461030e5780634cd88b7614610321578063604abf9e1461033457806367c6e39c146103ba578063708e91e5146103cd57806370a08231146103e057806380c9dcf7146103f35780638bd317eb146104065780639010d07c1461041957806391d1485414610444578063926d7d7f1461045757806395d89b411461046c5780639e1a476714610474578063a217fddf14610481578063a22ac5a914610489578063a457c2d7146104fe578063a86e6ee414610511578063a9059cbb1461054b578063ca15c8731461055e578063d547741f14610571578063dd62ed3e14610584578063f3fef3a3146105bd575b600080fd5b6101d96101d436600461286d565b6105d0565b6040519081526020015b60405180910390f35b6101ff6101fa366004612adb565b6105f4565b60405190151581526020016101e3565b610217610619565b6040516101e39190612cb1565b6101ff610232366004612a2d565b6106ab565b6101ff6102453660046129a8565b6106c1565b60cc546101d9565b6101ff610260366004612967565b6107ec565b6101d9610273366004612a7b565b610841565b6101ff610286366004612a2d565b610856565b61029e610299366004612a94565b610863565b005b604051600681526020016101e3565b6101ff6102bd366004612967565b61088a565b61029e6102d0366004612a94565b6108ab565b6101d96102e336600461286d565b6108cd565b6101ff6102f6366004612a2d565b6108d8565b6101ff610309366004612a2d565b61090f565b6101ff61031c36600461288a565b610b98565b61029e61032f366004612b05565b610bfc565b61039661034236600461286d565b6040805180820190915260008082526020820152506001600160a01b03166000908152610135602090815260409182902082518084019093525463ffffffff8082168452600160201b909104169082015290565b60408051825163ffffffff90811682526020938401511692810192909252016101e3565b6101ff6103c8366004612a2d565b610c88565b6101ff6103db366004612967565b610c95565b6101d96103ee36600461286d565b610cad565b6101ff6104013660046128c3565b610cc8565b6101ff610414366004612a2d565b611070565b61042c610427366004612ab9565b61131c565b6040516001600160a01b0390911681526020016101e3565b6101ff610452366004612a94565b611334565b6101d960008051602061309c83398151915281565b61021761135f565b6101d96230786360e81b81565b6101d9600081565b6104ec610497366004612a2d565b6001600160a01b0391821660009081526101016020908152604080832093835292905220805460018201546002830154600384015460048501546005909501549396929591821694911692909160ff90911690565b6040516101e396959493929190612dc9565b6101ff61050c366004612a2d565b61136e565b6101d961051f36600461288a565b6001600160a01b0391821660009081526101386020908152604080832093909416825291909152205490565b6101ff610559366004612a2d565b6113ad565b6101d961056c366004612a7b565b6113ba565b61029e61057f366004612a94565b6113d1565b6101d961059236600461288a565b6001600160a01b03918216600090815260cb6020908152604080832093909416825291909152205490565b6101ff6105cb366004612a2d565b6113db565b60006105db82611507565b6105e483610cad565b6105ee9190612f5d565b92915050565b60006001600160e01b03198216635a05180f60e01b14806105ee57506105ee8261152a565b606060cd805461062890612fda565b80601f016020809104026020016040519081016040528092919081815260200182805461065490612fda565b80156106a15780601f10610676576101008083540402835291602001916106a1565b820191906000526020600020905b81548152906001019060200180831161068457829003601f168201915b5050505050905090565b60006106b833848461155f565b50600192915050565b6000806106cd89610cad565b90506106d98688612e16565b8110156107415760405162461bcd60e51b815260206004820152602b60248201527f45524332304554486c6573733a207468652062616c616e6365206973206e6f7460448201526a081cdd59999a58da595b9d60aa1b60648201526084015b60405180910390fd5b61074b898661163f565b6000600346308c8c8c8c8c60405160200161076d989796959493929190612be8565b6040516020818303038152906040528051906020012090506107c6818b87878080601f01602080910402602001604051908101604052809392919081815260200183838082843760009201919091525061170792505050565b506107d18a886117cf565b6107dc8a8a8a6117f3565b5060019998505050505050505050565b60006107f98484846117f3565b6001600160a01b038416600090815260cb60209081526040808320338085529252909120549061083490869061082f8685612f5d565b61155f565b60019150505b9392505050565b60009081526065602052604090206001015490565b600061083a338484611920565b61086d8282611ade565b60008281526097602052604090206108859082611afb565b505050565b6000806108978133611b10565b6108a2858585611b78565b95945050505050565b6108b58282611b9e565b60008281526097602052604090206108859082611c18565b60006105ee82611507565b33600081815260cb602090815260408083206001600160a01b038716845290915281205490916106b891859061082f908690612e16565b6001600160a01b038216600090815261010160209081526040808320848452909152812060048101546109545760405162461bcd60e51b815260040161073890612d7e565b336001600160a01b0385161480610980575060038101546001600160a01b0316336001600160a01b0316145b610a065760405162461bcd60e51b815260206004820152604b60248201527f455243323052657365727661626c653a2074686973206164647265737320697360448201527f206e6f7420617574686f72697a656420746f206578656375746520746869732060648201526a3932b9b2b93b30ba34b7b760a91b608482015260a401610738565b43816004015411610a6d5760405162461bcd60e51b815260206004820152603f60248201526000805160206130bc83398151915260448201527f206578706972656420616e642063616e6e6f74206265206578656375746564006064820152608401610738565b6001600582015460ff166003811115610a8857610a8861302b565b14610ae25760405162461bcd60e51b815260206004820152603660248201526000805160206130fc83398151915260448201527574696f6e2073746174757320746f206578656375746560501b6064820152608401610738565b60038101546002820154600183015483546001600160a01b0393841693909216916000610b0f8383612e16565b6001600160a01b038a166000818152610101602090815260408083208d84528252808320600501805460ff1916600317905592825261010290522054909150610b59908290612f5d565b6001600160a01b038a1660009081526101026020526040902055610b7e8986856117f3565b610b898985846117f3565b50600198975050505050505050565b600080610ba58133611b10565b6001600160a01b0380851660009081526101386020908152604080832093871683529290522054610bd7858583611c2d565b506000610be48583611c74565b9050610bf08682611d18565b50600195945050505050565b600054610100900460ff1680610c15575060005460ff16155b610c315760405162461bcd60e51b815260040161073890612ce4565b600054610100900460ff16158015610c53576000805461ffff19166101011790555b610c5d8383611df1565b610c676006611e6a565b610c72600033611ee6565b8015610885576000805461ff0019169055505050565b600061083a338484611b78565b600080610ca28133611b10565b6108a2858585611920565b6001600160a01b0316600090815260ca602052604090205490565b6001600160a01b03891660009081526101016020908152604080832087845290915281206004015415610d585760405162461bcd60e51b815260206004820152603260248201527f455243323052657365727661626c653a207468652073656e646572207573656460448201527120746865206e6f6e636520616c726561647960701b6064820152608401610738565b438411610dbc5760405162461bcd60e51b815260206004820152602c60248201527f455243323052657365727661626c653a20696e76616c696420626c6f636b206560448201526b3c3834b93c90373ab6b132b960a11b6064820152608401610738565b6001600160a01b038816610e2c5760405162461bcd60e51b815260206004820152603160248201527f455243323052657365727661626c653a2063616e6e6f7420657865637574652060448201527066726f6d207a65726f206164647265737360781b6064820152608401610738565b6000610e388789612e16565b905080610e448c611507565b1015610eab5760405162461bcd60e51b815260206004820152603060248201527f455243323052657365727661626c653a20696e73756666696369656e7420756e60448201526f72657365727665642062616c616e636560801b6064820152608401610738565b6000600446308e8e8e8e8e8e8e604051602001610ed19a99989796959493929190612b7f565b604051602081830303815290604052805190602001209050610f2a818d87878080601f01602080910402602001604051908101604052809392919081815260200183838082843760009201919091525061170792505050565b506040518060c001604052808a81526020018981526020018c6001600160a01b031681526020018b6001600160a01b0316815260200187815260200160016003811115610f7957610f7961302b565b90526001600160a01b03808e166000908152610101602090815260408083208c84528252918290208451815590840151600180830191909155918401516002820180549185166001600160a01b03199283161790556060850151600380840180549290961691909216179093556080840151600482015560a084015160058201805492949193909260ff19169184908111156110175761101761302b565b021790555050506001600160a01b038c1660009081526101026020526040902054611043908390612e16565b6001600160a01b038d16600090815261010260205260409020555060019150509998505050505050505050565b6001600160a01b038216600090815261010160209081526040808320848452909152812060048101546110b55760405162461bcd60e51b815260040161073890612d7e565b336001600160a01b03851614806110e1575060038101546001600160a01b0316336001600160a01b0316145b6111795760405162461bcd60e51b815260206004820152605f60248201527f455243323052657365727661626c653a206f6e6c79207468652073656e64657260448201527f206f7220746865206578656375746f722063616e207265636c61696d2074686560648201527f207265736572766174696f6e206261636b20746f207468652073656e64657200608482015260a401610738565b4381600401541115806111a1575060038101546001600160a01b0316336001600160a01b0316145b6112275760405162461bcd60e51b815260206004820152606060248201526000805160206130bc83398151915260448201527f206e6f742065787069726564206f7220796f7520617265206e6f74207468652060648201527f6578656375746f7220616e642063616e6e6f74206265207265636c61696d6564608482015260a401610738565b6001600582015460ff1660038111156112425761124261302b565b1461129c5760405162461bcd60e51b815260206004820152603660248201526000805160206130fc83398151915260448201527574696f6e2073746174757320746f207265636c61696d60501b6064820152608401610738565b6001600160a01b0384166000818152610101602090815260408083208784528252808320600501805460ff19166002179055600185015485549484526101029092529091205490916112ed91612f5d565b6112f79190612f5d565b6001600160a01b03851660009081526101026020526040902055506001905092915050565b600082815260976020526040812061083a9083611ef0565b60009182526065602090815260408084206001600160a01b0393909316845291905290205460ff1690565b606060ce805461062890612fda565b33600081815260cb602090815260408083206001600160a01b038716845290915281205490916113a3908561082f8685612f5d565b5060019392505050565b60006106b83384846117f3565b60008181526097602052604081206105ee90611efc565b6108b58282611f06565b336000908152610138602090815260408083206001600160a01b0386168452909152812080548391908390611411908490612f5d565b90915550506001600160a01b03831663a9059cbb336040516001600160e01b031960e084901b1681526001600160a01b03909116600482015260248101859052604401602060405180830381600087803b15801561146e57600080fd5b505af1158015611482573d6000803e3d6000fd5b505050506040513d601f19601f820116820180604052508101906114a69190612a59565b6106b85760405162461bcd60e51b815260206004820152602c60248201527f436f6e7665727469626c653a2043616e2774207769746864726177207468652060448201526b1d1bdad95b88185b5bdd5b9d60a21b6064820152608401610738565b6001600160a01b038116600090815261010260205260408120546105e483610cad565b60006001600160e01b03198216637965db0b60e01b14806105ee57506301ffc9a760e01b6001600160e01b03198316146105ee565b6001600160a01b0383161580159061157f57506001600160a01b03821615155b6115de5760405162461bcd60e51b815260206004820152602a60248201527f45524332303a20617070726f76652066726f6d206f7220746f20746865207a65604482015269726f206164647265737360b01b6064820152608401610738565b6001600160a01b03838116600081815260cb602090815260408083209487168084529482529182902085905590518481527f8c5be1e5ebec7d5bd14f71427d1e84f3dd0314c0f7b2291e5b200ac8c7c3b925910160405180910390a3505050565b6001600160a01b038216600090815261016b6020908152604080832084845290915290205460ff16156116d65760405162461bcd60e51b815260206004820152603960248201527f4554486c6573733a20746865206e6f6e63652068617320616c7265616479206260448201527865656e207573656420666f722074686973206164647265737360381b6064820152608401610738565b6001600160a01b03909116600090815261016b6020908152604080832093835292905220805460ff19166001179055565b600080611760856040517b0ca2ba3432b932bab69029b4b3b732b21026b2b9b9b0b3b29d05199960211b6020820152603c8101829052600090605c01604051602081830303815290604052805190602001209050919050565b9050600061176e8285611f23565b9050846001600160a01b0316816001600160a01b031614610bf05760405162461bcd60e51b815260206004820152601b60248201527a56616c69646174653a20696e76616c6964207369676e617475726560281b6044820152606401610738565b60006117ea60008051602061309c833981519152600061131c565b90506108858382845b6001600160a01b0383161580159061181357506001600160a01b03821615155b6118735760405162461bcd60e51b815260206004820152602b60248201527f45524332303a207472616e736665722066726f6d206f7220746f20746865207a60448201526a65726f206164647265737360a81b6064820152608401610738565b61187e838383611fc7565b6001600160a01b038316600090815260ca60205260409020546118a18282612f5d565b6001600160a01b03808616600090815260ca602052604080822093909355908516815290812080548492906118d7908490612e16565b92505081905550826001600160a01b0316846001600160a01b03166000805160206130dc8339815191528460405161191191815260200190565b60405180910390a35b50505050565b6001600160a01b0382166000908152610135602052604081205463ffffffff1661195c5760405162461bcd60e51b815260040161073890612d32565b6040516323b872dd60e01b81526001600160a01b038581166004830152306024830152604482018490528416906323b872dd90606401602060405180830381600087803b1580156119ac57600080fd5b505af11580156119c0573d6000803e3d6000fd5b505050506040513d601f19601f820116820180604052508101906119e49190612a59565b611a415760405162461bcd60e51b815260206004820152602860248201527f436f6e7665727469626c653a2043616e2774206c6f636b2074686520746f6b656044820152671b88185b5bdd5b9d60c21b6064820152608401610738565b6001600160a01b0380851660009081526101386020908152604080832093871683529290522054611a73908390612e16565b6001600160a01b03858116600081815261013860209081526040808320948916808452948252918290209490945551858152919290917f989eaa915cbb416ea3d6f9a63b1a3de51770c7674b11fe21ecdf76b4e1d13910910160405180910390a35060019392505050565b611ae782610841565b611af18133611b10565b6108858383611fd2565b600061083a836001600160a01b038416612058565b611b1a8282611334565b611b7457611b32816001600160a01b031660146120a7565b611b3d8360206120a7565b604051602001611b4e929190612c42565b60408051601f198184030181529082905262461bcd60e51b825261073891600401612cb1565b5050565b6000611b85848484611c2d565b506000611b928484611c74565b90506108348582611d18565b6001600160a01b0381163314611c0e5760405162461bcd60e51b815260206004820152602f60248201527f416363657373436f6e74726f6c3a2063616e206f6e6c792072656e6f756e636560448201526e103937b632b9903337b91039b2b63360891b6064820152608401610738565b611b748282612242565b600061083a836001600160a01b0384166122a9565b6001600160a01b03808416600090815261013860209081526040808320938616835292905290812080548391908390611c67908490612f5d565b9091555091949350505050565b6001600160a01b038216600090815261013560205260408120805463ffffffff16611cb15760405162461bcd60e51b815260040161073890612d32565b6001600160a01b0384166000908152610136602090815260408083205461013754610135909352922054611d109260ff90811692169063ffffffff600160201b8204811691611d01911688612f3e565b611d0b9190612e2e565b61239c565b949350505050565b6001600160a01b038216611d6e5760405162461bcd60e51b815260206004820152601f60248201527f45524332303a206d696e7420746f20746865207a65726f2061646472657373006044820152606401610738565b611d7a60008383611fc7565b8060cc6000828254611d8c9190612e16565b90915550506001600160a01b038216600090815260ca602052604081208054839290611db9908490612e16565b90915550506040518181526001600160a01b038316906000906000805160206130dc8339815191529060200160405180910390a35050565b600054610100900460ff1680611e0a575060005460ff16155b611e265760405162461bcd60e51b815260040161073890612ce4565b600054610100900460ff16158015611e48576000805461ffff19166101011790555b611e5283836123f1565b610c7260008051602061309c83398151915233611ee6565b600054610100900460ff1680611e83575060005460ff16155b611e9f5760405162461bcd60e51b815260040161073890612ce4565b600054610100900460ff16158015611ec1576000805461ffff19166101011790555b610137805460ff191660ff84161790558015611b74576000805461ff00191690555050565b61086d8282612486565b600061083a8383612490565b60006105ee825490565b611f0f82610841565b611f198133611b10565b6108858383612242565b6000815160411415611f575760208201516040830151606084015160001a611f4d868285856124ba565b93505050506105ee565b815160401415611f7f5760208201516040830151611f7685838361264b565b925050506105ee565b60405162461bcd60e51b815260206004820152601f60248201527f45434453413a20696e76616c6964207369676e6174757265206c656e677468006044820152606401610738565b610885838383612675565b611fdc8282611334565b611b745760008281526065602090815260408083206001600160a01b03851684529091529020805460ff191660011790556120143390565b6001600160a01b0316816001600160a01b0316837f2f8788117e7eff1d82e926ec794901d17c78024a50270940304540a733656f0d60405160405180910390a45050565b600081815260018301602052604081205461209f575081546001818101845560008481526020808220909301849055845484825282860190935260409020919091556105ee565b5060006105ee565b606060006120b6836002612f3e565b6120c1906002612e16565b6001600160401b038111156120d8576120d861306d565b6040519080825280601f01601f191660200182016040528015612102576020820181803683370190505b509050600360fc1b8160008151811061211d5761211d613057565b60200101906001600160f81b031916908160001a905350600f60fb1b8160018151811061214c5761214c613057565b60200101906001600160f81b031916908160001a9053506000612170846002612f3e565b61217b906001612e16565b90505b60018111156121f3576f181899199a1a9b1b9c1cb0b131b232b360811b85600f16601081106121af576121af613057565b1a60f81b8282815181106121c5576121c5613057565b60200101906001600160f81b031916908160001a90535060049490941c936121ec81612fc3565b905061217e565b50831561083a5760405162461bcd60e51b815260206004820181905260248201527f537472696e67733a20686578206c656e67746820696e73756666696369656e746044820152606401610738565b61224c8282611334565b15611b745760008281526065602090815260408083206001600160a01b0385168085529252808320805460ff1916905551339285917ff6391f5c32d9c69d2a47ea670b442974b53935d1edc7fd64eb21e047a839171b9190a45050565b600081815260018301602052604081205480156123925760006122cd600183612f5d565b85549091506000906122e190600190612f5d565b905081811461234657600086600001828154811061230157612301613057565b906000526020600020015490508087600001848154811061232457612324613057565b6000918252602080832090910192909255918252600188019052604090208390555b855486908061235757612357613041565b6001900381819060005260206000200160009055905585600101600086815260200190815260200160002060009055600193505050506105ee565b60009150506105ee565b60008260ff168460ff1610156123d2576123b68484612f74565b6123c190600a612e93565b6123cb9083612f3e565b905061083a565b6123dc8385612f74565b6123e790600a612e93565b6123cb9083612e2e565b600054610100900460ff168061240a575060005460ff16155b6124265760405162461bcd60e51b815260040161073890612ce4565b600054610100900460ff16158015612448576000805461ffff19166101011790555b825161245b9060cd906020860190612700565b50815161246f9060ce906020850190612700565b508015610885576000805461ff0019169055505050565b611b748282611fd2565b60008260000182815481106124a7576124a7613057565b9060005260206000200154905092915050565b60006fa2a8918ca85bafe22016d0b997e4df60600160ff1b0382111561252d5760405162461bcd60e51b815260206004820152602260248201527f45434453413a20696e76616c6964207369676e6174757265202773272076616c604482015261756560f01b6064820152608401610738565b8360ff16601b148061254257508360ff16601c145b6125995760405162461bcd60e51b815260206004820152602260248201527f45434453413a20696e76616c6964207369676e6174757265202776272076616c604482015261756560f01b6064820152608401610738565b6040805160008082526020820180845288905260ff871692820192909252606081018590526080810184905260019060a0016020604051602081039080840390855afa1580156125ed573d6000803e3d6000fd5b5050604051601f1901519150506001600160a01b0381166108a25760405162461bcd60e51b815260206004820152601860248201527745434453413a20696e76616c6964207369676e617475726560401b6044820152606401610738565b60006001600160ff1b03821660ff83901c601b0161266b868287856124ba565b9695505050505050565b6001600160a01b03831615610885578061268e84611507565b10156108855760405162461bcd60e51b815260206004820152603b60248201527f455243323052657365727661626c653a207472616e7366657220616d6f756e7460448201527a206578636565647320756e72657365727665642062616c616e636560281b6064820152608401610738565b82805461270c90612fda565b90600052602060002090601f01602090048101928261272e5760008555612774565b82601f1061274757805160ff1916838001178555612774565b82800160010185558215612774579182015b82811115612774578251825591602001919060010190612759565b50612780929150612784565b5090565b5b808211156127805760008155600101612785565b60008083601f8401126127ab57600080fd5b5081356001600160401b038111156127c257600080fd5b6020830191508360208285010111156127da57600080fd5b9250929050565b600082601f8301126127f257600080fd5b81356001600160401b038082111561280c5761280c61306d565b604051601f8301601f19908116603f011681019082821181831017156128345761283461306d565b8160405283815286602085880101111561284d57600080fd5b836020870160208301376000602085830101528094505050505092915050565b60006020828403121561287f57600080fd5b813561083a81613083565b6000806040838503121561289d57600080fd5b82356128a881613083565b915060208301356128b881613083565b809150509250929050565b60008060008060008060008060006101008a8c0312156128e257600080fd5b89356128ed81613083565b985060208a01356128fd81613083565b975060408a013561290d81613083565b965060608a0135955060808a0135945060a08a0135935060c08a0135925060e08a01356001600160401b0381111561294457600080fd5b6129508c828d01612799565b915080935050809150509295985092959850929598565b60008060006060848603121561297c57600080fd5b833561298781613083565b9250602084013561299781613083565b929592945050506040919091013590565b600080600080600080600060c0888a0312156129c357600080fd5b87356129ce81613083565b965060208801356129de81613083565b955060408801359450606088013593506080880135925060a08801356001600160401b03811115612a0e57600080fd5b612a1a8a828b01612799565b989b979a50959850939692959293505050565b60008060408385031215612a4057600080fd5b8235612a4b81613083565b946020939093013593505050565b600060208284031215612a6b57600080fd5b8151801515811461083a57600080fd5b600060208284031215612a8d57600080fd5b5035919050565b60008060408385031215612aa757600080fd5b8235915060208301356128b881613083565b60008060408385031215612acc57600080fd5b50508035926020909101359150565b600060208284031215612aed57600080fd5b81356001600160e01b03198116811461083a57600080fd5b60008060408385031215612b1857600080fd5b82356001600160401b0380821115612b2f57600080fd5b612b3b868387016127e1565b93506020850135915080821115612b5157600080fd5b50612b5e858286016127e1565b9150509250929050565b60058110612b7857612b7861302b565b60f81b9052565b612b89818c612b68565b60018101999099526001600160601b0319606098891b811660218b015296881b871660358a015294871b861660498901529290951b909316605d8601526071850192909252609184019290925260b183015260d182015260f101919050565b612bf2818a612b68565b60018101979097526001600160601b0319606096871b8116602189015294861b851660358801529290941b9092166049850152605d840191909152607d830191909152609d82015260bd01919050565b76020b1b1b2b9b9a1b7b73a3937b61d1030b1b1b7bab73a1604d1b815260008351612c74816017850160208801612f97565b7001034b99036b4b9b9b4b733903937b6329607d1b6017918401918201528351612ca5816028840160208801612f97565b01602801949350505050565b6020815260008251806020840152612cd0816040850160208701612f97565b601f01601f19169190910160400192915050565b6020808252602e908201527f496e697469616c697a61626c653a20636f6e747261637420697320616c72656160408201526d191e481a5b9a5d1a585b1a5e995960921b606082015260800190565b6020808252602c908201527f436f6e7665727469626c653a20546865206261736520746f6b656e206973206e60408201526b1bdd081cdd5c1c1bdc9d195960a21b606082015260800190565b6020808252602b908201527f455243323052657365727661626c653a207265736572766174696f6e20646f6560408201526a1cc81b9bdd08195e1a5cdd60aa1b606082015260800190565b868152602081018690526001600160a01b038581166040830152841660608201526080810183905260c0810160048310612e0557612e0561302b565b8260a0830152979650505050505050565b60008219821115612e2957612e29613015565b500190565b600082612e4b57634e487b7160e01b600052601260045260246000fd5b500490565b600181815b80851115612e8b578160001904821115612e7157612e71613015565b80851615612e7e57918102915b93841c9390800290612e55565b509250929050565b600061083a60ff841683600082612eac575060016105ee565b81612eb9575060006105ee565b8160018114612ecf5760028114612ed957612ef5565b60019150506105ee565b60ff841115612eea57612eea613015565b50506001821b6105ee565b5060208310610133831016604e8410600b8410161715612f18575081810a6105ee565b612f228383612e50565b8060001904821115612f3657612f36613015565b029392505050565b6000816000190483118215151615612f5857612f58613015565b500290565b600082821015612f6f57612f6f613015565b500390565b600060ff821660ff841680821015612f8e57612f8e613015565b90039392505050565b60005b83811015612fb2578181015183820152602001612f9a565b8381111561191a5750506000910152565b600081612fd257612fd2613015565b506000190190565b600181811c90821680612fee57607f821691505b6020821081141561300f57634e487b7160e01b600052602260045260246000fd5b50919050565b634e487b7160e01b600052601160045260246000fd5b634e487b7160e01b600052602160045260246000fd5b634e487b7160e01b600052603160045260246000fd5b634e487b7160e01b600052603260045260246000fd5b634e487b7160e01b600052604160045260246000fd5b6001600160a01b038116811461309857600080fd5b5056fee2b7fb3b832174769106daebcfd6d1970523240dda11281102db9363b83b0dc4455243323052657365727661626c653a207265736572766174696f6e20686173ddf252ad1be2c89b69c2b068fc378daa952ba7f163c4a11628f55a4df523b3ef455243323052657365727661626c653a20696e76616c69642072657365727661a264697066735822122074f536d9415a9e031cd4952c32bb8413f75c29fc52e49fc1ece41b536b68095364736f6c63430008070033",
  "immutableReferences": {},
  "source": "// SPDX-License-Identifier: MIT\npragma solidity >=0.8.6;\n\nimport \"./abstracts/ContextUpgradeable.sol\";\nimport \"./abstracts/ERC20Reservable.sol\";\nimport \"./abstracts/Convertible.sol\";\nimport \"./abstracts/ETHlessTransfer.sol\";\n\n/**\n * @dev Extension of {ERC20} that adds a set of accounts with the {MinterRole},\n * which have permission to mint (create) new tokens as they see fit.\n *\n * At construction, the deployer of the contract is the only minter.\n */\ncontract GluwacoinV0 is\n    ContextUpgradeable,\n    ERC20Reservable,\n    Convertible,\n    ETHlessTransfer\n{\n    function initialize(string memory name_, string memory symbol_)\n        external\n        initializer\n    {\n        __ERC20ETHless_init_unchained(name_, symbol_);\n        __Convertible_init_unchained(decimals());\n        _setupRole(DEFAULT_ADMIN_ROLE, _msgSender());\n    }    \n\n    function lockFrom(\n        address account,\n        IERC20 token,\n        uint256 amount\n    ) external onlyRole(DEFAULT_ADMIN_ROLE) returns (bool) {\n        return _lockFrom(account, token, amount);\n    }\n\n    function convertAllFrom(address account, IERC20 token)\n        external\n        onlyRole(DEFAULT_ADMIN_ROLE)\n        returns (bool)\n    {\n        uint256 lockedAmount = _locks[account][token];\n        _release(account, token, lockedAmount);\n\n        uint256 convertedAmount = _calculateConversion(token, lockedAmount);\n        _mint(account, convertedAmount);\n\n        return true;\n    }\n\n    bytes32 public constant DEFAULT_ADMIN_ROLE_V0 = \"0xc\";\n\n    function decimals() public pure override returns (uint8) {\n        return 6;\n    }\n\n    function convertFrom(\n        address account,\n        IERC20 token,\n        uint256 amount\n    ) external onlyRole(DEFAULT_ADMIN_ROLE) returns (bool) {\n        return _convert(account, token, amount);\n    }\n\n    function convert(IERC20 token, uint256 amount) external returns (bool) {\n        return _convert(_msgSender(), token, amount);\n    }\n\n    function _convert(\n        address account,\n        IERC20 token,\n        uint256 amount\n    ) private returns (bool) {\n        _release(account, token, amount);\n\n        uint256 convertedAmount = _calculateConversion(token, amount);\n        _mint(account, convertedAmount);\n\n        return true;\n    }  \n\n    /** @dev check the amount of available tokens of sender to transfer.\n     * Must override all the parent's functions\n     * Do 2 checks:\n     * - Total balance must be equal or higher than the transferring amount.\n     * - Unreserving (the amount of tokens are not put as a reserve) must be equal or higher than the transferring amount.\n     */\n\n    function _beforeTokenTransfer(\n        address from,\n        address to,\n        uint256 amount\n    ) internal override(ETHlessTransfer, ERC20Reservable) {\n        ETHlessTransfer._beforeTokenTransfer(from, to, amount);\n        ERC20Reservable._beforeTokenTransfer(from, to, amount);\n    }\n    \n\n    uint256[50] private __gap;\n}\n",
  "sourcePath": "/home/osboxes/KRWC-G-1/contracts/GluwacoinV0.sol",
  "compiler": {
    "name": "solc",
    "version": "0.8.7+commit.e28d00a7.Emscripten.clang"
  },
  "schemaVersion": "3.3.4",
  "updatedAt": "2021-08-26T01:15:55.171Z",
  "devdoc": {
    "details": "Extension of {ERC20} that adds a set of accounts with the {MinterRole}, which have permission to mint (create) new tokens as they see fit. At construction, the deployer of the contract is the only minter.",
    "kind": "dev",
    "methods": {
      "allowance(address,address)": {
        "details": "See {IERC20-allowance}."
      },
      "approve(address,uint256)": {
        "details": "See {IERC20-approve}. Requirements: - `spender` cannot be the zero address."
      },
      "balanceOf(address)": {
        "details": "See {IERC20-balanceOf}."
      },
      "decimals()": {
        "details": "Returns the number of decimals used to get its user representation. For example, if `decimals` equals `2`, a balance of `505` tokens should be displayed to a user as `5,05` (`505 / 10 ** 2`). Tokens usually opt for a value of 18, imitating the relationship between Ether and Wei. This is the value {ERC20} uses, unless this function is overridden; NOTE: This information is only used for _display_ purposes: it in no way affects any of the arithmetic of the contract, including {IERC20-balanceOf} and {IERC20-transfer}."
      },
      "decreaseAllowance(address,uint256)": {
        "details": "Atomically decreases the allowance granted to `spender` by the caller. This is an alternative to {approve} that can be used as a mitigation for problems described in {IERC20-approve}. Emits an {Approval} event indicating the updated allowance. Requirements: - `spender` cannot be the zero address. - `spender` must have allowance for the caller of at least `subtractedValue`."
      },
      "getRoleAdmin(bytes32)": {
        "details": "Returns the admin role that controls `role`. See {grantRole} and {revokeRole}. To change a role's admin, use {_setRoleAdmin}."
      },
      "getRoleMember(bytes32,uint256)": {
        "details": "Returns one of the accounts that have `role`. `index` must be a value between 0 and {getRoleMemberCount}, non-inclusive. Role bearers are not sorted in any particular way, and their ordering may change at any point. WARNING: When using {getRoleMember} and {getRoleMemberCount}, make sure you perform all queries on the same block. See the following https://forum.openzeppelin.com/t/iterating-over-elements-on-enumerableset-in-openzeppelin-contracts/2296[forum post] for more information."
      },
      "getRoleMemberCount(bytes32)": {
        "details": "Returns the number of accounts that have `role`. Can be used together with {getRoleMember} to enumerate all bearers of a role."
      },
      "grantRole(bytes32,address)": {
        "details": "Overload {grantRole} to track enumerable memberships"
      },
      "hasRole(bytes32,address)": {
        "details": "Returns `true` if `account` has been granted `role`."
      },
      "increaseAllowance(address,uint256)": {
        "details": "Atomically increases the allowance granted to `spender` by the caller. This is an alternative to {approve} that can be used as a mitigation for problems described in {IERC20-approve}. Emits an {Approval} event indicating the updated allowance. Requirements: - `spender` cannot be the zero address."
      },
      "name()": {
        "details": "Returns the name of the token."
      },
      "renounceRole(bytes32,address)": {
        "details": "Overload {renounceRole} to track enumerable memberships"
      },
      "revokeRole(bytes32,address)": {
        "details": "Overload {revokeRole} to track enumerable memberships"
      },
      "supportsInterface(bytes4)": {
        "details": "See {IERC165-supportsInterface}."
      },
      "symbol()": {
        "details": "Returns the symbol of the token, usually a shorter version of the name."
      },
      "totalSupply()": {
        "details": "See {IERC20-totalSupply}."
      },
      "transfer(address,address,uint256,uint256,uint256,bytes)": {
        "details": "Moves `amount` tokens from the `sender`'s account to `recipient` and moves `fee` tokens from the `sender`'s account to a relayer's address. Returns a boolean value indicating whether the operation succeeded. Emits two {Transfer} events. Requirements: - `recipient` cannot be the zero address. - the `sender` must have a balance of at least the sum of `amount` and `fee`. - the `nonce` is only used once per `sender`."
      },
      "transfer(address,uint256)": {
        "details": "See {IERC20-transfer}. Requirements: - `recipient` cannot be the zero address. - the caller must have a balance of at least `amount`."
      },
      "transferFrom(address,address,uint256)": {
        "details": "See {IERC20-transferFrom}. Emits an {Approval} event indicating the updated allowance. This is not required by the EIP. See the note at the beginning of {ERC20}. Requirements: - `sender` and `recipient` cannot be the zero address. - `sender` must have a balance of at least `amount`. - the caller must have allowance for ``sender``'s tokens of at least `amount`."
      }
    },
    "version": 1
  },
  "userdoc": {
    "kind": "user",
    "methods": {},
    "version": 1
  }
}