{
  "contractName": "GluwacoinV0",
  "abi": [
    {
      "anonymous": false,
      "inputs": [
        {
          "indexed": true,
          "internalType": "address",
          "name": "owner",
          "type": "address"
        },
        {
          "indexed": true,
          "internalType": "address",
          "name": "spender",
          "type": "address"
        },
        {
          "indexed": false,
          "internalType": "uint256",
          "name": "value",
          "type": "uint256"
        }
      ],
      "name": "Approval",
      "type": "event"
    },
    {
      "anonymous": false,
      "inputs": [
        {
          "indexed": true,
          "internalType": "bytes32",
          "name": "lockerHash",
          "type": "bytes32"
        },
        {
          "indexed": true,
          "internalType": "address",
          "name": "sender",
          "type": "address"
        },
        {
          "indexed": false,
          "internalType": "uint256",
          "name": "_value",
          "type": "uint256"
        }
      ],
      "name": "Locked",
      "type": "event"
    },
    {
      "anonymous": false,
      "inputs": [
        {
          "indexed": true,
          "internalType": "bytes32",
          "name": "role",
          "type": "bytes32"
        },
        {
          "indexed": true,
          "internalType": "bytes32",
          "name": "previousAdminRole",
          "type": "bytes32"
        },
        {
          "indexed": true,
          "internalType": "bytes32",
          "name": "newAdminRole",
          "type": "bytes32"
        }
      ],
      "name": "RoleAdminChanged",
      "type": "event"
    },
    {
      "anonymous": false,
      "inputs": [
        {
          "indexed": true,
          "internalType": "bytes32",
          "name": "role",
          "type": "bytes32"
        },
        {
          "indexed": true,
          "internalType": "address",
          "name": "account",
          "type": "address"
        },
        {
          "indexed": true,
          "internalType": "address",
          "name": "sender",
          "type": "address"
        }
      ],
      "name": "RoleGranted",
      "type": "event"
    },
    {
      "anonymous": false,
      "inputs": [
        {
          "indexed": true,
          "internalType": "bytes32",
          "name": "role",
          "type": "bytes32"
        },
        {
          "indexed": true,
          "internalType": "address",
          "name": "account",
          "type": "address"
        },
        {
          "indexed": true,
          "internalType": "address",
          "name": "sender",
          "type": "address"
        }
      ],
      "name": "RoleRevoked",
      "type": "event"
    },
    {
      "anonymous": false,
      "inputs": [
        {
          "indexed": true,
          "internalType": "address",
          "name": "from",
          "type": "address"
        },
        {
          "indexed": true,
          "internalType": "address",
          "name": "to",
          "type": "address"
        },
        {
          "indexed": false,
          "internalType": "uint256",
          "name": "value",
          "type": "uint256"
        }
      ],
      "name": "Transfer",
      "type": "event"
    },
    {
      "inputs": [],
      "name": "DEFAULT_ADMIN_ROLE",
      "outputs": [
        {
          "internalType": "bytes32",
          "name": "",
          "type": "bytes32"
        }
      ],
      "stateMutability": "view",
      "type": "function"
    },
    {
      "inputs": [],
      "name": "DEFAULT_ADMIN_ROLE_V0",
      "outputs": [
        {
          "internalType": "bytes32",
          "name": "",
          "type": "bytes32"
        }
      ],
      "stateMutability": "view",
      "type": "function"
    },
    {
      "inputs": [],
      "name": "RELAYER_ROLE",
      "outputs": [
        {
          "internalType": "bytes32",
          "name": "",
          "type": "bytes32"
        }
      ],
      "stateMutability": "view",
      "type": "function"
    },
    {
      "inputs": [
        {
          "internalType": "address",
          "name": "owner",
          "type": "address"
        },
        {
          "internalType": "address",
          "name": "spender",
          "type": "address"
        }
      ],
      "name": "allowance",
      "outputs": [
        {
          "internalType": "uint256",
          "name": "",
          "type": "uint256"
        }
      ],
      "stateMutability": "view",
      "type": "function"
    },
    {
      "inputs": [
        {
          "internalType": "address",
          "name": "spender",
          "type": "address"
        },
        {
          "internalType": "uint256",
          "name": "amount",
          "type": "uint256"
        }
      ],
      "name": "approve",
      "outputs": [
        {
          "internalType": "bool",
          "name": "",
          "type": "bool"
        }
      ],
      "stateMutability": "nonpayable",
      "type": "function"
    },
    {
      "inputs": [
        {
          "internalType": "address",
          "name": "account",
          "type": "address"
        }
      ],
      "name": "balanceOf",
      "outputs": [
        {
          "internalType": "uint256",
          "name": "",
          "type": "uint256"
        }
      ],
      "stateMutability": "view",
      "type": "function"
    },
    {
      "inputs": [
        {
          "internalType": "address",
          "name": "spender",
          "type": "address"
        },
        {
          "internalType": "uint256",
          "name": "subtractedValue",
          "type": "uint256"
        }
      ],
      "name": "decreaseAllowance",
      "outputs": [
        {
          "internalType": "bool",
          "name": "",
          "type": "bool"
        }
      ],
      "stateMutability": "nonpayable",
      "type": "function"
    },
    {
      "inputs": [
        {
          "internalType": "address",
          "name": "sender",
          "type": "address"
        },
        {
          "internalType": "uint256",
          "name": "nonce",
          "type": "uint256"
        }
      ],
      "name": "execute",
      "outputs": [
        {
          "internalType": "bool",
          "name": "success",
          "type": "bool"
        }
      ],
      "stateMutability": "nonpayable",
      "type": "function"
    },
    {
      "inputs": [
        {
          "internalType": "bytes32",
          "name": "lockerHash",
          "type": "bytes32"
        }
      ],
      "name": "getLocker",
      "outputs": [
        {
          "components": [
            {
              "internalType": "uint256",
              "name": "idx",
              "type": "uint256"
            },
            {
              "internalType": "address",
              "name": "owner",
              "type": "address"
            },
            {
              "internalType": "uint256",
              "name": "amount",
              "type": "uint256"
            },
            {
              "internalType": "enum GluwacoinModels.LockerState",
              "name": "state",
              "type": "uint8"
            },
            {
              "components": [
                {
                  "internalType": "uint32",
                  "name": "rate",
                  "type": "uint32"
                },
                {
                  "internalType": "uint32",
                  "name": "decimalPlaceBase",
                  "type": "uint32"
                }
              ],
              "internalType": "struct GluwacoinModels.TokenExchangeModel",
              "name": "exchangeRate",
              "type": "tuple"
            }
          ],
          "internalType": "struct GluwacoinModels.Locker",
          "name": "",
          "type": "tuple"
        }
      ],
      "stateMutability": "view",
      "type": "function"
    },
    {
      "inputs": [
        {
          "internalType": "address",
          "name": "sender",
          "type": "address"
        },
        {
          "internalType": "uint256",
          "name": "nonce",
          "type": "uint256"
        }
      ],
      "name": "getReservation",
      "outputs": [
        {
          "internalType": "uint256",
          "name": "amount",
          "type": "uint256"
        },
        {
          "internalType": "uint256",
          "name": "fee",
          "type": "uint256"
        },
        {
          "internalType": "address",
          "name": "recipient",
          "type": "address"
        },
        {
          "internalType": "address",
          "name": "executor",
          "type": "address"
        },
        {
          "internalType": "uint256",
          "name": "expiryBlockNum",
          "type": "uint256"
        },
        {
          "internalType": "enum ERC20Reservable.ReservationStatus",
          "name": "status",
          "type": "uint8"
        }
      ],
      "stateMutability": "view",
      "type": "function"
    },
    {
      "inputs": [
        {
          "internalType": "bytes32",
          "name": "role",
          "type": "bytes32"
        }
      ],
      "name": "getRoleAdmin",
      "outputs": [
        {
          "internalType": "bytes32",
          "name": "",
          "type": "bytes32"
        }
      ],
      "stateMutability": "view",
      "type": "function"
    },
    {
      "inputs": [
        {
          "internalType": "bytes32",
          "name": "role",
          "type": "bytes32"
        },
        {
          "internalType": "uint256",
          "name": "index",
          "type": "uint256"
        }
      ],
      "name": "getRoleMember",
      "outputs": [
        {
          "internalType": "address",
          "name": "",
          "type": "address"
        }
      ],
      "stateMutability": "view",
      "type": "function"
    },
    {
      "inputs": [
        {
          "internalType": "bytes32",
          "name": "role",
          "type": "bytes32"
        }
      ],
      "name": "getRoleMemberCount",
      "outputs": [
        {
          "internalType": "uint256",
          "name": "",
          "type": "uint256"
        }
      ],
      "stateMutability": "view",
      "type": "function"
    },
    {
      "inputs": [],
      "name": "getTokenExchangeDetails",
      "outputs": [
        {
          "components": [
            {
              "internalType": "uint32",
              "name": "rate",
              "type": "uint32"
            },
            {
              "internalType": "uint32",
              "name": "decimalPlaceBase",
              "type": "uint32"
            }
          ],
          "internalType": "struct GluwacoinModels.TokenExchangeModel",
          "name": "",
          "type": "tuple"
        }
      ],
      "stateMutability": "view",
      "type": "function"
    },
    {
      "inputs": [
        {
          "internalType": "bytes32",
          "name": "role",
          "type": "bytes32"
        },
        {
          "internalType": "address",
          "name": "account",
          "type": "address"
        }
      ],
      "name": "grantRole",
      "outputs": [],
      "stateMutability": "nonpayable",
      "type": "function"
    },
    {
      "inputs": [
        {
          "internalType": "bytes32",
          "name": "role",
          "type": "bytes32"
        },
        {
          "internalType": "address",
          "name": "account",
          "type": "address"
        }
      ],
      "name": "hasRole",
      "outputs": [
        {
          "internalType": "bool",
          "name": "",
          "type": "bool"
        }
      ],
      "stateMutability": "view",
      "type": "function"
    },
    {
      "inputs": [
        {
          "internalType": "address",
          "name": "spender",
          "type": "address"
        },
        {
          "internalType": "uint256",
          "name": "addedValue",
          "type": "uint256"
        }
      ],
      "name": "increaseAllowance",
      "outputs": [
        {
          "internalType": "bool",
          "name": "",
          "type": "bool"
        }
      ],
      "stateMutability": "nonpayable",
      "type": "function"
    },
    {
      "inputs": [],
      "name": "name",
      "outputs": [
        {
          "internalType": "string",
          "name": "",
          "type": "string"
        }
      ],
      "stateMutability": "view",
      "type": "function"
    },
    {
      "inputs": [
        {
          "internalType": "address",
          "name": "sender",
          "type": "address"
        },
        {
          "internalType": "uint256",
          "name": "nonce",
          "type": "uint256"
        }
      ],
      "name": "reclaim",
      "outputs": [
        {
          "internalType": "bool",
          "name": "success",
          "type": "bool"
        }
      ],
      "stateMutability": "nonpayable",
      "type": "function"
    },
    {
      "inputs": [
        {
          "internalType": "bytes32",
          "name": "role",
          "type": "bytes32"
        },
        {
          "internalType": "address",
          "name": "account",
          "type": "address"
        }
      ],
      "name": "renounceRole",
      "outputs": [],
      "stateMutability": "nonpayable",
      "type": "function"
    },
    {
      "inputs": [
        {
          "internalType": "address",
          "name": "sender",
          "type": "address"
        },
        {
          "internalType": "address",
          "name": "recipient",
          "type": "address"
        },
        {
          "internalType": "address",
          "name": "executor",
          "type": "address"
        },
        {
          "internalType": "uint256",
          "name": "amount",
          "type": "uint256"
        },
        {
          "internalType": "uint256",
          "name": "fee",
          "type": "uint256"
        },
        {
          "internalType": "uint256",
          "name": "nonce",
          "type": "uint256"
        },
        {
          "internalType": "uint256",
          "name": "expiryBlockNum",
          "type": "uint256"
        },
        {
          "internalType": "bytes",
          "name": "sig",
          "type": "bytes"
        }
      ],
      "name": "reserve",
      "outputs": [
        {
          "internalType": "bool",
          "name": "success",
          "type": "bool"
        }
      ],
      "stateMutability": "nonpayable",
      "type": "function"
    },
    {
      "inputs": [
        {
          "internalType": "address",
          "name": "account",
          "type": "address"
        }
      ],
      "name": "reservedBalanceOf",
      "outputs": [
        {
          "internalType": "uint256",
          "name": "amount",
          "type": "uint256"
        }
      ],
      "stateMutability": "view",
      "type": "function"
    },
    {
      "inputs": [
        {
          "internalType": "bytes32",
          "name": "role",
          "type": "bytes32"
        },
        {
          "internalType": "address",
          "name": "account",
          "type": "address"
        }
      ],
      "name": "revokeRole",
      "outputs": [],
      "stateMutability": "nonpayable",
      "type": "function"
    },
    {
      "inputs": [
        {
          "internalType": "bytes4",
          "name": "interfaceId",
          "type": "bytes4"
        }
      ],
      "name": "supportsInterface",
      "outputs": [
        {
          "internalType": "bool",
          "name": "",
          "type": "bool"
        }
      ],
      "stateMutability": "view",
      "type": "function"
    },
    {
      "inputs": [],
      "name": "symbol",
      "outputs": [
        {
          "internalType": "string",
          "name": "",
          "type": "string"
        }
      ],
      "stateMutability": "view",
      "type": "function"
    },
    {
      "inputs": [],
      "name": "totalSupply",
      "outputs": [
        {
          "internalType": "uint256",
          "name": "",
          "type": "uint256"
        }
      ],
      "stateMutability": "view",
      "type": "function"
    },
    {
      "inputs": [
        {
          "internalType": "address",
          "name": "sender",
          "type": "address"
        },
        {
          "internalType": "address",
          "name": "recipient",
          "type": "address"
        },
        {
          "internalType": "uint256",
          "name": "amount",
          "type": "uint256"
        },
        {
          "internalType": "uint256",
          "name": "fee",
          "type": "uint256"
        },
        {
          "internalType": "uint256",
          "name": "nonce",
          "type": "uint256"
        },
        {
          "internalType": "bytes",
          "name": "sig",
          "type": "bytes"
        }
      ],
      "name": "transfer",
      "outputs": [
        {
          "internalType": "bool",
          "name": "success",
          "type": "bool"
        }
      ],
      "stateMutability": "nonpayable",
      "type": "function"
    },
    {
      "inputs": [
        {
          "internalType": "address",
          "name": "recipient",
          "type": "address"
        },
        {
          "internalType": "uint256",
          "name": "amount",
          "type": "uint256"
        }
      ],
      "name": "transfer",
      "outputs": [
        {
          "internalType": "bool",
          "name": "",
          "type": "bool"
        }
      ],
      "stateMutability": "nonpayable",
      "type": "function"
    },
    {
      "inputs": [
        {
          "internalType": "address",
          "name": "sender",
          "type": "address"
        },
        {
          "internalType": "address",
          "name": "recipient",
          "type": "address"
        },
        {
          "internalType": "uint256",
          "name": "amount",
          "type": "uint256"
        }
      ],
      "name": "transferFrom",
      "outputs": [
        {
          "internalType": "bool",
          "name": "",
          "type": "bool"
        }
      ],
      "stateMutability": "nonpayable",
      "type": "function"
    },
    {
      "inputs": [
        {
          "internalType": "address",
          "name": "account",
          "type": "address"
        }
      ],
      "name": "unreservedBalanceOf",
      "outputs": [
        {
          "internalType": "uint256",
          "name": "amount",
          "type": "uint256"
        }
      ],
      "stateMutability": "view",
      "type": "function"
    },
    {
      "inputs": [
        {
          "internalType": "contract IERC20",
          "name": "token",
          "type": "address"
        },
        {
          "internalType": "string",
          "name": "name_",
          "type": "string"
        },
        {
          "internalType": "string",
          "name": "symbol_",
          "type": "string"
        }
      ],
      "name": "initialize",
      "outputs": [],
      "stateMutability": "nonpayable",
      "type": "function"
    },
    {
      "inputs": [
        {
          "internalType": "uint256",
          "name": "amount",
          "type": "uint256"
        }
      ],
      "name": "burn",
      "outputs": [
        {
          "internalType": "bool",
          "name": "",
          "type": "bool"
        }
      ],
      "stateMutability": "nonpayable",
      "type": "function"
    },
    {
      "inputs": [
        {
          "internalType": "address",
          "name": "account",
          "type": "address"
        },
        {
          "internalType": "uint256",
          "name": "amount",
          "type": "uint256"
        },
        {
          "internalType": "uint256",
          "name": "fee",
          "type": "uint256"
        }
      ],
      "name": "burn",
      "outputs": [
        {
          "internalType": "bool",
          "name": "",
          "type": "bool"
        }
      ],
      "stateMutability": "nonpayable",
      "type": "function"
    },
    {
      "inputs": [
        {
          "internalType": "address",
          "name": "account",
          "type": "address"
        },
        {
          "internalType": "uint256",
          "name": "amount",
          "type": "uint256"
        },
        {
          "internalType": "uint256",
          "name": "fee",
          "type": "uint256"
        }
      ],
      "name": "mint",
      "outputs": [
        {
          "internalType": "bool",
          "name": "",
          "type": "bool"
        }
      ],
      "stateMutability": "nonpayable",
      "type": "function"
    },
    {
      "inputs": [
        {
          "internalType": "uint256",
          "name": "amount",
          "type": "uint256"
        }
      ],
      "name": "mint",
      "outputs": [
        {
          "internalType": "bool",
          "name": "",
          "type": "bool"
        }
      ],
      "stateMutability": "nonpayable",
      "type": "function"
    },
    {
      "inputs": [
        {
          "internalType": "address",
          "name": "collector",
          "type": "address"
        },
        {
          "internalType": "uint256",
          "name": "amount",
          "type": "uint256"
        }
      ],
      "name": "collectFee",
      "outputs": [
        {
          "internalType": "bool",
          "name": "",
          "type": "bool"
        }
      ],
      "stateMutability": "nonpayable",
      "type": "function"
    },
    {
      "inputs": [],
      "name": "decimals",
      "outputs": [
        {
          "internalType": "uint8",
          "name": "",
          "type": "uint8"
        }
      ],
      "stateMutability": "pure",
      "type": "function"
    }
  ],
  "bytecode": "0x608060405234801561001057600080fd5b50613607806100206000396000f3fe608060405234801561001057600080fd5b50600436106101b65760003560e01c8062aa0bce146101bb57806301ffc9a7146101e157806306fdde0314610204578063095ea7b3146102195780630982d5b01461022c578063156e29f61461023f57806318160ddd1461025257806323b872dd1461025a578063248a9ca31461026d5780632ec0ff6c146102805780632f2ff15d14610293578063313ce567146102a857806336568abe146102b757806336bd063a146102ca57806339509351146102dd5780633b89bb86146102f057806342966c681461030357806370a082311461031657806380c9dcf714610329578063851ad6541461033c5780638bd317eb1461035c5780639010d07c1461036f578063906571471461039a57806391d14854146103ad578063926d7d7f146103c057806395d89b41146103d55780639e1a4767146103dd578063a0712d68146103ea578063a217fddf146103fd578063a22ac5a914610405578063a457c2d714610479578063a9059cbb1461048c578063ca15c8731461049f578063d547741f146104b2578063dd62ed3e146104c5578063f5298aca146104fe578063fd635d6114610511575b600080fd5b6101ce6101c9366004612d78565b610526565b6040519081526020015b60405180910390f35b6101f46101ef36600461301b565b61054a565b60405190151581526020016101d8565b61020c61056f565b6040516101d89190613234565b6101f4610227366004612f38565b610601565b6101f461023a366004612eb3565b610617565b6101f461024d366004612f64565b610742565b60cb546101ce565b6101f4610268366004612e72565b610763565b6101ce61027b366004612fbb565b61080d565b6101f461028e366004612f38565b610822565b6102a66102a1366004612fd4565b610843565b005b604051600681526020016101d8565b6102a66102c5366004612fd4565b61086a565b6101ce6102d8366004612d78565b61088c565b6101f46102eb366004612f38565b610897565b6101f46102fe366004612f38565b6108d3565b6101f4610311366004612fbb565b610b58565b6101ce610324366004612d78565b610b66565b6101f4610337366004612dce565b610b81565b61034f61034a366004612fbb565b610f25565b6040516101d89190613300565b6101f461036a366004612f38565b610fd9565b61038261037d366004612ff9565b611281565b6040516001600160a01b0390911681526020016101d8565b6102a66103a8366004613045565b6112a0565b6101f46103bb366004612fd4565b61132f565b6101ce60008051602061355283398151915281565b61020c61135a565b6101ce6230786360e81b81565b6101f46103f8366004612fbb565b611369565b6101ce600081565b610467610413366004612f38565b6001600160a01b03918216600090815260fb6020908152604080832093835292905220805460018201546002830154600384015460048501546005909501549396929591821694911692909160ff90911690565b6040516101d896959493929190613362565b6101f4610487366004612f38565b611377565b6101f461049a366004612f38565b611410565b6101ce6104ad366004612fbb565b61141d565b6102a66104c0366004612fd4565b611434565b6101ce6104d3366004612d95565b6001600160a01b03918216600090815260ca6020908152604080832093909416825291909152205490565b6101f461050c366004612f64565b61143e565b610519611456565b6040516101d89190613354565b600061053182611488565b61053a83610b66565b6105449190613408565b92915050565b60006001600160e01b03198216635a05180f60e01b14806105445750610544826114aa565b606060cc805461057e90613462565b80601f01602080910402602001604051908101604052809291908181526020018280546105aa90613462565b80156105f75780601f106105cc576101008083540402835291602001916105f7565b820191906000526020600020905b8154815290600101906020018083116105da57829003601f168201915b5050505050905090565b600061060e3384846114df565b50600192915050565b60008061062389610b66565b905061062f86886133af565b8110156106975760405162461bcd60e51b815260206004820152602b60248201527f45524332304554486c6573733a207468652062616c616e6365206973206e6f7460448201526a081cdd59999a58da595b9d60aa1b60648201526084015b60405180910390fd5b6106a18986611603565b6000600346308c8c8c8c8c6040516020016106c3989796959493929190613152565b60405160208183030381529060405280519060200120905061071c818b87878080601f0160208091040260200160405190810160405280939291908181526020018383808284376000920191909152506116cf92505050565b506107278a886117a3565b6107328a8a8a6117c7565b5060019998505050505050505050565b60008061074f813361198e565b61075a8585856119f6565b95945050505050565b60006107708484846117c7565b6001600160a01b038416600090815260ca60209081526040808320338452909152902054828110156107f55760405162461bcd60e51b815260206004820152602860248201527f45524332303a207472616e7366657220616d6f756e74206578636565647320616044820152676c6c6f77616e636560c01b606482015260840161068e565b61080285338584036114df565b506001949350505050565b60009081526065602052604090206001015490565b60008061082f813361198e565b6108398484611a24565b91505b5092915050565b61084d8282611ab0565b60008281526097602052604090206108659082611acd565b505050565b6108748282611ae2565b60008281526097602052604090206108659082611b5c565b600061054482611488565b33600081815260ca602090815260408083206001600160a01b0387168452909152812054909161060e9185906108ce9086906133af565b6114df565b6001600160a01b038216600090815260fb60209081526040808320848452909152812060048101546109175760405162461bcd60e51b815260040161068e906132b5565b336001600160a01b0385161480610943575060038101546001600160a01b0316336001600160a01b0316145b6109c95760405162461bcd60e51b815260206004820152604b60248201527f455243323052657365727661626c653a2074686973206164647265737320697360448201527f206e6f7420617574686f72697a656420746f206578656375746520746869732060648201526a3932b9b2b93b30ba34b7b760a91b608482015260a40161068e565b43816004015411610a305760405162461bcd60e51b815260206004820152603f602482015260008051602061357283398151915260448201527f206578706972656420616e642063616e6e6f7420626520657865637574656400606482015260840161068e565b6001600582015460ff166003811115610a4b57610a4b6134e4565b14610aa55760405162461bcd60e51b815260206004820152603660248201526000805160206135b283398151915260448201527574696f6e2073746174757320746f206578656375746560501b606482015260840161068e565b60038101546002820154600183015483546001600160a01b0393841693909216916000610ad283836133af565b6001600160a01b038a16600081815260fb602090815260408083208d84528252808320600501805460ff1916600317905592825260fc90522054909150610b1a908290613408565b6001600160a01b038a16600090815260fc6020526040902055610b3e8986856117c7565b610b498985846117c7565b50600198975050505050505050565b600061054433836000611b71565b6001600160a01b0316600090815260c9602052604090205490565b6001600160a01b038916600090815260fb6020908152604080832087845290915281206004015415610c105760405162461bcd60e51b815260206004820152603260248201527f455243323052657365727661626c653a207468652073656e646572207573656460448201527120746865206e6f6e636520616c726561647960701b606482015260840161068e565b438411610c745760405162461bcd60e51b815260206004820152602c60248201527f455243323052657365727661626c653a20696e76616c696420626c6f636b206560448201526b3c3834b93c90373ab6b132b960a11b606482015260840161068e565b6001600160a01b038816610ce45760405162461bcd60e51b815260206004820152603160248201527f455243323052657365727661626c653a2063616e6e6f7420657865637574652060448201527066726f6d207a65726f206164647265737360781b606482015260840161068e565b6000610cf087896133af565b905080610cfc8c611488565b1015610d635760405162461bcd60e51b815260206004820152603060248201527f455243323052657365727661626c653a20696e73756666696369656e7420756e60448201526f72657365727665642062616c616e636560801b606482015260840161068e565b6000600446308e8e8e8e8e8e8e604051602001610d899a999897969594939291906130e9565b604051602081830303815290604052805190602001209050610de2818d87878080601f0160208091040260200160405190810160405280939291908181526020018383808284376000920191909152506116cf92505050565b506040518060c001604052808a81526020018981526020018c6001600160a01b031681526020018b6001600160a01b0316815260200187815260200160016003811115610e3157610e316134e4565b90526001600160a01b03808e16600090815260fb602090815260408083208c84528252918290208451815590840151600180830191909155918401516002820180549185166001600160a01b03199283161790556060850151600380840180549290961691909216179093556080840151600482015560a084015160058201805492949193909260ff1916918490811115610ece57610ece6134e4565b021790555050506001600160a01b038c16600090815260fc6020526040902054610ef99083906133af565b6001600160a01b038d16600090815260fc60205260409020555060019150509998505050505050505050565b610f2d612bc0565b60008281526101366020908152604091829020825160a0810184528154815260018201546001600160a01b03169281019290925260028082015493830193909352600381015491929091606084019160ff90911690811115610f9157610f916134e4565b6002811115610fa257610fa26134e4565b8152604080518082019091526004929092015463ffffffff8082168452600160201b90910416602083810191909152015292915050565b6001600160a01b038216600090815260fb602090815260408083208484529091528120600481015461101d5760405162461bcd60e51b815260040161068e906132b5565b336001600160a01b0385161480611049575060038101546001600160a01b0316336001600160a01b0316145b6110e15760405162461bcd60e51b815260206004820152605f60248201527f455243323052657365727661626c653a206f6e6c79207468652073656e64657260448201527f206f7220746865206578656375746f722063616e207265636c61696d2074686560648201527f207265736572766174696f6e206261636b20746f207468652073656e64657200608482015260a40161068e565b438160040154111580611109575060038101546001600160a01b0316336001600160a01b0316145b61118f5760405162461bcd60e51b8152602060048201526060602482015260008051602061357283398151915260448201527f206e6f742065787069726564206f7220796f7520617265206e6f74207468652060648201527f6578656375746f7220616e642063616e6e6f74206265207265636c61696d6564608482015260a40161068e565b6001600582015460ff1660038111156111aa576111aa6134e4565b146112045760405162461bcd60e51b815260206004820152603660248201526000805160206135b283398151915260448201527574696f6e2073746174757320746f207265636c61696d60501b606482015260840161068e565b6001600160a01b038416600081815260fb602090815260408083208784528252808320600501805460ff191660021790556001850154855494845260fc90925290912054909161125391613408565b61125d9190613408565b6001600160a01b038516600090815260fc6020526040902055506001905092915050565b60008281526097602052604081206112999083611d6a565b9392505050565b600054610100900460ff16806112b9575060005460ff16155b6112d55760405162461bcd60e51b815260040161068e90613267565b600054610100900460ff161580156112f7576000805461ffff19166101011790555b6113018383611d76565b61130c846006611e0d565b611317600033611ebc565b8015611329576000805461ff00191690555b50505050565b60009182526065602090815260408084206001600160a01b0393909316845291905290205460ff1690565b606060cd805461057e90613462565b6000610544338360006119f6565b33600090815260ca602090815260408083206001600160a01b0386168452909152812054828110156113f95760405162461bcd60e51b815260206004820152602560248201527f45524332303a2064656372656173656420616c6c6f77616e63652062656c6f77604482015264207a65726f60d81b606482015260840161068e565b61140633858584036114df565b5060019392505050565b600061060e3384846117c7565b600081815260976020526040812061054490611ec6565b6108748282611ed0565b60008061144b813361198e565b61075a858585611b71565b61145e612bf4565b50604080518082019091526101305463ffffffff8082168352600160201b90910416602082015290565b6001600160a01b038116600090815260fc602052604081205461053a83610b66565b60006001600160e01b03198216637965db0b60e01b148061054457506301ffc9a760e01b6001600160e01b0319831614610544565b6001600160a01b0383166115415760405162461bcd60e51b8152602060048201526024808201527f45524332303a20617070726f76652066726f6d20746865207a65726f206164646044820152637265737360e01b606482015260840161068e565b6001600160a01b0382166115a25760405162461bcd60e51b815260206004820152602260248201527f45524332303a20617070726f766520746f20746865207a65726f206164647265604482015261737360f01b606482015260840161068e565b6001600160a01b03838116600081815260ca602090815260408083209487168084529482529182902085905590518481527f8c5be1e5ebec7d5bd14f71427d1e84f3dd0314c0f7b2291e5b200ac8c7c3b925910160405180910390a3505050565b6001600160a01b038216600090815261016a6020908152604080832084845290915290205460ff161561169e5760405162461bcd60e51b815260206004820152603e60248201527f45524332304554486c6573733a20746865206e6f6e63652068617320616c726560448201527f616479206265656e207573656420666f72207468697320616464726573730000606482015260840161068e565b6001600160a01b03909116600090815261016a6020908152604080832093835292905220805460ff19166001179055565b600080611728856040517b0ca2ba3432b932bab69029b4b3b732b21026b2b9b9b0b3b29d05199960211b6020820152603c8101829052600090605c01604051602081830303815290604052805190602001209050919050565b905060006117368285611eed565b9050846001600160a01b0316816001600160a01b0316146117975760405162461bcd60e51b815260206004820152601b60248201527a56616c69646174653a20696e76616c6964207369676e617475726560281b604482015260640161068e565b50600195945050505050565b60006117be6000805160206135528339815191526000611281565b90506108658382845b6001600160a01b03831661182b5760405162461bcd60e51b815260206004820152602560248201527f45524332303a207472616e736665722066726f6d20746865207a65726f206164604482015264647265737360d81b606482015260840161068e565b6001600160a01b03821661188d5760405162461bcd60e51b815260206004820152602360248201527f45524332303a207472616e7366657220746f20746865207a65726f206164647260448201526265737360e81b606482015260840161068e565b611898838383611f91565b6001600160a01b038316600090815260c96020526040902054818110156119105760405162461bcd60e51b815260206004820152602660248201527f45524332303a207472616e7366657220616d6f756e7420657863656564732062604482015265616c616e636560d01b606482015260840161068e565b6001600160a01b03808516600090815260c960205260408082208585039055918516815290812080548492906119479084906133af565b92505081905550826001600160a01b0316846001600160a01b03166000805160206135928339815191528460405161198191815260200190565b60405180910390a3611329565b611998828261132f565b6119f2576119b0816001600160a01b03166014611f9c565b6119bb836020611f9c565b6040516020016119cc9291906131ac565b60408051601f198184030181529082905262461bcd60e51b825261068e91600401613234565b5050565b6000611a03848484612137565b506000611a18611a138486613408565b612459565b90506108028582612484565b61012f5460405163a9059cbb60e01b81526000916201000090046001600160a01b03169063a9059cbb90611a5e908690869060040161321b565b602060405180830381600087803b158015611a7857600080fd5b505af1158015611a8c573d6000803e3d6000fd5b505050506040513d601f19601f820116820180604052508101906114069190612f99565b611ab98261080d565b611ac3813361198e565b610865838361255d565b6000611299836001600160a01b0384166125e3565b6001600160a01b0381163314611b525760405162461bcd60e51b815260206004820152602f60248201527f416363657373436f6e74726f6c3a2063616e206f6e6c792072656e6f756e636560448201526e103937b632b9903337b91039b2b63360891b606482015260840161068e565b6119f28282612632565b6000611299836001600160a01b038416612699565b6001600160a01b03831660009081526101376020908152604080832054808452610136909252822060020154841115611c065760405162461bcd60e51b815260206004820152603160248201527f436f6e7665727469626c653a2043616e277420776974686472617720746f6b656044820152703710333937b6903a3432903637b1b5b2b960791b606482015260840161068e565b60008181526101366020526040812060040154611c3590869063ffffffff80821691600160201b90041661278c565b9050838111611ca45760405162461bcd60e51b815260206004820152603560248201527f436f6e7665727469626c653a2057697468647261776e20616d6f756e74206d75604482015274737420626520686967686572207468616e2066656560581b606482015260840161068e565b6000828152610136602052604081206002018054839290611cc6908490613408565b909155505061012f546201000090046001600160a01b031663a9059cbb87611cee8785613408565b6040518363ffffffff1660e01b8152600401611d0b92919061321b565b602060405180830381600087803b158015611d2557600080fd5b505af1158015611d39573d6000803e3d6000fd5b505050506040513d601f19601f82011682018060405250810190611d5d9190612f99565b5060019695505050505050565b600061129983836127b9565b600054610100900460ff1680611d8f575060005460ff16155b611dab5760405162461bcd60e51b815260040161068e90613267565b600054610100900460ff16158015611dcd576000805461ffff19166101011790555b611dd783836127e3565b611ddf612878565b611df760008051602061355283398151915233611ebc565b8015610865576000805461ff0019169055505050565b600054610100900460ff1680611e26575060005460ff16155b611e425760405162461bcd60e51b815260040161068e90613267565b600054610100900460ff16158015611e64576000805461ffff19166101011790555b61012f8054610100600160b01b031916620100006001600160a01b0386160261ff0019161761010060ff8516021790556001610133819055610134556000610135558015610865576000805461ff0019169055505050565b61084d82826128e4565b6000610544825490565b611ed98261080d565b611ee3813361198e565b6108658383612632565b6000815160411415611f215760208201516040830151606084015160001a611f17868285856128ee565b9350505050610544565b815160401415611f495760208201516040830151611f40858383612a7f565b92505050610544565b60405162461bcd60e51b815260206004820152601f60248201527f45434453413a20696e76616c6964207369676e6174757265206c656e67746800604482015260640161068e565b610865838383612aa9565b60606000611fab8360026133e9565b611fb69060026133af565b6001600160401b03811115611fcd57611fcd613526565b6040519080825280601f01601f191660200182016040528015611ff7576020820181803683370190505b509050600360fc1b8160008151811061201257612012613510565b60200101906001600160f81b031916908160001a905350600f60fb1b8160018151811061204157612041613510565b60200101906001600160f81b031916908160001a90535060006120658460026133e9565b6120709060016133af565b90505b60018111156120e8576f181899199a1a9b1b9c1cb0b131b232b360811b85600f16601081106120a4576120a4613510565b1a60f81b8282815181106120ba576120ba613510565b60200101906001600160f81b031916908160001a90535060049490941c936120e18161344b565b9050612073565b5083156112995760405162461bcd60e51b815260206004820181905260248201527f537472696e67733a20686578206c656e67746820696e73756666696369656e74604482015260640161068e565b61012f546040516323b872dd60e01b81526001600160a01b0385811660048301523060248301526044820185905260009262010000900416906323b872dd90606401602060405180830381600087803b15801561219357600080fd5b505af11580156121a7573d6000803e3d6000fd5b505050506040513d601f19601f820116820180604052508101906121cb9190612f99565b6122285760405162461bcd60e51b815260206004820152602860248201527f436f6e7665727469626c653a2043616e2774206c6f636b2074686520746f6b656044820152671b88185b5bdd5b9d60c21b606482015260840161068e565b6000806122358486613408565b6001600160a01b0387166000908152610137602090815260408083205480845261013690925290912054919250901561229557600081815261013660205260408120600201805484929061228a9084906133af565b909155506124089050565b610134546040516122cf919030908a90602001928352606091821b6001600160601b03199081166020850152911b16603482015260480190565b60408051601f19818403018152828252805160209182012060a0840183526101345484526001600160a01b038b8116838601908152858501888152600160608801818152875180890189526101305463ffffffff8082168352600160201b909104168189015260808a015260008681526101369097529690952087518155915182860180546001600160a01b03191691909416179092559051600280830191909155935160038201805493995091949093919260ff191691908490811115612399576123996134e4565b02179055506080919091015180516004909201805460209092015163ffffffff908116600160201b026001600160401b0319909316938116939093179190911790556123eb90610131908590612b3416565b6001600160a01b0387166000908152610137602052604090208390555b866001600160a01b0316837f515a19a1c83edb8613fd7de44c592958807d317b9d2c72a2b2f582ed9786b8338460405161244491815260200190565b60405180910390a35060019695505050505050565b6101305460009063ffffffff600160201b820481169161247a9116846133e9565b61054491906133c7565b6001600160a01b0382166124da5760405162461bcd60e51b815260206004820152601f60248201527f45524332303a206d696e7420746f20746865207a65726f206164647265737300604482015260640161068e565b6124e660008383611f91565b8060cb60008282546124f891906133af565b90915550506001600160a01b038216600090815260c96020526040812080548392906125259084906133af565b90915550506040518181526001600160a01b038316906000906000805160206135928339815191529060200160405180910390a35050565b612567828261132f565b6119f25760008281526065602090815260408083206001600160a01b03851684529091529020805460ff1916600117905561259f3390565b6001600160a01b0316816001600160a01b0316837f2f8788117e7eff1d82e926ec794901d17c78024a50270940304540a733656f0d60405160405180910390a45050565b600081815260018301602052604081205461262a57508154600181810184556000848152602080822090930184905584548482528286019093526040902091909155610544565b506000610544565b61263c828261132f565b156119f25760008281526065602090815260408083206001600160a01b0385168085529252808320805460ff1916905551339285917ff6391f5c32d9c69d2a47ea670b442974b53935d1edc7fd64eb21e047a839171b9190a45050565b600081815260018301602052604081205480156127825760006126bd600183613408565b85549091506000906126d190600190613408565b90508181146127365760008660000182815481106126f1576126f1613510565b906000526020600020015490508087600001848154811061271457612714613510565b6000918252602080832090910192909255918252600188019052604090208390555b8554869080612747576127476134fa565b600190038181906000526020600020016000905590558560010160008681526020019081526020016000206000905560019350505050610544565b6000915050610544565b60008263ffffffff168263ffffffff16856127a791906133e9565b6127b191906133c7565b949350505050565b60008260000182815481106127d0576127d0613510565b9060005260206000200154905092915050565b600054610100900460ff16806127fc575060005460ff16155b6128185760405162461bcd60e51b815260040161068e90613267565b600054610100900460ff1615801561283a576000805461ffff19166101011790555b825161284d9060cc906020860190612c0b565b5081516128619060cd906020850190612c0b565b508015610865576000805461ff0019169055505050565b600054610100900460ff1680612891575060005460ff16155b6128ad5760405162461bcd60e51b815260040161068e90613267565b600054610100900460ff161580156128cf576000805461ffff19166101011790555b80156128e1576000805461ff00191690555b50565b6119f2828261255d565b60006fa2a8918ca85bafe22016d0b997e4df60600160ff1b038211156129615760405162461bcd60e51b815260206004820152602260248201527f45434453413a20696e76616c6964207369676e6174757265202773272076616c604482015261756560f01b606482015260840161068e565b8360ff16601b148061297657508360ff16601c145b6129cd5760405162461bcd60e51b815260206004820152602260248201527f45434453413a20696e76616c6964207369676e6174757265202776272076616c604482015261756560f01b606482015260840161068e565b6040805160008082526020820180845288905260ff871692820192909252606081018590526080810184905260019060a0016020604051602081039080840390855afa158015612a21573d6000803e3d6000fd5b5050604051601f1901519150506001600160a01b03811661075a5760405162461bcd60e51b815260206004820152601860248201527745434453413a20696e76616c6964207369676e617475726560401b604482015260640161068e565b60006001600160ff1b03821660ff83901c601b01612a9f868287856128ee565b9695505050505050565b6001600160a01b038316156108655780612ac284611488565b10156108655760405162461bcd60e51b815260206004820152603b60248201527f455243323052657365727661626c653a207472616e7366657220616d6f756e7460448201527a206578636565647320756e72657365727665642062616c616e636560281b606482015260840161068e565b60008181526020839052604081205460ff166002811115612b5757612b576134e4565b14612b6457612b646134b8565b600081815260208381526040808320805460ff1916600190811790915560038601805485529086019092528220839055805491612ba08361349d565b9091555050600482018054906000612bb78361349d565b91905055505050565b6040805160a0810182526000808252602082018190529181018290529060608201908152602001612bef612bf4565b905290565b604080518082019091526000808252602082015290565b828054612c1790613462565b90600052602060002090601f016020900481019282612c395760008555612c7f565b82601f10612c5257805160ff1916838001178555612c7f565b82800160010185558215612c7f579182015b82811115612c7f578251825591602001919060010190612c64565b50612c8b929150612c8f565b5090565b5b80821115612c8b5760008155600101612c90565b60008083601f840112612cb657600080fd5b5081356001600160401b03811115612ccd57600080fd5b602083019150836020828501011115612ce557600080fd5b9250929050565b600082601f830112612cfd57600080fd5b81356001600160401b0380821115612d1757612d17613526565b604051601f8301601f19908116603f01168101908282118183101715612d3f57612d3f613526565b81604052838152866020858801011115612d5857600080fd5b836020870160208301376000602085830101528094505050505092915050565b600060208284031215612d8a57600080fd5b81356112998161353c565b60008060408385031215612da857600080fd5b8235612db38161353c565b91506020830135612dc38161353c565b809150509250929050565b60008060008060008060008060006101008a8c031215612ded57600080fd5b8935612df88161353c565b985060208a0135612e088161353c565b975060408a0135612e188161353c565b965060608a0135955060808a0135945060a08a0135935060c08a0135925060e08a01356001600160401b03811115612e4f57600080fd5b612e5b8c828d01612ca4565b915080935050809150509295985092959850929598565b600080600060608486031215612e8757600080fd5b8335612e928161353c565b92506020840135612ea28161353c565b929592945050506040919091013590565b600080600080600080600060c0888a031215612ece57600080fd5b8735612ed98161353c565b96506020880135612ee98161353c565b955060408801359450606088013593506080880135925060a08801356001600160401b03811115612f1957600080fd5b612f258a828b01612ca4565b989b979a50959850939692959293505050565b60008060408385031215612f4b57600080fd5b8235612f568161353c565b946020939093013593505050565b600080600060608486031215612f7957600080fd5b8335612f848161353c565b95602085013595506040909401359392505050565b600060208284031215612fab57600080fd5b8151801515811461129957600080fd5b600060208284031215612fcd57600080fd5b5035919050565b60008060408385031215612fe757600080fd5b823591506020830135612dc38161353c565b6000806040838503121561300c57600080fd5b50508035926020909101359150565b60006020828403121561302d57600080fd5b81356001600160e01b03198116811461129957600080fd5b60008060006060848603121561305a57600080fd5b83356130658161353c565b925060208401356001600160401b038082111561308157600080fd5b61308d87838801612cec565b935060408601359150808211156130a357600080fd5b506130b086828701612cec565b9150509250925092565b600581106130ca576130ca6134e4565b60f81b9052565b805163ffffffff908116835260209182015116910152565b6130f3818c6130ba565b60018101999099526001600160601b0319606098891b811660218b015296881b871660358a015294871b861660498901529290951b909316605d8601526071850192909252609184019290925260b183015260d182015260f101919050565b61315c818a6130ba565b60018101979097526001600160601b0319606096871b8116602189015294861b851660358801529290941b9092166049850152605d840191909152607d830191909152609d82015260bd01919050565b76020b1b1b2b9b9a1b7b73a3937b61d1030b1b1b7bab73a1604d1b8152600083516131de81601785016020880161341f565b7001034b99036b4b9b9b4b733903937b6329607d1b601791840191820152835161320f81602884016020880161341f565b01602801949350505050565b6001600160a01b03929092168252602082015260400190565b602081526000825180602084015261325381604085016020870161341f565b601f01601f19169190910160400192915050565b6020808252602e908201527f496e697469616c697a61626c653a20636f6e747261637420697320616c72656160408201526d191e481a5b9a5d1a585b1a5e995960921b606082015260800190565b6020808252602b908201527f455243323052657365727661626c653a207265736572766174696f6e20646f6560408201526a1cc81b9bdd08195e1a5cdd60aa1b606082015260800190565b815181526020808301516001600160a01b03169082015260408083015190820152606082015160c08201906003811061333b5761333b6134e4565b80606084015250608083015161083c60808401826130d1565b6040810161054482846130d1565b868152602081018690526001600160a01b038581166040830152841660608201526080810183905260c081016004831061339e5761339e6134e4565b8260a0830152979650505050505050565b600082198211156133c2576133c26134ce565b500190565b6000826133e457634e487b7160e01b600052601260045260246000fd5b500490565b6000816000190483118215151615613403576134036134ce565b500290565b60008282101561341a5761341a6134ce565b500390565b60005b8381101561343a578181015183820152602001613422565b838111156113295750506000910152565b60008161345a5761345a6134ce565b506000190190565b600181811c9082168061347657607f821691505b6020821081141561349757634e487b7160e01b600052602260045260246000fd5b50919050565b60006000198214156134b1576134b16134ce565b5060010190565b634e487b7160e01b600052600160045260246000fd5b634e487b7160e01b600052601160045260246000fd5b634e487b7160e01b600052602160045260246000fd5b634e487b7160e01b600052603160045260246000fd5b634e487b7160e01b600052603260045260246000fd5b634e487b7160e01b600052604160045260246000fd5b6001600160a01b03811681146128e157600080fdfee2b7fb3b832174769106daebcfd6d1970523240dda11281102db9363b83b0dc4455243323052657365727661626c653a207265736572766174696f6e20686173ddf252ad1be2c89b69c2b068fc378daa952ba7f163c4a11628f55a4df523b3ef455243323052657365727661626c653a20696e76616c69642072657365727661a264697066735822122056d307f9c58a76e1f63babc8f366d91b929528b1bc5418d71fe0950600e6e9ac64736f6c63430008070033",
  "immutableReferences": {},
  "source": "// SPDX-License-Identifier: MIT\npragma solidity >=0.8.7;\n\nimport \"@openzeppelin/contracts-upgradeable/utils/ContextUpgradeable.sol\";\nimport \"./abstracts/ERC20Reservable.sol\";\nimport \"./abstracts/Convertible.sol\";\nimport \"./abstracts/ERC20ETHless.sol\";\n\n/**\n * @dev Extension of {ERC20} that adds a set of accounts with the {MinterRole},\n * which have permission to mint (create) new tokens as they see fit.\n *\n * At construction, the deployer of the contract is the only minter.\n */\ncontract GluwacoinV0 is\n    ContextUpgradeable,\n    ERC20Reservable,\n    Convertible,\n    ERC20ETHless\n{\n    function initialize(IERC20 token, string memory name_, string memory symbol_)\n        external\n        initializer\n    {\n        __ERC20ETHless_init_unchained(name_, symbol_);\n        __Convertible_init_unchained(token, decimals());\n        _setupRole(DEFAULT_ADMIN_ROLE, _msgSender());\n    }\n\n    /**\n     * @dev Gluwa triggers the withdraw (burn) onbehalf of users.\n     * `fee` is used to pay gas for the transaction.\n     *\n     * Requirements:\n     * - the account must have at least `amount` of `gluwacoin` in the locker.\n     * - `withdrawn amount` must be greater than fee.\n     * - `fee` will be deducted from the `amount` of `base token`.\n     */\n    function burn(\n        address account,\n        uint256 amount,\n        uint256 fee\n    ) external onlyRole(DEFAULT_ADMIN_ROLE) returns (bool) {\n        return _withdraw(account, amount, fee);\n    }\n\n    /**\n     * @dev Users burn Gluwacoin to withdraw token by themselves.\n     * `fee` will be 0 as users will need to pay gas from their account.\n     *\n     * Requirements:\n     * - Only owner can `withdraw`.\n     * - the account must have sufficient eth to pay gas.\n     */\n    function burn(uint256 amount) external returns (bool) {\n        return _withdraw(_msgSender(), amount, 0);\n    }\n\n    /**\n     * @dev Gluwa triggers the conversion (mint) onbehalf of users.\n     * `fee` is used to pay gas for the transaction.\n     *\n     * Requirements:\n     * - the account must have at least `amount` of `base token`.\n     * - `amount` must be greater than fee.\n     * - `fee` will be deducted from the `amount` of `base token`.\n     */\n    function mint(\n        address account,\n        uint256 amount,\n        uint256 fee\n    ) external onlyRole(DEFAULT_ADMIN_ROLE) returns (bool) {\n        return _convert(account, amount, fee);\n    }\n\n    /**\n     * @dev Users convert (mint) token by themselves.\n     * `fee` will be 0 as users will need to pay gas from their account.\n     *\n     * Requirements:\n     * - the account must have at least `amount` of `base token`.\n     * - the account must have sufficient eth to pay gas.\n     */\n    function mint(uint256 amount) external returns (bool) {\n        return _convert(_msgSender(), amount, 0);\n    }\n\n    function _convert(\n        address account,\n        uint256 amount,\n        uint256 fee\n    ) private returns (bool) {\n        _lockFrom(account, amount, fee);\n\n        uint256 convertedAmount = _calculateConversion(amount - fee);\n        _mint(account, convertedAmount);\n\n        return true;\n    }\n\n    /** @dev The contract admin can withdraw an amount of the received `fee` from the contract.\n     */\n    function collectFee(address collector, uint256 amount)\n        external\n        onlyRole(DEFAULT_ADMIN_ROLE)\n        returns (bool)\n    {\n        return _withdrawBaseToken(collector, amount);\n    }\n\n    /** @dev check the amount of available tokens of sender to transfer.\n     * Must override all the parent's functions\n     * Do 2 checks:\n     * - Total balance must be equal or higher than the transferring amount.\n     * - Unreserving (the amount of tokens are not put as a reserve) must be equal or higher than the transferring amount.\n     */\n\n    function _beforeTokenTransfer(\n        address from,\n        address to,\n        uint256 amount\n    ) internal override(ERC20ETHless, ERC20Reservable) {\n        ERC20ETHless._beforeTokenTransfer(from, to, amount);\n        ERC20Reservable._beforeTokenTransfer(from, to, amount);\n    }\n\n    bytes32 public constant DEFAULT_ADMIN_ROLE_V0 = \"0xc\";\n\n    function decimals() public pure override returns (uint8) {\n        return 6;\n    }\n\n    uint256[50] private __gap;\n}\n",
  "sourcePath": "/home/osboxes/KRWC-G-1/contracts/GluwacoinV0.sol",
  "compiler": {
    "name": "solc",
    "version": "0.8.7+commit.e28d00a7.Emscripten.clang"
  },
  "schemaVersion": "3.3.4",
  "updatedAt": "2021-09-02T02:54:55.032Z",
  "devdoc": {
    "details": "Extension of {ERC20} that adds a set of accounts with the {MinterRole}, which have permission to mint (create) new tokens as they see fit. At construction, the deployer of the contract is the only minter.",
    "kind": "dev",
    "methods": {
      "allowance(address,address)": {
        "details": "See {IERC20-allowance}."
      },
      "approve(address,uint256)": {
        "details": "See {IERC20-approve}. Requirements: - `spender` cannot be the zero address."
      },
      "balanceOf(address)": {
        "details": "See {IERC20-balanceOf}."
      },
      "burn(address,uint256,uint256)": {
        "details": "Gluwa triggers the withdraw (burn) onbehalf of users. `fee` is used to pay gas for the transaction. Requirements: - the account must have at least `amount` of `gluwacoin` in the locker. - `withdrawn amount` must be greater than fee. - `fee` will be deducted from the `amount` of `base token`."
      },
      "burn(uint256)": {
        "details": "Users burn Gluwacoin to withdraw token by themselves. `fee` will be 0 as users will need to pay gas from their account. Requirements: - Only owner can `withdraw`. - the account must have sufficient eth to pay gas."
      },
      "collectFee(address,uint256)": {
        "details": "The contract admin can withdraw an amount of the received `fee` from the contract."
      },
      "decimals()": {
        "details": "Returns the number of decimals used to get its user representation. For example, if `decimals` equals `2`, a balance of `505` tokens should be displayed to a user as `5,05` (`505 / 10 ** 2`). Tokens usually opt for a value of 18, imitating the relationship between Ether and Wei. This is the value {ERC20} uses, unless this function is overridden; NOTE: This information is only used for _display_ purposes: it in no way affects any of the arithmetic of the contract, including {IERC20-balanceOf} and {IERC20-transfer}."
      },
      "decreaseAllowance(address,uint256)": {
        "details": "Atomically decreases the allowance granted to `spender` by the caller. This is an alternative to {approve} that can be used as a mitigation for problems described in {IERC20-approve}. Emits an {Approval} event indicating the updated allowance. Requirements: - `spender` cannot be the zero address. - `spender` must have allowance for the caller of at least `subtractedValue`."
      },
      "getRoleAdmin(bytes32)": {
        "details": "Returns the admin role that controls `role`. See {grantRole} and {revokeRole}. To change a role's admin, use {_setRoleAdmin}."
      },
      "getRoleMember(bytes32,uint256)": {
        "details": "Returns one of the accounts that have `role`. `index` must be a value between 0 and {getRoleMemberCount}, non-inclusive. Role bearers are not sorted in any particular way, and their ordering may change at any point. WARNING: When using {getRoleMember} and {getRoleMemberCount}, make sure you perform all queries on the same block. See the following https://forum.openzeppelin.com/t/iterating-over-elements-on-enumerableset-in-openzeppelin-contracts/2296[forum post] for more information."
      },
      "getRoleMemberCount(bytes32)": {
        "details": "Returns the number of accounts that have `role`. Can be used together with {getRoleMember} to enumerate all bearers of a role."
      },
      "grantRole(bytes32,address)": {
        "details": "Overload {grantRole} to track enumerable memberships"
      },
      "hasRole(bytes32,address)": {
        "details": "Returns `true` if `account` has been granted `role`."
      },
      "increaseAllowance(address,uint256)": {
        "details": "Atomically increases the allowance granted to `spender` by the caller. This is an alternative to {approve} that can be used as a mitigation for problems described in {IERC20-approve}. Emits an {Approval} event indicating the updated allowance. Requirements: - `spender` cannot be the zero address."
      },
      "mint(address,uint256,uint256)": {
        "details": "Gluwa triggers the conversion (mint) onbehalf of users. `fee` is used to pay gas for the transaction. Requirements: - the account must have at least `amount` of `base token`. - `amount` must be greater than fee. - `fee` will be deducted from the `amount` of `base token`."
      },
      "mint(uint256)": {
        "details": "Users convert (mint) token by themselves. `fee` will be 0 as users will need to pay gas from their account. Requirements: - the account must have at least `amount` of `base token`. - the account must have sufficient eth to pay gas."
      },
      "name()": {
        "details": "Returns the name of the token."
      },
      "renounceRole(bytes32,address)": {
        "details": "Overload {renounceRole} to track enumerable memberships"
      },
      "revokeRole(bytes32,address)": {
        "details": "Overload {revokeRole} to track enumerable memberships"
      },
      "supportsInterface(bytes4)": {
        "details": "See {IERC165-supportsInterface}."
      },
      "symbol()": {
        "details": "Returns the symbol of the token, usually a shorter version of the name."
      },
      "totalSupply()": {
        "details": "See {IERC20-totalSupply}."
      },
      "transfer(address,address,uint256,uint256,uint256,bytes)": {
        "details": "Moves `amount` tokens from the `sender`'s account to `recipient` and moves `fee` tokens from the `sender`'s account to a relayer's address. Returns a boolean value indicating whether the operation succeeded. Emits two {Transfer} events. Requirements: - `recipient` cannot be the zero address. - the `sender` must have a balance of at least the sum of `amount` and `fee`. - the `nonce` is only used once per `sender`."
      },
      "transfer(address,uint256)": {
        "details": "See {IERC20-transfer}. Requirements: - `recipient` cannot be the zero address. - the caller must have a balance of at least `amount`."
      },
      "transferFrom(address,address,uint256)": {
        "details": "See {IERC20-transferFrom}. Emits an {Approval} event indicating the updated allowance. This is not required by the EIP. See the note at the beginning of {ERC20}. Requirements: - `sender` and `recipient` cannot be the zero address. - `sender` must have a balance of at least `amount`. - the caller must have allowance for ``sender``'s tokens of at least `amount`."
      }
    },
    "version": 1
  },
  "userdoc": {
    "kind": "user",
    "methods": {},
    "version": 1
  }
}