{
  "contractName": "Gluwacoin",
  "abi": [
    {
      "anonymous": false,
      "inputs": [
        {
          "indexed": true,
          "internalType": "address",
          "name": "owner",
          "type": "address"
        },
        {
          "indexed": true,
          "internalType": "address",
          "name": "spender",
          "type": "address"
        },
        {
          "indexed": false,
          "internalType": "uint256",
          "name": "value",
          "type": "uint256"
        }
      ],
      "name": "Approval",
      "type": "event"
    },
    {
      "anonymous": false,
      "inputs": [
        {
          "indexed": true,
          "internalType": "address",
          "name": "sender",
          "type": "address"
        },
        {
          "indexed": true,
          "internalType": "contract IERC20",
          "name": "token",
          "type": "address"
        },
        {
          "indexed": false,
          "internalType": "uint256",
          "name": "_value",
          "type": "uint256"
        }
      ],
      "name": "Locked",
      "type": "event"
    },
    {
      "anonymous": false,
      "inputs": [
        {
          "indexed": true,
          "internalType": "bytes32",
          "name": "role",
          "type": "bytes32"
        },
        {
          "indexed": true,
          "internalType": "bytes32",
          "name": "previousAdminRole",
          "type": "bytes32"
        },
        {
          "indexed": true,
          "internalType": "bytes32",
          "name": "newAdminRole",
          "type": "bytes32"
        }
      ],
      "name": "RoleAdminChanged",
      "type": "event"
    },
    {
      "anonymous": false,
      "inputs": [
        {
          "indexed": true,
          "internalType": "bytes32",
          "name": "role",
          "type": "bytes32"
        },
        {
          "indexed": true,
          "internalType": "address",
          "name": "account",
          "type": "address"
        },
        {
          "indexed": true,
          "internalType": "address",
          "name": "sender",
          "type": "address"
        }
      ],
      "name": "RoleGranted",
      "type": "event"
    },
    {
      "anonymous": false,
      "inputs": [
        {
          "indexed": true,
          "internalType": "bytes32",
          "name": "role",
          "type": "bytes32"
        },
        {
          "indexed": true,
          "internalType": "address",
          "name": "account",
          "type": "address"
        },
        {
          "indexed": true,
          "internalType": "address",
          "name": "sender",
          "type": "address"
        }
      ],
      "name": "RoleRevoked",
      "type": "event"
    },
    {
      "anonymous": false,
      "inputs": [
        {
          "indexed": true,
          "internalType": "address",
          "name": "from",
          "type": "address"
        },
        {
          "indexed": true,
          "internalType": "address",
          "name": "to",
          "type": "address"
        },
        {
          "indexed": false,
          "internalType": "uint256",
          "name": "value",
          "type": "uint256"
        }
      ],
      "name": "Transfer",
      "type": "event"
    },
    {
      "inputs": [],
      "name": "DEFAULT_ADMIN_ROLE",
      "outputs": [
        {
          "internalType": "bytes32",
          "name": "",
          "type": "bytes32"
        }
      ],
      "stateMutability": "view",
      "type": "function"
    },
    {
      "inputs": [],
      "name": "RELAYER_ROLE",
      "outputs": [
        {
          "internalType": "bytes32",
          "name": "",
          "type": "bytes32"
        }
      ],
      "stateMutability": "view",
      "type": "function"
    },
    {
      "inputs": [
        {
          "internalType": "address",
          "name": "owner",
          "type": "address"
        },
        {
          "internalType": "address",
          "name": "spender",
          "type": "address"
        }
      ],
      "name": "allowance",
      "outputs": [
        {
          "internalType": "uint256",
          "name": "",
          "type": "uint256"
        }
      ],
      "stateMutability": "view",
      "type": "function"
    },
    {
      "inputs": [
        {
          "internalType": "address",
          "name": "spender",
          "type": "address"
        },
        {
          "internalType": "uint256",
          "name": "amount",
          "type": "uint256"
        }
      ],
      "name": "approve",
      "outputs": [
        {
          "internalType": "bool",
          "name": "",
          "type": "bool"
        }
      ],
      "stateMutability": "nonpayable",
      "type": "function"
    },
    {
      "inputs": [
        {
          "internalType": "address",
          "name": "account",
          "type": "address"
        }
      ],
      "name": "balanceOf",
      "outputs": [
        {
          "internalType": "uint256",
          "name": "",
          "type": "uint256"
        }
      ],
      "stateMutability": "view",
      "type": "function"
    },
    {
      "inputs": [],
      "name": "decimals",
      "outputs": [
        {
          "internalType": "uint8",
          "name": "",
          "type": "uint8"
        }
      ],
      "stateMutability": "view",
      "type": "function"
    },
    {
      "inputs": [
        {
          "internalType": "address",
          "name": "spender",
          "type": "address"
        },
        {
          "internalType": "uint256",
          "name": "subtractedValue",
          "type": "uint256"
        }
      ],
      "name": "decreaseAllowance",
      "outputs": [
        {
          "internalType": "bool",
          "name": "",
          "type": "bool"
        }
      ],
      "stateMutability": "nonpayable",
      "type": "function"
    },
    {
      "inputs": [
        {
          "internalType": "address",
          "name": "sender",
          "type": "address"
        },
        {
          "internalType": "uint256",
          "name": "nonce",
          "type": "uint256"
        }
      ],
      "name": "execute",
      "outputs": [
        {
          "internalType": "bool",
          "name": "success",
          "type": "bool"
        }
      ],
      "stateMutability": "nonpayable",
      "type": "function"
    },
    {
      "inputs": [
        {
          "internalType": "address",
          "name": "account",
          "type": "address"
        },
        {
          "internalType": "contract IERC20",
          "name": "token",
          "type": "address"
        }
      ],
      "name": "getLocked",
      "outputs": [
        {
          "internalType": "uint256",
          "name": "",
          "type": "uint256"
        }
      ],
      "stateMutability": "view",
      "type": "function"
    },
    {
      "inputs": [
        {
          "internalType": "address",
          "name": "sender",
          "type": "address"
        },
        {
          "internalType": "uint256",
          "name": "nonce",
          "type": "uint256"
        }
      ],
      "name": "getReservation",
      "outputs": [
        {
          "internalType": "uint256",
          "name": "amount",
          "type": "uint256"
        },
        {
          "internalType": "uint256",
          "name": "fee",
          "type": "uint256"
        },
        {
          "internalType": "address",
          "name": "recipient",
          "type": "address"
        },
        {
          "internalType": "address",
          "name": "executor",
          "type": "address"
        },
        {
          "internalType": "uint256",
          "name": "expiryBlockNum",
          "type": "uint256"
        },
        {
          "internalType": "enum ERC20Reservable.ReservationStatus",
          "name": "status",
          "type": "uint8"
        }
      ],
      "stateMutability": "view",
      "type": "function"
    },
    {
      "inputs": [
        {
          "internalType": "bytes32",
          "name": "role",
          "type": "bytes32"
        }
      ],
      "name": "getRoleAdmin",
      "outputs": [
        {
          "internalType": "bytes32",
          "name": "",
          "type": "bytes32"
        }
      ],
      "stateMutability": "view",
      "type": "function"
    },
    {
      "inputs": [
        {
          "internalType": "bytes32",
          "name": "role",
          "type": "bytes32"
        },
        {
          "internalType": "uint256",
          "name": "index",
          "type": "uint256"
        }
      ],
      "name": "getRoleMember",
      "outputs": [
        {
          "internalType": "address",
          "name": "",
          "type": "address"
        }
      ],
      "stateMutability": "view",
      "type": "function"
    },
    {
      "inputs": [
        {
          "internalType": "bytes32",
          "name": "role",
          "type": "bytes32"
        }
      ],
      "name": "getRoleMemberCount",
      "outputs": [
        {
          "internalType": "uint256",
          "name": "",
          "type": "uint256"
        }
      ],
      "stateMutability": "view",
      "type": "function"
    },
    {
      "inputs": [
        {
          "internalType": "contract IERC20",
          "name": "token",
          "type": "address"
        }
      ],
      "name": "getTokenExchangeDetails",
      "outputs": [
        {
          "components": [
            {
              "internalType": "uint32",
              "name": "rate",
              "type": "uint32"
            },
            {
              "internalType": "uint32",
              "name": "decimalPlaceBase",
              "type": "uint32"
            }
          ],
          "internalType": "struct GluwacoinModel.TokenExchangeModel",
          "name": "",
          "type": "tuple"
        }
      ],
      "stateMutability": "view",
      "type": "function"
    },
    {
      "inputs": [
        {
          "internalType": "bytes32",
          "name": "role",
          "type": "bytes32"
        },
        {
          "internalType": "address",
          "name": "account",
          "type": "address"
        }
      ],
      "name": "grantRole",
      "outputs": [],
      "stateMutability": "nonpayable",
      "type": "function"
    },
    {
      "inputs": [
        {
          "internalType": "bytes32",
          "name": "role",
          "type": "bytes32"
        },
        {
          "internalType": "address",
          "name": "account",
          "type": "address"
        }
      ],
      "name": "hasRole",
      "outputs": [
        {
          "internalType": "bool",
          "name": "",
          "type": "bool"
        }
      ],
      "stateMutability": "view",
      "type": "function"
    },
    {
      "inputs": [
        {
          "internalType": "address",
          "name": "spender",
          "type": "address"
        },
        {
          "internalType": "uint256",
          "name": "addedValue",
          "type": "uint256"
        }
      ],
      "name": "increaseAllowance",
      "outputs": [
        {
          "internalType": "bool",
          "name": "",
          "type": "bool"
        }
      ],
      "stateMutability": "nonpayable",
      "type": "function"
    },
    {
      "inputs": [
        {
          "internalType": "contract IERC20",
          "name": "token",
          "type": "address"
        },
        {
          "internalType": "uint256",
          "name": "amount",
          "type": "uint256"
        }
      ],
      "name": "lock",
      "outputs": [
        {
          "internalType": "bool",
          "name": "",
          "type": "bool"
        }
      ],
      "stateMutability": "nonpayable",
      "type": "function"
    },
    {
      "inputs": [],
      "name": "name",
      "outputs": [
        {
          "internalType": "string",
          "name": "",
          "type": "string"
        }
      ],
      "stateMutability": "view",
      "type": "function"
    },
    {
      "inputs": [
        {
          "internalType": "address",
          "name": "sender",
          "type": "address"
        },
        {
          "internalType": "uint256",
          "name": "nonce",
          "type": "uint256"
        }
      ],
      "name": "reclaim",
      "outputs": [
        {
          "internalType": "bool",
          "name": "success",
          "type": "bool"
        }
      ],
      "stateMutability": "nonpayable",
      "type": "function"
    },
    {
      "inputs": [
        {
          "internalType": "bytes32",
          "name": "role",
          "type": "bytes32"
        },
        {
          "internalType": "address",
          "name": "account",
          "type": "address"
        }
      ],
      "name": "renounceRole",
      "outputs": [],
      "stateMutability": "nonpayable",
      "type": "function"
    },
    {
      "inputs": [
        {
          "internalType": "address",
          "name": "sender",
          "type": "address"
        },
        {
          "internalType": "address",
          "name": "recipient",
          "type": "address"
        },
        {
          "internalType": "address",
          "name": "executor",
          "type": "address"
        },
        {
          "internalType": "uint256",
          "name": "amount",
          "type": "uint256"
        },
        {
          "internalType": "uint256",
          "name": "fee",
          "type": "uint256"
        },
        {
          "internalType": "uint256",
          "name": "nonce",
          "type": "uint256"
        },
        {
          "internalType": "uint256",
          "name": "expiryBlockNum",
          "type": "uint256"
        },
        {
          "internalType": "bytes",
          "name": "sig",
          "type": "bytes"
        }
      ],
      "name": "reserve",
      "outputs": [
        {
          "internalType": "bool",
          "name": "success",
          "type": "bool"
        }
      ],
      "stateMutability": "nonpayable",
      "type": "function"
    },
    {
      "inputs": [
        {
          "internalType": "address",
          "name": "account",
          "type": "address"
        }
      ],
      "name": "reservedBalanceOf",
      "outputs": [
        {
          "internalType": "uint256",
          "name": "amount",
          "type": "uint256"
        }
      ],
      "stateMutability": "view",
      "type": "function"
    },
    {
      "inputs": [
        {
          "internalType": "bytes32",
          "name": "role",
          "type": "bytes32"
        },
        {
          "internalType": "address",
          "name": "account",
          "type": "address"
        }
      ],
      "name": "revokeRole",
      "outputs": [],
      "stateMutability": "nonpayable",
      "type": "function"
    },
    {
      "inputs": [
        {
          "internalType": "bytes4",
          "name": "interfaceId",
          "type": "bytes4"
        }
      ],
      "name": "supportsInterface",
      "outputs": [
        {
          "internalType": "bool",
          "name": "",
          "type": "bool"
        }
      ],
      "stateMutability": "view",
      "type": "function"
    },
    {
      "inputs": [],
      "name": "symbol",
      "outputs": [
        {
          "internalType": "string",
          "name": "",
          "type": "string"
        }
      ],
      "stateMutability": "view",
      "type": "function"
    },
    {
      "inputs": [],
      "name": "totalSupply",
      "outputs": [
        {
          "internalType": "uint256",
          "name": "",
          "type": "uint256"
        }
      ],
      "stateMutability": "view",
      "type": "function"
    },
    {
      "inputs": [
        {
          "internalType": "address",
          "name": "recipient",
          "type": "address"
        },
        {
          "internalType": "uint256",
          "name": "amount",
          "type": "uint256"
        }
      ],
      "name": "transfer",
      "outputs": [
        {
          "internalType": "bool",
          "name": "",
          "type": "bool"
        }
      ],
      "stateMutability": "nonpayable",
      "type": "function"
    },
    {
      "inputs": [
        {
          "internalType": "address",
          "name": "sender",
          "type": "address"
        },
        {
          "internalType": "address",
          "name": "recipient",
          "type": "address"
        },
        {
          "internalType": "uint256",
          "name": "amount",
          "type": "uint256"
        }
      ],
      "name": "transferFrom",
      "outputs": [
        {
          "internalType": "bool",
          "name": "",
          "type": "bool"
        }
      ],
      "stateMutability": "nonpayable",
      "type": "function"
    },
    {
      "inputs": [
        {
          "internalType": "address",
          "name": "account",
          "type": "address"
        }
      ],
      "name": "unreservedBalanceOf",
      "outputs": [
        {
          "internalType": "uint256",
          "name": "amount",
          "type": "uint256"
        }
      ],
      "stateMutability": "view",
      "type": "function"
    },
    {
      "inputs": [
        {
          "internalType": "contract IERC20",
          "name": "token",
          "type": "address"
        },
        {
          "internalType": "uint256",
          "name": "amount",
          "type": "uint256"
        }
      ],
      "name": "withdraw",
      "outputs": [
        {
          "internalType": "bool",
          "name": "",
          "type": "bool"
        }
      ],
      "stateMutability": "nonpayable",
      "type": "function"
    },
    {
      "inputs": [
        {
          "internalType": "string",
          "name": "name_",
          "type": "string"
        },
        {
          "internalType": "string",
          "name": "symbol_",
          "type": "string"
        }
      ],
      "name": "initialize",
      "outputs": [],
      "stateMutability": "nonpayable",
      "type": "function"
    },
    {
      "inputs": [
        {
          "internalType": "address",
          "name": "account",
          "type": "address"
        },
        {
          "internalType": "contract IERC20",
          "name": "token",
          "type": "address"
        },
        {
          "internalType": "uint256",
          "name": "amount",
          "type": "uint256"
        }
      ],
      "name": "lockFrom",
      "outputs": [
        {
          "internalType": "bool",
          "name": "",
          "type": "bool"
        }
      ],
      "stateMutability": "nonpayable",
      "type": "function"
    },
    {
      "inputs": [
        {
          "internalType": "address",
          "name": "account",
          "type": "address"
        },
        {
          "internalType": "contract IERC20",
          "name": "token",
          "type": "address"
        }
      ],
      "name": "convertAllFrom",
      "outputs": [
        {
          "internalType": "bool",
          "name": "",
          "type": "bool"
        }
      ],
      "stateMutability": "nonpayable",
      "type": "function"
    },
    {
      "inputs": [
        {
          "internalType": "address",
          "name": "account",
          "type": "address"
        },
        {
          "internalType": "contract IERC20",
          "name": "token",
          "type": "address"
        },
        {
          "internalType": "uint256",
          "name": "amount",
          "type": "uint256"
        }
      ],
      "name": "convertFrom",
      "outputs": [
        {
          "internalType": "bool",
          "name": "",
          "type": "bool"
        }
      ],
      "stateMutability": "nonpayable",
      "type": "function"
    },
    {
      "inputs": [
        {
          "internalType": "contract IERC20",
          "name": "token",
          "type": "address"
        },
        {
          "internalType": "uint256",
          "name": "amount",
          "type": "uint256"
        }
      ],
      "name": "convert",
      "outputs": [
        {
          "internalType": "bool",
          "name": "",
          "type": "bool"
        }
      ],
      "stateMutability": "nonpayable",
      "type": "function"
    }
  ],
  "bytecode": "0x608060405234801561001057600080fd5b50615e7080620000216000396000f3fe608060405234801561001057600080fd5b50600436106101ab5760003560e01c8062aa0bce146101b057806301ffc9a7146101e057806306fdde0314610210578063095ea7b31461022e57806318160ddd1461025e57806323b872dd1461027c578063248a9ca3146102ac578063282d3fdf146102dc5780632f2ff15d1461030c578063313ce5671461032857806332ff99d11461034657806336568abe1461037657806336bd063a1461039257806339509351146103c25780633b89bb86146103f25780633c8796e0146104225780634cd88b7614610452578063604abf9e1461046e57806367c6e39c1461049e578063708e91e5146104ce57806370a08231146104fe57806380c9dcf71461052e5780638bd317eb1461055e5780639010d07c1461058e57806391d14854146105be578063926d7d7f146105ee57806395d89b411461060c578063a217fddf1461062a578063a22ac5a914610648578063a457c2d71461067d578063a86e6ee4146106ad578063a9059cbb146106dd578063ca15c8731461070d578063d547741f1461073d578063dd62ed3e14610759578063f3fef3a314610789575b600080fd5b6101ca60048036038101906101c59190613eb6565b6107b9565b6040516101d79190614dd6565b60405180910390f35b6101fa60048036038101906101f591906141f9565b6107de565b60405161020791906149de565b60405180910390f35b610218610858565b6040516102259190614a59565b60405180910390f35b610248600480360381019061024391906140df565b6108ea565b60405161025591906149de565b60405180910390f35b610266610908565b6040516102739190614dd6565b60405180910390f35b61029660048036038101906102919190613ff9565b610912565b6040516102a391906149de565b60405180910390f35b6102c660048036038101906102c1919061414c565b6109d0565b6040516102d391906149f9565b60405180910390f35b6102f660048036038101906102f19190614253565b6109f0565b60405161030391906149de565b60405180910390f35b61032660048036038101906103219190614179565b610a0c565b005b610330610a40565b60405161033d9190614e52565b60405180910390f35b610360600480360381019061035b919061408c565b610a49565b60405161036d91906149de565b60405180910390f35b610390600480360381019061038b9190614179565b610a75565b005b6103ac60048036038101906103a79190613eb6565b610aa9565b6040516103b99190614dd6565b60405180910390f35b6103dc60048036038101906103d791906140df565b610abb565b6040516103e991906149de565b60405180910390f35b61040c600480360381019061040791906140df565b610b67565b60405161041991906149de565b60405180910390f35b61043c6004803603810190610437919061404c565b610f40565b60405161044991906149de565b60405180910390f35b61046c60048036038101906104679190614293565b61100a565b005b61048860048036038101906104839190614226565b611113565b6040516104959190614dbb565b60405180910390f35b6104b860048036038101906104b39190614253565b6111b9565b6040516104c591906149de565b60405180910390f35b6104e860048036038101906104e3919061408c565b6111d5565b6040516104f591906149de565b60405180910390f35b61051860048036038101906105139190613eb6565b611201565b6040516105259190614dd6565b60405180910390f35b61054860048036038101906105439190613f23565b61124a565b60405161055591906149de565b60405180910390f35b610578600480360381019061057391906140df565b6116ba565b60405161058591906149de565b60405180910390f35b6105a860048036038101906105a391906141b9565b611a79565b6040516105b59190614963565b60405180910390f35b6105d860048036038101906105d39190614179565b611aa8565b6040516105e591906149de565b60405180910390f35b6105f6611b13565b60405161060391906149f9565b60405180910390f35b610614611b37565b6040516106219190614a59565b60405180910390f35b610632611bc9565b60405161063f91906149f9565b60405180910390f35b610662600480360381019061065d91906140df565b611bd0565b60405161067496959493929190614df1565b60405180910390f35b610697600480360381019061069291906140df565b611cb0565b6040516106a491906149de565b60405180910390f35b6106c760048036038101906106c2919061404c565b611d61565b6040516106d49190614dd6565b60405180910390f35b6106f760048036038101906106f291906140df565b611de9565b60405161070491906149de565b60405180910390f35b6107276004803603810190610722919061414c565b611e07565b6040516107349190614dd6565b60405180910390f35b61075760048036038101906107529190614179565b611e2b565b005b610773600480360381019061076e9190613ee3565b611e5f565b6040516107809190614dd6565b60405180910390f35b6107a3600480360381019061079e9190614253565b611ee6565b6040516107b091906149de565b60405180910390f35b60006107c482612060565b6107cd83611201565b6107d7919061513c565b9050919050565b60007f5a05180f000000000000000000000000000000000000000000000000000000007bffffffffffffffffffffffffffffffffffffffffffffffffffffffff1916827bffffffffffffffffffffffffffffffffffffffffffffffffffffffff191614806108515750610850826120bd565b5b9050919050565b606060cd805461086790615307565b80601f016020809104026020016040519081016040528092919081815260200182805461089390615307565b80156108e05780601f106108b5576101008083540402835291602001916108e0565b820191906000526020600020905b8154815290600101906020018083116108c357829003601f168201915b5050505050905090565b60006108fe6108f7612137565b848461213f565b6001905092915050565b600060cc54905090565b600061091f8484846122d3565b600060cb60008673ffffffffffffffffffffffffffffffffffffffff1673ffffffffffffffffffffffffffffffffffffffff168152602001908152602001600020600061096a612137565b73ffffffffffffffffffffffffffffffffffffffff1673ffffffffffffffffffffffffffffffffffffffff1681526020019081526020016000205490506109c4856109b3612137565b85846109bf919061513c565b61213f565b60019150509392505050565b600060656000838152602001908152602001600020600101549050919050565b6000610a046109fd612137565b84846124e6565b905092915050565b610a1682826127cb565b610a3b81609760008581526020019081526020016000206127f490919063ffffffff16565b505050565b60006012905090565b60008060001b610a6081610a5b612137565b612824565b610a6b8585856128c1565b9150509392505050565b610a7f82826128f3565b610aa4816097600085815260200190815260200160002061297690919063ffffffff16565b505050565b6000610ab482612060565b9050919050565b6000610b5d610ac8612137565b848460cb6000610ad6612137565b73ffffffffffffffffffffffffffffffffffffffff1673ffffffffffffffffffffffffffffffffffffffff16815260200190815260200160002060008873ffffffffffffffffffffffffffffffffffffffff1673ffffffffffffffffffffffffffffffffffffffff16815260200190815260200160002054610b589190614eea565b61213f565b6001905092915050565b60008061010160008573ffffffffffffffffffffffffffffffffffffffff1673ffffffffffffffffffffffffffffffffffffffff16815260200190815260200160002060008481526020019081526020016000209050600081600401541415610c05576040517f08c379a0000000000000000000000000000000000000000000000000000000008152600401610bfc90614d1b565b60405180910390fd5b8373ffffffffffffffffffffffffffffffffffffffff16610c24612137565b73ffffffffffffffffffffffffffffffffffffffff161480610c9c57508060030160009054906101000a900473ffffffffffffffffffffffffffffffffffffffff1673ffffffffffffffffffffffffffffffffffffffff16610c84612137565b73ffffffffffffffffffffffffffffffffffffffff16145b610cdb576040517f08c379a0000000000000000000000000000000000000000000000000000000008152600401610cd290614cdb565b60405180910390fd5b43816004015411610d21576040517f08c379a0000000000000000000000000000000000000000000000000000000008152600401610d1890614b1b565b60405180910390fd5b60016003811115610d3557610d34615412565b5b8160050160009054906101000a900460ff166003811115610d5957610d58615412565b5b14610d99576040517f08c379a0000000000000000000000000000000000000000000000000000000008152600401610d9090614c7b565b60405180910390fd5b60008160030160009054906101000a900473ffffffffffffffffffffffffffffffffffffffff16905060008260020160009054906101000a900473ffffffffffffffffffffffffffffffffffffffff16905060008360010154905060008460000154905060008282610e0b9190614eea565b9050600361010160008b73ffffffffffffffffffffffffffffffffffffffff1673ffffffffffffffffffffffffffffffffffffffff16815260200190815260200160002060008a815260200190815260200160002060050160006101000a81548160ff02191690836003811115610e8557610e84615412565b5b02179055508061010260008b73ffffffffffffffffffffffffffffffffffffffff1673ffffffffffffffffffffffffffffffffffffffff16815260200190815260200160002054610ed6919061513c565b61010260008b73ffffffffffffffffffffffffffffffffffffffff1673ffffffffffffffffffffffffffffffffffffffff16815260200190815260200160002081905550610f258986856122d3565b610f308985846122d3565b6001965050505050505092915050565b60008060001b610f5781610f52612137565b612824565b600061013860008673ffffffffffffffffffffffffffffffffffffffff1673ffffffffffffffffffffffffffffffffffffffff16815260200190815260200160002060008573ffffffffffffffffffffffffffffffffffffffff1673ffffffffffffffffffffffffffffffffffffffff168152602001908152602001600020549050610fe48585836129a6565b506000610ff18583612a46565b9050610ffd8682612c21565b6001935050505092915050565b600060019054906101000a900460ff1680611030575060008054906101000a900460ff16155b61106f576040517f08c379a000000000000000000000000000000000000000000000000000000000815260040161106690614bdb565b60405180910390fd5b60008060019054906101000a900460ff1615905080156110bf576001600060016101000a81548160ff02191690831515021790555060016000806101000a81548160ff0219169083151502179055505b6110c98383612d82565b6110d96110d4610a40565b612ea0565b6110ed6000801b6110e8612137565b612f96565b801561110e5760008060016101000a81548160ff0219169083151502179055505b505050565b61111b613ca9565b61013560008373ffffffffffffffffffffffffffffffffffffffff1673ffffffffffffffffffffffffffffffffffffffff1681526020019081526020016000206040518060400160405290816000820160009054906101000a900463ffffffff1663ffffffff1663ffffffff1681526020016000820160049054906101000a900463ffffffff1663ffffffff1663ffffffff16815250509050919050565b60006111cd6111c6612137565b84846128c1565b905092915050565b60008060001b6111ec816111e7612137565b612824565b6111f78585856124e6565b9150509392505050565b600060ca60008373ffffffffffffffffffffffffffffffffffffffff1673ffffffffffffffffffffffffffffffffffffffff168152602001908152602001600020549050919050565b60008061010160008c73ffffffffffffffffffffffffffffffffffffffff1673ffffffffffffffffffffffffffffffffffffffff168152602001908152602001600020600087815260200190815260200160002060040154146112e2576040517f08c379a00000000000000000000000000000000000000000000000000000000081526004016112d990614cbb565b60405180910390fd5b438411611324576040517f08c379a000000000000000000000000000000000000000000000000000000000815260040161131b90614d9b565b60405180910390fd5b600073ffffffffffffffffffffffffffffffffffffffff168873ffffffffffffffffffffffffffffffffffffffff161415611394576040517f08c379a000000000000000000000000000000000000000000000000000000000815260040161138b90614adb565b60405180910390fd5b600086886113a29190614eea565b9050806113ae8c612060565b10156113ef576040517f08c379a00000000000000000000000000000000000000000000000000000000081526004016113e690614b7b565b60405180910390fd5b6000600446308e8e8d8d8d8d60405160200161141399989796959493929190614860565b60405160208183030381529060405280519060200120905061147a818d87878080601f016020809104026020016040519081016040528093929190818152602001838380828437600081840152601f19601f82011690508083019250505050505050612fca565b506040518060c001604052808a81526020018981526020018c73ffffffffffffffffffffffffffffffffffffffff1681526020018b73ffffffffffffffffffffffffffffffffffffffff168152602001878152602001600160038111156114e4576114e3615412565b5b81525061010160008e73ffffffffffffffffffffffffffffffffffffffff1673ffffffffffffffffffffffffffffffffffffffff1681526020019081526020016000206000898152602001908152602001600020600082015181600001556020820151816001015560408201518160020160006101000a81548173ffffffffffffffffffffffffffffffffffffffff021916908373ffffffffffffffffffffffffffffffffffffffff16021790555060608201518160030160006101000a81548173ffffffffffffffffffffffffffffffffffffffff021916908373ffffffffffffffffffffffffffffffffffffffff1602179055506080820151816004015560a08201518160050160006101000a81548160ff0219169083600381111561160f5761160e615412565b5b02179055509050508161010260008e73ffffffffffffffffffffffffffffffffffffffff1673ffffffffffffffffffffffffffffffffffffffff168152602001908152602001600020546116639190614eea565b61010260008e73ffffffffffffffffffffffffffffffffffffffff1673ffffffffffffffffffffffffffffffffffffffff168152602001908152602001600020819055506001925050509998505050505050505050565b60008061010160008573ffffffffffffffffffffffffffffffffffffffff1673ffffffffffffffffffffffffffffffffffffffff16815260200190815260200160002060008481526020019081526020016000209050600081600401541415611758576040517f08c379a000000000000000000000000000000000000000000000000000000000815260040161174f90614d1b565b60405180910390fd5b8373ffffffffffffffffffffffffffffffffffffffff16611777612137565b73ffffffffffffffffffffffffffffffffffffffff1614806117ef57508060030160009054906101000a900473ffffffffffffffffffffffffffffffffffffffff1673ffffffffffffffffffffffffffffffffffffffff166117d7612137565b73ffffffffffffffffffffffffffffffffffffffff16145b61182e576040517f08c379a000000000000000000000000000000000000000000000000000000000815260040161182590614bfb565b60405180910390fd5b43816004015411158061189757508060030160009054906101000a900473ffffffffffffffffffffffffffffffffffffffff1673ffffffffffffffffffffffffffffffffffffffff1661187f612137565b73ffffffffffffffffffffffffffffffffffffffff16145b6118d6576040517f08c379a00000000000000000000000000000000000000000000000000000000081526004016118cd90614b9b565b60405180910390fd5b600160038111156118ea576118e9615412565b5b8160050160009054906101000a900460ff16600381111561190e5761190d615412565b5b1461194e576040517f08c379a000000000000000000000000000000000000000000000000000000000815260040161194590614b3b565b60405180910390fd5b600261010160008673ffffffffffffffffffffffffffffffffffffffff1673ffffffffffffffffffffffffffffffffffffffff168152602001908152602001600020600085815260200190815260200160002060050160006101000a81548160ff021916908360038111156119c6576119c5615412565b5b02179055508060010154816000015461010260008773ffffffffffffffffffffffffffffffffffffffff1673ffffffffffffffffffffffffffffffffffffffff16815260200190815260200160002054611a20919061513c565b611a2a919061513c565b61010260008673ffffffffffffffffffffffffffffffffffffffff1673ffffffffffffffffffffffffffffffffffffffff16815260200190815260200160002081905550600191505092915050565b6000611aa0826097600086815260200190815260200160002061306a90919063ffffffff16565b905092915050565b60006065600084815260200190815260200160002060000160008373ffffffffffffffffffffffffffffffffffffffff1673ffffffffffffffffffffffffffffffffffffffff16815260200190815260200160002060009054906101000a900460ff16905092915050565b7fe2b7fb3b832174769106daebcfd6d1970523240dda11281102db9363b83b0dc481565b606060ce8054611b4690615307565b80601f0160208091040260200160405190810160405280929190818152602001828054611b7290615307565b8015611bbf5780601f10611b9457610100808354040283529160200191611bbf565b820191906000526020600020905b815481529060010190602001808311611ba257829003601f168201915b5050505050905090565b6000801b81565b600080600080600080600061010160008a73ffffffffffffffffffffffffffffffffffffffff1673ffffffffffffffffffffffffffffffffffffffff1681526020019081526020016000206000898152602001908152602001600020905080600001549650806001015495508060020160009054906101000a900473ffffffffffffffffffffffffffffffffffffffff1694508060030160009054906101000a900473ffffffffffffffffffffffffffffffffffffffff169350806004015492508060050160009054906101000a900460ff169150509295509295509295565b60008060cb6000611cbf612137565b73ffffffffffffffffffffffffffffffffffffffff1673ffffffffffffffffffffffffffffffffffffffff16815260200190815260200160002060008573ffffffffffffffffffffffffffffffffffffffff1673ffffffffffffffffffffffffffffffffffffffff168152602001908152602001600020549050611d56611d44612137565b858584611d51919061513c565b61213f565b600191505092915050565b600061013860008473ffffffffffffffffffffffffffffffffffffffff1673ffffffffffffffffffffffffffffffffffffffff16815260200190815260200160002060008373ffffffffffffffffffffffffffffffffffffffff1673ffffffffffffffffffffffffffffffffffffffff16815260200190815260200160002054905092915050565b6000611dfd611df6612137565b84846122d3565b6001905092915050565b6000611e2460976000848152602001908152602001600020613084565b9050919050565b611e358282613099565b611e5a816097600085815260200190815260200160002061297690919063ffffffff16565b505050565b600060cb60008473ffffffffffffffffffffffffffffffffffffffff1673ffffffffffffffffffffffffffffffffffffffff16815260200190815260200160002060008373ffffffffffffffffffffffffffffffffffffffff1673ffffffffffffffffffffffffffffffffffffffff16815260200190815260200160002054905092915050565b6000816101386000611ef6612137565b73ffffffffffffffffffffffffffffffffffffffff1673ffffffffffffffffffffffffffffffffffffffff16815260200190815260200160002060008573ffffffffffffffffffffffffffffffffffffffff1673ffffffffffffffffffffffffffffffffffffffff1681526020019081526020016000206000828254611f7c919061513c565b925050819055508273ffffffffffffffffffffffffffffffffffffffff1663a9059cbb611fa7612137565b846040518363ffffffff1660e01b8152600401611fc59291906149b5565b602060405180830381600087803b158015611fdf57600080fd5b505af1158015611ff3573d6000803e3d6000fd5b505050506040513d601f19601f82011682018060405250810190612017919061411f565b612056576040517f08c379a000000000000000000000000000000000000000000000000000000000815260040161204d90614c5b565b60405180910390fd5b6001905092915050565b600061010260008373ffffffffffffffffffffffffffffffffffffffff1673ffffffffffffffffffffffffffffffffffffffff168152602001908152602001600020546120ac83611201565b6120b6919061513c565b9050919050565b60007f7965db0b000000000000000000000000000000000000000000000000000000007bffffffffffffffffffffffffffffffffffffffffffffffffffffffff1916827bffffffffffffffffffffffffffffffffffffffffffffffffffffffff19161480612130575061212f826130c2565b5b9050919050565b600033905090565b600073ffffffffffffffffffffffffffffffffffffffff168373ffffffffffffffffffffffffffffffffffffffff16141580156121a95750600073ffffffffffffffffffffffffffffffffffffffff168273ffffffffffffffffffffffffffffffffffffffff1614155b6121e8576040517f08c379a00000000000000000000000000000000000000000000000000000000081526004016121df90614d3b565b60405180910390fd5b8060cb60008573ffffffffffffffffffffffffffffffffffffffff1673ffffffffffffffffffffffffffffffffffffffff16815260200190815260200160002060008473ffffffffffffffffffffffffffffffffffffffff1673ffffffffffffffffffffffffffffffffffffffff168152602001908152602001600020819055508173ffffffffffffffffffffffffffffffffffffffff168373ffffffffffffffffffffffffffffffffffffffff167f8c5be1e5ebec7d5bd14f71427d1e84f3dd0314c0f7b2291e5b200ac8c7c3b925836040516122c69190614dd6565b60405180910390a3505050565b600073ffffffffffffffffffffffffffffffffffffffff168373ffffffffffffffffffffffffffffffffffffffff161415801561233d5750600073ffffffffffffffffffffffffffffffffffffffff168273ffffffffffffffffffffffffffffffffffffffff1614155b61237c576040517f08c379a000000000000000000000000000000000000000000000000000000000815260040161237390614c3b565b60405180910390fd5b61238783838361312c565b600060ca60008573ffffffffffffffffffffffffffffffffffffffff1673ffffffffffffffffffffffffffffffffffffffff16815260200190815260200160002054905081816123d7919061513c565b60ca60008673ffffffffffffffffffffffffffffffffffffffff1673ffffffffffffffffffffffffffffffffffffffff168152602001908152602001600020819055508160ca60008573ffffffffffffffffffffffffffffffffffffffff1673ffffffffffffffffffffffffffffffffffffffff16815260200190815260200160002060008282546124699190614eea565b925050819055508273ffffffffffffffffffffffffffffffffffffffff168473ffffffffffffffffffffffffffffffffffffffff167fddf252ad1be2c89b69c2b068fc378daa952ba7f163c4a11628f55a4df523b3ef846040516124cd9190614dd6565b60405180910390a36124e0848484613147565b50505050565b60008061013560008573ffffffffffffffffffffffffffffffffffffffff1673ffffffffffffffffffffffffffffffffffffffff16815260200190815260200160002060000160009054906101000a900463ffffffff1663ffffffff1611612583576040517f08c379a000000000000000000000000000000000000000000000000000000000815260040161257a90614bbb565b60405180910390fd5b8273ffffffffffffffffffffffffffffffffffffffff166323b872dd8530856040518463ffffffff1660e01b81526004016125c09392919061497e565b602060405180830381600087803b1580156125da57600080fd5b505af11580156125ee573d6000803e3d6000fd5b505050506040513d601f19601f82011682018060405250810190612612919061411f565b612651576040517f08c379a000000000000000000000000000000000000000000000000000000000815260040161264890614cfb565b60405180910390fd5b8161013860008673ffffffffffffffffffffffffffffffffffffffff1673ffffffffffffffffffffffffffffffffffffffff16815260200190815260200160002060008573ffffffffffffffffffffffffffffffffffffffff1673ffffffffffffffffffffffffffffffffffffffff168152602001908152602001600020546126da9190614eea565b61013860008673ffffffffffffffffffffffffffffffffffffffff1673ffffffffffffffffffffffffffffffffffffffff16815260200190815260200160002060008573ffffffffffffffffffffffffffffffffffffffff1673ffffffffffffffffffffffffffffffffffffffff168152602001908152602001600020819055508273ffffffffffffffffffffffffffffffffffffffff168473ffffffffffffffffffffffffffffffffffffffff167f989eaa915cbb416ea3d6f9a63b1a3de51770c7674b11fe21ecdf76b4e1d13910846040516127b89190614dd6565b60405180910390a3600190509392505050565b6127d4826109d0565b6127e5816127e0612137565b612824565b6127ef838361314c565b505050565b600061281c836000018373ffffffffffffffffffffffffffffffffffffffff1660001b61322d565b905092915050565b61282e8282611aa8565b6128bd576128538173ffffffffffffffffffffffffffffffffffffffff16601461329d565b6128618360001c602061329d565b604051602001612872929190614929565b6040516020818303038152906040526040517f08c379a00000000000000000000000000000000000000000000000000000000081526004016128b49190614a59565b60405180910390fd5b5050565b60006128ce8484846129a6565b5060006128db8484612a46565b90506128e78582612c21565b60019150509392505050565b6128fb612137565b73ffffffffffffffffffffffffffffffffffffffff168173ffffffffffffffffffffffffffffffffffffffff1614612968576040517f08c379a000000000000000000000000000000000000000000000000000000000815260040161295f90614d5b565b60405180910390fd5b61297282826134d9565b5050565b600061299e836000018373ffffffffffffffffffffffffffffffffffffffff1660001b6135bb565b905092915050565b60008161013860008673ffffffffffffffffffffffffffffffffffffffff1673ffffffffffffffffffffffffffffffffffffffff16815260200190815260200160002060008573ffffffffffffffffffffffffffffffffffffffff1673ffffffffffffffffffffffffffffffffffffffff1681526020019081526020016000206000828254612a35919061513c565b925050819055508190509392505050565b60008061013560008573ffffffffffffffffffffffffffffffffffffffff1673ffffffffffffffffffffffffffffffffffffffff168152602001908152602001600020905060008160000160009054906101000a900463ffffffff1663ffffffff1611612ae8576040517f08c379a0000000000000000000000000000000000000000000000000000000008152600401612adf90614bbb565b60405180910390fd5b612c1861013660008673ffffffffffffffffffffffffffffffffffffffff1673ffffffffffffffffffffffffffffffffffffffff16815260200190815260200160002060009054906101000a900460ff1661013760009054906101000a900460ff1661013560008873ffffffffffffffffffffffffffffffffffffffff1673ffffffffffffffffffffffffffffffffffffffff16815260200190815260200160002060000160049054906101000a900463ffffffff1663ffffffff1661013560008973ffffffffffffffffffffffffffffffffffffffff1673ffffffffffffffffffffffffffffffffffffffff16815260200190815260200160002060000160009054906101000a900463ffffffff1663ffffffff1687612c0991906150e2565b612c139190614f40565b6136cf565b91505092915050565b600073ffffffffffffffffffffffffffffffffffffffff168273ffffffffffffffffffffffffffffffffffffffff161415612c91576040517f08c379a0000000000000000000000000000000000000000000000000000000008152600401612c8890614d7b565b60405180910390fd5b612c9d6000838361312c565b8060cc6000828254612caf9190614eea565b925050819055508060ca60008473ffffffffffffffffffffffffffffffffffffffff1673ffffffffffffffffffffffffffffffffffffffff1681526020019081526020016000206000828254612d059190614eea565b925050819055508173ffffffffffffffffffffffffffffffffffffffff16600073ffffffffffffffffffffffffffffffffffffffff167fddf252ad1be2c89b69c2b068fc378daa952ba7f163c4a11628f55a4df523b3ef83604051612d6a9190614dd6565b60405180910390a3612d7e60008383613147565b5050565b600060019054906101000a900460ff1680612da8575060008054906101000a900460ff16155b612de7576040517f08c379a0000000000000000000000000000000000000000000000000000000008152600401612dde90614bdb565b60405180910390fd5b60008060019054906101000a900460ff161590508015612e37576001600060016101000a81548160ff02191690831515021790555060016000806101000a81548160ff0219169083151502179055505b612e418383613736565b612e4961383f565b612e7a7fe2b7fb3b832174769106daebcfd6d1970523240dda11281102db9363b83b0dc4612e75612137565b612f96565b8015612e9b5760008060016101000a81548160ff0219169083151502179055505b505050565b600060019054906101000a900460ff1680612ec6575060008054906101000a900460ff16155b612f05576040517f08c379a0000000000000000000000000000000000000000000000000000000008152600401612efc90614bdb565b60405180910390fd5b60008060019054906101000a900460ff161590508015612f55576001600060016101000a81548160ff02191690831515021790555060016000806101000a81548160ff0219169083151502179055505b8161013760006101000a81548160ff021916908360ff1602179055508015612f925760008060016101000a81548160ff0219169083151502179055505b5050565b612fa08282613918565b612fc581609760008581526020019081526020016000206127f490919063ffffffff16565b505050565b600080612fd685613926565b90506000612fed848361395690919063ffffffff16565b90508473ffffffffffffffffffffffffffffffffffffffff168173ffffffffffffffffffffffffffffffffffffffff161461305d576040517f08c379a000000000000000000000000000000000000000000000000000000000815260040161305490614abb565b60405180910390fd5b6001925050509392505050565b60006130798360000183613a05565b60001c905092915050565b600061309282600001613a30565b9050919050565b6130a2826109d0565b6130b3816130ae612137565b612824565b6130bd83836134d9565b505050565b60007f01ffc9a7000000000000000000000000000000000000000000000000000000007bffffffffffffffffffffffffffffffffffffffffffffffffffffffff1916827bffffffffffffffffffffffffffffffffffffffffffffffffffffffff1916149050919050565b613137838383613a41565b613142838383613a51565b505050565b505050565b6131568282611aa8565b6132295760016065600084815260200190815260200160002060000160008373ffffffffffffffffffffffffffffffffffffffff1673ffffffffffffffffffffffffffffffffffffffff16815260200190815260200160002060006101000a81548160ff0219169083151502179055506131ce612137565b73ffffffffffffffffffffffffffffffffffffffff168173ffffffffffffffffffffffffffffffffffffffff16837f2f8788117e7eff1d82e926ec794901d17c78024a50270940304540a733656f0d60405160405180910390a45b5050565b60006132398383613aac565b613292578260000182908060018154018082558091505060019003906000526020600020016000909190919091505582600001805490508360010160008481526020019081526020016000208190555060019050613297565b600090505b92915050565b6060600060028360026132b091906150e2565b6132ba9190614eea565b67ffffffffffffffff8111156132d3576132d26154ce565b5b6040519080825280601f01601f1916602001820160405280156133055781602001600182028036833780820191505090505b5090507f30000000000000000000000000000000000000000000000000000000000000008160008151811061333d5761333c61549f565b5b60200101907effffffffffffffffffffffffffffffffffffffffffffffffffffffffffffff1916908160001a9053507f7800000000000000000000000000000000000000000000000000000000000000816001815181106133a1576133a061549f565b5b60200101907effffffffffffffffffffffffffffffffffffffffffffffffffffffffffffff1916908160001a905350600060018460026133e191906150e2565b6133eb9190614eea565b90505b600181111561348b577f3031323334353637383961626364656600000000000000000000000000000000600f86166010811061342d5761342c61549f565b5b1a60f81b8282815181106134445761344361549f565b5b60200101907effffffffffffffffffffffffffffffffffffffffffffffffffffffffffffff1916908160001a905350600485901c945080613484906152dd565b90506133ee565b50600084146134cf576040517f08c379a00000000000000000000000000000000000000000000000000000000081526004016134c690614a9b565b60405180910390fd5b8091505092915050565b6134e38282611aa8565b156135b75760006065600084815260200190815260200160002060000160008373ffffffffffffffffffffffffffffffffffffffff1673ffffffffffffffffffffffffffffffffffffffff16815260200190815260200160002060006101000a81548160ff02191690831515021790555061355c612137565b73ffffffffffffffffffffffffffffffffffffffff168173ffffffffffffffffffffffffffffffffffffffff16837ff6391f5c32d9c69d2a47ea670b442974b53935d1edc7fd64eb21e047a839171b60405160405180910390a45b5050565b600080836001016000848152602001908152602001600020549050600081146136c35760006001826135ed919061513c565b9050600060018660000180549050613605919061513c565b90508181146136745760008660000182815481106136265761362561549f565b5b906000526020600020015490508087600001848154811061364a5761364961549f565b5b90600052602060002001819055508387600101600083815260200190815260200160002081905550505b8560000180548061368857613687615470565b5b6001900381819060005260206000200160009055905585600101600086815260200190815260200160002060009055600193505050506136c9565b60009150505b92915050565b60008260ff168460ff1610156137095783836136eb9190615170565b600a6136f79190614fc4565b8261370291906150e2565b905061372f565b82846137159190615170565b600a6137219190614fc4565b8261372c9190614f40565b90505b9392505050565b600060019054906101000a900460ff168061375c575060008054906101000a900460ff16155b61379b576040517f08c379a000000000000000000000000000000000000000000000000000000000815260040161379290614bdb565b60405180910390fd5b60008060019054906101000a900460ff1615905080156137eb576001600060016101000a81548160ff02191690831515021790555060016000806101000a81548160ff0219169083151502179055505b8260cd9080519060200190613801929190613ccf565b508160ce9080519060200190613818929190613ccf565b50801561383a5760008060016101000a81548160ff0219169083151502179055505b505050565b600060019054906101000a900460ff1680613865575060008054906101000a900460ff16155b6138a4576040517f08c379a000000000000000000000000000000000000000000000000000000000815260040161389b90614bdb565b60405180910390fd5b60008060019054906101000a900460ff1615905080156138f4576001600060016101000a81548160ff02191690831515021790555060016000806101000a81548160ff0219169083151502179055505b80156139155760008060016101000a81548160ff0219169083151502179055505b50565b613922828261314c565b5050565b6000816040516020016139399190614903565b604051602081830303815290604052805190602001209050919050565b60006041825114156139955760008060006020850151925060408501519150606085015160001a905061398b86828585613acf565b93505050506139ff565b6040825114156139c45760008060208401519150604084015190506139bb858383613c5a565b925050506139ff565b6040517f08c379a00000000000000000000000000000000000000000000000000000000081526004016139f690614afb565b60405180910390fd5b92915050565b6000826000018281548110613a1d57613a1c61549f565b5b9060005260206000200154905092915050565b600081600001805490509050919050565b613a4c838383613ca4565b505050565b80613a5b84612060565b1015613a9c576040517f08c379a0000000000000000000000000000000000000000000000000000000008152600401613a9390614c9b565b60405180910390fd5b613aa7838383613ca4565b505050565b600080836001016000848152602001908152602001600020541415905092915050565b60007f7fffffffffffffffffffffffffffffff5d576e7357a4501ddfe92f46681b20a08260001c1115613b37576040517f08c379a0000000000000000000000000000000000000000000000000000000008152600401613b2e90614b5b565b60405180910390fd5b601b8460ff161480613b4c5750601c8460ff16145b613b8b576040517f08c379a0000000000000000000000000000000000000000000000000000000008152600401613b8290614c1b565b60405180910390fd5b600060018686868660405160008152602001604052604051613bb09493929190614a14565b6020604051602081039080840390855afa158015613bd2573d6000803e3d6000fd5b505050602060405103519050600073ffffffffffffffffffffffffffffffffffffffff168173ffffffffffffffffffffffffffffffffffffffff161415613c4e576040517f08c379a0000000000000000000000000000000000000000000000000000000008152600401613c4590614a7b565b60405180910390fd5b80915050949350505050565b60008060007f7fffffffffffffffffffffffffffffffffffffffffffffffffffffffffffffff84169150601b8460ff1c019050613c9986828785613acf565b925050509392505050565b505050565b6040518060400160405280600063ffffffff168152602001600063ffffffff1681525090565b828054613cdb90615307565b90600052602060002090601f016020900481019282613cfd5760008555613d44565b82601f10613d1657805160ff1916838001178555613d44565b82800160010185558215613d44579182015b82811115613d43578251825591602001919060010190613d28565b5b509050613d519190613d55565b5090565b5b80821115613d6e576000816000905550600101613d56565b5090565b6000613d85613d8084614e92565b614e6d565b905082815260208101848484011115613da157613da061550c565b5b613dac84828561529b565b509392505050565b600081359050613dc381615db0565b92915050565b600081519050613dd881615dc7565b92915050565b600081359050613ded81615dde565b92915050565b600081359050613e0281615df5565b92915050565b60008083601f840112613e1e57613e1d615502565b5b8235905067ffffffffffffffff811115613e3b57613e3a6154fd565b5b602083019150836001820283011115613e5757613e56615507565b5b9250929050565b600081359050613e6d81615e0c565b92915050565b600082601f830112613e8857613e87615502565b5b8135613e98848260208601613d72565b91505092915050565b600081359050613eb081615e23565b92915050565b600060208284031215613ecc57613ecb615516565b5b6000613eda84828501613db4565b91505092915050565b60008060408385031215613efa57613ef9615516565b5b6000613f0885828601613db4565b9250506020613f1985828601613db4565b9150509250929050565b60008060008060008060008060006101008a8c031215613f4657613f45615516565b5b6000613f548c828d01613db4565b9950506020613f658c828d01613db4565b9850506040613f768c828d01613db4565b9750506060613f878c828d01613ea1565b9650506080613f988c828d01613ea1565b95505060a0613fa98c828d01613ea1565b94505060c0613fba8c828d01613ea1565b93505060e08a013567ffffffffffffffff811115613fdb57613fda615511565b5b613fe78c828d01613e08565b92509250509295985092959850929598565b60008060006060848603121561401257614011615516565b5b600061402086828701613db4565b935050602061403186828701613db4565b925050604061404286828701613ea1565b9150509250925092565b6000806040838503121561406357614062615516565b5b600061407185828601613db4565b925050602061408285828601613e5e565b9150509250929050565b6000806000606084860312156140a5576140a4615516565b5b60006140b386828701613db4565b93505060206140c486828701613e5e565b92505060406140d586828701613ea1565b9150509250925092565b600080604083850312156140f6576140f5615516565b5b600061410485828601613db4565b925050602061411585828601613ea1565b9150509250929050565b60006020828403121561413557614134615516565b5b600061414384828501613dc9565b91505092915050565b60006020828403121561416257614161615516565b5b600061417084828501613dde565b91505092915050565b600080604083850312156141905761418f615516565b5b600061419e85828601613dde565b92505060206141af85828601613db4565b9150509250929050565b600080604083850312156141d0576141cf615516565b5b60006141de85828601613dde565b92505060206141ef85828601613ea1565b9150509250929050565b60006020828403121561420f5761420e615516565b5b600061421d84828501613df3565b91505092915050565b60006020828403121561423c5761423b615516565b5b600061424a84828501613e5e565b91505092915050565b6000806040838503121561426a57614269615516565b5b600061427885828601613e5e565b925050602061428985828601613ea1565b9150509250929050565b600080604083850312156142aa576142a9615516565b5b600083013567ffffffffffffffff8111156142c8576142c7615511565b5b6142d485828601613e73565b925050602083013567ffffffffffffffff8111156142f5576142f4615511565b5b61430185828601613e73565b9150509250929050565b614314816151a4565b82525050565b61432b614326826151a4565b61536a565b82525050565b61433a816151b6565b82525050565b614349816151c2565b82525050565b61436061435b826151c2565b61537c565b82525050565b61436f81615277565b82525050565b61438661438182615289565b6153a2565b82525050565b600061439782614ec3565b6143a18185614ece565b93506143b18185602086016152aa565b6143ba8161551b565b840191505092915050565b60006143d082614ec3565b6143da8185614edf565b93506143ea8185602086016152aa565b80840191505092915050565b6000614403601883614ece565b915061440e82615553565b602082019050919050565b6000614426602083614ece565b91506144318261557c565b602082019050919050565b6000614449601b83614ece565b9150614454826155a5565b602082019050919050565b600061446c603183614ece565b9150614477826155ce565b604082019050919050565b600061448f601f83614ece565b915061449a8261561d565b602082019050919050565b60006144b2601c83614edf565b91506144bd82615646565b601c82019050919050565b60006144d5603f83614ece565b91506144e08261566f565b604082019050919050565b60006144f8603683614ece565b9150614503826156be565b604082019050919050565b600061451b602283614ece565b91506145268261570d565b604082019050919050565b600061453e603083614ece565b91506145498261575c565b604082019050919050565b6000614561606083614ece565b915061456c826157ab565b606082019050919050565b6000614584602d83614ece565b915061458f82615820565b604082019050919050565b60006145a7602e83614ece565b91506145b28261586f565b604082019050919050565b60006145ca605f83614ece565b91506145d5826158be565b606082019050919050565b60006145ed602283614ece565b91506145f882615933565b604082019050919050565b6000614610602b83614ece565b915061461b82615982565b604082019050919050565b6000614633602c83614ece565b915061463e826159d1565b604082019050919050565b6000614656603683614ece565b915061466182615a20565b604082019050919050565b6000614679603b83614ece565b915061468482615a6f565b604082019050919050565b600061469c603283614ece565b91506146a782615abe565b604082019050919050565b60006146bf601783614edf565b91506146ca82615b0d565b601782019050919050565b60006146e2604b83614ece565b91506146ed82615b36565b606082019050919050565b6000614705602883614ece565b915061471082615bab565b604082019050919050565b6000614728602b83614ece565b915061473382615bfa565b604082019050919050565b600061474b601183614edf565b915061475682615c49565b601182019050919050565b600061476e602a83614ece565b915061477982615c72565b604082019050919050565b6000614791602f83614ece565b915061479c82615cc1565b604082019050919050565b60006147b4601f83614ece565b91506147bf82615d10565b602082019050919050565b60006147d7602c83614ece565b91506147e282615d39565b604082019050919050565b6040820160008201516148036000850182614842565b5060208201516148166020850182614842565b50505050565b61482581615250565b82525050565b61483c61483782615250565b615398565b82525050565b61484b8161525a565b82525050565b61485a8161526a565b82525050565b600061486c828c614375565b60018201915061487c828b61482b565b60208201915061488c828a61431a565b60148201915061489c828961431a565b6014820191506148ac828861431a565b6014820191506148bc828761482b565b6020820191506148cc828661482b565b6020820191506148dc828561482b565b6020820191506148ec828461482b565b6020820191508190509a9950505050505050505050565b600061490e826144a5565b915061491a828461434f565b60208201915081905092915050565b6000614934826146b2565b915061494082856143c5565b915061494b8261473e565b915061495782846143c5565b91508190509392505050565b6000602082019050614978600083018461430b565b92915050565b6000606082019050614993600083018661430b565b6149a0602083018561430b565b6149ad604083018461481c565b949350505050565b60006040820190506149ca600083018561430b565b6149d7602083018461481c565b9392505050565b60006020820190506149f36000830184614331565b92915050565b6000602082019050614a0e6000830184614340565b92915050565b6000608082019050614a296000830187614340565b614a366020830186614851565b614a436040830185614340565b614a506060830184614340565b95945050505050565b60006020820190508181036000830152614a73818461438c565b905092915050565b60006020820190508181036000830152614a94816143f6565b9050919050565b60006020820190508181036000830152614ab481614419565b9050919050565b60006020820190508181036000830152614ad48161443c565b9050919050565b60006020820190508181036000830152614af48161445f565b9050919050565b60006020820190508181036000830152614b1481614482565b9050919050565b60006020820190508181036000830152614b34816144c8565b9050919050565b60006020820190508181036000830152614b54816144eb565b9050919050565b60006020820190508181036000830152614b748161450e565b9050919050565b60006020820190508181036000830152614b9481614531565b9050919050565b60006020820190508181036000830152614bb481614554565b9050919050565b60006020820190508181036000830152614bd481614577565b9050919050565b60006020820190508181036000830152614bf48161459a565b9050919050565b60006020820190508181036000830152614c14816145bd565b9050919050565b60006020820190508181036000830152614c34816145e0565b9050919050565b60006020820190508181036000830152614c5481614603565b9050919050565b60006020820190508181036000830152614c7481614626565b9050919050565b60006020820190508181036000830152614c9481614649565b9050919050565b60006020820190508181036000830152614cb48161466c565b9050919050565b60006020820190508181036000830152614cd48161468f565b9050919050565b60006020820190508181036000830152614cf4816146d5565b9050919050565b60006020820190508181036000830152614d14816146f8565b9050919050565b60006020820190508181036000830152614d348161471b565b9050919050565b60006020820190508181036000830152614d5481614761565b9050919050565b60006020820190508181036000830152614d7481614784565b9050919050565b60006020820190508181036000830152614d94816147a7565b9050919050565b60006020820190508181036000830152614db4816147ca565b9050919050565b6000604082019050614dd060008301846147ed565b92915050565b6000602082019050614deb600083018461481c565b92915050565b600060c082019050614e06600083018961481c565b614e13602083018861481c565b614e20604083018761430b565b614e2d606083018661430b565b614e3a608083018561481c565b614e4760a0830184614366565b979650505050505050565b6000602082019050614e676000830184614851565b92915050565b6000614e77614e88565b9050614e838282615339565b919050565b6000604051905090565b600067ffffffffffffffff821115614ead57614eac6154ce565b5b614eb68261551b565b9050602081019050919050565b600081519050919050565b600082825260208201905092915050565b600081905092915050565b6000614ef582615250565b9150614f0083615250565b9250827fffffffffffffffffffffffffffffffffffffffffffffffffffffffffffffffff03821115614f3557614f346153b4565b5b828201905092915050565b6000614f4b82615250565b9150614f5683615250565b925082614f6657614f656153e3565b5b828204905092915050565b6000808291508390505b6001851115614fbb57808604811115614f9757614f966153b4565b5b6001851615614fa65780820291505b8081029050614fb485615546565b9450614f7b565b94509492505050565b6000614fcf82615250565b9150614fda8361526a565b92506150077fffffffffffffffffffffffffffffffffffffffffffffffffffffffffffffffff848461500f565b905092915050565b60008261501f57600190506150db565b8161502d57600090506150db565b8160018114615043576002811461504d5761507c565b60019150506150db565b60ff84111561505f5761505e6153b4565b5b8360020a915084821115615076576150756153b4565b5b506150db565b5060208310610133831016604e8410600b84101617156150b15782820a9050838111156150ac576150ab6153b4565b5b6150db565b6150be8484846001614f71565b925090508184048111156150d5576150d46153b4565b5b81810290505b9392505050565b60006150ed82615250565b91506150f883615250565b9250817fffffffffffffffffffffffffffffffffffffffffffffffffffffffffffffffff0483118215151615615131576151306153b4565b5b828202905092915050565b600061514782615250565b915061515283615250565b925082821015615165576151646153b4565b5b828203905092915050565b600061517b8261526a565b91506151868361526a565b925082821015615199576151986153b4565b5b828203905092915050565b60006151af82615230565b9050919050565b60008115159050919050565b6000819050919050565b60007fffffffff0000000000000000000000000000000000000000000000000000000082169050919050565b6000615203826151a4565b9050919050565b600081905061521882615d88565b919050565b600081905061522b82615d9c565b919050565b600073ffffffffffffffffffffffffffffffffffffffff82169050919050565b6000819050919050565b600063ffffffff82169050919050565b600060ff82169050919050565b60006152828261520a565b9050919050565b60006152948261521d565b9050919050565b82818337600083830152505050565b60005b838110156152c85780820151818401526020810190506152ad565b838111156152d7576000848401525b50505050565b60006152e882615250565b915060008214156152fc576152fb6153b4565b5b600182039050919050565b6000600282049050600182168061531f57607f821691505b6020821081141561533357615332615441565b5b50919050565b6153428261551b565b810181811067ffffffffffffffff82111715615361576153606154ce565b5b80604052505050565b600061537582615386565b9050919050565b6000819050919050565b600061539182615539565b9050919050565b6000819050919050565b60006153ad8261552c565b9050919050565b7f4e487b7100000000000000000000000000000000000000000000000000000000600052601160045260246000fd5b7f4e487b7100000000000000000000000000000000000000000000000000000000600052601260045260246000fd5b7f4e487b7100000000000000000000000000000000000000000000000000000000600052602160045260246000fd5b7f4e487b7100000000000000000000000000000000000000000000000000000000600052602260045260246000fd5b7f4e487b7100000000000000000000000000000000000000000000000000000000600052603160045260246000fd5b7f4e487b7100000000000000000000000000000000000000000000000000000000600052603260045260246000fd5b7f4e487b7100000000000000000000000000000000000000000000000000000000600052604160045260246000fd5b600080fd5b600080fd5b600080fd5b600080fd5b600080fd5b600080fd5b6000601f19601f8301169050919050565b60008160f81b9050919050565b60008160601b9050919050565b60008160011c9050919050565b7f45434453413a20696e76616c6964207369676e61747572650000000000000000600082015250565b7f537472696e67733a20686578206c656e67746820696e73756666696369656e74600082015250565b7f56616c69646174653a20696e76616c6964207369676e61747572650000000000600082015250565b7f455243323052657365727661626c653a2063616e6e6f7420657865637574652060008201527f66726f6d207a65726f2061646472657373000000000000000000000000000000602082015250565b7f45434453413a20696e76616c6964207369676e6174757265206c656e67746800600082015250565b7f19457468657265756d205369676e6564204d6573736167653a0a333200000000600082015250565b7f455243323052657365727661626c653a207265736572766174696f6e2068617360008201527f206578706972656420616e642063616e6e6f7420626520657865637574656400602082015250565b7f455243323052657365727661626c653a20696e76616c6964207265736572766160008201527f74696f6e2073746174757320746f207265636c61696d00000000000000000000602082015250565b7f45434453413a20696e76616c6964207369676e6174757265202773272076616c60008201527f7565000000000000000000000000000000000000000000000000000000000000602082015250565b7f455243323052657365727661626c653a20696e73756666696369656e7420756e60008201527f72657365727665642062616c616e636500000000000000000000000000000000602082015250565b7f455243323052657365727661626c653a207265736572766174696f6e2068617360008201527f206e6f742065787069726564206f7220796f7520617265206e6f74207468652060208201527f6578656375746f7220616e642063616e6e6f74206265207265636c61696d6564604082015250565b7f436f6e7665727469626c653a20546865206261736520746f6b656e206973206e60008201527f6f7420737570706f727465642e00000000000000000000000000000000000000602082015250565b7f496e697469616c697a61626c653a20636f6e747261637420697320616c72656160008201527f647920696e697469616c697a6564000000000000000000000000000000000000602082015250565b7f455243323052657365727661626c653a206f6e6c79207468652073656e64657260008201527f206f7220746865206578656375746f722063616e207265636c61696d2074686560208201527f207265736572766174696f6e206261636b20746f207468652073656e64657200604082015250565b7f45434453413a20696e76616c6964207369676e6174757265202776272076616c60008201527f7565000000000000000000000000000000000000000000000000000000000000602082015250565b7f45524332303a207472616e736665722066726f6d206f7220746f20746865207a60008201527f65726f2061646472657373000000000000000000000000000000000000000000602082015250565b7f436f6e7665727469626c653a2043616e2774207769746864726177207468652060008201527f746f6b656e20616d6f756e740000000000000000000000000000000000000000602082015250565b7f455243323052657365727661626c653a20696e76616c6964207265736572766160008201527f74696f6e2073746174757320746f206578656375746500000000000000000000602082015250565b7f455243323052657365727661626c653a207472616e7366657220616d6f756e7460008201527f206578636565647320756e72657365727665642062616c616e63650000000000602082015250565b7f455243323052657365727661626c653a207468652073656e646572207573656460008201527f20746865206e6f6e636520616c72656164790000000000000000000000000000602082015250565b7f416363657373436f6e74726f6c3a206163636f756e7420000000000000000000600082015250565b7f455243323052657365727661626c653a2074686973206164647265737320697360008201527f206e6f7420617574686f72697a656420746f206578656375746520746869732060208201527f7265736572766174696f6e000000000000000000000000000000000000000000604082015250565b7f436f6e7665727469626c653a2043616e2774206c6f636b2074686520746f6b6560008201527f6e20616d6f756e74000000000000000000000000000000000000000000000000602082015250565b7f455243323052657365727661626c653a207265736572766174696f6e20646f6560008201527f73206e6f74206578697374000000000000000000000000000000000000000000602082015250565b7f206973206d697373696e6720726f6c6520000000000000000000000000000000600082015250565b7f45524332303a20617070726f76652066726f6d206f7220746f20746865207a6560008201527f726f206164647265737300000000000000000000000000000000000000000000602082015250565b7f416363657373436f6e74726f6c3a2063616e206f6e6c792072656e6f756e636560008201527f20726f6c657320666f722073656c660000000000000000000000000000000000602082015250565b7f45524332303a206d696e7420746f20746865207a65726f206164647265737300600082015250565b7f455243323052657365727661626c653a20696e76616c696420626c6f636b206560008201527f7870697279206e756d6265720000000000000000000000000000000000000000602082015250565b60048110615d9957615d98615412565b5b50565b60058110615dad57615dac615412565b5b50565b615db9816151a4565b8114615dc457600080fd5b50565b615dd0816151b6565b8114615ddb57600080fd5b50565b615de7816151c2565b8114615df257600080fd5b50565b615dfe816151cc565b8114615e0957600080fd5b50565b615e15816151f8565b8114615e2057600080fd5b50565b615e2c81615250565b8114615e3757600080fd5b5056fea2646970667358221220cb72b9b4f6305c22b748b16e9a9b74ded859dbf8c09436a75264f75e75126e9364736f6c63430008060033",
  "immutableReferences": {},
  "source": "// SPDX-License-Identifier: MIT\npragma solidity >=0.8.6;\n\nimport \"./abstracts/ContextUpgradeable.sol\";\nimport \"./abstracts/ERC20Reservable.sol\";\nimport \"./abstracts/Convertible.sol\";\nimport \"./abstracts/ETHlessTransfer.sol\";\n\n/**\n * @dev Extension of {ERC20} that adds a set of accounts with the {MinterRole},\n * which have permission to mint (create) new tokens as they see fit.\n *\n * At construction, the deployer of the contract is the only minter.\n */\ncontract Gluwacoin is\n    ContextUpgradeable,\n    ERC20Reservable,\n    Convertible,\n    ETHlessTransfer\n{\n    function initialize(string memory name_, string memory symbol_)\n        external\n        initializer\n    {\n        __ERC20ETHless_init_unchained(name_, symbol_);\n        __Convertible_init_unchained(decimals());\n        _setupRole(DEFAULT_ADMIN_ROLE, _msgSender());\n    }\n\n    \n\n    function lockFrom(\n        address account,\n        IERC20 token,\n        uint256 amount\n    ) external onlyRole(DEFAULT_ADMIN_ROLE) returns (bool) {\n        return _lockFrom(account, token, amount);\n    }\n\n    function convertAllFrom(address account, IERC20 token)\n        external\n        onlyRole(DEFAULT_ADMIN_ROLE)\n        returns (bool)\n    {\n        uint256 lockedAmount = _locks[account][token];\n        _release(account, token, lockedAmount);\n\n        uint256 convertedAmount = _calculateConversion(token, lockedAmount);\n        _mint(account, convertedAmount);\n\n        return true;\n    }\n\n    function convertFrom(\n        address account,\n        IERC20 token,\n        uint256 amount\n    ) external onlyRole(DEFAULT_ADMIN_ROLE) returns (bool) {\n        return _convert(account, token, amount);\n    }\n\n    function convert(IERC20 token, uint256 amount) external returns (bool) {\n        return _convert(_msgSender(), token, amount);\n    }\n\n    function _convert(\n        address account,\n        IERC20 token,\n        uint256 amount\n    ) private returns (bool) {\n        _release(account, token, amount);\n\n        uint256 convertedAmount = _calculateConversion(token, amount);\n        _mint(account, convertedAmount);\n\n        return true;\n    }\n\n    /** @dev check the amount of available tokens of sender to transfer.\n     * Must override all the parent's functions\n     * Do 2 checks:\n     * - Total balance must be equal or higher than the transferring amount.\n     * - Unreserving (the amount of tokens are not put as a reserve) must be equal or higher than the transferring amount.\n     */\n\n    function _beforeTokenTransfer(\n        address from,\n        address to,\n        uint256 amount\n    ) internal override(ETHlessTransfer, ERC20Reservable) {\n        ETHlessTransfer._beforeTokenTransfer(from, to, amount);\n        ERC20Reservable._beforeTokenTransfer(from, to, amount);\n    }\n\n    uint256[50] private __gap;\n}\n",
  "sourcePath": "/home/osboxes/KRWC-G-1/contracts/Gluwacoin.sol",
  "compiler": {
    "name": "solc",
    "version": "0.8.6+commit.11564f7e.Emscripten.clang"
  },
  "schemaVersion": "3.3.4",
  "updatedAt": "2021-08-11T01:21:12.330Z",
  "devdoc": {
    "details": "Extension of {ERC20} that adds a set of accounts with the {MinterRole}, which have permission to mint (create) new tokens as they see fit. At construction, the deployer of the contract is the only minter.",
    "kind": "dev",
    "methods": {
      "allowance(address,address)": {
        "details": "See {IERC20-allowance}."
      },
      "approve(address,uint256)": {
        "details": "See {IERC20-approve}. Requirements: - `spender` cannot be the zero address."
      },
      "balanceOf(address)": {
        "details": "See {IERC20-balanceOf}."
      },
      "decimals()": {
        "details": "Returns the number of decimals used to get its user representation. For example, if `decimals` equals `2`, a balance of `505` tokens should be displayed to a user as `5,05` (`505 / 10 ** 2`). Tokens usually opt for a value of 18, imitating the relationship between Ether and Wei. This is the value {ERC20} uses, unless this function is overridden; NOTE: This information is only used for _display_ purposes: it in no way affects any of the arithmetic of the contract, including {IERC20-balanceOf} and {IERC20-transfer}."
      },
      "decreaseAllowance(address,uint256)": {
        "details": "Atomically decreases the allowance granted to `spender` by the caller. This is an alternative to {approve} that can be used as a mitigation for problems described in {IERC20-approve}. Emits an {Approval} event indicating the updated allowance. Requirements: - `spender` cannot be the zero address. - `spender` must have allowance for the caller of at least `subtractedValue`."
      },
      "getRoleAdmin(bytes32)": {
        "details": "Returns the admin role that controls `role`. See {grantRole} and {revokeRole}. To change a role's admin, use {_setRoleAdmin}."
      },
      "getRoleMember(bytes32,uint256)": {
        "details": "Returns one of the accounts that have `role`. `index` must be a value between 0 and {getRoleMemberCount}, non-inclusive. Role bearers are not sorted in any particular way, and their ordering may change at any point. WARNING: When using {getRoleMember} and {getRoleMemberCount}, make sure you perform all queries on the same block. See the following https://forum.openzeppelin.com/t/iterating-over-elements-on-enumerableset-in-openzeppelin-contracts/2296[forum post] for more information."
      },
      "getRoleMemberCount(bytes32)": {
        "details": "Returns the number of accounts that have `role`. Can be used together with {getRoleMember} to enumerate all bearers of a role."
      },
      "grantRole(bytes32,address)": {
        "details": "Overload {grantRole} to track enumerable memberships"
      },
      "hasRole(bytes32,address)": {
        "details": "Returns `true` if `account` has been granted `role`."
      },
      "increaseAllowance(address,uint256)": {
        "details": "Atomically increases the allowance granted to `spender` by the caller. This is an alternative to {approve} that can be used as a mitigation for problems described in {IERC20-approve}. Emits an {Approval} event indicating the updated allowance. Requirements: - `spender` cannot be the zero address."
      },
      "name()": {
        "details": "Returns the name of the token."
      },
      "renounceRole(bytes32,address)": {
        "details": "Overload {renounceRole} to track enumerable memberships"
      },
      "revokeRole(bytes32,address)": {
        "details": "Overload {revokeRole} to track enumerable memberships"
      },
      "supportsInterface(bytes4)": {
        "details": "See {IERC165-supportsInterface}."
      },
      "symbol()": {
        "details": "Returns the symbol of the token, usually a shorter version of the name."
      },
      "totalSupply()": {
        "details": "See {IERC20-totalSupply}."
      },
      "transfer(address,uint256)": {
        "details": "See {IERC20-transfer}. Requirements: - `recipient` cannot be the zero address. - the caller must have a balance of at least `amount`."
      },
      "transferFrom(address,address,uint256)": {
        "details": "See {IERC20-transferFrom}. Emits an {Approval} event indicating the updated allowance. This is not required by the EIP. See the note at the beginning of {ERC20}. Requirements: - `sender` and `recipient` cannot be the zero address. - `sender` must have a balance of at least `amount`. - the caller must have allowance for ``sender``'s tokens of at least `amount`."
      }
    },
    "version": 1
  },
  "userdoc": {
    "kind": "user",
    "methods": {},
    "version": 1
  }
}