{
  "contractName": "Gluwacoin",
  "abi": [
    {
      "anonymous": false,
      "inputs": [
        {
          "indexed": true,
          "internalType": "address",
          "name": "owner",
          "type": "address"
        },
        {
          "indexed": true,
          "internalType": "address",
          "name": "spender",
          "type": "address"
        },
        {
          "indexed": false,
          "internalType": "uint256",
          "name": "value",
          "type": "uint256"
        }
      ],
      "name": "Approval",
      "type": "event"
    },
    {
      "anonymous": false,
      "inputs": [
        {
          "indexed": true,
          "internalType": "address",
          "name": "_burnFrom",
          "type": "address"
        },
        {
          "indexed": false,
          "internalType": "uint256",
          "name": "_value",
          "type": "uint256"
        }
      ],
      "name": "Burnt",
      "type": "event"
    },
    {
      "anonymous": false,
      "inputs": [
        {
          "indexed": true,
          "internalType": "bytes32",
          "name": "lockerHash",
          "type": "bytes32"
        },
        {
          "indexed": true,
          "internalType": "address",
          "name": "sender",
          "type": "address"
        },
        {
          "indexed": false,
          "internalType": "uint256",
          "name": "_value",
          "type": "uint256"
        }
      ],
      "name": "Locked",
      "type": "event"
    },
    {
      "anonymous": false,
      "inputs": [
        {
          "indexed": true,
          "internalType": "address",
          "name": "_mintTo",
          "type": "address"
        },
        {
          "indexed": false,
          "internalType": "uint256",
          "name": "_value",
          "type": "uint256"
        }
      ],
      "name": "Mint",
      "type": "event"
    },
    {
      "anonymous": false,
      "inputs": [
        {
          "indexed": true,
          "internalType": "bytes32",
          "name": "role",
          "type": "bytes32"
        },
        {
          "indexed": true,
          "internalType": "bytes32",
          "name": "previousAdminRole",
          "type": "bytes32"
        },
        {
          "indexed": true,
          "internalType": "bytes32",
          "name": "newAdminRole",
          "type": "bytes32"
        }
      ],
      "name": "RoleAdminChanged",
      "type": "event"
    },
    {
      "anonymous": false,
      "inputs": [
        {
          "indexed": true,
          "internalType": "bytes32",
          "name": "role",
          "type": "bytes32"
        },
        {
          "indexed": true,
          "internalType": "address",
          "name": "account",
          "type": "address"
        },
        {
          "indexed": true,
          "internalType": "address",
          "name": "sender",
          "type": "address"
        }
      ],
      "name": "RoleGranted",
      "type": "event"
    },
    {
      "anonymous": false,
      "inputs": [
        {
          "indexed": true,
          "internalType": "bytes32",
          "name": "role",
          "type": "bytes32"
        },
        {
          "indexed": true,
          "internalType": "address",
          "name": "account",
          "type": "address"
        },
        {
          "indexed": true,
          "internalType": "address",
          "name": "sender",
          "type": "address"
        }
      ],
      "name": "RoleRevoked",
      "type": "event"
    },
    {
      "anonymous": false,
      "inputs": [
        {
          "indexed": true,
          "internalType": "address",
          "name": "from",
          "type": "address"
        },
        {
          "indexed": true,
          "internalType": "address",
          "name": "to",
          "type": "address"
        },
        {
          "indexed": false,
          "internalType": "uint256",
          "name": "value",
          "type": "uint256"
        }
      ],
      "name": "Transfer",
      "type": "event"
    },
    {
      "inputs": [],
      "name": "DEFAULT_ADMIN_ROLE",
      "outputs": [
        {
          "internalType": "bytes32",
          "name": "",
          "type": "bytes32"
        }
      ],
      "stateMutability": "view",
      "type": "function"
    },
    {
      "inputs": [],
      "name": "RELAYER_ROLE",
      "outputs": [
        {
          "internalType": "bytes32",
          "name": "",
          "type": "bytes32"
        }
      ],
      "stateMutability": "view",
      "type": "function"
    },
    {
      "inputs": [
        {
          "internalType": "address",
          "name": "owner",
          "type": "address"
        },
        {
          "internalType": "address",
          "name": "spender",
          "type": "address"
        }
      ],
      "name": "allowance",
      "outputs": [
        {
          "internalType": "uint256",
          "name": "",
          "type": "uint256"
        }
      ],
      "stateMutability": "view",
      "type": "function"
    },
    {
      "inputs": [
        {
          "internalType": "address",
          "name": "spender",
          "type": "address"
        },
        {
          "internalType": "uint256",
          "name": "amount",
          "type": "uint256"
        }
      ],
      "name": "approve",
      "outputs": [
        {
          "internalType": "bool",
          "name": "",
          "type": "bool"
        }
      ],
      "stateMutability": "nonpayable",
      "type": "function"
    },
    {
      "inputs": [
        {
          "internalType": "address",
          "name": "account",
          "type": "address"
        }
      ],
      "name": "balanceOf",
      "outputs": [
        {
          "internalType": "uint256",
          "name": "",
          "type": "uint256"
        }
      ],
      "stateMutability": "view",
      "type": "function"
    },
    {
      "inputs": [],
      "name": "decimals",
      "outputs": [
        {
          "internalType": "uint8",
          "name": "",
          "type": "uint8"
        }
      ],
      "stateMutability": "view",
      "type": "function"
    },
    {
      "inputs": [
        {
          "internalType": "address",
          "name": "spender",
          "type": "address"
        },
        {
          "internalType": "uint256",
          "name": "subtractedValue",
          "type": "uint256"
        }
      ],
      "name": "decreaseAllowance",
      "outputs": [
        {
          "internalType": "bool",
          "name": "",
          "type": "bool"
        }
      ],
      "stateMutability": "nonpayable",
      "type": "function"
    },
    {
      "inputs": [
        {
          "internalType": "address",
          "name": "sender",
          "type": "address"
        },
        {
          "internalType": "uint256",
          "name": "nonce",
          "type": "uint256"
        }
      ],
      "name": "execute",
      "outputs": [
        {
          "internalType": "bool",
          "name": "success",
          "type": "bool"
        }
      ],
      "stateMutability": "nonpayable",
      "type": "function"
    },
    {
      "inputs": [
        {
          "internalType": "bytes32",
          "name": "lockerHash",
          "type": "bytes32"
        }
      ],
      "name": "getLocker",
      "outputs": [
        {
          "components": [
            {
              "internalType": "uint256",
              "name": "idx",
              "type": "uint256"
            },
            {
              "internalType": "address",
              "name": "owner",
              "type": "address"
            },
            {
              "internalType": "uint256",
              "name": "amount",
              "type": "uint256"
            },
            {
              "internalType": "enum GluwacoinModels.LockerState",
              "name": "state",
              "type": "uint8"
            },
            {
              "components": [
                {
                  "internalType": "uint32",
                  "name": "rate",
                  "type": "uint32"
                },
                {
                  "internalType": "uint32",
                  "name": "decimalPlaceBase",
                  "type": "uint32"
                }
              ],
              "internalType": "struct GluwacoinModels.TokenExchangeModel",
              "name": "exchangeRate",
              "type": "tuple"
            }
          ],
          "internalType": "struct GluwacoinModels.Locker",
          "name": "",
          "type": "tuple"
        }
      ],
      "stateMutability": "view",
      "type": "function"
    },
    {
      "inputs": [
        {
          "internalType": "address",
          "name": "sender",
          "type": "address"
        },
        {
          "internalType": "uint256",
          "name": "nonce",
          "type": "uint256"
        }
      ],
      "name": "getReservation",
      "outputs": [
        {
          "internalType": "uint256",
          "name": "amount",
          "type": "uint256"
        },
        {
          "internalType": "uint256",
          "name": "fee",
          "type": "uint256"
        },
        {
          "internalType": "address",
          "name": "recipient",
          "type": "address"
        },
        {
          "internalType": "address",
          "name": "executor",
          "type": "address"
        },
        {
          "internalType": "uint256",
          "name": "expiryBlockNum",
          "type": "uint256"
        },
        {
          "internalType": "enum ERC20Reservable.ReservationStatus",
          "name": "status",
          "type": "uint8"
        }
      ],
      "stateMutability": "view",
      "type": "function"
    },
    {
      "inputs": [
        {
          "internalType": "bytes32",
          "name": "role",
          "type": "bytes32"
        }
      ],
      "name": "getRoleAdmin",
      "outputs": [
        {
          "internalType": "bytes32",
          "name": "",
          "type": "bytes32"
        }
      ],
      "stateMutability": "view",
      "type": "function"
    },
    {
      "inputs": [
        {
          "internalType": "bytes32",
          "name": "role",
          "type": "bytes32"
        },
        {
          "internalType": "uint256",
          "name": "index",
          "type": "uint256"
        }
      ],
      "name": "getRoleMember",
      "outputs": [
        {
          "internalType": "address",
          "name": "",
          "type": "address"
        }
      ],
      "stateMutability": "view",
      "type": "function"
    },
    {
      "inputs": [
        {
          "internalType": "bytes32",
          "name": "role",
          "type": "bytes32"
        }
      ],
      "name": "getRoleMemberCount",
      "outputs": [
        {
          "internalType": "uint256",
          "name": "",
          "type": "uint256"
        }
      ],
      "stateMutability": "view",
      "type": "function"
    },
    {
      "inputs": [],
      "name": "getTokenExchangeDetails",
      "outputs": [
        {
          "components": [
            {
              "internalType": "uint32",
              "name": "rate",
              "type": "uint32"
            },
            {
              "internalType": "uint32",
              "name": "decimalPlaceBase",
              "type": "uint32"
            }
          ],
          "internalType": "struct GluwacoinModels.TokenExchangeModel",
          "name": "",
          "type": "tuple"
        }
      ],
      "stateMutability": "view",
      "type": "function"
    },
    {
      "inputs": [
        {
          "internalType": "bytes32",
          "name": "role",
          "type": "bytes32"
        },
        {
          "internalType": "address",
          "name": "account",
          "type": "address"
        }
      ],
      "name": "grantRole",
      "outputs": [],
      "stateMutability": "nonpayable",
      "type": "function"
    },
    {
      "inputs": [
        {
          "internalType": "bytes32",
          "name": "role",
          "type": "bytes32"
        },
        {
          "internalType": "address",
          "name": "account",
          "type": "address"
        }
      ],
      "name": "hasRole",
      "outputs": [
        {
          "internalType": "bool",
          "name": "",
          "type": "bool"
        }
      ],
      "stateMutability": "view",
      "type": "function"
    },
    {
      "inputs": [
        {
          "internalType": "address",
          "name": "spender",
          "type": "address"
        },
        {
          "internalType": "uint256",
          "name": "addedValue",
          "type": "uint256"
        }
      ],
      "name": "increaseAllowance",
      "outputs": [
        {
          "internalType": "bool",
          "name": "",
          "type": "bool"
        }
      ],
      "stateMutability": "nonpayable",
      "type": "function"
    },
    {
      "inputs": [],
      "name": "name",
      "outputs": [
        {
          "internalType": "string",
          "name": "",
          "type": "string"
        }
      ],
      "stateMutability": "view",
      "type": "function"
    },
    {
      "inputs": [
        {
          "internalType": "address",
          "name": "sender",
          "type": "address"
        },
        {
          "internalType": "uint256",
          "name": "nonce",
          "type": "uint256"
        }
      ],
      "name": "reclaim",
      "outputs": [
        {
          "internalType": "bool",
          "name": "success",
          "type": "bool"
        }
      ],
      "stateMutability": "nonpayable",
      "type": "function"
    },
    {
      "inputs": [
        {
          "internalType": "bytes32",
          "name": "role",
          "type": "bytes32"
        },
        {
          "internalType": "address",
          "name": "account",
          "type": "address"
        }
      ],
      "name": "renounceRole",
      "outputs": [],
      "stateMutability": "nonpayable",
      "type": "function"
    },
    {
      "inputs": [
        {
          "internalType": "address",
          "name": "sender",
          "type": "address"
        },
        {
          "internalType": "address",
          "name": "recipient",
          "type": "address"
        },
        {
          "internalType": "address",
          "name": "executor",
          "type": "address"
        },
        {
          "internalType": "uint256",
          "name": "amount",
          "type": "uint256"
        },
        {
          "internalType": "uint256",
          "name": "fee",
          "type": "uint256"
        },
        {
          "internalType": "uint256",
          "name": "nonce",
          "type": "uint256"
        },
        {
          "internalType": "uint256",
          "name": "expiryBlockNum",
          "type": "uint256"
        },
        {
          "internalType": "bytes",
          "name": "sig",
          "type": "bytes"
        }
      ],
      "name": "reserve",
      "outputs": [
        {
          "internalType": "bool",
          "name": "success",
          "type": "bool"
        }
      ],
      "stateMutability": "nonpayable",
      "type": "function"
    },
    {
      "inputs": [
        {
          "internalType": "address",
          "name": "account",
          "type": "address"
        }
      ],
      "name": "reservedBalanceOf",
      "outputs": [
        {
          "internalType": "uint256",
          "name": "amount",
          "type": "uint256"
        }
      ],
      "stateMutability": "view",
      "type": "function"
    },
    {
      "inputs": [
        {
          "internalType": "bytes32",
          "name": "role",
          "type": "bytes32"
        },
        {
          "internalType": "address",
          "name": "account",
          "type": "address"
        }
      ],
      "name": "revokeRole",
      "outputs": [],
      "stateMutability": "nonpayable",
      "type": "function"
    },
    {
      "inputs": [
        {
          "internalType": "bytes4",
          "name": "interfaceId",
          "type": "bytes4"
        }
      ],
      "name": "supportsInterface",
      "outputs": [
        {
          "internalType": "bool",
          "name": "",
          "type": "bool"
        }
      ],
      "stateMutability": "view",
      "type": "function"
    },
    {
      "inputs": [],
      "name": "symbol",
      "outputs": [
        {
          "internalType": "string",
          "name": "",
          "type": "string"
        }
      ],
      "stateMutability": "view",
      "type": "function"
    },
    {
      "inputs": [],
      "name": "totalSupply",
      "outputs": [
        {
          "internalType": "uint256",
          "name": "",
          "type": "uint256"
        }
      ],
      "stateMutability": "view",
      "type": "function"
    },
    {
      "inputs": [
        {
          "internalType": "address",
          "name": "sender",
          "type": "address"
        },
        {
          "internalType": "address",
          "name": "recipient",
          "type": "address"
        },
        {
          "internalType": "uint256",
          "name": "amount",
          "type": "uint256"
        },
        {
          "internalType": "uint256",
          "name": "fee",
          "type": "uint256"
        },
        {
          "internalType": "uint256",
          "name": "nonce",
          "type": "uint256"
        },
        {
          "internalType": "bytes",
          "name": "sig",
          "type": "bytes"
        }
      ],
      "name": "transfer",
      "outputs": [
        {
          "internalType": "bool",
          "name": "success",
          "type": "bool"
        }
      ],
      "stateMutability": "nonpayable",
      "type": "function"
    },
    {
      "inputs": [
        {
          "internalType": "address",
          "name": "recipient",
          "type": "address"
        },
        {
          "internalType": "uint256",
          "name": "amount",
          "type": "uint256"
        }
      ],
      "name": "transfer",
      "outputs": [
        {
          "internalType": "bool",
          "name": "",
          "type": "bool"
        }
      ],
      "stateMutability": "nonpayable",
      "type": "function"
    },
    {
      "inputs": [
        {
          "internalType": "address",
          "name": "sender",
          "type": "address"
        },
        {
          "internalType": "address",
          "name": "recipient",
          "type": "address"
        },
        {
          "internalType": "uint256",
          "name": "amount",
          "type": "uint256"
        }
      ],
      "name": "transferFrom",
      "outputs": [
        {
          "internalType": "bool",
          "name": "",
          "type": "bool"
        }
      ],
      "stateMutability": "nonpayable",
      "type": "function"
    },
    {
      "inputs": [
        {
          "internalType": "address",
          "name": "account",
          "type": "address"
        }
      ],
      "name": "unreservedBalanceOf",
      "outputs": [
        {
          "internalType": "uint256",
          "name": "amount",
          "type": "uint256"
        }
      ],
      "stateMutability": "view",
      "type": "function"
    },
    {
      "inputs": [
        {
          "internalType": "contract IERC20",
          "name": "token",
          "type": "address"
        },
        {
          "internalType": "string",
          "name": "name_",
          "type": "string"
        },
        {
          "internalType": "string",
          "name": "symbol_",
          "type": "string"
        }
      ],
      "name": "initialize",
      "outputs": [],
      "stateMutability": "nonpayable",
      "type": "function"
    },
    {
      "inputs": [
        {
          "internalType": "uint32",
          "name": "newExchangeRate",
          "type": "uint32"
        },
        {
          "internalType": "uint32",
          "name": "newExchangeRateDecimalPlaceBase",
          "type": "uint32"
        }
      ],
      "name": "setTokenExchange",
      "outputs": [
        {
          "internalType": "bool",
          "name": "",
          "type": "bool"
        }
      ],
      "stateMutability": "nonpayable",
      "type": "function"
    },
    {
      "inputs": [
        {
          "internalType": "address",
          "name": "account",
          "type": "address"
        }
      ],
      "name": "getLockerByAcccount",
      "outputs": [
        {
          "components": [
            {
              "internalType": "uint256",
              "name": "idx",
              "type": "uint256"
            },
            {
              "internalType": "address",
              "name": "owner",
              "type": "address"
            },
            {
              "internalType": "uint256",
              "name": "amount",
              "type": "uint256"
            },
            {
              "internalType": "enum GluwacoinModels.LockerState",
              "name": "state",
              "type": "uint8"
            },
            {
              "components": [
                {
                  "internalType": "uint32",
                  "name": "rate",
                  "type": "uint32"
                },
                {
                  "internalType": "uint32",
                  "name": "decimalPlaceBase",
                  "type": "uint32"
                }
              ],
              "internalType": "struct GluwacoinModels.TokenExchangeModel",
              "name": "exchangeRate",
              "type": "tuple"
            }
          ],
          "internalType": "struct GluwacoinModels.Locker",
          "name": "",
          "type": "tuple"
        }
      ],
      "stateMutability": "view",
      "type": "function"
    },
    {
      "inputs": [
        {
          "internalType": "uint256",
          "name": "amount",
          "type": "uint256"
        }
      ],
      "name": "burn",
      "outputs": [
        {
          "internalType": "bool",
          "name": "",
          "type": "bool"
        }
      ],
      "stateMutability": "nonpayable",
      "type": "function"
    },
    {
      "inputs": [
        {
          "internalType": "address",
          "name": "account",
          "type": "address"
        },
        {
          "internalType": "uint256",
          "name": "amount",
          "type": "uint256"
        },
        {
          "internalType": "uint256",
          "name": "fee",
          "type": "uint256"
        }
      ],
      "name": "burn",
      "outputs": [
        {
          "internalType": "bool",
          "name": "",
          "type": "bool"
        }
      ],
      "stateMutability": "nonpayable",
      "type": "function"
    },
    {
      "inputs": [
        {
          "internalType": "address",
          "name": "account",
          "type": "address"
        },
        {
          "internalType": "uint256",
          "name": "amount",
          "type": "uint256"
        },
        {
          "internalType": "uint256",
          "name": "fee",
          "type": "uint256"
        }
      ],
      "name": "mint",
      "outputs": [
        {
          "internalType": "bool",
          "name": "",
          "type": "bool"
        }
      ],
      "stateMutability": "nonpayable",
      "type": "function"
    },
    {
      "inputs": [
        {
          "internalType": "uint256",
          "name": "amount",
          "type": "uint256"
        }
      ],
      "name": "mint",
      "outputs": [
        {
          "internalType": "bool",
          "name": "",
          "type": "bool"
        }
      ],
      "stateMutability": "nonpayable",
      "type": "function"
    },
    {
      "inputs": [
        {
          "internalType": "address",
          "name": "collector",
          "type": "address"
        },
        {
          "internalType": "uint256",
          "name": "amount",
          "type": "uint256"
        }
      ],
      "name": "collectFee",
      "outputs": [
        {
          "internalType": "bool",
          "name": "",
          "type": "bool"
        }
      ],
      "stateMutability": "nonpayable",
      "type": "function"
    }
  ],
  "bytecode": "0x608060405234801561001057600080fd5b5061396b806100206000396000f3fe608060405234801561001057600080fd5b50600436106101c15760003560e01c8062aa0bce146101c657806301ffc9a7146101ec57806306fdde031461020f578063095ea7b3146102245780630982d5b014610237578063156e29f61461024a57806318160ddd1461025d57806323b872dd14610265578063248a9ca3146102785780632ec0ff6c1461028b5780632f2ff15d1461029e578063313ce567146102b357806336568abe146102c257806336bd063a146102d557806339509351146102e85780633b89bb86146102fb57806342966c681461030e57806370a082311461032157806380c9dcf714610334578063851ad65414610347578063892bf622146103675780638bd317eb1461037a5780639010d07c1461038d57806390657147146103b857806391d14854146103cb578063926d7d7f146103de57806395d89b41146103f3578063a0712d68146103fb578063a217fddf1461040e578063a22ac5a914610416578063a3d25ded1461048a578063a457c2d71461049d578063a9059cbb146104b0578063ca15c873146104c3578063d547741f146104d6578063dd62ed3e146104e9578063f5298aca14610522578063fd635d6114610535575b600080fd5b6101d96101d43660046130a9565b61054a565b6040519081526020015b60405180910390f35b6101ff6101fa36600461334c565b61056e565b60405190151581526020016101e3565b610217610593565b6040516101e39190613598565b6101ff610232366004613269565b610625565b6101ff6102453660046131e4565b61063b565b6101ff610258366004613295565b610766565b60cb546101d9565b6101ff6102733660046131a3565b610787565b6101d96102863660046132ec565b610831565b6101ff610299366004613269565b610846565b6102b16102ac366004613305565b610867565b005b604051601281526020016101e3565b6102b16102d0366004613305565b61088e565b6101d96102e33660046130a9565b6108b0565b6101ff6102f6366004613269565b6108bb565b6101ff610309366004613269565b6108f7565b6101ff61031c3660046132ec565b610b7c565b6101d961032f3660046130a9565b610b94565b6101ff6103423660046130ff565b610baf565b61035a6103553660046132ec565b610f53565b6040516101e39190613664565b6101ff6103753660046133eb565b611007565b6101ff610388366004613269565b611047565b6103a061039b36600461332a565b6112ef565b6040516001600160a01b0390911681526020016101e3565b6102b16103c6366004613376565b61130e565b6101ff6103d9366004613305565b61139d565b6101d96000805160206138b683398151915281565b6102176113c8565b6101ff6104093660046132ec565b6113d7565b6101d9600081565b610478610424366004613269565b6001600160a01b03918216600090815260fb6020908152604080832093835292905220805460018201546002830154600384015460048501546005909501549396929591821694911692909160ff90911690565b6040516101e3969594939291906136c6565b61035a6104983660046130a9565b6113e5565b6101ff6104ab366004613269565b6114aa565b6101ff6104be366004613269565b611543565b6101d96104d13660046132ec565b611550565b6102b16104e4366004613305565b611567565b6101d96104f73660046130c6565b6001600160a01b03918216600090815260ca6020908152604080832093909416825291909152205490565b6101ff610530366004613295565b611571565b61053d611593565b6040516101e391906136b8565b6000610555826115c5565b61055e83610b94565b610568919061376c565b92915050565b60006001600160e01b03198216635a05180f60e01b14806105685750610568826115e7565b606060cc80546105a2906137c6565b80601f01602080910402602001604051908101604052809291908181526020018280546105ce906137c6565b801561061b5780601f106105f05761010080835404028352916020019161061b565b820191906000526020600020905b8154815290600101906020018083116105fe57829003601f168201915b5050505050905090565b600061063233848461161c565b50600192915050565b60008061064789610b94565b90506106538688613713565b8110156106bb5760405162461bcd60e51b815260206004820152602b60248201527f45524332304554486c6573733a207468652062616c616e6365206973206e6f7460448201526a081cdd59999a58da595b9d60aa1b60648201526084015b60405180910390fd5b6106c58986611740565b6000600346308c8c8c8c8c6040516020016106e79897969594939291906134b6565b604051602081830303815290604052805190602001209050610740818b87878080601f01602080910402602001604051908101604052809392919081815260200183838082843760009201919091525061180c92505050565b5061074b8a886118e0565b6107568a8a8a611904565b5060019998505050505050505050565b6000806107738133611acb565b61077e858585611b33565b95945050505050565b6000610794848484611904565b6001600160a01b038416600090815260ca60209081526040808320338452909152902054828110156108195760405162461bcd60e51b815260206004820152602860248201527f45524332303a207472616e7366657220616d6f756e74206578636565647320616044820152676c6c6f77616e636560c01b60648201526084016106b2565b610826853385840361161c565b506001949350505050565b60009081526065602052604090206001015490565b6000806108538133611acb565b61085d8484611b61565b91505b5092915050565b6108718282611bed565b60008281526097602052604090206108899082611c0a565b505050565b6108988282611c1f565b60008281526097602052604090206108899082611c99565b6000610568826115c5565b33600081815260ca602090815260408083206001600160a01b038716845290915281205490916106329185906108f2908690613713565b61161c565b6001600160a01b038216600090815260fb602090815260408083208484529091528120600481015461093b5760405162461bcd60e51b81526004016106b290613619565b336001600160a01b0385161480610967575060038101546001600160a01b0316336001600160a01b0316145b6109ed5760405162461bcd60e51b815260206004820152604b60248201527f455243323052657365727661626c653a2074686973206164647265737320697360448201527f206e6f7420617574686f72697a656420746f206578656375746520746869732060648201526a3932b9b2b93b30ba34b7b760a91b608482015260a4016106b2565b43816004015411610a545760405162461bcd60e51b815260206004820152603f60248201526000805160206138d683398151915260448201527f206578706972656420616e642063616e6e6f742062652065786563757465640060648201526084016106b2565b6001600582015460ff166003811115610a6f57610a6f613848565b14610ac95760405162461bcd60e51b8152602060048201526036602482015260008051602061391683398151915260448201527574696f6e2073746174757320746f206578656375746560501b60648201526084016106b2565b60038101546002820154600183015483546001600160a01b0393841693909216916000610af68383613713565b6001600160a01b038a16600081815260fb602090815260408083208d84528252808320600501805460ff1916600317905592825260fc90522054909150610b3e90829061376c565b6001600160a01b038a16600090815260fc6020526040902055610b62898685611904565b610b6d898584611904565b50600198975050505050505050565b6000610b883383611cae565b61056833836000611df6565b6001600160a01b0316600090815260c9602052604090205490565b6001600160a01b038916600090815260fb6020908152604080832087845290915281206004015415610c3e5760405162461bcd60e51b815260206004820152603260248201527f455243323052657365727661626c653a207468652073656e646572207573656460448201527120746865206e6f6e636520616c726561647960701b60648201526084016106b2565b438411610ca25760405162461bcd60e51b815260206004820152602c60248201527f455243323052657365727661626c653a20696e76616c696420626c6f636b206560448201526b3c3834b93c90373ab6b132b960a11b60648201526084016106b2565b6001600160a01b038816610d125760405162461bcd60e51b815260206004820152603160248201527f455243323052657365727661626c653a2063616e6e6f7420657865637574652060448201527066726f6d207a65726f206164647265737360781b60648201526084016106b2565b6000610d1e8789613713565b905080610d2a8c6115c5565b1015610d915760405162461bcd60e51b815260206004820152603060248201527f455243323052657365727661626c653a20696e73756666696369656e7420756e60448201526f72657365727665642062616c616e636560801b60648201526084016106b2565b6000600446308e8e8e8e8e8e8e604051602001610db79a9998979695949392919061344d565b604051602081830303815290604052805190602001209050610e10818d87878080601f01602080910402602001604051908101604052809392919081815260200183838082843760009201919091525061180c92505050565b506040518060c001604052808a81526020018981526020018c6001600160a01b031681526020018b6001600160a01b0316815260200187815260200160016003811115610e5f57610e5f613848565b90526001600160a01b03808e16600090815260fb602090815260408083208c84528252918290208451815590840151600180830191909155918401516002820180549185166001600160a01b03199283161790556060850151600380840180549290961691909216179093556080840151600482015560a084015160058201805492949193909260ff1916918490811115610efc57610efc613848565b021790555050506001600160a01b038c16600090815260fc6020526040902054610f27908390613713565b6001600160a01b038d16600090815260fc60205260409020555060019150509998505050505050505050565b610f5b612ed8565b60008281526101366020908152604091829020825160a0810184528154815260018201546001600160a01b03169281019290925260028082015493830193909352600381015491929091606084019160ff90911690811115610fbf57610fbf613848565b6002811115610fd057610fd0613848565b8152604080518082019091526004929092015463ffffffff8082168452600160201b90910416602083810191909152015292915050565b6000806110148133611acb565b61085d8484610130805463ffffffff838116600160201b026001600160401b031990921690851617179055600192915050565b6001600160a01b038216600090815260fb602090815260408083208484529091528120600481015461108b5760405162461bcd60e51b81526004016106b290613619565b336001600160a01b03851614806110b7575060038101546001600160a01b0316336001600160a01b0316145b61114f5760405162461bcd60e51b815260206004820152605f60248201527f455243323052657365727661626c653a206f6e6c79207468652073656e64657260448201527f206f7220746865206578656375746f722063616e207265636c61696d2074686560648201527f207265736572766174696f6e206261636b20746f207468652073656e64657200608482015260a4016106b2565b438160040154111580611177575060038101546001600160a01b0316336001600160a01b0316145b6111fd5760405162461bcd60e51b815260206004820152606060248201526000805160206138d683398151915260448201527f206e6f742065787069726564206f7220796f7520617265206e6f74207468652060648201527f6578656375746f7220616e642063616e6e6f74206265207265636c61696d6564608482015260a4016106b2565b6001600582015460ff16600381111561121857611218613848565b146112725760405162461bcd60e51b8152602060048201526036602482015260008051602061391683398151915260448201527574696f6e2073746174757320746f207265636c61696d60501b60648201526084016106b2565b6001600160a01b038416600081815260fb602090815260408083208784528252808320600501805460ff191660021790556001850154855494845260fc9092529091205490916112c19161376c565b6112cb919061376c565b6001600160a01b038516600090815260fc6020526040902055506001905092915050565b6000828152609760205260408120611307908361203f565b9392505050565b600054610100900460ff1680611327575060005460ff16155b6113435760405162461bcd60e51b81526004016106b2906135cb565b600054610100900460ff16158015611365576000805461ffff19166101011790555b61136f838361204b565b61137a8460126120e2565b611385600033612191565b8015611397576000805461ff00191690555b50505050565b60009182526065602090815260408084206001600160a01b0393909316845291905290205460ff1690565b606060cd80546105a2906137c6565b600061056833836000611b33565b6113ed612ed8565b6001600160a01b0380831660009081526101376020908152604080832054808452610136835292819020815160a08101835281548152600182015490951692850192909252600280830154918501919091526003820154929392606084019160ff9091169081111561146157611461613848565b600281111561147257611472613848565b8152604080518082019091526004929092015463ffffffff8082168452600160201b9091041660208381019190915201529392505050565b33600090815260ca602090815260408083206001600160a01b03861684529091528120548281101561152c5760405162461bcd60e51b815260206004820152602560248201527f45524332303a2064656372656173656420616c6c6f77616e63652062656c6f77604482015264207a65726f60d81b60648201526084016106b2565b611539338585840361161c565b5060019392505050565b6000610632338484611904565b60008181526097602052604081206105689061219b565b61089882826121a5565b60008061157e8133611acb565b6115888585611cae565b61077e858585611df6565b61159b612f0c565b50604080518082019091526101305463ffffffff8082168352600160201b90910416602082015290565b6001600160a01b038116600090815260fc602052604081205461055e83610b94565b60006001600160e01b03198216637965db0b60e01b148061056857506301ffc9a760e01b6001600160e01b0319831614610568565b6001600160a01b03831661167e5760405162461bcd60e51b8152602060048201526024808201527f45524332303a20617070726f76652066726f6d20746865207a65726f206164646044820152637265737360e01b60648201526084016106b2565b6001600160a01b0382166116df5760405162461bcd60e51b815260206004820152602260248201527f45524332303a20617070726f766520746f20746865207a65726f206164647265604482015261737360f01b60648201526084016106b2565b6001600160a01b03838116600081815260ca602090815260408083209487168084529482529182902085905590518481527f8c5be1e5ebec7d5bd14f71427d1e84f3dd0314c0f7b2291e5b200ac8c7c3b925910160405180910390a3505050565b6001600160a01b038216600090815261016a6020908152604080832084845290915290205460ff16156117db5760405162461bcd60e51b815260206004820152603e60248201527f45524332304554486c6573733a20746865206e6f6e63652068617320616c726560448201527f616479206265656e207573656420666f7220746869732061646472657373000060648201526084016106b2565b6001600160a01b03909116600090815261016a6020908152604080832093835292905220805460ff19166001179055565b600080611865856040517b0ca2ba3432b932bab69029b4b3b732b21026b2b9b9b0b3b29d05199960211b6020820152603c8101829052600090605c01604051602081830303815290604052805190602001209050919050565b9050600061187382856121c2565b9050846001600160a01b0316816001600160a01b0316146118d45760405162461bcd60e51b815260206004820152601b60248201527a56616c69646174653a20696e76616c6964207369676e617475726560281b60448201526064016106b2565b50600195945050505050565b60006118fb6000805160206138b683398151915260006112ef565b90506108898382845b6001600160a01b0383166119685760405162461bcd60e51b815260206004820152602560248201527f45524332303a207472616e736665722066726f6d20746865207a65726f206164604482015264647265737360d81b60648201526084016106b2565b6001600160a01b0382166119ca5760405162461bcd60e51b815260206004820152602360248201527f45524332303a207472616e7366657220746f20746865207a65726f206164647260448201526265737360e81b60648201526084016106b2565b6119d5838383612266565b6001600160a01b038316600090815260c9602052604090205481811015611a4d5760405162461bcd60e51b815260206004820152602660248201527f45524332303a207472616e7366657220616d6f756e7420657863656564732062604482015265616c616e636560d01b60648201526084016106b2565b6001600160a01b03808516600090815260c96020526040808220858503905591851681529081208054849290611a84908490613713565b92505081905550826001600160a01b0316846001600160a01b03166000805160206138f683398151915284604051611abe91815260200190565b60405180910390a3611397565b611ad5828261139d565b611b2f57611aed816001600160a01b03166014612271565b611af8836020612271565b604051602001611b09929190613510565b60408051601f198184030181529082905262461bcd60e51b82526106b291600401613598565b5050565b6000611b4084848461240c565b506000611b55611b50848661376c565b612771565b9050610826858261279c565b61012f5460405163a9059cbb60e01b81526000916201000090046001600160a01b03169063a9059cbb90611b9b908690869060040161357f565b602060405180830381600087803b158015611bb557600080fd5b505af1158015611bc9573d6000803e3d6000fd5b505050506040513d601f19601f8201168201806040525081019061153991906132ca565b611bf682610831565b611c008133611acb565b6108898383612875565b6000611307836001600160a01b0384166128fb565b6001600160a01b0381163314611c8f5760405162461bcd60e51b815260206004820152602f60248201527f416363657373436f6e74726f6c3a2063616e206f6e6c792072656e6f756e636560448201526e103937b632b9903337b91039b2b63360891b60648201526084016106b2565b611b2f828261294a565b6000611307836001600160a01b0384166129b1565b6001600160a01b038216611d0e5760405162461bcd60e51b815260206004820152602160248201527f45524332303a206275726e2066726f6d20746865207a65726f206164647265736044820152607360f81b60648201526084016106b2565b611d1a82600083612266565b6001600160a01b038216600090815260c9602052604090205481811015611d8e5760405162461bcd60e51b815260206004820152602260248201527f45524332303a206275726e20616d6f756e7420657863656564732062616c616e604482015261636560f01b60648201526084016106b2565b6001600160a01b038316600090815260c960205260408120838303905560cb8054849290611dbd90849061376c565b90915550506040518281526000906001600160a01b038516906000805160206138f68339815191529060200160405180910390a3505050565b6001600160a01b038316600090815261013760209081526040808320548084526101369092528220600401548290611e4090869063ffffffff80821691600160201b900416612aa4565b60008381526101366020526040902060020154909150811115611ec95760405162461bcd60e51b815260206004820152603b60248201527f436f6e7665727469626c653a204c6f636b657220646f6573206e6f742068617660448201527a1948195b9bdd59da0810d510c8199bdc881dda5d1a191c985dd85b602a1b60648201526084016106b2565b838111611f365760405162461bcd60e51b815260206004820152603560248201527f436f6e7665727469626c653a2057697468647261776e20616d6f756e74206d75604482015274737420626520686967686572207468616e2066656560581b60648201526084016106b2565b6000828152610136602052604081206002018054839290611f5890849061376c565b909155505061012f546201000090046001600160a01b031663a9059cbb87611f80878561376c565b6040518363ffffffff1660e01b8152600401611f9d92919061357f565b602060405180830381600087803b158015611fb757600080fd5b505af1158015611fcb573d6000803e3d6000fd5b505050506040513d601f19601f82011682018060405250810190611fef91906132ca565b50856001600160a01b03167f919f7e2092ffcc9d09f599be18d8152860b0c054df788a33bc549cdd9d0f15b18660405161202b91815260200190565b60405180910390a250600195945050505050565b60006113078383612ad1565b600054610100900460ff1680612064575060005460ff16155b6120805760405162461bcd60e51b81526004016106b2906135cb565b600054610100900460ff161580156120a2576000805461ffff19166101011790555b6120ac8383612afb565b6120b4612b90565b6120cc6000805160206138b683398151915233612191565b8015610889576000805461ff0019169055505050565b600054610100900460ff16806120fb575060005460ff16155b6121175760405162461bcd60e51b81526004016106b2906135cb565b600054610100900460ff16158015612139576000805461ffff19166101011790555b61012f8054610100600160b01b031916620100006001600160a01b0386160261ff0019161761010060ff8516021790556001610133819055610134556000610135558015610889576000805461ff0019169055505050565b6108718282612bfc565b6000610568825490565b6121ae82610831565b6121b88133611acb565b610889838361294a565b60008151604114156121f65760208201516040830151606084015160001a6121ec86828585612c06565b9350505050610568565b81516040141561221e5760208201516040830151612215858383612d97565b92505050610568565b60405162461bcd60e51b815260206004820152601f60248201527f45434453413a20696e76616c6964207369676e6174757265206c656e6774680060448201526064016106b2565b610889838383612dc1565b6060600061228083600261374d565b61228b906002613713565b6001600160401b038111156122a2576122a261388a565b6040519080825280601f01601f1916602001820160405280156122cc576020820181803683370190505b509050600360fc1b816000815181106122e7576122e7613874565b60200101906001600160f81b031916908160001a905350600f60fb1b8160018151811061231657612316613874565b60200101906001600160f81b031916908160001a905350600061233a84600261374d565b612345906001613713565b90505b60018111156123bd576f181899199a1a9b1b9c1cb0b131b232b360811b85600f166010811061237957612379613874565b1a60f81b82828151811061238f5761238f613874565b60200101906001600160f81b031916908160001a90535060049490941c936123b6816137af565b9050612348565b5083156113075760405162461bcd60e51b815260206004820181905260248201527f537472696e67733a20686578206c656e67746820696e73756666696369656e7460448201526064016106b2565b61012f546040516323b872dd60e01b81526001600160a01b0385811660048301523060248301526044820185905260009262010000900416906323b872dd90606401602060405180830381600087803b15801561246857600080fd5b505af115801561247c573d6000803e3d6000fd5b505050506040513d601f19601f820116820180604052508101906124a091906132ca565b6124fd5760405162461bcd60e51b815260206004820152602860248201527f436f6e7665727469626c653a2043616e2774206c6f636b2074686520746f6b656044820152671b88185b5bdd5b9d60c21b60648201526084016106b2565b60008061250a848661376c565b6001600160a01b0387166000908152610137602090815260408083205480845261013690925290912054919250901561256a57600081815261013660205260408120600201805484929061255f908490613713565b909155506126dd9050565b610134546040516125a4919030908a90602001928352606091821b6001600160601b03199081166020850152911b16603482015260480190565b60408051601f19818403018152828252805160209182012060a0840183526101345484526001600160a01b038b8116838601908152858501888152600160608801818152875180890189526101305463ffffffff8082168352600160201b909104168189015260808a015260008681526101369097529690952087518155915182860180546001600160a01b03191691909416179092559051600280830191909155935160038201805493995091949093919260ff19169190849081111561266e5761266e613848565b02179055506080919091015180516004909201805460209092015163ffffffff908116600160201b026001600160401b0319909316938116939093179190911790556126c090610131908590612e4c16565b6001600160a01b0387166000908152610137602052604090208390555b866001600160a01b03167f0f6798a560793a54c3bcfe86a93cde1e73087d944c0ea20544137d41213968858760405161271891815260200190565b60405180910390a2866001600160a01b0316837f515a19a1c83edb8613fd7de44c592958807d317b9d2c72a2b2f582ed9786b8338460405161275c91815260200190565b60405180910390a35060019695505050505050565b6101305460009063ffffffff600160201b820481169161279291168461374d565b610568919061372b565b6001600160a01b0382166127f25760405162461bcd60e51b815260206004820152601f60248201527f45524332303a206d696e7420746f20746865207a65726f20616464726573730060448201526064016106b2565b6127fe60008383612266565b8060cb60008282546128109190613713565b90915550506001600160a01b038216600090815260c960205260408120805483929061283d908490613713565b90915550506040518181526001600160a01b038316906000906000805160206138f68339815191529060200160405180910390a35050565b61287f828261139d565b611b2f5760008281526065602090815260408083206001600160a01b03851684529091529020805460ff191660011790556128b73390565b6001600160a01b0316816001600160a01b0316837f2f8788117e7eff1d82e926ec794901d17c78024a50270940304540a733656f0d60405160405180910390a45050565b600081815260018301602052604081205461294257508154600181810184556000848152602080822090930184905584548482528286019093526040902091909155610568565b506000610568565b612954828261139d565b15611b2f5760008281526065602090815260408083206001600160a01b0385168085529252808320805460ff1916905551339285917ff6391f5c32d9c69d2a47ea670b442974b53935d1edc7fd64eb21e047a839171b9190a45050565b60008181526001830160205260408120548015612a9a5760006129d560018361376c565b85549091506000906129e99060019061376c565b9050818114612a4e576000866000018281548110612a0957612a09613874565b9060005260206000200154905080876000018481548110612a2c57612a2c613874565b6000918252602080832090910192909255918252600188019052604090208390555b8554869080612a5f57612a5f61385e565b600190038181906000526020600020016000905590558560010160008681526020019081526020016000206000905560019350505050610568565b6000915050610568565b60008263ffffffff168263ffffffff1685612abf919061374d565b612ac9919061372b565b949350505050565b6000826000018281548110612ae857612ae8613874565b9060005260206000200154905092915050565b600054610100900460ff1680612b14575060005460ff16155b612b305760405162461bcd60e51b81526004016106b2906135cb565b600054610100900460ff16158015612b52576000805461ffff19166101011790555b8251612b659060cc906020860190612f23565b508151612b799060cd906020850190612f23565b508015610889576000805461ff0019169055505050565b600054610100900460ff1680612ba9575060005460ff16155b612bc55760405162461bcd60e51b81526004016106b2906135cb565b600054610100900460ff16158015612be7576000805461ffff19166101011790555b8015612bf9576000805461ff00191690555b50565b611b2f8282612875565b60006fa2a8918ca85bafe22016d0b997e4df60600160ff1b03821115612c795760405162461bcd60e51b815260206004820152602260248201527f45434453413a20696e76616c6964207369676e6174757265202773272076616c604482015261756560f01b60648201526084016106b2565b8360ff16601b1480612c8e57508360ff16601c145b612ce55760405162461bcd60e51b815260206004820152602260248201527f45434453413a20696e76616c6964207369676e6174757265202776272076616c604482015261756560f01b60648201526084016106b2565b6040805160008082526020820180845288905260ff871692820192909252606081018590526080810184905260019060a0016020604051602081039080840390855afa158015612d39573d6000803e3d6000fd5b5050604051601f1901519150506001600160a01b03811661077e5760405162461bcd60e51b815260206004820152601860248201527745434453413a20696e76616c6964207369676e617475726560401b60448201526064016106b2565b60006001600160ff1b03821660ff83901c601b01612db786828785612c06565b9695505050505050565b6001600160a01b038316156108895780612dda846115c5565b10156108895760405162461bcd60e51b815260206004820152603b60248201527f455243323052657365727661626c653a207472616e7366657220616d6f756e7460448201527a206578636565647320756e72657365727665642062616c616e636560281b60648201526084016106b2565b60008181526020839052604081205460ff166002811115612e6f57612e6f613848565b14612e7c57612e7c61381c565b600081815260208381526040808320805460ff1916600190811790915560038601805485529086019092528220839055805491612eb883613801565b9091555050600482018054906000612ecf83613801565b91905055505050565b6040805160a0810182526000808252602082018190529181018290529060608201908152602001612f07612f0c565b905290565b604080518082019091526000808252602082015290565b828054612f2f906137c6565b90600052602060002090601f016020900481019282612f515760008555612f97565b82601f10612f6a57805160ff1916838001178555612f97565b82800160010185558215612f97579182015b82811115612f97578251825591602001919060010190612f7c565b50612fa3929150612fa7565b5090565b5b80821115612fa35760008155600101612fa8565b60008083601f840112612fce57600080fd5b5081356001600160401b03811115612fe557600080fd5b602083019150836020828501011115612ffd57600080fd5b9250929050565b600082601f83011261301557600080fd5b81356001600160401b038082111561302f5761302f61388a565b604051601f8301601f19908116603f011681019082821181831017156130575761305761388a565b8160405283815286602085880101111561307057600080fd5b836020870160208301376000602085830101528094505050505092915050565b803563ffffffff811681146130a457600080fd5b919050565b6000602082840312156130bb57600080fd5b8135611307816138a0565b600080604083850312156130d957600080fd5b82356130e4816138a0565b915060208301356130f4816138a0565b809150509250929050565b60008060008060008060008060006101008a8c03121561311e57600080fd5b8935613129816138a0565b985060208a0135613139816138a0565b975060408a0135613149816138a0565b965060608a0135955060808a0135945060a08a0135935060c08a0135925060e08a01356001600160401b0381111561318057600080fd5b61318c8c828d01612fbc565b915080935050809150509295985092959850929598565b6000806000606084860312156131b857600080fd5b83356131c3816138a0565b925060208401356131d3816138a0565b929592945050506040919091013590565b600080600080600080600060c0888a0312156131ff57600080fd5b873561320a816138a0565b9650602088013561321a816138a0565b955060408801359450606088013593506080880135925060a08801356001600160401b0381111561324a57600080fd5b6132568a828b01612fbc565b989b979a50959850939692959293505050565b6000806040838503121561327c57600080fd5b8235613287816138a0565b946020939093013593505050565b6000806000606084860312156132aa57600080fd5b83356132b5816138a0565b95602085013595506040909401359392505050565b6000602082840312156132dc57600080fd5b8151801515811461130757600080fd5b6000602082840312156132fe57600080fd5b5035919050565b6000806040838503121561331857600080fd5b8235915060208301356130f4816138a0565b6000806040838503121561333d57600080fd5b50508035926020909101359150565b60006020828403121561335e57600080fd5b81356001600160e01b03198116811461130757600080fd5b60008060006060848603121561338b57600080fd5b8335613396816138a0565b925060208401356001600160401b03808211156133b257600080fd5b6133be87838801613004565b935060408601359150808211156133d457600080fd5b506133e186828701613004565b9150509250925092565b600080604083850312156133fe57600080fd5b61340783613090565b915061341560208401613090565b90509250929050565b6005811061342e5761342e613848565b60f81b9052565b805163ffffffff908116835260209182015116910152565b613457818c61341e565b60018101999099526001600160601b0319606098891b811660218b015296881b871660358a015294871b861660498901529290951b909316605d8601526071850192909252609184019290925260b183015260d182015260f101919050565b6134c0818a61341e565b60018101979097526001600160601b0319606096871b8116602189015294861b851660358801529290941b9092166049850152605d840191909152607d830191909152609d82015260bd01919050565b76020b1b1b2b9b9a1b7b73a3937b61d1030b1b1b7bab73a1604d1b815260008351613542816017850160208801613783565b7001034b99036b4b9b9b4b733903937b6329607d1b6017918401918201528351613573816028840160208801613783565b01602801949350505050565b6001600160a01b03929092168252602082015260400190565b60208152600082518060208401526135b7816040850160208701613783565b601f01601f19169190910160400192915050565b6020808252602e908201527f496e697469616c697a61626c653a20636f6e747261637420697320616c72656160408201526d191e481a5b9a5d1a585b1a5e995960921b606082015260800190565b6020808252602b908201527f455243323052657365727661626c653a207265736572766174696f6e20646f6560408201526a1cc81b9bdd08195e1a5cdd60aa1b606082015260800190565b815181526020808301516001600160a01b03169082015260408083015190820152606082015160c08201906003811061369f5761369f613848565b8060608401525060808301516108606080840182613435565b604081016105688284613435565b868152602081018690526001600160a01b038581166040830152841660608201526080810183905260c081016004831061370257613702613848565b8260a0830152979650505050505050565b6000821982111561372657613726613832565b500190565b60008261374857634e487b7160e01b600052601260045260246000fd5b500490565b600081600019048311821515161561376757613767613832565b500290565b60008282101561377e5761377e613832565b500390565b60005b8381101561379e578181015183820152602001613786565b838111156113975750506000910152565b6000816137be576137be613832565b506000190190565b600181811c908216806137da57607f821691505b602082108114156137fb57634e487b7160e01b600052602260045260246000fd5b50919050565b600060001982141561381557613815613832565b5060010190565b634e487b7160e01b600052600160045260246000fd5b634e487b7160e01b600052601160045260246000fd5b634e487b7160e01b600052602160045260246000fd5b634e487b7160e01b600052603160045260246000fd5b634e487b7160e01b600052603260045260246000fd5b634e487b7160e01b600052604160045260246000fd5b6001600160a01b0381168114612bf957600080fdfee2b7fb3b832174769106daebcfd6d1970523240dda11281102db9363b83b0dc4455243323052657365727661626c653a207265736572766174696f6e20686173ddf252ad1be2c89b69c2b068fc378daa952ba7f163c4a11628f55a4df523b3ef455243323052657365727661626c653a20696e76616c69642072657365727661a2646970667358221220b6270289d4d8d9916e9ddb3b6fe8046d7477f61b432ece55c0261630f4fce96764736f6c63430008070033",
  "immutableReferences": {},
  "source": "// SPDX-License-Identifier: MIT\npragma solidity >=0.8.7;\n\nimport \"@openzeppelin/contracts-upgradeable/utils/ContextUpgradeable.sol\";\nimport \"./abstracts/ERC20Reservable.sol\";\nimport \"./abstracts/Convertible.sol\";\nimport \"./abstracts/ERC20ETHless.sol\";\n\n/**\n * @dev Extension of {ERC20} that adds a set of accounts with the {MinterRole},\n * which have permission to mint (create) new tokens as they see fit.\n *\n * At construction, the deployer of the contract is the only minter.\n */\ncontract Gluwacoin is\n    ContextUpgradeable,\n    ERC20Reservable,\n    Convertible,\n    ERC20ETHless\n{\n\n    function initialize(\n        IERC20 token,\n        string memory name_,\n        string memory symbol_\n    ) external initializer {\n        __ERC20ETHless_init_unchained(name_, symbol_);\n        __Convertible_init_unchained(token, decimals());\n        _setupRole(DEFAULT_ADMIN_ROLE, _msgSender());\n    }\n\n    function setTokenExchange(\n        uint32 newExchangeRate,\n        uint32 newExchangeRateDecimalPlaceBase\n    ) external onlyRole(DEFAULT_ADMIN_ROLE) returns (bool) {\n        return\n            _setTokenExchange(newExchangeRate, newExchangeRateDecimalPlaceBase);\n    }\n\n    function getLockerByAcccount(address account)\n        external\n        view\n        returns (GluwacoinModels.Locker memory)\n    {\n        bytes32 lockerHash = _lockerOwner[account];\n        return _locker[lockerHash];\n    }\n\n    /**\n     * @dev Gluwa triggers the withdraw (burn) onbehalf of users.\n     * `fee` is used to pay gas for the transaction.\n     *\n     * Requirements:\n     * - the account must have at least `amount` of `gluwacoin` in the locker.\n     * - `withdrawn amount` must be greater than fee.\n     * - `fee` will be deducted from the `amount` of `base token`.\n     */\n    function burn(\n        address account,\n        uint256 amount,\n        uint256 fee\n    ) external onlyRole(DEFAULT_ADMIN_ROLE) returns (bool) {\n        _burn(account, amount);\n        return _withdraw(account, amount, fee);\n    }\n\n    /**\n     * @dev Users burn Gluwacoin to withdraw token by themselves.\n     * `fee` will be 0 as users will need to pay gas from their account.\n     *\n     * Requirements:\n     * - Only owner can `withdraw`.\n     * - the account must have sufficient eth to pay gas.\n     */\n    function burn(uint256 amount) external returns (bool) {\n        _burn(_msgSender(), amount);\n        return _withdraw(_msgSender(), amount, 0);\n    }\n\n    /**\n     * @dev Gluwa triggers the conversion (mint) onbehalf of users.\n     * `fee` is used to pay gas for the transaction.\n     *\n     * Requirements:\n     * - the account must have at least `amount` of `base token`.\n     * - `amount` must be greater than fee.\n     * - `fee` will be deducted from the `amount` of `base token`.\n     */\n    function mint(\n        address account,\n        uint256 amount,\n        uint256 fee\n    ) external onlyRole(DEFAULT_ADMIN_ROLE) returns (bool) {\n        return _convert(account, amount, fee);\n    }\n\n    /**\n     * @dev Users convert (mint) token by themselves.\n     * `fee` will be 0 as users will need to pay gas from their account.\n     *\n     * Requirements:\n     * - the account must have at least `amount` of `base token`.\n     * - the account must have sufficient eth to pay gas.\n     */\n    function mint(uint256 amount) external returns (bool) {\n        return _convert(_msgSender(), amount, 0);\n    }\n\n    function _convert(\n        address account,\n        uint256 amount,\n        uint256 fee\n    ) private returns (bool) {\n        _lockFrom(account, amount, fee);\n\n        uint256 convertedAmount = _calculateConversion(amount - fee);\n        _mint(account, convertedAmount);\n\n        return true;\n    }\n\n    /** @dev The contract admin can withdraw an amount of the received `fee` from the contract.\n     */\n    function collectFee(address collector, uint256 amount)\n        external\n        onlyRole(DEFAULT_ADMIN_ROLE)\n        returns (bool)\n    {\n        return _withdrawBaseToken(collector, amount);\n    }\n\n    /** @dev check the amount of available tokens of sender to transfer.\n     * Must override all the parent's functions\n     * Do 2 checks:\n     * - Total balance must be equal or higher than the transferring amount.\n     * - Unreserving (the amount of tokens are not put as a reserve) must be equal or higher than the transferring amount.\n     */\n\n    function _beforeTokenTransfer(\n        address from,\n        address to,\n        uint256 amount\n    ) internal override(ERC20ETHless, ERC20Reservable) {\n        ERC20ETHless._beforeTokenTransfer(from, to, amount);\n        ERC20Reservable._beforeTokenTransfer(from, to, amount);\n    }\n\n    uint256[50] private __gap;\n}\n",
  "sourcePath": "/home/osboxes/KRWC-G-1/contracts/Gluwacoin.sol",
  "compiler": {
    "name": "solc",
    "version": "0.8.7+commit.e28d00a7.Emscripten.clang"
  },
  "schemaVersion": "3.3.4",
  "updatedAt": "2021-09-09T18:03:55.239Z",
  "devdoc": {
    "details": "Extension of {ERC20} that adds a set of accounts with the {MinterRole}, which have permission to mint (create) new tokens as they see fit. At construction, the deployer of the contract is the only minter.",
    "kind": "dev",
    "methods": {
      "allowance(address,address)": {
        "details": "See {IERC20-allowance}."
      },
      "approve(address,uint256)": {
        "details": "See {IERC20-approve}. Requirements: - `spender` cannot be the zero address."
      },
      "balanceOf(address)": {
        "details": "See {IERC20-balanceOf}."
      },
      "burn(address,uint256,uint256)": {
        "details": "Gluwa triggers the withdraw (burn) onbehalf of users. `fee` is used to pay gas for the transaction. Requirements: - the account must have at least `amount` of `gluwacoin` in the locker. - `withdrawn amount` must be greater than fee. - `fee` will be deducted from the `amount` of `base token`."
      },
      "burn(uint256)": {
        "details": "Users burn Gluwacoin to withdraw token by themselves. `fee` will be 0 as users will need to pay gas from their account. Requirements: - Only owner can `withdraw`. - the account must have sufficient eth to pay gas."
      },
      "collectFee(address,uint256)": {
        "details": "The contract admin can withdraw an amount of the received `fee` from the contract."
      },
      "decimals()": {
        "details": "Returns the number of decimals used to get its user representation. For example, if `decimals` equals `2`, a balance of `505` tokens should be displayed to a user as `5,05` (`505 / 10 ** 2`). Tokens usually opt for a value of 18, imitating the relationship between Ether and Wei. This is the value {ERC20} uses, unless this function is overridden; NOTE: This information is only used for _display_ purposes: it in no way affects any of the arithmetic of the contract, including {IERC20-balanceOf} and {IERC20-transfer}."
      },
      "decreaseAllowance(address,uint256)": {
        "details": "Atomically decreases the allowance granted to `spender` by the caller. This is an alternative to {approve} that can be used as a mitigation for problems described in {IERC20-approve}. Emits an {Approval} event indicating the updated allowance. Requirements: - `spender` cannot be the zero address. - `spender` must have allowance for the caller of at least `subtractedValue`."
      },
      "getRoleAdmin(bytes32)": {
        "details": "Returns the admin role that controls `role`. See {grantRole} and {revokeRole}. To change a role's admin, use {_setRoleAdmin}."
      },
      "getRoleMember(bytes32,uint256)": {
        "details": "Returns one of the accounts that have `role`. `index` must be a value between 0 and {getRoleMemberCount}, non-inclusive. Role bearers are not sorted in any particular way, and their ordering may change at any point. WARNING: When using {getRoleMember} and {getRoleMemberCount}, make sure you perform all queries on the same block. See the following https://forum.openzeppelin.com/t/iterating-over-elements-on-enumerableset-in-openzeppelin-contracts/2296[forum post] for more information."
      },
      "getRoleMemberCount(bytes32)": {
        "details": "Returns the number of accounts that have `role`. Can be used together with {getRoleMember} to enumerate all bearers of a role."
      },
      "grantRole(bytes32,address)": {
        "details": "Overload {grantRole} to track enumerable memberships"
      },
      "hasRole(bytes32,address)": {
        "details": "Returns `true` if `account` has been granted `role`."
      },
      "increaseAllowance(address,uint256)": {
        "details": "Atomically increases the allowance granted to `spender` by the caller. This is an alternative to {approve} that can be used as a mitigation for problems described in {IERC20-approve}. Emits an {Approval} event indicating the updated allowance. Requirements: - `spender` cannot be the zero address."
      },
      "mint(address,uint256,uint256)": {
        "details": "Gluwa triggers the conversion (mint) onbehalf of users. `fee` is used to pay gas for the transaction. Requirements: - the account must have at least `amount` of `base token`. - `amount` must be greater than fee. - `fee` will be deducted from the `amount` of `base token`."
      },
      "mint(uint256)": {
        "details": "Users convert (mint) token by themselves. `fee` will be 0 as users will need to pay gas from their account. Requirements: - the account must have at least `amount` of `base token`. - the account must have sufficient eth to pay gas."
      },
      "name()": {
        "details": "Returns the name of the token."
      },
      "renounceRole(bytes32,address)": {
        "details": "Overload {renounceRole} to track enumerable memberships"
      },
      "revokeRole(bytes32,address)": {
        "details": "Overload {revokeRole} to track enumerable memberships"
      },
      "supportsInterface(bytes4)": {
        "details": "See {IERC165-supportsInterface}."
      },
      "symbol()": {
        "details": "Returns the symbol of the token, usually a shorter version of the name."
      },
      "totalSupply()": {
        "details": "See {IERC20-totalSupply}."
      },
      "transfer(address,address,uint256,uint256,uint256,bytes)": {
        "details": "Moves `amount` tokens from the `sender`'s account to `recipient` and moves `fee` tokens from the `sender`'s account to a relayer's address. Returns a boolean value indicating whether the operation succeeded. Emits two {Transfer} events. Requirements: - `recipient` cannot be the zero address. - the `sender` must have a balance of at least the sum of `amount` and `fee`. - the `nonce` is only used once per `sender`."
      },
      "transfer(address,uint256)": {
        "details": "See {IERC20-transfer}. Requirements: - `recipient` cannot be the zero address. - the caller must have a balance of at least `amount`."
      },
      "transferFrom(address,address,uint256)": {
        "details": "See {IERC20-transferFrom}. Emits an {Approval} event indicating the updated allowance. This is not required by the EIP. See the note at the beginning of {ERC20}. Requirements: - `sender` and `recipient` cannot be the zero address. - `sender` must have a balance of at least `amount`. - the caller must have allowance for ``sender``'s tokens of at least `amount`."
      }
    },
    "version": 1
  },
  "userdoc": {
    "kind": "user",
    "methods": {},
    "version": 1
  }
}