{
  "contractName": "Gluwacoin",
  "abi": [
    {
      "anonymous": false,
      "inputs": [
        {
          "indexed": true,
          "internalType": "address",
          "name": "owner",
          "type": "address"
        },
        {
          "indexed": true,
          "internalType": "address",
          "name": "spender",
          "type": "address"
        },
        {
          "indexed": false,
          "internalType": "uint256",
          "name": "value",
          "type": "uint256"
        }
      ],
      "name": "Approval",
      "type": "event"
    },
    {
      "anonymous": false,
      "inputs": [
        {
          "indexed": true,
          "internalType": "address",
          "name": "sender",
          "type": "address"
        },
        {
          "indexed": true,
          "internalType": "contract IERC20",
          "name": "token",
          "type": "address"
        },
        {
          "indexed": false,
          "internalType": "uint256",
          "name": "_value",
          "type": "uint256"
        }
      ],
      "name": "Locked",
      "type": "event"
    },
    {
      "anonymous": false,
      "inputs": [
        {
          "indexed": true,
          "internalType": "bytes32",
          "name": "role",
          "type": "bytes32"
        },
        {
          "indexed": true,
          "internalType": "bytes32",
          "name": "previousAdminRole",
          "type": "bytes32"
        },
        {
          "indexed": true,
          "internalType": "bytes32",
          "name": "newAdminRole",
          "type": "bytes32"
        }
      ],
      "name": "RoleAdminChanged",
      "type": "event"
    },
    {
      "anonymous": false,
      "inputs": [
        {
          "indexed": true,
          "internalType": "bytes32",
          "name": "role",
          "type": "bytes32"
        },
        {
          "indexed": true,
          "internalType": "address",
          "name": "account",
          "type": "address"
        },
        {
          "indexed": true,
          "internalType": "address",
          "name": "sender",
          "type": "address"
        }
      ],
      "name": "RoleGranted",
      "type": "event"
    },
    {
      "anonymous": false,
      "inputs": [
        {
          "indexed": true,
          "internalType": "bytes32",
          "name": "role",
          "type": "bytes32"
        },
        {
          "indexed": true,
          "internalType": "address",
          "name": "account",
          "type": "address"
        },
        {
          "indexed": true,
          "internalType": "address",
          "name": "sender",
          "type": "address"
        }
      ],
      "name": "RoleRevoked",
      "type": "event"
    },
    {
      "anonymous": false,
      "inputs": [
        {
          "indexed": true,
          "internalType": "address",
          "name": "from",
          "type": "address"
        },
        {
          "indexed": true,
          "internalType": "address",
          "name": "to",
          "type": "address"
        },
        {
          "indexed": false,
          "internalType": "uint256",
          "name": "value",
          "type": "uint256"
        }
      ],
      "name": "Transfer",
      "type": "event"
    },
    {
      "inputs": [],
      "name": "DEFAULT_ADMIN_ROLE",
      "outputs": [
        {
          "internalType": "bytes32",
          "name": "",
          "type": "bytes32"
        }
      ],
      "stateMutability": "view",
      "type": "function"
    },
    {
      "inputs": [],
      "name": "RELAYER_ROLE",
      "outputs": [
        {
          "internalType": "bytes32",
          "name": "",
          "type": "bytes32"
        }
      ],
      "stateMutability": "view",
      "type": "function"
    },
    {
      "inputs": [
        {
          "internalType": "address",
          "name": "owner",
          "type": "address"
        },
        {
          "internalType": "address",
          "name": "spender",
          "type": "address"
        }
      ],
      "name": "allowance",
      "outputs": [
        {
          "internalType": "uint256",
          "name": "",
          "type": "uint256"
        }
      ],
      "stateMutability": "view",
      "type": "function"
    },
    {
      "inputs": [
        {
          "internalType": "address",
          "name": "spender",
          "type": "address"
        },
        {
          "internalType": "uint256",
          "name": "amount",
          "type": "uint256"
        }
      ],
      "name": "approve",
      "outputs": [
        {
          "internalType": "bool",
          "name": "",
          "type": "bool"
        }
      ],
      "stateMutability": "nonpayable",
      "type": "function"
    },
    {
      "inputs": [
        {
          "internalType": "address",
          "name": "account",
          "type": "address"
        }
      ],
      "name": "balanceOf",
      "outputs": [
        {
          "internalType": "uint256",
          "name": "",
          "type": "uint256"
        }
      ],
      "stateMutability": "view",
      "type": "function"
    },
    {
      "inputs": [],
      "name": "decimals",
      "outputs": [
        {
          "internalType": "uint8",
          "name": "",
          "type": "uint8"
        }
      ],
      "stateMutability": "view",
      "type": "function"
    },
    {
      "inputs": [
        {
          "internalType": "address",
          "name": "spender",
          "type": "address"
        },
        {
          "internalType": "uint256",
          "name": "subtractedValue",
          "type": "uint256"
        }
      ],
      "name": "decreaseAllowance",
      "outputs": [
        {
          "internalType": "bool",
          "name": "",
          "type": "bool"
        }
      ],
      "stateMutability": "nonpayable",
      "type": "function"
    },
    {
      "inputs": [
        {
          "internalType": "address",
          "name": "sender",
          "type": "address"
        },
        {
          "internalType": "uint256",
          "name": "nonce",
          "type": "uint256"
        }
      ],
      "name": "execute",
      "outputs": [
        {
          "internalType": "bool",
          "name": "success",
          "type": "bool"
        }
      ],
      "stateMutability": "nonpayable",
      "type": "function"
    },
    {
      "inputs": [
        {
          "internalType": "address",
          "name": "account",
          "type": "address"
        },
        {
          "internalType": "contract IERC20",
          "name": "token",
          "type": "address"
        }
      ],
      "name": "getLocked",
      "outputs": [
        {
          "internalType": "uint256",
          "name": "",
          "type": "uint256"
        }
      ],
      "stateMutability": "view",
      "type": "function"
    },
    {
      "inputs": [
        {
          "internalType": "address",
          "name": "sender",
          "type": "address"
        },
        {
          "internalType": "uint256",
          "name": "nonce",
          "type": "uint256"
        }
      ],
      "name": "getReservation",
      "outputs": [
        {
          "internalType": "uint256",
          "name": "amount",
          "type": "uint256"
        },
        {
          "internalType": "uint256",
          "name": "fee",
          "type": "uint256"
        },
        {
          "internalType": "address",
          "name": "recipient",
          "type": "address"
        },
        {
          "internalType": "address",
          "name": "executor",
          "type": "address"
        },
        {
          "internalType": "uint256",
          "name": "expiryBlockNum",
          "type": "uint256"
        },
        {
          "internalType": "enum ERC20Reservable.ReservationStatus",
          "name": "status",
          "type": "uint8"
        }
      ],
      "stateMutability": "view",
      "type": "function"
    },
    {
      "inputs": [
        {
          "internalType": "bytes32",
          "name": "role",
          "type": "bytes32"
        }
      ],
      "name": "getRoleAdmin",
      "outputs": [
        {
          "internalType": "bytes32",
          "name": "",
          "type": "bytes32"
        }
      ],
      "stateMutability": "view",
      "type": "function"
    },
    {
      "inputs": [
        {
          "internalType": "bytes32",
          "name": "role",
          "type": "bytes32"
        },
        {
          "internalType": "uint256",
          "name": "index",
          "type": "uint256"
        }
      ],
      "name": "getRoleMember",
      "outputs": [
        {
          "internalType": "address",
          "name": "",
          "type": "address"
        }
      ],
      "stateMutability": "view",
      "type": "function"
    },
    {
      "inputs": [
        {
          "internalType": "bytes32",
          "name": "role",
          "type": "bytes32"
        }
      ],
      "name": "getRoleMemberCount",
      "outputs": [
        {
          "internalType": "uint256",
          "name": "",
          "type": "uint256"
        }
      ],
      "stateMutability": "view",
      "type": "function"
    },
    {
      "inputs": [
        {
          "internalType": "contract IERC20",
          "name": "token",
          "type": "address"
        }
      ],
      "name": "getTokenExchangeDetails",
      "outputs": [
        {
          "components": [
            {
              "internalType": "uint32",
              "name": "rate",
              "type": "uint32"
            },
            {
              "internalType": "uint32",
              "name": "decimalPlaceBase",
              "type": "uint32"
            }
          ],
          "internalType": "struct GluwacoinModel.TokenExchangeModel",
          "name": "",
          "type": "tuple"
        }
      ],
      "stateMutability": "view",
      "type": "function"
    },
    {
      "inputs": [
        {
          "internalType": "bytes32",
          "name": "role",
          "type": "bytes32"
        },
        {
          "internalType": "address",
          "name": "account",
          "type": "address"
        }
      ],
      "name": "grantRole",
      "outputs": [],
      "stateMutability": "nonpayable",
      "type": "function"
    },
    {
      "inputs": [
        {
          "internalType": "bytes32",
          "name": "role",
          "type": "bytes32"
        },
        {
          "internalType": "address",
          "name": "account",
          "type": "address"
        }
      ],
      "name": "hasRole",
      "outputs": [
        {
          "internalType": "bool",
          "name": "",
          "type": "bool"
        }
      ],
      "stateMutability": "view",
      "type": "function"
    },
    {
      "inputs": [
        {
          "internalType": "address",
          "name": "spender",
          "type": "address"
        },
        {
          "internalType": "uint256",
          "name": "addedValue",
          "type": "uint256"
        }
      ],
      "name": "increaseAllowance",
      "outputs": [
        {
          "internalType": "bool",
          "name": "",
          "type": "bool"
        }
      ],
      "stateMutability": "nonpayable",
      "type": "function"
    },
    {
      "inputs": [
        {
          "internalType": "contract IERC20",
          "name": "token",
          "type": "address"
        },
        {
          "internalType": "uint256",
          "name": "amount",
          "type": "uint256"
        }
      ],
      "name": "lock",
      "outputs": [
        {
          "internalType": "bool",
          "name": "",
          "type": "bool"
        }
      ],
      "stateMutability": "nonpayable",
      "type": "function"
    },
    {
      "inputs": [],
      "name": "name",
      "outputs": [
        {
          "internalType": "string",
          "name": "",
          "type": "string"
        }
      ],
      "stateMutability": "view",
      "type": "function"
    },
    {
      "inputs": [
        {
          "internalType": "address",
          "name": "sender",
          "type": "address"
        },
        {
          "internalType": "uint256",
          "name": "nonce",
          "type": "uint256"
        }
      ],
      "name": "reclaim",
      "outputs": [
        {
          "internalType": "bool",
          "name": "success",
          "type": "bool"
        }
      ],
      "stateMutability": "nonpayable",
      "type": "function"
    },
    {
      "inputs": [
        {
          "internalType": "bytes32",
          "name": "role",
          "type": "bytes32"
        },
        {
          "internalType": "address",
          "name": "account",
          "type": "address"
        }
      ],
      "name": "renounceRole",
      "outputs": [],
      "stateMutability": "nonpayable",
      "type": "function"
    },
    {
      "inputs": [
        {
          "internalType": "address",
          "name": "sender",
          "type": "address"
        },
        {
          "internalType": "address",
          "name": "recipient",
          "type": "address"
        },
        {
          "internalType": "address",
          "name": "executor",
          "type": "address"
        },
        {
          "internalType": "uint256",
          "name": "amount",
          "type": "uint256"
        },
        {
          "internalType": "uint256",
          "name": "fee",
          "type": "uint256"
        },
        {
          "internalType": "uint256",
          "name": "nonce",
          "type": "uint256"
        },
        {
          "internalType": "uint256",
          "name": "expiryBlockNum",
          "type": "uint256"
        },
        {
          "internalType": "bytes",
          "name": "sig",
          "type": "bytes"
        }
      ],
      "name": "reserve",
      "outputs": [
        {
          "internalType": "bool",
          "name": "success",
          "type": "bool"
        }
      ],
      "stateMutability": "nonpayable",
      "type": "function"
    },
    {
      "inputs": [
        {
          "internalType": "address",
          "name": "account",
          "type": "address"
        }
      ],
      "name": "reservedBalanceOf",
      "outputs": [
        {
          "internalType": "uint256",
          "name": "amount",
          "type": "uint256"
        }
      ],
      "stateMutability": "view",
      "type": "function"
    },
    {
      "inputs": [
        {
          "internalType": "bytes32",
          "name": "role",
          "type": "bytes32"
        },
        {
          "internalType": "address",
          "name": "account",
          "type": "address"
        }
      ],
      "name": "revokeRole",
      "outputs": [],
      "stateMutability": "nonpayable",
      "type": "function"
    },
    {
      "inputs": [
        {
          "internalType": "bytes4",
          "name": "interfaceId",
          "type": "bytes4"
        }
      ],
      "name": "supportsInterface",
      "outputs": [
        {
          "internalType": "bool",
          "name": "",
          "type": "bool"
        }
      ],
      "stateMutability": "view",
      "type": "function"
    },
    {
      "inputs": [],
      "name": "symbol",
      "outputs": [
        {
          "internalType": "string",
          "name": "",
          "type": "string"
        }
      ],
      "stateMutability": "view",
      "type": "function"
    },
    {
      "inputs": [],
      "name": "totalSupply",
      "outputs": [
        {
          "internalType": "uint256",
          "name": "",
          "type": "uint256"
        }
      ],
      "stateMutability": "view",
      "type": "function"
    },
    {
      "inputs": [
        {
          "internalType": "address",
          "name": "sender",
          "type": "address"
        },
        {
          "internalType": "address",
          "name": "recipient",
          "type": "address"
        },
        {
          "internalType": "uint256",
          "name": "amount",
          "type": "uint256"
        }
      ],
      "name": "transferFrom",
      "outputs": [
        {
          "internalType": "bool",
          "name": "",
          "type": "bool"
        }
      ],
      "stateMutability": "nonpayable",
      "type": "function"
    },
    {
      "inputs": [
        {
          "internalType": "address",
          "name": "account",
          "type": "address"
        }
      ],
      "name": "unreservedBalanceOf",
      "outputs": [
        {
          "internalType": "uint256",
          "name": "amount",
          "type": "uint256"
        }
      ],
      "stateMutability": "view",
      "type": "function"
    },
    {
      "inputs": [
        {
          "internalType": "contract IERC20",
          "name": "token",
          "type": "address"
        },
        {
          "internalType": "uint256",
          "name": "amount",
          "type": "uint256"
        }
      ],
      "name": "withdraw",
      "outputs": [
        {
          "internalType": "bool",
          "name": "",
          "type": "bool"
        }
      ],
      "stateMutability": "nonpayable",
      "type": "function"
    },
    {
      "inputs": [
        {
          "internalType": "string",
          "name": "name_",
          "type": "string"
        },
        {
          "internalType": "string",
          "name": "symbol_",
          "type": "string"
        }
      ],
      "name": "initialize",
      "outputs": [],
      "stateMutability": "nonpayable",
      "type": "function"
    },
    {
      "inputs": [
        {
          "internalType": "contract IERC20",
          "name": "token",
          "type": "address"
        },
        {
          "internalType": "uint8",
          "name": "decimals",
          "type": "uint8"
        },
        {
          "internalType": "uint32",
          "name": "newExchangeRate",
          "type": "uint32"
        },
        {
          "internalType": "uint32",
          "name": "newExchangeRateDecimalPlaceBase",
          "type": "uint32"
        }
      ],
      "name": "setTokenExchange",
      "outputs": [
        {
          "internalType": "bool",
          "name": "",
          "type": "bool"
        }
      ],
      "stateMutability": "nonpayable",
      "type": "function"
    },
    {
      "inputs": [
        {
          "internalType": "address",
          "name": "account",
          "type": "address"
        },
        {
          "internalType": "contract IERC20",
          "name": "token",
          "type": "address"
        },
        {
          "internalType": "uint256",
          "name": "amount",
          "type": "uint256"
        }
      ],
      "name": "lockFrom",
      "outputs": [
        {
          "internalType": "bool",
          "name": "",
          "type": "bool"
        }
      ],
      "stateMutability": "nonpayable",
      "type": "function"
    },
    {
      "inputs": [
        {
          "internalType": "address",
          "name": "account",
          "type": "address"
        },
        {
          "internalType": "contract IERC20",
          "name": "token",
          "type": "address"
        }
      ],
      "name": "convertAllFrom",
      "outputs": [
        {
          "internalType": "bool",
          "name": "",
          "type": "bool"
        }
      ],
      "stateMutability": "nonpayable",
      "type": "function"
    },
    {
      "inputs": [
        {
          "internalType": "address",
          "name": "account",
          "type": "address"
        },
        {
          "internalType": "contract IERC20",
          "name": "token",
          "type": "address"
        },
        {
          "internalType": "uint256",
          "name": "amount",
          "type": "uint256"
        }
      ],
      "name": "convertFrom",
      "outputs": [
        {
          "internalType": "bool",
          "name": "",
          "type": "bool"
        }
      ],
      "stateMutability": "nonpayable",
      "type": "function"
    },
    {
      "inputs": [
        {
          "internalType": "contract IERC20",
          "name": "token",
          "type": "address"
        },
        {
          "internalType": "uint256",
          "name": "amount",
          "type": "uint256"
        }
      ],
      "name": "convert",
      "outputs": [
        {
          "internalType": "bool",
          "name": "",
          "type": "bool"
        }
      ],
      "stateMutability": "nonpayable",
      "type": "function"
    },
    {
      "inputs": [
        {
          "internalType": "address",
          "name": "sender",
          "type": "address"
        },
        {
          "internalType": "address",
          "name": "recipient",
          "type": "address"
        },
        {
          "internalType": "uint256",
          "name": "amount",
          "type": "uint256"
        },
        {
          "internalType": "uint256",
          "name": "fee",
          "type": "uint256"
        },
        {
          "internalType": "uint256",
          "name": "nonce",
          "type": "uint256"
        },
        {
          "internalType": "bytes",
          "name": "sig",
          "type": "bytes"
        }
      ],
      "name": "transfer",
      "outputs": [
        {
          "internalType": "bool",
          "name": "success",
          "type": "bool"
        }
      ],
      "stateMutability": "nonpayable",
      "type": "function"
    },
    {
      "inputs": [
        {
          "internalType": "address",
          "name": "recipient",
          "type": "address"
        },
        {
          "internalType": "uint256",
          "name": "amount",
          "type": "uint256"
        }
      ],
      "name": "transfer",
      "outputs": [
        {
          "internalType": "bool",
          "name": "",
          "type": "bool"
        }
      ],
      "stateMutability": "nonpayable",
      "type": "function"
    }
  ],
  "bytecode": "0x608060405234801561001057600080fd5b5061324e806100206000396000f3fe608060405234801561001057600080fd5b50600436106101c15760003560e01c8062aa0bce146101c657806301ffc9a7146101ec57806306fdde031461020f578063095ea7b3146102245780630982d5b01461023757806318160ddd1461024a57806323b872dd14610252578063248a9ca314610265578063282d3fdf146102785780632f2ff15d1461028b578063313ce567146102a057806332ff99d1146102af57806336568abe146102c257806336bd063a146102d557806339509351146102e85780633b89bb86146102fb5780633c8796e01461030e5780634cd88b7614610321578063604abf9e14610334578063615a1e2c146103ba57806367c6e39c146103cd578063708e91e5146103e057806370a08231146103f357806380c9dcf7146104065780638bd317eb146104195780639010d07c1461042c57806391d1485414610457578063926d7d7f1461046a57806395d89b411461047f578063a217fddf14610487578063a22ac5a91461048f578063a457c2d714610504578063a86e6ee414610517578063a9059cbb14610551578063ca15c87314610564578063d547741f14610577578063dd62ed3e1461058a578063f3fef3a3146105c3575b600080fd5b6101d96101d4366004612915565b6105d6565b6040519081526020015b60405180910390f35b6101ff6101fa366004612b83565b6105fa565b60405190151581526020016101e3565b61021761061f565b6040516101e39190612dad565b6101ff610232366004612ad5565b6106b1565b6101ff610245366004612a50565b6106c7565b60cc546101d9565b6101ff610260366004612a0f565b6106e4565b6101d9610273366004612b23565b610739565b6101ff610286366004612ad5565b61074e565b61029e610299366004612b3c565b61075b565b005b604051601281526020016101e3565b6101ff6102bd366004612a0f565b610782565b61029e6102d0366004612b3c565b6107a3565b6101d96102e3366004612915565b6107c5565b6101ff6102f6366004612ad5565b6107d0565b6101ff610309366004612ad5565b610807565b6101ff61031c366004612932565b610a99565b61029e61032f366004612c0b565b610afd565b610396610342366004612915565b6040805180820190915260008082526020820152506001600160a01b03166000908152610135602090815260409182902082518084019093525463ffffffff8082168452600160201b909104169082015290565b60408051825163ffffffff90811682526020938401511692810192909252016101e3565b6101ff6103c8366004612bad565b610b89565b6101ff6103db366004612ad5565b610bf9565b6101ff6103ee366004612a0f565b610c06565b6101d9610401366004612915565b610c1e565b6101ff61041436600461296b565b610c39565b6101ff610427366004612ad5565b610fdf565b61043f61043a366004612b61565b61128b565b6040516001600160a01b0390911681526020016101e3565b6101ff610465366004612b3c565b6112a3565b6101d960008051602061319983398151915281565b6102176112ce565b6101d9600081565b6104f261049d366004612ad5565b6001600160a01b0391821660009081526101016020908152604080832093835292905220805460018201546002830154600384015460048501546005909501549396929591821694911692909160ff90911690565b6040516101e396959493929190612ec6565b6101ff610512366004612ad5565b6112dd565b6101d9610525366004612932565b6001600160a01b0391821660009081526101386020908152604080832093909416825291909152205490565b6101ff61055f366004612ad5565b61131c565b6101d9610572366004612b23565b611329565b61029e610585366004612b3c565b611340565b6101d9610598366004612932565b6001600160a01b03918216600090815260cb6020908152604080832093909416825291909152205490565b6101ff6105d1366004612ad5565b61134a565b60006105e182611476565b6105ea83610c1e565b6105f4919061305a565b92915050565b60006001600160e01b03198216635a05180f60e01b14806105f457506105f482611499565b606060cd805461062e906130d7565b80601f016020809104026020016040519081016040528092919081815260200182805461065a906130d7565b80156106a75780601f1061067c576101008083540402835291602001916106a7565b820191906000526020600020905b81548152906001019060200180831161068a57829003601f168201915b5050505050905090565b60006106be3384846114ce565b50600192915050565b60006106d8888888888888886115ae565b98975050505050505050565b60006106f18484846116d4565b6001600160a01b038416600090815260cb60209081526040808320338085529252909120549061072c908690610727868561305a565b6114ce565b60019150505b9392505050565b60009081526065602052604090206001015490565b6000610732338484611801565b61076582826119bf565b600082815260976020526040902061077d90826119dc565b505050565b60008061078f81336119f1565b61079a858585611a59565b95945050505050565b6107ad8282611a7f565b600082815260976020526040902061077d9082611af9565b60006105f482611476565b33600081815260cb602090815260408083206001600160a01b038716845290915281205490916106be918590610727908690612f13565b6001600160a01b038216600090815261010160209081526040808320848452909152812060048101546108555760405162461bcd60e51b815260040161084c90612e7b565b60405180910390fd5b336001600160a01b0385161480610881575060038101546001600160a01b0316336001600160a01b0316145b6109075760405162461bcd60e51b815260206004820152604b60248201527f455243323052657365727661626c653a2074686973206164647265737320697360448201527f206e6f7420617574686f72697a656420746f206578656375746520746869732060648201526a3932b9b2b93b30ba34b7b760a91b608482015260a40161084c565b4381600401541161096e5760405162461bcd60e51b815260206004820152603f60248201526000805160206131b983398151915260448201527f206578706972656420616e642063616e6e6f7420626520657865637574656400606482015260840161084c565b6001600582015460ff16600381111561098957610989613128565b146109e35760405162461bcd60e51b815260206004820152603660248201526000805160206131f983398151915260448201527574696f6e2073746174757320746f206578656375746560501b606482015260840161084c565b60038101546002820154600183015483546001600160a01b0393841693909216916000610a108383612f13565b6001600160a01b038a166000818152610101602090815260408083208d84528252808320600501805460ff1916600317905592825261010290522054909150610a5a90829061305a565b6001600160a01b038a1660009081526101026020526040902055610a7f8986856116d4565b610a8a8985846116d4565b50600198975050505050505050565b600080610aa681336119f1565b6001600160a01b0380851660009081526101386020908152604080832093871683529290522054610ad8858583611b0e565b506000610ae58583611b55565b9050610af18682611bf9565b50600195945050505050565b600054610100900460ff1680610b16575060005460ff16155b610b325760405162461bcd60e51b815260040161084c90612e2d565b600054610100900460ff16158015610b54576000805461ffff19166101011790555b610b5e8383611cd2565b610b686012611d4b565b610b73600033611dc7565b801561077d576000805461ff0019169055505050565b600080610b9681336119f1565b6001600160a01b038616600090815261013660209081526040808320805460ff8a1660ff199091161790556101359091529020805463ffffffff858116600160201b026001600160401b03199092169087161717905560015b9695505050505050565b6000610732338484611a59565b600080610c1381336119f1565b61079a858585611801565b6001600160a01b0316600090815260ca602052604090205490565b6001600160a01b03891660009081526101016020908152604080832087845290915281206004015415610cc95760405162461bcd60e51b815260206004820152603260248201527f455243323052657365727661626c653a207468652073656e646572207573656460448201527120746865206e6f6e636520616c726561647960701b606482015260840161084c565b438411610d2d5760405162461bcd60e51b815260206004820152602c60248201527f455243323052657365727661626c653a20696e76616c696420626c6f636b206560448201526b3c3834b93c90373ab6b132b960a11b606482015260840161084c565b6001600160a01b038816610d9d5760405162461bcd60e51b815260206004820152603160248201527f455243323052657365727661626c653a2063616e6e6f7420657865637574652060448201527066726f6d207a65726f206164647265737360781b606482015260840161084c565b6000610da98789612f13565b905080610db58c611476565b1015610e1c5760405162461bcd60e51b815260206004820152603060248201527f455243323052657365727661626c653a20696e73756666696369656e7420756e60448201526f72657365727665642062616c616e636560801b606482015260840161084c565b6000600446308e8e8d8d8d8d604051602001610e4099989796959493929190612cdf565b604051602081830303815290604052805190602001209050610e99818d87878080601f016020809104026020016040519081016040528093929190818152602001838380828437600092019190915250611dd192505050565b506040518060c001604052808a81526020018981526020018c6001600160a01b031681526020018b6001600160a01b0316815260200187815260200160016003811115610ee857610ee8613128565b90526001600160a01b03808e166000908152610101602090815260408083208c84528252918290208451815590840151600180830191909155918401516002820180549185166001600160a01b03199283161790556060850151600380840180549290961691909216179093556080840151600482015560a084015160058201805492949193909260ff1916918490811115610f8657610f86613128565b021790555050506001600160a01b038c1660009081526101026020526040902054610fb2908390612f13565b6001600160a01b038d16600090815261010260205260409020555060019150509998505050505050505050565b6001600160a01b038216600090815261010160209081526040808320848452909152812060048101546110245760405162461bcd60e51b815260040161084c90612e7b565b336001600160a01b0385161480611050575060038101546001600160a01b0316336001600160a01b0316145b6110e85760405162461bcd60e51b815260206004820152605f60248201527f455243323052657365727661626c653a206f6e6c79207468652073656e64657260448201527f206f7220746865206578656375746f722063616e207265636c61696d2074686560648201527f207265736572766174696f6e206261636b20746f207468652073656e64657200608482015260a40161084c565b438160040154111580611110575060038101546001600160a01b0316336001600160a01b0316145b6111965760405162461bcd60e51b815260206004820152606060248201526000805160206131b983398151915260448201527f206e6f742065787069726564206f7220796f7520617265206e6f74207468652060648201527f6578656375746f7220616e642063616e6e6f74206265207265636c61696d6564608482015260a40161084c565b6001600582015460ff1660038111156111b1576111b1613128565b1461120b5760405162461bcd60e51b815260206004820152603660248201526000805160206131f983398151915260448201527574696f6e2073746174757320746f207265636c61696d60501b606482015260840161084c565b6001600160a01b0384166000818152610101602090815260408083208784528252808320600501805460ff191660021790556001850154855494845261010290925290912054909161125c9161305a565b611266919061305a565b6001600160a01b03851660009081526101026020526040902055506001905092915050565b60008281526097602052604081206107329083611e99565b60009182526065602090815260408084206001600160a01b0393909316845291905290205460ff1690565b606060ce805461062e906130d7565b33600081815260cb602090815260408083206001600160a01b038716845290915281205490916113129085610727868561305a565b5060019392505050565b60006106be3384846116d4565b60008181526097602052604081206105f490611ea5565b6107ad8282611eaf565b336000908152610138602090815260408083206001600160a01b038616845290915281208054839190839061138090849061305a565b90915550506001600160a01b03831663a9059cbb336040516001600160e01b031960e084901b1681526001600160a01b03909116600482015260248101859052604401602060405180830381600087803b1580156113dd57600080fd5b505af11580156113f1573d6000803e3d6000fd5b505050506040513d601f19601f820116820180604052508101906114159190612b01565b6106be5760405162461bcd60e51b815260206004820152602c60248201527f436f6e7665727469626c653a2043616e2774207769746864726177207468652060448201526b1d1bdad95b88185b5bdd5b9d60a21b606482015260840161084c565b6001600160a01b038116600090815261010260205260408120546105ea83610c1e565b60006001600160e01b03198216637965db0b60e01b14806105f457506301ffc9a760e01b6001600160e01b03198316146105f4565b6001600160a01b038316158015906114ee57506001600160a01b03821615155b61154d5760405162461bcd60e51b815260206004820152602a60248201527f45524332303a20617070726f76652066726f6d206f7220746f20746865207a65604482015269726f206164647265737360b01b606482015260840161084c565b6001600160a01b03838116600081815260cb602090815260408083209487168084529482529182902085905590518481527f8c5be1e5ebec7d5bd14f71427d1e84f3dd0314c0f7b2291e5b200ac8c7c3b925910160405180910390a3505050565b6000806115ba89610c1e565b90506115c68688612f13565b8110156116295760405162461bcd60e51b815260206004820152602b60248201527f45524332304554486c6573733a207468652062616c616e6365206973206e6f7460448201526a081cdd59999a58da595b9d60aa1b606482015260840161084c565b6116338986611ecc565b6000600346308c8c8c8c8c604051602001611655989796959493929190612c85565b6040516020818303038152906040528051906020012090506116ae818b87878080601f016020809104026020016040519081016040528093929190818152602001838380828437600092019190915250611dd192505050565b506116b98a88611f94565b6116c48a8a8a6116d4565b5060019998505050505050505050565b6001600160a01b038316158015906116f457506001600160a01b03821615155b6117545760405162461bcd60e51b815260206004820152602b60248201527f45524332303a207472616e736665722066726f6d206f7220746f20746865207a60448201526a65726f206164647265737360a81b606482015260840161084c565b61175f838383611fbc565b6001600160a01b038316600090815260ca6020526040902054611782828261305a565b6001600160a01b03808616600090815260ca602052604080822093909355908516815290812080548492906117b8908490612f13565b92505081905550826001600160a01b0316846001600160a01b03166000805160206131d9833981519152846040516117f291815260200190565b60405180910390a35b50505050565b6001600160a01b0382166000908152610135602052604081205463ffffffff1661183d5760405162461bcd60e51b815260040161084c90612de0565b6040516323b872dd60e01b81526001600160a01b038581166004830152306024830152604482018490528416906323b872dd90606401602060405180830381600087803b15801561188d57600080fd5b505af11580156118a1573d6000803e3d6000fd5b505050506040513d601f19601f820116820180604052508101906118c59190612b01565b6119225760405162461bcd60e51b815260206004820152602860248201527f436f6e7665727469626c653a2043616e2774206c6f636b2074686520746f6b656044820152671b88185b5bdd5b9d60c21b606482015260840161084c565b6001600160a01b0380851660009081526101386020908152604080832093871683529290522054611954908390612f13565b6001600160a01b03858116600081815261013860209081526040808320948916808452948252918290209490945551858152919290917f989eaa915cbb416ea3d6f9a63b1a3de51770c7674b11fe21ecdf76b4e1d13910910160405180910390a35060019392505050565b6119c882610739565b6119d281336119f1565b61077d8383611fc7565b6000610732836001600160a01b03841661204d565b6119fb82826112a3565b611a5557611a13816001600160a01b0316601461209c565b611a1e83602061209c565b604051602001611a2f929190612d3e565b60408051601f198184030181529082905262461bcd60e51b825261084c91600401612dad565b5050565b6000611a66848484611b0e565b506000611a738484611b55565b905061072c8582611bf9565b6001600160a01b0381163314611aef5760405162461bcd60e51b815260206004820152602f60248201527f416363657373436f6e74726f6c3a2063616e206f6e6c792072656e6f756e636560448201526e103937b632b9903337b91039b2b63360891b606482015260840161084c565b611a558282612237565b6000610732836001600160a01b03841661229e565b6001600160a01b03808416600090815261013860209081526040808320938616835292905290812080548391908390611b4890849061305a565b9091555091949350505050565b6001600160a01b038216600090815261013560205260408120805463ffffffff16611b925760405162461bcd60e51b815260040161084c90612de0565b6001600160a01b0384166000908152610136602090815260408083205461013754610135909352922054611bf19260ff90811692169063ffffffff600160201b8204811691611be291168861303b565b611bec9190612f2b565b612391565b949350505050565b6001600160a01b038216611c4f5760405162461bcd60e51b815260206004820152601f60248201527f45524332303a206d696e7420746f20746865207a65726f206164647265737300604482015260640161084c565b611c5b60008383611fbc565b8060cc6000828254611c6d9190612f13565b90915550506001600160a01b038216600090815260ca602052604081208054839290611c9a908490612f13565b90915550506040518181526001600160a01b038316906000906000805160206131d98339815191529060200160405180910390a35050565b600054610100900460ff1680611ceb575060005460ff16155b611d075760405162461bcd60e51b815260040161084c90612e2d565b600054610100900460ff16158015611d29576000805461ffff19166101011790555b611d3383836123e6565b610b7360008051602061319983398151915233611dc7565b600054610100900460ff1680611d64575060005460ff16155b611d805760405162461bcd60e51b815260040161084c90612e2d565b600054610100900460ff16158015611da2576000805461ffff19166101011790555b610137805460ff191660ff84161790558015611a55576000805461ff00191690555050565b610765828261247b565b600080611e2a856040517b0ca2ba3432b932bab69029b4b3b732b21026b2b9b9b0b3b29d05199960211b6020820152603c8101829052600090605c01604051602081830303815290604052805190602001209050919050565b90506000611e388285612485565b9050846001600160a01b0316816001600160a01b031614610af15760405162461bcd60e51b815260206004820152601b60248201527a56616c69646174653a20696e76616c6964207369676e617475726560281b604482015260640161084c565b60006107328383612529565b60006105f4825490565b611eb882610739565b611ec281336119f1565b61077d8383612237565b6001600160a01b038216600090815261016b6020908152604080832084845290915290205460ff1615611f635760405162461bcd60e51b815260206004820152603960248201527f4554486c6573733a20746865206e6f6e63652068617320616c7265616479206260448201527865656e207573656420666f722074686973206164647265737360381b606482015260840161084c565b6001600160a01b03909116600090815261016b6020908152604080832093835292905220805460ff19166001179055565b6000611faf600080516020613199833981519152600061128b565b905061077d8382846116d4565b61077d838383612553565b611fd182826112a3565b611a555760008281526065602090815260408083206001600160a01b03851684529091529020805460ff191660011790556120093390565b6001600160a01b0316816001600160a01b0316837f2f8788117e7eff1d82e926ec794901d17c78024a50270940304540a733656f0d60405160405180910390a45050565b6000818152600183016020526040812054612094575081546001818101845560008481526020808220909301849055845484825282860190935260409020919091556105f4565b5060006105f4565b606060006120ab83600261303b565b6120b6906002612f13565b6001600160401b038111156120cd576120cd61316a565b6040519080825280601f01601f1916602001820160405280156120f7576020820181803683370190505b509050600360fc1b8160008151811061211257612112613154565b60200101906001600160f81b031916908160001a905350600f60fb1b8160018151811061214157612141613154565b60200101906001600160f81b031916908160001a905350600061216584600261303b565b612170906001612f13565b90505b60018111156121e8576f181899199a1a9b1b9c1cb0b131b232b360811b85600f16601081106121a4576121a4613154565b1a60f81b8282815181106121ba576121ba613154565b60200101906001600160f81b031916908160001a90535060049490941c936121e1816130c0565b9050612173565b5083156107325760405162461bcd60e51b815260206004820181905260248201527f537472696e67733a20686578206c656e67746820696e73756666696369656e74604482015260640161084c565b61224182826112a3565b15611a555760008281526065602090815260408083206001600160a01b0385168085529252808320805460ff1916905551339285917ff6391f5c32d9c69d2a47ea670b442974b53935d1edc7fd64eb21e047a839171b9190a45050565b600081815260018301602052604081205480156123875760006122c260018361305a565b85549091506000906122d69060019061305a565b905081811461233b5760008660000182815481106122f6576122f6613154565b906000526020600020015490508087600001848154811061231957612319613154565b6000918252602080832090910192909255918252600188019052604090208390555b855486908061234c5761234c61313e565b6001900381819060005260206000200160009055905585600101600086815260200190815260200160002060009055600193505050506105f4565b60009150506105f4565b60008260ff168460ff1610156123c7576123ab8484613071565b6123b690600a612f90565b6123c0908361303b565b9050610732565b6123d18385613071565b6123dc90600a612f90565b6123c09083612f2b565b600054610100900460ff16806123ff575060005460ff16155b61241b5760405162461bcd60e51b815260040161084c90612e2d565b600054610100900460ff1615801561243d576000805461ffff19166101011790555b82516124509060cd90602086019061278f565b5081516124649060ce90602085019061278f565b50801561077d576000805461ff0019169055505050565b611a558282611fc7565b60008151604114156124b95760208201516040830151606084015160001a6124af868285856125de565b93505050506105f4565b8151604014156124e157602082015160408301516124d885838361276f565b925050506105f4565b60405162461bcd60e51b815260206004820152601f60248201527f45434453413a20696e76616c6964207369676e6174757265206c656e67746800604482015260640161084c565b600082600001828154811061254057612540613154565b9060005260206000200154905092915050565b6001600160a01b0383161561077d578061256c84611476565b101561077d5760405162461bcd60e51b815260206004820152603b60248201527f455243323052657365727661626c653a207472616e7366657220616d6f756e7460448201527a206578636565647320756e72657365727665642062616c616e636560281b606482015260840161084c565b60006fa2a8918ca85bafe22016d0b997e4df60600160ff1b038211156126515760405162461bcd60e51b815260206004820152602260248201527f45434453413a20696e76616c6964207369676e6174757265202773272076616c604482015261756560f01b606482015260840161084c565b8360ff16601b148061266657508360ff16601c145b6126bd5760405162461bcd60e51b815260206004820152602260248201527f45434453413a20696e76616c6964207369676e6174757265202776272076616c604482015261756560f01b606482015260840161084c565b6040805160008082526020820180845288905260ff871692820192909252606081018590526080810184905260019060a0016020604051602081039080840390855afa158015612711573d6000803e3d6000fd5b5050604051601f1901519150506001600160a01b03811661079a5760405162461bcd60e51b815260206004820152601860248201527745434453413a20696e76616c6964207369676e617475726560401b604482015260640161084c565b60006001600160ff1b03821660ff83901c601b01610bef868287856125de565b82805461279b906130d7565b90600052602060002090601f0160209004810192826127bd5760008555612803565b82601f106127d657805160ff1916838001178555612803565b82800160010185558215612803579182015b828111156128035782518255916020019190600101906127e8565b5061280f929150612813565b5090565b5b8082111561280f5760008155600101612814565b60008083601f84011261283a57600080fd5b5081356001600160401b0381111561285157600080fd5b60208301915083602082850101111561286957600080fd5b9250929050565b600082601f83011261288157600080fd5b81356001600160401b038082111561289b5761289b61316a565b604051601f8301601f19908116603f011681019082821181831017156128c3576128c361316a565b816040528381528660208588010111156128dc57600080fd5b836020870160208301376000602085830101528094505050505092915050565b803563ffffffff8116811461291057600080fd5b919050565b60006020828403121561292757600080fd5b813561073281613180565b6000806040838503121561294557600080fd5b823561295081613180565b9150602083013561296081613180565b809150509250929050565b60008060008060008060008060006101008a8c03121561298a57600080fd5b893561299581613180565b985060208a01356129a581613180565b975060408a01356129b581613180565b965060608a0135955060808a0135945060a08a0135935060c08a0135925060e08a01356001600160401b038111156129ec57600080fd5b6129f88c828d01612828565b915080935050809150509295985092959850929598565b600080600060608486031215612a2457600080fd5b8335612a2f81613180565b92506020840135612a3f81613180565b929592945050506040919091013590565b600080600080600080600060c0888a031215612a6b57600080fd5b8735612a7681613180565b96506020880135612a8681613180565b955060408801359450606088013593506080880135925060a08801356001600160401b03811115612ab657600080fd5b612ac28a828b01612828565b989b979a50959850939692959293505050565b60008060408385031215612ae857600080fd5b8235612af381613180565b946020939093013593505050565b600060208284031215612b1357600080fd5b8151801515811461073257600080fd5b600060208284031215612b3557600080fd5b5035919050565b60008060408385031215612b4f57600080fd5b82359150602083013561296081613180565b60008060408385031215612b7457600080fd5b50508035926020909101359150565b600060208284031215612b9557600080fd5b81356001600160e01b03198116811461073257600080fd5b60008060008060808587031215612bc357600080fd5b8435612bce81613180565b9350602085013560ff81168114612be457600080fd5b9250612bf2604086016128fc565b9150612c00606086016128fc565b905092959194509250565b60008060408385031215612c1e57600080fd5b82356001600160401b0380821115612c3557600080fd5b612c4186838701612870565b93506020850135915080821115612c5757600080fd5b50612c6485828601612870565b9150509250929050565b60058110612c7e57612c7e613128565b60f81b9052565b612c8f818a612c6e565b60018101979097526001600160601b0319606096871b8116602189015294861b851660358801529290941b9092166049850152605d840191909152607d830191909152609d82015260bd01919050565b612ce9818b612c6e565b60018101989098526001600160601b0319606097881b811660218a015295871b861660358901529390951b9093166049860152605d850152607d840191909152609d83019190915260bd82015260dd01919050565b76020b1b1b2b9b9a1b7b73a3937b61d1030b1b1b7bab73a1604d1b815260008351612d70816017850160208801613094565b7001034b99036b4b9b9b4b733903937b6329607d1b6017918401918201528351612da1816028840160208801613094565b01602801949350505050565b6020815260008251806020840152612dcc816040850160208701613094565b601f01601f19169190910160400192915050565b6020808252602d908201527f436f6e7665727469626c653a20546865206261736520746f6b656e206973206e60408201526c37ba1039bab83837b93a32b21760991b606082015260800190565b6020808252602e908201527f496e697469616c697a61626c653a20636f6e747261637420697320616c72656160408201526d191e481a5b9a5d1a585b1a5e995960921b606082015260800190565b6020808252602b908201527f455243323052657365727661626c653a207265736572766174696f6e20646f6560408201526a1cc81b9bdd08195e1a5cdd60aa1b606082015260800190565b868152602081018690526001600160a01b038581166040830152841660608201526080810183905260c0810160048310612f0257612f02613128565b8260a0830152979650505050505050565b60008219821115612f2657612f26613112565b500190565b600082612f4857634e487b7160e01b600052601260045260246000fd5b500490565b600181815b80851115612f88578160001904821115612f6e57612f6e613112565b80851615612f7b57918102915b93841c9390800290612f52565b509250929050565b600061073260ff841683600082612fa9575060016105f4565b81612fb6575060006105f4565b8160018114612fcc5760028114612fd657612ff2565b60019150506105f4565b60ff841115612fe757612fe7613112565b50506001821b6105f4565b5060208310610133831016604e8410600b8410161715613015575081810a6105f4565b61301f8383612f4d565b806000190482111561303357613033613112565b029392505050565b600081600019048311821515161561305557613055613112565b500290565b60008282101561306c5761306c613112565b500390565b600060ff821660ff84168082101561308b5761308b613112565b90039392505050565b60005b838110156130af578181015183820152602001613097565b838111156117fb5750506000910152565b6000816130cf576130cf613112565b506000190190565b600181811c908216806130eb57607f821691505b6020821081141561310c57634e487b7160e01b600052602260045260246000fd5b50919050565b634e487b7160e01b600052601160045260246000fd5b634e487b7160e01b600052602160045260246000fd5b634e487b7160e01b600052603160045260246000fd5b634e487b7160e01b600052603260045260246000fd5b634e487b7160e01b600052604160045260246000fd5b6001600160a01b038116811461319557600080fd5b5056fee2b7fb3b832174769106daebcfd6d1970523240dda11281102db9363b83b0dc4455243323052657365727661626c653a207265736572766174696f6e20686173ddf252ad1be2c89b69c2b068fc378daa952ba7f163c4a11628f55a4df523b3ef455243323052657365727661626c653a20696e76616c69642072657365727661a26469706673582212207421c85b1983bb6a254c2c7412d7ee94d595cf0bc6ab8f013ba036862d52e73b64736f6c63430008070033",
  "immutableReferences": {},
  "source": "// SPDX-License-Identifier: MIT\npragma solidity >=0.8.6;\n\nimport \"./abstracts/ContextUpgradeable.sol\";\nimport \"./abstracts/ERC20Reservable.sol\";\nimport \"./abstracts/Convertible.sol\";\nimport \"./abstracts/ETHlessTransfer.sol\";\n\n/**\n * @dev Extension of {ERC20} that adds a set of accounts with the {MinterRole},\n * which have permission to mint (create) new tokens as they see fit.\n *\n * At construction, the deployer of the contract is the only minter.\n */\ncontract Gluwacoin is\n    ContextUpgradeable,\n    ERC20Reservable,\n    Convertible,\n    ETHlessTransfer\n{\n    function initialize(string memory name_, string memory symbol_)\n        external\n        initializer\n    {\n        __ERC20ETHless_init_unchained(name_, symbol_);\n        __Convertible_init_unchained(decimals());\n        _setupRole(DEFAULT_ADMIN_ROLE, _msgSender());\n    }\n\n    function setTokenExchange(\n        IERC20 token,\n        uint8 decimals,\n        uint32 newExchangeRate,\n        uint32 newExchangeRateDecimalPlaceBase\n    ) external onlyRole(DEFAULT_ADMIN_ROLE) returns (bool) {\n        return\n            _setTokenExchange(\n                token,\n                decimals,\n                newExchangeRate,\n                newExchangeRateDecimalPlaceBase\n            );\n    }\n\n    function lockFrom(\n        address account,\n        IERC20 token,\n        uint256 amount\n    ) external onlyRole(DEFAULT_ADMIN_ROLE) returns (bool) {\n        return _lockFrom(account, token, amount);\n    }\n\n    function convertAllFrom(address account, IERC20 token)\n        external\n        onlyRole(DEFAULT_ADMIN_ROLE)\n        returns (bool)\n    {\n        uint256 lockedAmount = _locks[account][token];\n        _release(account, token, lockedAmount);\n\n        uint256 convertedAmount = _calculateConversion(token, lockedAmount);\n        _mint(account, convertedAmount);\n\n        return true;\n    }\n\n    function convertFrom(\n        address account,\n        IERC20 token,\n        uint256 amount\n    ) external onlyRole(DEFAULT_ADMIN_ROLE) returns (bool) {\n        return _convert(account, token, amount);\n    }\n\n    function convert(IERC20 token, uint256 amount) external returns (bool) {\n        return _convert(_msgSender(), token, amount);\n    }\n\n    function _convert(\n        address account,\n        IERC20 token,\n        uint256 amount\n    ) private returns (bool) {\n        _release(account, token, amount);\n\n        uint256 convertedAmount = _calculateConversion(token, amount);\n        _mint(account, convertedAmount);\n\n        return true;\n    }\n\n     function transfer(\n        address sender,\n        address recipient,\n        uint256 amount,\n        uint256 fee,\n        uint256 nonce,\n        bytes calldata sig\n    ) external virtual returns (bool success) {\n        return _transfer(sender, recipient, amount, fee, nonce,sig);\n    }\n\n    /** @dev check the amount of available tokens of sender to transfer.\n     * Must override all the parent's functions\n     * Do 2 checks:\n     * - Total balance must be equal or higher than the transferring amount.\n     * - Unreserving (the amount of tokens are not put as a reserve) must be equal or higher than the transferring amount.\n     */\n\n    function _beforeTokenTransfer(\n        address from,\n        address to,\n        uint256 amount\n    ) internal override(ETHlessTransfer, ERC20Reservable) {\n        ETHlessTransfer._beforeTokenTransfer(from, to, amount);\n        ERC20Reservable._beforeTokenTransfer(from, to, amount);\n    }\n\n    uint256[50] private __gap;\n}\n",
  "sourcePath": "/home/osboxes/KRWC-G-1/contracts/Gluwacoin.sol",
  "compiler": {
    "name": "solc",
    "version": "0.8.7+commit.e28d00a7.Emscripten.clang"
  },
  "schemaVersion": "3.3.4",
  "updatedAt": "2021-08-13T23:43:40.072Z",
  "devdoc": {
    "details": "Extension of {ERC20} that adds a set of accounts with the {MinterRole}, which have permission to mint (create) new tokens as they see fit. At construction, the deployer of the contract is the only minter.",
    "kind": "dev",
    "methods": {
      "allowance(address,address)": {
        "details": "See {IERC20-allowance}."
      },
      "approve(address,uint256)": {
        "details": "See {IERC20-approve}. Requirements: - `spender` cannot be the zero address."
      },
      "balanceOf(address)": {
        "details": "See {IERC20-balanceOf}."
      },
      "decimals()": {
        "details": "Returns the number of decimals used to get its user representation. For example, if `decimals` equals `2`, a balance of `505` tokens should be displayed to a user as `5,05` (`505 / 10 ** 2`). Tokens usually opt for a value of 18, imitating the relationship between Ether and Wei. This is the value {ERC20} uses, unless this function is overridden; NOTE: This information is only used for _display_ purposes: it in no way affects any of the arithmetic of the contract, including {IERC20-balanceOf} and {IERC20-transfer}."
      },
      "decreaseAllowance(address,uint256)": {
        "details": "Atomically decreases the allowance granted to `spender` by the caller. This is an alternative to {approve} that can be used as a mitigation for problems described in {IERC20-approve}. Emits an {Approval} event indicating the updated allowance. Requirements: - `spender` cannot be the zero address. - `spender` must have allowance for the caller of at least `subtractedValue`."
      },
      "getRoleAdmin(bytes32)": {
        "details": "Returns the admin role that controls `role`. See {grantRole} and {revokeRole}. To change a role's admin, use {_setRoleAdmin}."
      },
      "getRoleMember(bytes32,uint256)": {
        "details": "Returns one of the accounts that have `role`. `index` must be a value between 0 and {getRoleMemberCount}, non-inclusive. Role bearers are not sorted in any particular way, and their ordering may change at any point. WARNING: When using {getRoleMember} and {getRoleMemberCount}, make sure you perform all queries on the same block. See the following https://forum.openzeppelin.com/t/iterating-over-elements-on-enumerableset-in-openzeppelin-contracts/2296[forum post] for more information."
      },
      "getRoleMemberCount(bytes32)": {
        "details": "Returns the number of accounts that have `role`. Can be used together with {getRoleMember} to enumerate all bearers of a role."
      },
      "grantRole(bytes32,address)": {
        "details": "Overload {grantRole} to track enumerable memberships"
      },
      "hasRole(bytes32,address)": {
        "details": "Returns `true` if `account` has been granted `role`."
      },
      "increaseAllowance(address,uint256)": {
        "details": "Atomically increases the allowance granted to `spender` by the caller. This is an alternative to {approve} that can be used as a mitigation for problems described in {IERC20-approve}. Emits an {Approval} event indicating the updated allowance. Requirements: - `spender` cannot be the zero address."
      },
      "name()": {
        "details": "Returns the name of the token."
      },
      "renounceRole(bytes32,address)": {
        "details": "Overload {renounceRole} to track enumerable memberships"
      },
      "revokeRole(bytes32,address)": {
        "details": "Overload {revokeRole} to track enumerable memberships"
      },
      "supportsInterface(bytes4)": {
        "details": "See {IERC165-supportsInterface}."
      },
      "symbol()": {
        "details": "Returns the symbol of the token, usually a shorter version of the name."
      },
      "totalSupply()": {
        "details": "See {IERC20-totalSupply}."
      },
      "transfer(address,uint256)": {
        "details": "See {IERC20-transfer}. Requirements: - `recipient` cannot be the zero address. - the caller must have a balance of at least `amount`."
      },
      "transferFrom(address,address,uint256)": {
        "details": "See {IERC20-transferFrom}. Emits an {Approval} event indicating the updated allowance. This is not required by the EIP. See the note at the beginning of {ERC20}. Requirements: - `sender` and `recipient` cannot be the zero address. - `sender` must have a balance of at least `amount`. - the caller must have allowance for ``sender``'s tokens of at least `amount`."
      }
    },
    "version": 1
  },
  "userdoc": {
    "kind": "user",
    "methods": {},
    "version": 1
  }
}