{
  "contractName": "GluwacoinSandbox",
  "abi": [
    {
      "anonymous": false,
      "inputs": [
        {
          "indexed": true,
          "internalType": "address",
          "name": "owner",
          "type": "address"
        },
        {
          "indexed": true,
          "internalType": "address",
          "name": "spender",
          "type": "address"
        },
        {
          "indexed": false,
          "internalType": "uint256",
          "name": "value",
          "type": "uint256"
        }
      ],
      "name": "Approval",
      "type": "event"
    },
    {
      "anonymous": false,
      "inputs": [
        {
          "indexed": true,
          "internalType": "address",
          "name": "sender",
          "type": "address"
        },
        {
          "indexed": true,
          "internalType": "contract IERC20",
          "name": "token",
          "type": "address"
        },
        {
          "indexed": false,
          "internalType": "uint256",
          "name": "_value",
          "type": "uint256"
        }
      ],
      "name": "Locked",
      "type": "event"
    },
    {
      "anonymous": false,
      "inputs": [
        {
          "indexed": true,
          "internalType": "bytes32",
          "name": "role",
          "type": "bytes32"
        },
        {
          "indexed": true,
          "internalType": "bytes32",
          "name": "previousAdminRole",
          "type": "bytes32"
        },
        {
          "indexed": true,
          "internalType": "bytes32",
          "name": "newAdminRole",
          "type": "bytes32"
        }
      ],
      "name": "RoleAdminChanged",
      "type": "event"
    },
    {
      "anonymous": false,
      "inputs": [
        {
          "indexed": true,
          "internalType": "bytes32",
          "name": "role",
          "type": "bytes32"
        },
        {
          "indexed": true,
          "internalType": "address",
          "name": "account",
          "type": "address"
        },
        {
          "indexed": true,
          "internalType": "address",
          "name": "sender",
          "type": "address"
        }
      ],
      "name": "RoleGranted",
      "type": "event"
    },
    {
      "anonymous": false,
      "inputs": [
        {
          "indexed": true,
          "internalType": "bytes32",
          "name": "role",
          "type": "bytes32"
        },
        {
          "indexed": true,
          "internalType": "address",
          "name": "account",
          "type": "address"
        },
        {
          "indexed": true,
          "internalType": "address",
          "name": "sender",
          "type": "address"
        }
      ],
      "name": "RoleRevoked",
      "type": "event"
    },
    {
      "anonymous": false,
      "inputs": [
        {
          "indexed": true,
          "internalType": "address",
          "name": "from",
          "type": "address"
        },
        {
          "indexed": true,
          "internalType": "address",
          "name": "to",
          "type": "address"
        },
        {
          "indexed": false,
          "internalType": "uint256",
          "name": "value",
          "type": "uint256"
        }
      ],
      "name": "Transfer",
      "type": "event"
    },
    {
      "inputs": [],
      "name": "DEFAULT_ADMIN_ROLE",
      "outputs": [
        {
          "internalType": "bytes32",
          "name": "",
          "type": "bytes32"
        }
      ],
      "stateMutability": "view",
      "type": "function"
    },
    {
      "inputs": [],
      "name": "RELAYER_ROLE",
      "outputs": [
        {
          "internalType": "bytes32",
          "name": "",
          "type": "bytes32"
        }
      ],
      "stateMutability": "view",
      "type": "function"
    },
    {
      "inputs": [
        {
          "internalType": "address",
          "name": "owner",
          "type": "address"
        },
        {
          "internalType": "address",
          "name": "spender",
          "type": "address"
        }
      ],
      "name": "allowance",
      "outputs": [
        {
          "internalType": "uint256",
          "name": "",
          "type": "uint256"
        }
      ],
      "stateMutability": "view",
      "type": "function"
    },
    {
      "inputs": [
        {
          "internalType": "address",
          "name": "spender",
          "type": "address"
        },
        {
          "internalType": "uint256",
          "name": "amount",
          "type": "uint256"
        }
      ],
      "name": "approve",
      "outputs": [
        {
          "internalType": "bool",
          "name": "",
          "type": "bool"
        }
      ],
      "stateMutability": "nonpayable",
      "type": "function"
    },
    {
      "inputs": [
        {
          "internalType": "address",
          "name": "account",
          "type": "address"
        }
      ],
      "name": "balanceOf",
      "outputs": [
        {
          "internalType": "uint256",
          "name": "",
          "type": "uint256"
        }
      ],
      "stateMutability": "view",
      "type": "function"
    },
    {
      "inputs": [],
      "name": "decimals",
      "outputs": [
        {
          "internalType": "uint8",
          "name": "",
          "type": "uint8"
        }
      ],
      "stateMutability": "view",
      "type": "function"
    },
    {
      "inputs": [
        {
          "internalType": "address",
          "name": "spender",
          "type": "address"
        },
        {
          "internalType": "uint256",
          "name": "subtractedValue",
          "type": "uint256"
        }
      ],
      "name": "decreaseAllowance",
      "outputs": [
        {
          "internalType": "bool",
          "name": "",
          "type": "bool"
        }
      ],
      "stateMutability": "nonpayable",
      "type": "function"
    },
    {
      "inputs": [
        {
          "internalType": "address",
          "name": "sender",
          "type": "address"
        },
        {
          "internalType": "uint256",
          "name": "nonce",
          "type": "uint256"
        }
      ],
      "name": "execute",
      "outputs": [
        {
          "internalType": "bool",
          "name": "success",
          "type": "bool"
        }
      ],
      "stateMutability": "nonpayable",
      "type": "function"
    },
    {
      "inputs": [
        {
          "internalType": "address",
          "name": "account",
          "type": "address"
        },
        {
          "internalType": "contract IERC20",
          "name": "token",
          "type": "address"
        }
      ],
      "name": "getLocked",
      "outputs": [
        {
          "internalType": "uint256",
          "name": "",
          "type": "uint256"
        }
      ],
      "stateMutability": "view",
      "type": "function"
    },
    {
      "inputs": [
        {
          "internalType": "address",
          "name": "sender",
          "type": "address"
        },
        {
          "internalType": "uint256",
          "name": "nonce",
          "type": "uint256"
        }
      ],
      "name": "getReservation",
      "outputs": [
        {
          "internalType": "uint256",
          "name": "amount",
          "type": "uint256"
        },
        {
          "internalType": "uint256",
          "name": "fee",
          "type": "uint256"
        },
        {
          "internalType": "address",
          "name": "recipient",
          "type": "address"
        },
        {
          "internalType": "address",
          "name": "executor",
          "type": "address"
        },
        {
          "internalType": "uint256",
          "name": "expiryBlockNum",
          "type": "uint256"
        },
        {
          "internalType": "enum ERC20Reservable.ReservationStatus",
          "name": "status",
          "type": "uint8"
        }
      ],
      "stateMutability": "view",
      "type": "function"
    },
    {
      "inputs": [
        {
          "internalType": "bytes32",
          "name": "role",
          "type": "bytes32"
        }
      ],
      "name": "getRoleAdmin",
      "outputs": [
        {
          "internalType": "bytes32",
          "name": "",
          "type": "bytes32"
        }
      ],
      "stateMutability": "view",
      "type": "function"
    },
    {
      "inputs": [
        {
          "internalType": "bytes32",
          "name": "role",
          "type": "bytes32"
        },
        {
          "internalType": "uint256",
          "name": "index",
          "type": "uint256"
        }
      ],
      "name": "getRoleMember",
      "outputs": [
        {
          "internalType": "address",
          "name": "",
          "type": "address"
        }
      ],
      "stateMutability": "view",
      "type": "function"
    },
    {
      "inputs": [
        {
          "internalType": "bytes32",
          "name": "role",
          "type": "bytes32"
        }
      ],
      "name": "getRoleMemberCount",
      "outputs": [
        {
          "internalType": "uint256",
          "name": "",
          "type": "uint256"
        }
      ],
      "stateMutability": "view",
      "type": "function"
    },
    {
      "inputs": [
        {
          "internalType": "contract IERC20",
          "name": "token",
          "type": "address"
        }
      ],
      "name": "getTokenExchangeDetails",
      "outputs": [
        {
          "components": [
            {
              "internalType": "uint32",
              "name": "rate",
              "type": "uint32"
            },
            {
              "internalType": "uint32",
              "name": "decimalPlaceBase",
              "type": "uint32"
            }
          ],
          "internalType": "struct GluwacoinModel.TokenExchangeModel",
          "name": "",
          "type": "tuple"
        }
      ],
      "stateMutability": "view",
      "type": "function"
    },
    {
      "inputs": [
        {
          "internalType": "bytes32",
          "name": "role",
          "type": "bytes32"
        },
        {
          "internalType": "address",
          "name": "account",
          "type": "address"
        }
      ],
      "name": "grantRole",
      "outputs": [],
      "stateMutability": "nonpayable",
      "type": "function"
    },
    {
      "inputs": [
        {
          "internalType": "bytes32",
          "name": "role",
          "type": "bytes32"
        },
        {
          "internalType": "address",
          "name": "account",
          "type": "address"
        }
      ],
      "name": "hasRole",
      "outputs": [
        {
          "internalType": "bool",
          "name": "",
          "type": "bool"
        }
      ],
      "stateMutability": "view",
      "type": "function"
    },
    {
      "inputs": [
        {
          "internalType": "address",
          "name": "spender",
          "type": "address"
        },
        {
          "internalType": "uint256",
          "name": "addedValue",
          "type": "uint256"
        }
      ],
      "name": "increaseAllowance",
      "outputs": [
        {
          "internalType": "bool",
          "name": "",
          "type": "bool"
        }
      ],
      "stateMutability": "nonpayable",
      "type": "function"
    },
    {
      "inputs": [
        {
          "internalType": "contract IERC20",
          "name": "token",
          "type": "address"
        },
        {
          "internalType": "uint256",
          "name": "amount",
          "type": "uint256"
        }
      ],
      "name": "lock",
      "outputs": [
        {
          "internalType": "bool",
          "name": "",
          "type": "bool"
        }
      ],
      "stateMutability": "nonpayable",
      "type": "function"
    },
    {
      "inputs": [],
      "name": "name",
      "outputs": [
        {
          "internalType": "string",
          "name": "",
          "type": "string"
        }
      ],
      "stateMutability": "view",
      "type": "function"
    },
    {
      "inputs": [
        {
          "internalType": "address",
          "name": "sender",
          "type": "address"
        },
        {
          "internalType": "uint256",
          "name": "nonce",
          "type": "uint256"
        }
      ],
      "name": "reclaim",
      "outputs": [
        {
          "internalType": "bool",
          "name": "success",
          "type": "bool"
        }
      ],
      "stateMutability": "nonpayable",
      "type": "function"
    },
    {
      "inputs": [
        {
          "internalType": "bytes32",
          "name": "role",
          "type": "bytes32"
        },
        {
          "internalType": "address",
          "name": "account",
          "type": "address"
        }
      ],
      "name": "renounceRole",
      "outputs": [],
      "stateMutability": "nonpayable",
      "type": "function"
    },
    {
      "inputs": [
        {
          "internalType": "address",
          "name": "sender",
          "type": "address"
        },
        {
          "internalType": "address",
          "name": "recipient",
          "type": "address"
        },
        {
          "internalType": "address",
          "name": "executor",
          "type": "address"
        },
        {
          "internalType": "uint256",
          "name": "amount",
          "type": "uint256"
        },
        {
          "internalType": "uint256",
          "name": "fee",
          "type": "uint256"
        },
        {
          "internalType": "uint256",
          "name": "nonce",
          "type": "uint256"
        },
        {
          "internalType": "uint256",
          "name": "expiryBlockNum",
          "type": "uint256"
        },
        {
          "internalType": "bytes",
          "name": "sig",
          "type": "bytes"
        }
      ],
      "name": "reserve",
      "outputs": [
        {
          "internalType": "bool",
          "name": "success",
          "type": "bool"
        }
      ],
      "stateMutability": "nonpayable",
      "type": "function"
    },
    {
      "inputs": [
        {
          "internalType": "address",
          "name": "account",
          "type": "address"
        }
      ],
      "name": "reservedBalanceOf",
      "outputs": [
        {
          "internalType": "uint256",
          "name": "amount",
          "type": "uint256"
        }
      ],
      "stateMutability": "view",
      "type": "function"
    },
    {
      "inputs": [
        {
          "internalType": "bytes32",
          "name": "role",
          "type": "bytes32"
        },
        {
          "internalType": "address",
          "name": "account",
          "type": "address"
        }
      ],
      "name": "revokeRole",
      "outputs": [],
      "stateMutability": "nonpayable",
      "type": "function"
    },
    {
      "inputs": [
        {
          "internalType": "bytes4",
          "name": "interfaceId",
          "type": "bytes4"
        }
      ],
      "name": "supportsInterface",
      "outputs": [
        {
          "internalType": "bool",
          "name": "",
          "type": "bool"
        }
      ],
      "stateMutability": "view",
      "type": "function"
    },
    {
      "inputs": [],
      "name": "symbol",
      "outputs": [
        {
          "internalType": "string",
          "name": "",
          "type": "string"
        }
      ],
      "stateMutability": "view",
      "type": "function"
    },
    {
      "inputs": [],
      "name": "totalSupply",
      "outputs": [
        {
          "internalType": "uint256",
          "name": "",
          "type": "uint256"
        }
      ],
      "stateMutability": "view",
      "type": "function"
    },
    {
      "inputs": [
        {
          "internalType": "address",
          "name": "recipient",
          "type": "address"
        },
        {
          "internalType": "uint256",
          "name": "amount",
          "type": "uint256"
        }
      ],
      "name": "transfer",
      "outputs": [
        {
          "internalType": "bool",
          "name": "",
          "type": "bool"
        }
      ],
      "stateMutability": "nonpayable",
      "type": "function"
    },
    {
      "inputs": [
        {
          "internalType": "address",
          "name": "sender",
          "type": "address"
        },
        {
          "internalType": "address",
          "name": "recipient",
          "type": "address"
        },
        {
          "internalType": "uint256",
          "name": "amount",
          "type": "uint256"
        }
      ],
      "name": "transferFrom",
      "outputs": [
        {
          "internalType": "bool",
          "name": "",
          "type": "bool"
        }
      ],
      "stateMutability": "nonpayable",
      "type": "function"
    },
    {
      "inputs": [
        {
          "internalType": "address",
          "name": "account",
          "type": "address"
        }
      ],
      "name": "unreservedBalanceOf",
      "outputs": [
        {
          "internalType": "uint256",
          "name": "amount",
          "type": "uint256"
        }
      ],
      "stateMutability": "view",
      "type": "function"
    },
    {
      "inputs": [
        {
          "internalType": "contract IERC20",
          "name": "token",
          "type": "address"
        },
        {
          "internalType": "uint256",
          "name": "amount",
          "type": "uint256"
        }
      ],
      "name": "withdraw",
      "outputs": [
        {
          "internalType": "bool",
          "name": "",
          "type": "bool"
        }
      ],
      "stateMutability": "nonpayable",
      "type": "function"
    },
    {
      "inputs": [
        {
          "internalType": "string",
          "name": "name_",
          "type": "string"
        },
        {
          "internalType": "string",
          "name": "symbol_",
          "type": "string"
        },
        {
          "internalType": "uint256",
          "name": "amount",
          "type": "uint256"
        }
      ],
      "name": "initialize",
      "outputs": [],
      "stateMutability": "nonpayable",
      "type": "function"
    },
    {
      "inputs": [
        {
          "internalType": "contract IERC20",
          "name": "token",
          "type": "address"
        },
        {
          "internalType": "uint8",
          "name": "decimals",
          "type": "uint8"
        },
        {
          "internalType": "uint32",
          "name": "newExchangeRate",
          "type": "uint32"
        },
        {
          "internalType": "uint32",
          "name": "newExchangeRateDecimalPlaceBase",
          "type": "uint32"
        }
      ],
      "name": "setTokenExchange",
      "outputs": [
        {
          "internalType": "bool",
          "name": "",
          "type": "bool"
        }
      ],
      "stateMutability": "nonpayable",
      "type": "function"
    },
    {
      "inputs": [
        {
          "internalType": "address",
          "name": "account",
          "type": "address"
        },
        {
          "internalType": "contract IERC20",
          "name": "token",
          "type": "address"
        },
        {
          "internalType": "uint256",
          "name": "amount",
          "type": "uint256"
        }
      ],
      "name": "lockFrom",
      "outputs": [
        {
          "internalType": "bool",
          "name": "",
          "type": "bool"
        }
      ],
      "stateMutability": "nonpayable",
      "type": "function"
    },
    {
      "inputs": [
        {
          "internalType": "address",
          "name": "account",
          "type": "address"
        },
        {
          "internalType": "contract IERC20",
          "name": "token",
          "type": "address"
        }
      ],
      "name": "convertAllFrom",
      "outputs": [
        {
          "internalType": "bool",
          "name": "",
          "type": "bool"
        }
      ],
      "stateMutability": "nonpayable",
      "type": "function"
    },
    {
      "inputs": [
        {
          "internalType": "address",
          "name": "account",
          "type": "address"
        },
        {
          "internalType": "contract IERC20",
          "name": "token",
          "type": "address"
        },
        {
          "internalType": "uint256",
          "name": "amount",
          "type": "uint256"
        }
      ],
      "name": "convertFrom",
      "outputs": [
        {
          "internalType": "bool",
          "name": "",
          "type": "bool"
        }
      ],
      "stateMutability": "nonpayable",
      "type": "function"
    },
    {
      "inputs": [
        {
          "internalType": "contract IERC20",
          "name": "token",
          "type": "address"
        },
        {
          "internalType": "uint256",
          "name": "amount",
          "type": "uint256"
        }
      ],
      "name": "convert",
      "outputs": [
        {
          "internalType": "bool",
          "name": "",
          "type": "bool"
        }
      ],
      "stateMutability": "nonpayable",
      "type": "function"
    }
  ],
  "bytecode": "0x608060405234801561001057600080fd5b5061600780620000216000396000f3fe608060405234801561001057600080fd5b50600436106101b65760003560e01c8062aa0bce146101bb57806301ffc9a7146101eb57806306fdde031461021b578063095ea7b31461023957806318160ddd1461026957806323b872dd14610287578063248a9ca3146102b7578063282d3fdf146102e75780632f2ff15d14610317578063313ce5671461033357806332ff99d11461035157806336568abe1461038157806336bd063a1461039d57806339509351146103cd5780633b89bb86146103fd5780633c8796e01461042d578063604abf9e1461045d578063615a1e2c1461048d57806367c6e39c146104bd578063708e91e5146104ed57806370a082311461051d57806380c9dcf71461054d5780638bd317eb1461057d5780639010d07c146105ad57806391d14854146105dd578063926d7d7f1461060d57806395d89b411461062b578063a217fddf14610649578063a22ac5a914610667578063a457c2d71461069c578063a86e6ee4146106cc578063a9059cbb146106fc578063b119490e1461072c578063ca15c87314610748578063d547741f14610778578063dd62ed3e14610794578063f3fef3a3146107c4575b600080fd5b6101d560048036038101906101d09190613fa5565b6107f4565b6040516101e29190614f3f565b60405180910390f35b610205600480360381019061020091906142e8565b610819565b6040516102129190614b47565b60405180910390f35b610223610893565b6040516102309190614bc2565b60405180910390f35b610253600480360381019061024e91906141ce565b610925565b6040516102609190614b47565b60405180910390f35b610271610943565b60405161027e9190614f3f565b60405180910390f35b6102a1600480360381019061029c91906140e8565b61094d565b6040516102ae9190614b47565b60405180910390f35b6102d160048036038101906102cc919061423b565b610a0b565b6040516102de9190614b62565b60405180910390f35b61030160048036038101906102fc9190614342565b610a2b565b60405161030e9190614b47565b60405180910390f35b610331600480360381019061032c9190614268565b610a47565b005b61033b610a7b565b6040516103489190614fbb565b60405180910390f35b61036b6004803603810190610366919061417b565b610a84565b6040516103789190614b47565b60405180910390f35b61039b60048036038101906103969190614268565b610ab0565b005b6103b760048036038101906103b29190613fa5565b610ae4565b6040516103c49190614f3f565b60405180910390f35b6103e760048036038101906103e291906141ce565b610af6565b6040516103f49190614b47565b60405180910390f35b610417600480360381019061041291906141ce565b610ba2565b6040516104249190614b47565b60405180910390f35b6104476004803603810190610442919061413b565b610f7b565b6040516104549190614b47565b60405180910390f35b61047760048036038101906104729190614315565b611045565b6040516104849190614f24565b60405180910390f35b6104a760048036038101906104a29190614382565b6110eb565b6040516104b49190614b47565b60405180910390f35b6104d760048036038101906104d29190614342565b611119565b6040516104e49190614b47565b60405180910390f35b6105076004803603810190610502919061417b565b611135565b6040516105149190614b47565b60405180910390f35b61053760048036038101906105329190613fa5565b611161565b6040516105449190614f3f565b60405180910390f35b61056760048036038101906105629190614012565b6111aa565b6040516105749190614b47565b60405180910390f35b610597600480360381019061059291906141ce565b61161a565b6040516105a49190614b47565b60405180910390f35b6105c760048036038101906105c291906142a8565b6119d9565b6040516105d49190614acc565b60405180910390f35b6105f760048036038101906105f29190614268565b611a08565b6040516106049190614b47565b60405180910390f35b610615611a73565b6040516106229190614b62565b60405180910390f35b610633611a97565b6040516106409190614bc2565b60405180910390f35b610651611b29565b60405161065e9190614b62565b60405180910390f35b610681600480360381019061067c91906141ce565b611b30565b60405161069396959493929190614f5a565b60405180910390f35b6106b660048036038101906106b191906141ce565b611c10565b6040516106c39190614b47565b60405180910390f35b6106e660048036038101906106e1919061413b565b611cc1565b6040516106f39190614f3f565b60405180910390f35b610716600480360381019061071191906141ce565b611d49565b6040516107239190614b47565b60405180910390f35b610746600480360381019061074191906143e9565b611d67565b005b610762600480360381019061075d919061423b565b611e82565b60405161076f9190614f3f565b60405180910390f35b610792600480360381019061078d9190614268565b611ea6565b005b6107ae60048036038101906107a99190613fd2565b611eda565b6040516107bb9190614f3f565b60405180910390f35b6107de60048036038101906107d99190614342565b611f61565b6040516107eb9190614b47565b60405180910390f35b60006107ff826120db565b61080883611161565b61081291906152a5565b9050919050565b60007f5a05180f000000000000000000000000000000000000000000000000000000007bffffffffffffffffffffffffffffffffffffffffffffffffffffffff1916827bffffffffffffffffffffffffffffffffffffffffffffffffffffffff1916148061088c575061088b82612138565b5b9050919050565b606060cd80546108a290615470565b80601f01602080910402602001604051908101604052809291908181526020018280546108ce90615470565b801561091b5780601f106108f05761010080835404028352916020019161091b565b820191906000526020600020905b8154815290600101906020018083116108fe57829003601f168201915b5050505050905090565b60006109396109326121b2565b84846121ba565b6001905092915050565b600060cc54905090565b600061095a84848461234e565b600060cb60008673ffffffffffffffffffffffffffffffffffffffff1673ffffffffffffffffffffffffffffffffffffffff16815260200190815260200160002060006109a56121b2565b73ffffffffffffffffffffffffffffffffffffffff1673ffffffffffffffffffffffffffffffffffffffff1681526020019081526020016000205490506109ff856109ee6121b2565b85846109fa91906152a5565b6121ba565b60019150509392505050565b600060656000838152602001908152602001600020600101549050919050565b6000610a3f610a386121b2565b8484612561565b905092915050565b610a518282612846565b610a76816097600085815260200190815260200160002061286f90919063ffffffff16565b505050565b60006012905090565b60008060001b610a9b81610a966121b2565b61289f565b610aa685858561293c565b9150509392505050565b610aba828261296e565b610adf81609760008581526020019081526020016000206129f190919063ffffffff16565b505050565b6000610aef826120db565b9050919050565b6000610b98610b036121b2565b848460cb6000610b116121b2565b73ffffffffffffffffffffffffffffffffffffffff1673ffffffffffffffffffffffffffffffffffffffff16815260200190815260200160002060008873ffffffffffffffffffffffffffffffffffffffff1673ffffffffffffffffffffffffffffffffffffffff16815260200190815260200160002054610b939190615053565b6121ba565b6001905092915050565b60008061010160008573ffffffffffffffffffffffffffffffffffffffff1673ffffffffffffffffffffffffffffffffffffffff16815260200190815260200160002060008481526020019081526020016000209050600081600401541415610c40576040517f08c379a0000000000000000000000000000000000000000000000000000000008152600401610c3790614e84565b60405180910390fd5b8373ffffffffffffffffffffffffffffffffffffffff16610c5f6121b2565b73ffffffffffffffffffffffffffffffffffffffff161480610cd757508060030160009054906101000a900473ffffffffffffffffffffffffffffffffffffffff1673ffffffffffffffffffffffffffffffffffffffff16610cbf6121b2565b73ffffffffffffffffffffffffffffffffffffffff16145b610d16576040517f08c379a0000000000000000000000000000000000000000000000000000000008152600401610d0d90614e44565b60405180910390fd5b43816004015411610d5c576040517f08c379a0000000000000000000000000000000000000000000000000000000008152600401610d5390614c84565b60405180910390fd5b60016003811115610d7057610d6f61557b565b5b8160050160009054906101000a900460ff166003811115610d9457610d9361557b565b5b14610dd4576040517f08c379a0000000000000000000000000000000000000000000000000000000008152600401610dcb90614de4565b60405180910390fd5b60008160030160009054906101000a900473ffffffffffffffffffffffffffffffffffffffff16905060008260020160009054906101000a900473ffffffffffffffffffffffffffffffffffffffff16905060008360010154905060008460000154905060008282610e469190615053565b9050600361010160008b73ffffffffffffffffffffffffffffffffffffffff1673ffffffffffffffffffffffffffffffffffffffff16815260200190815260200160002060008a815260200190815260200160002060050160006101000a81548160ff02191690836003811115610ec057610ebf61557b565b5b02179055508061010260008b73ffffffffffffffffffffffffffffffffffffffff1673ffffffffffffffffffffffffffffffffffffffff16815260200190815260200160002054610f1191906152a5565b61010260008b73ffffffffffffffffffffffffffffffffffffffff1673ffffffffffffffffffffffffffffffffffffffff16815260200190815260200160002081905550610f6089868561234e565b610f6b89858461234e565b6001965050505050505092915050565b60008060001b610f9281610f8d6121b2565b61289f565b600061013860008673ffffffffffffffffffffffffffffffffffffffff1673ffffffffffffffffffffffffffffffffffffffff16815260200190815260200160002060008573ffffffffffffffffffffffffffffffffffffffff1673ffffffffffffffffffffffffffffffffffffffff16815260200190815260200160002054905061101f858583612a21565b50600061102c8583612ac1565b90506110388682612c9c565b6001935050505092915050565b61104d613d6e565b61013560008373ffffffffffffffffffffffffffffffffffffffff1673ffffffffffffffffffffffffffffffffffffffff1681526020019081526020016000206040518060400160405290816000820160009054906101000a900463ffffffff1663ffffffff1663ffffffff1681526020016000820160049054906101000a900463ffffffff1663ffffffff1663ffffffff16815250509050919050565b60008060001b611102816110fd6121b2565b61289f565b61110e86868686612dfd565b915050949350505050565b600061112d6111266121b2565b848461293c565b905092915050565b60008060001b61114c816111476121b2565b61289f565b611157858585612561565b9150509392505050565b600060ca60008373ffffffffffffffffffffffffffffffffffffffff1673ffffffffffffffffffffffffffffffffffffffff168152602001908152602001600020549050919050565b60008061010160008c73ffffffffffffffffffffffffffffffffffffffff1673ffffffffffffffffffffffffffffffffffffffff16815260200190815260200160002060008781526020019081526020016000206004015414611242576040517f08c379a000000000000000000000000000000000000000000000000000000000815260040161123990614e24565b60405180910390fd5b438411611284576040517f08c379a000000000000000000000000000000000000000000000000000000000815260040161127b90614f04565b60405180910390fd5b600073ffffffffffffffffffffffffffffffffffffffff168873ffffffffffffffffffffffffffffffffffffffff1614156112f4576040517f08c379a00000000000000000000000000000000000000000000000000000000081526004016112eb90614c44565b60405180910390fd5b600086886113029190615053565b90508061130e8c6120db565b101561134f576040517f08c379a000000000000000000000000000000000000000000000000000000000815260040161134690614ce4565b60405180910390fd5b6000600446308e8e8d8d8d8d604051602001611373999897969594939291906149c9565b6040516020818303038152906040528051906020012090506113da818d87878080601f016020809104026020016040519081016040528093929190818152602001838380828437600081840152601f19601f82011690508083019250505050505050612f28565b506040518060c001604052808a81526020018981526020018c73ffffffffffffffffffffffffffffffffffffffff1681526020018b73ffffffffffffffffffffffffffffffffffffffff168152602001878152602001600160038111156114445761144361557b565b5b81525061010160008e73ffffffffffffffffffffffffffffffffffffffff1673ffffffffffffffffffffffffffffffffffffffff1681526020019081526020016000206000898152602001908152602001600020600082015181600001556020820151816001015560408201518160020160006101000a81548173ffffffffffffffffffffffffffffffffffffffff021916908373ffffffffffffffffffffffffffffffffffffffff16021790555060608201518160030160006101000a81548173ffffffffffffffffffffffffffffffffffffffff021916908373ffffffffffffffffffffffffffffffffffffffff1602179055506080820151816004015560a08201518160050160006101000a81548160ff0219169083600381111561156f5761156e61557b565b5b02179055509050508161010260008e73ffffffffffffffffffffffffffffffffffffffff1673ffffffffffffffffffffffffffffffffffffffff168152602001908152602001600020546115c39190615053565b61010260008e73ffffffffffffffffffffffffffffffffffffffff1673ffffffffffffffffffffffffffffffffffffffff168152602001908152602001600020819055506001925050509998505050505050505050565b60008061010160008573ffffffffffffffffffffffffffffffffffffffff1673ffffffffffffffffffffffffffffffffffffffff168152602001908152602001600020600084815260200190815260200160002090506000816004015414156116b8576040517f08c379a00000000000000000000000000000000000000000000000000000000081526004016116af90614e84565b60405180910390fd5b8373ffffffffffffffffffffffffffffffffffffffff166116d76121b2565b73ffffffffffffffffffffffffffffffffffffffff16148061174f57508060030160009054906101000a900473ffffffffffffffffffffffffffffffffffffffff1673ffffffffffffffffffffffffffffffffffffffff166117376121b2565b73ffffffffffffffffffffffffffffffffffffffff16145b61178e576040517f08c379a000000000000000000000000000000000000000000000000000000000815260040161178590614d64565b60405180910390fd5b4381600401541115806117f757508060030160009054906101000a900473ffffffffffffffffffffffffffffffffffffffff1673ffffffffffffffffffffffffffffffffffffffff166117df6121b2565b73ffffffffffffffffffffffffffffffffffffffff16145b611836576040517f08c379a000000000000000000000000000000000000000000000000000000000815260040161182d90614d04565b60405180910390fd5b6001600381111561184a5761184961557b565b5b8160050160009054906101000a900460ff16600381111561186e5761186d61557b565b5b146118ae576040517f08c379a00000000000000000000000000000000000000000000000000000000081526004016118a590614ca4565b60405180910390fd5b600261010160008673ffffffffffffffffffffffffffffffffffffffff1673ffffffffffffffffffffffffffffffffffffffff168152602001908152602001600020600085815260200190815260200160002060050160006101000a81548160ff021916908360038111156119265761192561557b565b5b02179055508060010154816000015461010260008773ffffffffffffffffffffffffffffffffffffffff1673ffffffffffffffffffffffffffffffffffffffff1681526020019081526020016000205461198091906152a5565b61198a91906152a5565b61010260008673ffffffffffffffffffffffffffffffffffffffff1673ffffffffffffffffffffffffffffffffffffffff16815260200190815260200160002081905550600191505092915050565b6000611a008260976000868152602001908152602001600020612fc890919063ffffffff16565b905092915050565b60006065600084815260200190815260200160002060000160008373ffffffffffffffffffffffffffffffffffffffff1673ffffffffffffffffffffffffffffffffffffffff16815260200190815260200160002060009054906101000a900460ff16905092915050565b7fe2b7fb3b832174769106daebcfd6d1970523240dda11281102db9363b83b0dc481565b606060ce8054611aa690615470565b80601f0160208091040260200160405190810160405280929190818152602001828054611ad290615470565b8015611b1f5780601f10611af457610100808354040283529160200191611b1f565b820191906000526020600020905b815481529060010190602001808311611b0257829003601f168201915b5050505050905090565b6000801b81565b600080600080600080600061010160008a73ffffffffffffffffffffffffffffffffffffffff1673ffffffffffffffffffffffffffffffffffffffff1681526020019081526020016000206000898152602001908152602001600020905080600001549650806001015495508060020160009054906101000a900473ffffffffffffffffffffffffffffffffffffffff1694508060030160009054906101000a900473ffffffffffffffffffffffffffffffffffffffff169350806004015492508060050160009054906101000a900460ff169150509295509295509295565b60008060cb6000611c1f6121b2565b73ffffffffffffffffffffffffffffffffffffffff1673ffffffffffffffffffffffffffffffffffffffff16815260200190815260200160002060008573ffffffffffffffffffffffffffffffffffffffff1673ffffffffffffffffffffffffffffffffffffffff168152602001908152602001600020549050611cb6611ca46121b2565b858584611cb191906152a5565b6121ba565b600191505092915050565b600061013860008473ffffffffffffffffffffffffffffffffffffffff1673ffffffffffffffffffffffffffffffffffffffff16815260200190815260200160002060008373ffffffffffffffffffffffffffffffffffffffff1673ffffffffffffffffffffffffffffffffffffffff16815260200190815260200160002054905092915050565b6000611d5d611d566121b2565b848461234e565b6001905092915050565b600060019054906101000a900460ff1680611d8d575060008054906101000a900460ff16155b611dcc576040517f08c379a0000000000000000000000000000000000000000000000000000000008152600401611dc390614d44565b60405180910390fd5b60008060019054906101000a900460ff161590508015611e1c576001600060016101000a81548160ff02191690831515021790555060016000806101000a81548160ff0219169083151502179055505b611e268484612fe2565b611e36611e31610a7b565b6130f8565b611e4a6000801b611e456121b2565b6131ee565b611e5b611e556121b2565b83612c9c565b8015611e7c5760008060016101000a81548160ff0219169083151502179055505b50505050565b6000611e9f60976000848152602001908152602001600020613222565b9050919050565b611eb08282613237565b611ed581609760008581526020019081526020016000206129f190919063ffffffff16565b505050565b600060cb60008473ffffffffffffffffffffffffffffffffffffffff1673ffffffffffffffffffffffffffffffffffffffff16815260200190815260200160002060008373ffffffffffffffffffffffffffffffffffffffff1673ffffffffffffffffffffffffffffffffffffffff16815260200190815260200160002054905092915050565b6000816101386000611f716121b2565b73ffffffffffffffffffffffffffffffffffffffff1673ffffffffffffffffffffffffffffffffffffffff16815260200190815260200160002060008573ffffffffffffffffffffffffffffffffffffffff1673ffffffffffffffffffffffffffffffffffffffff1681526020019081526020016000206000828254611ff791906152a5565b925050819055508273ffffffffffffffffffffffffffffffffffffffff1663a9059cbb6120226121b2565b846040518363ffffffff1660e01b8152600401612040929190614b1e565b602060405180830381600087803b15801561205a57600080fd5b505af115801561206e573d6000803e3d6000fd5b505050506040513d601f19601f82011682018060405250810190612092919061420e565b6120d1576040517f08c379a00000000000000000000000000000000000000000000000000000000081526004016120c890614dc4565b60405180910390fd5b6001905092915050565b600061010260008373ffffffffffffffffffffffffffffffffffffffff1673ffffffffffffffffffffffffffffffffffffffff1681526020019081526020016000205461212783611161565b61213191906152a5565b9050919050565b60007f7965db0b000000000000000000000000000000000000000000000000000000007bffffffffffffffffffffffffffffffffffffffffffffffffffffffff1916827bffffffffffffffffffffffffffffffffffffffffffffffffffffffff191614806121ab57506121aa82613260565b5b9050919050565b600033905090565b600073ffffffffffffffffffffffffffffffffffffffff168373ffffffffffffffffffffffffffffffffffffffff16141580156122245750600073ffffffffffffffffffffffffffffffffffffffff168273ffffffffffffffffffffffffffffffffffffffff1614155b612263576040517f08c379a000000000000000000000000000000000000000000000000000000000815260040161225a90614ea4565b60405180910390fd5b8060cb60008573ffffffffffffffffffffffffffffffffffffffff1673ffffffffffffffffffffffffffffffffffffffff16815260200190815260200160002060008473ffffffffffffffffffffffffffffffffffffffff1673ffffffffffffffffffffffffffffffffffffffff168152602001908152602001600020819055508173ffffffffffffffffffffffffffffffffffffffff168373ffffffffffffffffffffffffffffffffffffffff167f8c5be1e5ebec7d5bd14f71427d1e84f3dd0314c0f7b2291e5b200ac8c7c3b925836040516123419190614f3f565b60405180910390a3505050565b600073ffffffffffffffffffffffffffffffffffffffff168373ffffffffffffffffffffffffffffffffffffffff16141580156123b85750600073ffffffffffffffffffffffffffffffffffffffff168273ffffffffffffffffffffffffffffffffffffffff1614155b6123f7576040517f08c379a00000000000000000000000000000000000000000000000000000000081526004016123ee90614da4565b60405180910390fd5b6124028383836132ca565b600060ca60008573ffffffffffffffffffffffffffffffffffffffff1673ffffffffffffffffffffffffffffffffffffffff168152602001908152602001600020549050818161245291906152a5565b60ca60008673ffffffffffffffffffffffffffffffffffffffff1673ffffffffffffffffffffffffffffffffffffffff168152602001908152602001600020819055508160ca60008573ffffffffffffffffffffffffffffffffffffffff1673ffffffffffffffffffffffffffffffffffffffff16815260200190815260200160002060008282546124e49190615053565b925050819055508273ffffffffffffffffffffffffffffffffffffffff168473ffffffffffffffffffffffffffffffffffffffff167fddf252ad1be2c89b69c2b068fc378daa952ba7f163c4a11628f55a4df523b3ef846040516125489190614f3f565b60405180910390a361255b8484846132e5565b50505050565b60008061013560008573ffffffffffffffffffffffffffffffffffffffff1673ffffffffffffffffffffffffffffffffffffffff16815260200190815260200160002060000160009054906101000a900463ffffffff1663ffffffff16116125fe576040517f08c379a00000000000000000000000000000000000000000000000000000000081526004016125f590614d24565b60405180910390fd5b8273ffffffffffffffffffffffffffffffffffffffff166323b872dd8530856040518463ffffffff1660e01b815260040161263b93929190614ae7565b602060405180830381600087803b15801561265557600080fd5b505af1158015612669573d6000803e3d6000fd5b505050506040513d601f19601f8201168201806040525081019061268d919061420e565b6126cc576040517f08c379a00000000000000000000000000000000000000000000000000000000081526004016126c390614e64565b60405180910390fd5b8161013860008673ffffffffffffffffffffffffffffffffffffffff1673ffffffffffffffffffffffffffffffffffffffff16815260200190815260200160002060008573ffffffffffffffffffffffffffffffffffffffff1673ffffffffffffffffffffffffffffffffffffffff168152602001908152602001600020546127559190615053565b61013860008673ffffffffffffffffffffffffffffffffffffffff1673ffffffffffffffffffffffffffffffffffffffff16815260200190815260200160002060008573ffffffffffffffffffffffffffffffffffffffff1673ffffffffffffffffffffffffffffffffffffffff168152602001908152602001600020819055508273ffffffffffffffffffffffffffffffffffffffff168473ffffffffffffffffffffffffffffffffffffffff167f989eaa915cbb416ea3d6f9a63b1a3de51770c7674b11fe21ecdf76b4e1d13910846040516128339190614f3f565b60405180910390a3600190509392505050565b61284f82610a0b565b6128608161285b6121b2565b61289f565b61286a83836132ea565b505050565b6000612897836000018373ffffffffffffffffffffffffffffffffffffffff1660001b6133cb565b905092915050565b6128a98282611a08565b612938576128ce8173ffffffffffffffffffffffffffffffffffffffff16601461343b565b6128dc8360001c602061343b565b6040516020016128ed929190614a92565b6040516020818303038152906040526040517f08c379a000000000000000000000000000000000000000000000000000000000815260040161292f9190614bc2565b60405180910390fd5b5050565b6000612949848484612a21565b5060006129568484612ac1565b90506129628582612c9c565b60019150509392505050565b6129766121b2565b73ffffffffffffffffffffffffffffffffffffffff168173ffffffffffffffffffffffffffffffffffffffff16146129e3576040517f08c379a00000000000000000000000000000000000000000000000000000000081526004016129da90614ec4565b60405180910390fd5b6129ed8282613677565b5050565b6000612a19836000018373ffffffffffffffffffffffffffffffffffffffff1660001b613759565b905092915050565b60008161013860008673ffffffffffffffffffffffffffffffffffffffff1673ffffffffffffffffffffffffffffffffffffffff16815260200190815260200160002060008573ffffffffffffffffffffffffffffffffffffffff1673ffffffffffffffffffffffffffffffffffffffff1681526020019081526020016000206000828254612ab091906152a5565b925050819055508190509392505050565b60008061013560008573ffffffffffffffffffffffffffffffffffffffff1673ffffffffffffffffffffffffffffffffffffffff168152602001908152602001600020905060008160000160009054906101000a900463ffffffff1663ffffffff1611612b63576040517f08c379a0000000000000000000000000000000000000000000000000000000008152600401612b5a90614d24565b60405180910390fd5b612c9361013660008673ffffffffffffffffffffffffffffffffffffffff1673ffffffffffffffffffffffffffffffffffffffff16815260200190815260200160002060009054906101000a900460ff1661013760009054906101000a900460ff1661013560008873ffffffffffffffffffffffffffffffffffffffff1673ffffffffffffffffffffffffffffffffffffffff16815260200190815260200160002060000160049054906101000a900463ffffffff1663ffffffff1661013560008973ffffffffffffffffffffffffffffffffffffffff1673ffffffffffffffffffffffffffffffffffffffff16815260200190815260200160002060000160009054906101000a900463ffffffff1663ffffffff1687612c84919061524b565b612c8e91906150a9565b61386d565b91505092915050565b600073ffffffffffffffffffffffffffffffffffffffff168273ffffffffffffffffffffffffffffffffffffffff161415612d0c576040517f08c379a0000000000000000000000000000000000000000000000000000000008152600401612d0390614ee4565b60405180910390fd5b612d18600083836132ca565b8060cc6000828254612d2a9190615053565b925050819055508060ca60008473ffffffffffffffffffffffffffffffffffffffff1673ffffffffffffffffffffffffffffffffffffffff1681526020019081526020016000206000828254612d809190615053565b925050819055508173ffffffffffffffffffffffffffffffffffffffff16600073ffffffffffffffffffffffffffffffffffffffff167fddf252ad1be2c89b69c2b068fc378daa952ba7f163c4a11628f55a4df523b3ef83604051612de59190614f3f565b60405180910390a3612df9600083836132e5565b5050565b60008361013660008773ffffffffffffffffffffffffffffffffffffffff1673ffffffffffffffffffffffffffffffffffffffff16815260200190815260200160002060006101000a81548160ff021916908360ff1602179055508261013560008773ffffffffffffffffffffffffffffffffffffffff1673ffffffffffffffffffffffffffffffffffffffff16815260200190815260200160002060000160006101000a81548163ffffffff021916908363ffffffff1602179055508161013560008773ffffffffffffffffffffffffffffffffffffffff1673ffffffffffffffffffffffffffffffffffffffff16815260200190815260200160002060000160046101000a81548163ffffffff021916908363ffffffff16021790555060019050949350505050565b600080612f34856138d4565b90506000612f4b848361390490919063ffffffff16565b90508473ffffffffffffffffffffffffffffffffffffffff168173ffffffffffffffffffffffffffffffffffffffff1614612fbb576040517f08c379a0000000000000000000000000000000000000000000000000000000008152600401612fb290614c24565b60405180910390fd5b6001925050509392505050565b6000612fd783600001836139b3565b60001c905092915050565b600060019054906101000a900460ff1680613008575060008054906101000a900460ff16155b613047576040517f08c379a000000000000000000000000000000000000000000000000000000000815260040161303e90614d44565b60405180910390fd5b60008060019054906101000a900460ff161590508015613097576001600060016101000a81548160ff02191690831515021790555060016000806101000a81548160ff0219169083151502179055505b6130a183836139de565b6130d27fe2b7fb3b832174769106daebcfd6d1970523240dda11281102db9363b83b0dc46130cd6121b2565b6131ee565b80156130f35760008060016101000a81548160ff0219169083151502179055505b505050565b600060019054906101000a900460ff168061311e575060008054906101000a900460ff16155b61315d576040517f08c379a000000000000000000000000000000000000000000000000000000000815260040161315490614d44565b60405180910390fd5b60008060019054906101000a900460ff1615905080156131ad576001600060016101000a81548160ff02191690831515021790555060016000806101000a81548160ff0219169083151502179055505b8161013760006101000a81548160ff021916908360ff16021790555080156131ea5760008060016101000a81548160ff0219169083151502179055505b5050565b6131f88282613ae7565b61321d816097600085815260200190815260200160002061286f90919063ffffffff16565b505050565b600061323082600001613af5565b9050919050565b61324082610a0b565b6132518161324c6121b2565b61289f565b61325b8383613677565b505050565b60007f01ffc9a7000000000000000000000000000000000000000000000000000000007bffffffffffffffffffffffffffffffffffffffffffffffffffffffff1916827bffffffffffffffffffffffffffffffffffffffffffffffffffffffff1916149050919050565b6132d5838383613b06565b6132e0838383613b16565b505050565b505050565b6132f48282611a08565b6133c75760016065600084815260200190815260200160002060000160008373ffffffffffffffffffffffffffffffffffffffff1673ffffffffffffffffffffffffffffffffffffffff16815260200190815260200160002060006101000a81548160ff02191690831515021790555061336c6121b2565b73ffffffffffffffffffffffffffffffffffffffff168173ffffffffffffffffffffffffffffffffffffffff16837f2f8788117e7eff1d82e926ec794901d17c78024a50270940304540a733656f0d60405160405180910390a45b5050565b60006133d78383613b71565b613430578260000182908060018154018082558091505060019003906000526020600020016000909190919091505582600001805490508360010160008481526020019081526020016000208190555060019050613435565b600090505b92915050565b60606000600283600261344e919061524b565b6134589190615053565b67ffffffffffffffff81111561347157613470615637565b5b6040519080825280601f01601f1916602001820160405280156134a35781602001600182028036833780820191505090505b5090507f3000000000000000000000000000000000000000000000000000000000000000816000815181106134db576134da615608565b5b60200101907effffffffffffffffffffffffffffffffffffffffffffffffffffffffffffff1916908160001a9053507f78000000000000000000000000000000000000000000000000000000000000008160018151811061353f5761353e615608565b5b60200101907effffffffffffffffffffffffffffffffffffffffffffffffffffffffffffff1916908160001a9053506000600184600261357f919061524b565b6135899190615053565b90505b6001811115613629577f3031323334353637383961626364656600000000000000000000000000000000600f8616601081106135cb576135ca615608565b5b1a60f81b8282815181106135e2576135e1615608565b5b60200101907effffffffffffffffffffffffffffffffffffffffffffffffffffffffffffff1916908160001a905350600485901c94508061362290615446565b905061358c565b506000841461366d576040517f08c379a000000000000000000000000000000000000000000000000000000000815260040161366490614c04565b60405180910390fd5b8091505092915050565b6136818282611a08565b156137555760006065600084815260200190815260200160002060000160008373ffffffffffffffffffffffffffffffffffffffff1673ffffffffffffffffffffffffffffffffffffffff16815260200190815260200160002060006101000a81548160ff0219169083151502179055506136fa6121b2565b73ffffffffffffffffffffffffffffffffffffffff168173ffffffffffffffffffffffffffffffffffffffff16837ff6391f5c32d9c69d2a47ea670b442974b53935d1edc7fd64eb21e047a839171b60405160405180910390a45b5050565b6000808360010160008481526020019081526020016000205490506000811461386157600060018261378b91906152a5565b90506000600186600001805490506137a391906152a5565b90508181146138125760008660000182815481106137c4576137c3615608565b5b90600052602060002001549050808760000184815481106137e8576137e7615608565b5b90600052602060002001819055508387600101600083815260200190815260200160002081905550505b85600001805480613826576138256155d9565b5b600190038181906000526020600020016000905590558560010160008681526020019081526020016000206000905560019350505050613867565b60009150505b92915050565b60008260ff168460ff1610156138a757838361388991906152d9565b600a613895919061512d565b826138a0919061524b565b90506138cd565b82846138b391906152d9565b600a6138bf919061512d565b826138ca91906150a9565b90505b9392505050565b6000816040516020016138e79190614a6c565b604051602081830303815290604052805190602001209050919050565b60006041825114156139435760008060006020850151925060408501519150606085015160001a905061393986828585613b94565b93505050506139ad565b604082511415613972576000806020840151915060408401519050613969858383613d1f565b925050506139ad565b6040517f08c379a00000000000000000000000000000000000000000000000000000000081526004016139a490614c64565b60405180910390fd5b92915050565b60008260000182815481106139cb576139ca615608565b5b9060005260206000200154905092915050565b600060019054906101000a900460ff1680613a04575060008054906101000a900460ff16155b613a43576040517f08c379a0000000000000000000000000000000000000000000000000000000008152600401613a3a90614d44565b60405180910390fd5b60008060019054906101000a900460ff161590508015613a93576001600060016101000a81548160ff02191690831515021790555060016000806101000a81548160ff0219169083151502179055505b8260cd9080519060200190613aa9929190613d94565b508160ce9080519060200190613ac0929190613d94565b508015613ae25760008060016101000a81548160ff0219169083151502179055505b505050565b613af182826132ea565b5050565b600081600001805490509050919050565b613b11838383613d69565b505050565b80613b20846120db565b1015613b61576040517f08c379a0000000000000000000000000000000000000000000000000000000008152600401613b5890614e04565b60405180910390fd5b613b6c838383613d69565b505050565b600080836001016000848152602001908152602001600020541415905092915050565b60007f7fffffffffffffffffffffffffffffff5d576e7357a4501ddfe92f46681b20a08260001c1115613bfc576040517f08c379a0000000000000000000000000000000000000000000000000000000008152600401613bf390614cc4565b60405180910390fd5b601b8460ff161480613c115750601c8460ff16145b613c50576040517f08c379a0000000000000000000000000000000000000000000000000000000008152600401613c4790614d84565b60405180910390fd5b600060018686868660405160008152602001604052604051613c759493929190614b7d565b6020604051602081039080840390855afa158015613c97573d6000803e3d6000fd5b505050602060405103519050600073ffffffffffffffffffffffffffffffffffffffff168173ffffffffffffffffffffffffffffffffffffffff161415613d13576040517f08c379a0000000000000000000000000000000000000000000000000000000008152600401613d0a90614be4565b60405180910390fd5b80915050949350505050565b60008060007f7fffffffffffffffffffffffffffffffffffffffffffffffffffffffffffffff84169150601b8460ff1c019050613d5e86828785613b94565b925050509392505050565b505050565b6040518060400160405280600063ffffffff168152602001600063ffffffff1681525090565b828054613da090615470565b90600052602060002090601f016020900481019282613dc25760008555613e09565b82601f10613ddb57805160ff1916838001178555613e09565b82800160010185558215613e09579182015b82811115613e08578251825591602001919060010190613ded565b5b509050613e169190613e1a565b5090565b5b80821115613e33576000816000905550600101613e1b565b5090565b6000613e4a613e4584614ffb565b614fd6565b905082815260208101848484011115613e6657613e65615675565b5b613e71848285615404565b509392505050565b600081359050613e8881615f19565b92915050565b600081519050613e9d81615f30565b92915050565b600081359050613eb281615f47565b92915050565b600081359050613ec781615f5e565b92915050565b60008083601f840112613ee357613ee261566b565b5b8235905067ffffffffffffffff811115613f0057613eff615666565b5b602083019150836001820283011115613f1c57613f1b615670565b5b9250929050565b600081359050613f3281615f75565b92915050565b600082601f830112613f4d57613f4c61566b565b5b8135613f5d848260208601613e37565b91505092915050565b600081359050613f7581615f8c565b92915050565b600081359050613f8a81615fa3565b92915050565b600081359050613f9f81615fba565b92915050565b600060208284031215613fbb57613fba61567f565b5b6000613fc984828501613e79565b91505092915050565b60008060408385031215613fe957613fe861567f565b5b6000613ff785828601613e79565b925050602061400885828601613e79565b9150509250929050565b60008060008060008060008060006101008a8c0312156140355761403461567f565b5b60006140438c828d01613e79565b99505060206140548c828d01613e79565b98505060406140658c828d01613e79565b97505060606140768c828d01613f66565b96505060806140878c828d01613f66565b95505060a06140988c828d01613f66565b94505060c06140a98c828d01613f66565b93505060e08a013567ffffffffffffffff8111156140ca576140c961567a565b5b6140d68c828d01613ecd565b92509250509295985092959850929598565b6000806000606084860312156141015761410061567f565b5b600061410f86828701613e79565b935050602061412086828701613e79565b925050604061413186828701613f66565b9150509250925092565b600080604083850312156141525761415161567f565b5b600061416085828601613e79565b925050602061417185828601613f23565b9150509250929050565b6000806000606084860312156141945761419361567f565b5b60006141a286828701613e79565b93505060206141b386828701613f23565b92505060406141c486828701613f66565b9150509250925092565b600080604083850312156141e5576141e461567f565b5b60006141f385828601613e79565b925050602061420485828601613f66565b9150509250929050565b6000602082840312156142245761422361567f565b5b600061423284828501613e8e565b91505092915050565b6000602082840312156142515761425061567f565b5b600061425f84828501613ea3565b91505092915050565b6000806040838503121561427f5761427e61567f565b5b600061428d85828601613ea3565b925050602061429e85828601613e79565b9150509250929050565b600080604083850312156142bf576142be61567f565b5b60006142cd85828601613ea3565b92505060206142de85828601613f66565b9150509250929050565b6000602082840312156142fe576142fd61567f565b5b600061430c84828501613eb8565b91505092915050565b60006020828403121561432b5761432a61567f565b5b600061433984828501613f23565b91505092915050565b600080604083850312156143595761435861567f565b5b600061436785828601613f23565b925050602061437885828601613f66565b9150509250929050565b6000806000806080858703121561439c5761439b61567f565b5b60006143aa87828801613f23565b94505060206143bb87828801613f90565b93505060406143cc87828801613f7b565b92505060606143dd87828801613f7b565b91505092959194509250565b6000806000606084860312156144025761440161567f565b5b600084013567ffffffffffffffff8111156144205761441f61567a565b5b61442c86828701613f38565b935050602084013567ffffffffffffffff81111561444d5761444c61567a565b5b61445986828701613f38565b925050604061446a86828701613f66565b9150509250925092565b61447d8161530d565b82525050565b61449461448f8261530d565b6154d3565b82525050565b6144a38161531f565b82525050565b6144b28161532b565b82525050565b6144c96144c48261532b565b6154e5565b82525050565b6144d8816153e0565b82525050565b6144ef6144ea826153f2565b61550b565b82525050565b60006145008261502c565b61450a8185615037565b935061451a818560208601615413565b61452381615684565b840191505092915050565b60006145398261502c565b6145438185615048565b9350614553818560208601615413565b80840191505092915050565b600061456c601883615037565b9150614577826156bc565b602082019050919050565b600061458f602083615037565b915061459a826156e5565b602082019050919050565b60006145b2601b83615037565b91506145bd8261570e565b602082019050919050565b60006145d5603183615037565b91506145e082615737565b604082019050919050565b60006145f8601f83615037565b915061460382615786565b602082019050919050565b600061461b601c83615048565b9150614626826157af565b601c82019050919050565b600061463e603f83615037565b9150614649826157d8565b604082019050919050565b6000614661603683615037565b915061466c82615827565b604082019050919050565b6000614684602283615037565b915061468f82615876565b604082019050919050565b60006146a7603083615037565b91506146b2826158c5565b604082019050919050565b60006146ca606083615037565b91506146d582615914565b606082019050919050565b60006146ed602d83615037565b91506146f882615989565b604082019050919050565b6000614710602e83615037565b915061471b826159d8565b604082019050919050565b6000614733605f83615037565b915061473e82615a27565b606082019050919050565b6000614756602283615037565b915061476182615a9c565b604082019050919050565b6000614779602b83615037565b915061478482615aeb565b604082019050919050565b600061479c602c83615037565b91506147a782615b3a565b604082019050919050565b60006147bf603683615037565b91506147ca82615b89565b604082019050919050565b60006147e2603b83615037565b91506147ed82615bd8565b604082019050919050565b6000614805603283615037565b915061481082615c27565b604082019050919050565b6000614828601783615048565b915061483382615c76565b601782019050919050565b600061484b604b83615037565b915061485682615c9f565b606082019050919050565b600061486e602883615037565b915061487982615d14565b604082019050919050565b6000614891602b83615037565b915061489c82615d63565b604082019050919050565b60006148b4601183615048565b91506148bf82615db2565b601182019050919050565b60006148d7602a83615037565b91506148e282615ddb565b604082019050919050565b60006148fa602f83615037565b915061490582615e2a565b604082019050919050565b600061491d601f83615037565b915061492882615e79565b602082019050919050565b6000614940602c83615037565b915061494b82615ea2565b604082019050919050565b60408201600082015161496c60008501826149ab565b50602082015161497f60208501826149ab565b50505050565b61498e816153b9565b82525050565b6149a56149a0826153b9565b615501565b82525050565b6149b4816153c3565b82525050565b6149c3816153d3565b82525050565b60006149d5828c6144de565b6001820191506149e5828b614994565b6020820191506149f5828a614483565b601482019150614a058289614483565b601482019150614a158288614483565b601482019150614a258287614994565b602082019150614a358286614994565b602082019150614a458285614994565b602082019150614a558284614994565b6020820191508190509a9950505050505050505050565b6000614a778261460e565b9150614a8382846144b8565b60208201915081905092915050565b6000614a9d8261481b565b9150614aa9828561452e565b9150614ab4826148a7565b9150614ac0828461452e565b91508190509392505050565b6000602082019050614ae16000830184614474565b92915050565b6000606082019050614afc6000830186614474565b614b096020830185614474565b614b166040830184614985565b949350505050565b6000604082019050614b336000830185614474565b614b406020830184614985565b9392505050565b6000602082019050614b5c600083018461449a565b92915050565b6000602082019050614b7760008301846144a9565b92915050565b6000608082019050614b9260008301876144a9565b614b9f60208301866149ba565b614bac60408301856144a9565b614bb960608301846144a9565b95945050505050565b60006020820190508181036000830152614bdc81846144f5565b905092915050565b60006020820190508181036000830152614bfd8161455f565b9050919050565b60006020820190508181036000830152614c1d81614582565b9050919050565b60006020820190508181036000830152614c3d816145a5565b9050919050565b60006020820190508181036000830152614c5d816145c8565b9050919050565b60006020820190508181036000830152614c7d816145eb565b9050919050565b60006020820190508181036000830152614c9d81614631565b9050919050565b60006020820190508181036000830152614cbd81614654565b9050919050565b60006020820190508181036000830152614cdd81614677565b9050919050565b60006020820190508181036000830152614cfd8161469a565b9050919050565b60006020820190508181036000830152614d1d816146bd565b9050919050565b60006020820190508181036000830152614d3d816146e0565b9050919050565b60006020820190508181036000830152614d5d81614703565b9050919050565b60006020820190508181036000830152614d7d81614726565b9050919050565b60006020820190508181036000830152614d9d81614749565b9050919050565b60006020820190508181036000830152614dbd8161476c565b9050919050565b60006020820190508181036000830152614ddd8161478f565b9050919050565b60006020820190508181036000830152614dfd816147b2565b9050919050565b60006020820190508181036000830152614e1d816147d5565b9050919050565b60006020820190508181036000830152614e3d816147f8565b9050919050565b60006020820190508181036000830152614e5d8161483e565b9050919050565b60006020820190508181036000830152614e7d81614861565b9050919050565b60006020820190508181036000830152614e9d81614884565b9050919050565b60006020820190508181036000830152614ebd816148ca565b9050919050565b60006020820190508181036000830152614edd816148ed565b9050919050565b60006020820190508181036000830152614efd81614910565b9050919050565b60006020820190508181036000830152614f1d81614933565b9050919050565b6000604082019050614f396000830184614956565b92915050565b6000602082019050614f546000830184614985565b92915050565b600060c082019050614f6f6000830189614985565b614f7c6020830188614985565b614f896040830187614474565b614f966060830186614474565b614fa36080830185614985565b614fb060a08301846144cf565b979650505050505050565b6000602082019050614fd060008301846149ba565b92915050565b6000614fe0614ff1565b9050614fec82826154a2565b919050565b6000604051905090565b600067ffffffffffffffff82111561501657615015615637565b5b61501f82615684565b9050602081019050919050565b600081519050919050565b600082825260208201905092915050565b600081905092915050565b600061505e826153b9565b9150615069836153b9565b9250827fffffffffffffffffffffffffffffffffffffffffffffffffffffffffffffffff0382111561509e5761509d61551d565b5b828201905092915050565b60006150b4826153b9565b91506150bf836153b9565b9250826150cf576150ce61554c565b5b828204905092915050565b6000808291508390505b600185111561512457808604811115615100576150ff61551d565b5b600185161561510f5780820291505b808102905061511d856156af565b94506150e4565b94509492505050565b6000615138826153b9565b9150615143836153d3565b92506151707fffffffffffffffffffffffffffffffffffffffffffffffffffffffffffffffff8484615178565b905092915050565b6000826151885760019050615244565b816151965760009050615244565b81600181146151ac57600281146151b6576151e5565b6001915050615244565b60ff8411156151c8576151c761551d565b5b8360020a9150848211156151df576151de61551d565b5b50615244565b5060208310610133831016604e8410600b841016171561521a5782820a9050838111156152155761521461551d565b5b615244565b61522784848460016150da565b9250905081840481111561523e5761523d61551d565b5b81810290505b9392505050565b6000615256826153b9565b9150615261836153b9565b9250817fffffffffffffffffffffffffffffffffffffffffffffffffffffffffffffffff048311821515161561529a5761529961551d565b5b828202905092915050565b60006152b0826153b9565b91506152bb836153b9565b9250828210156152ce576152cd61551d565b5b828203905092915050565b60006152e4826153d3565b91506152ef836153d3565b9250828210156153025761530161551d565b5b828203905092915050565b600061531882615399565b9050919050565b60008115159050919050565b6000819050919050565b60007fffffffff0000000000000000000000000000000000000000000000000000000082169050919050565b600061536c8261530d565b9050919050565b600081905061538182615ef1565b919050565b600081905061539482615f05565b919050565b600073ffffffffffffffffffffffffffffffffffffffff82169050919050565b6000819050919050565b600063ffffffff82169050919050565b600060ff82169050919050565b60006153eb82615373565b9050919050565b60006153fd82615386565b9050919050565b82818337600083830152505050565b60005b83811015615431578082015181840152602081019050615416565b83811115615440576000848401525b50505050565b6000615451826153b9565b915060008214156154655761546461551d565b5b600182039050919050565b6000600282049050600182168061548857607f821691505b6020821081141561549c5761549b6155aa565b5b50919050565b6154ab82615684565b810181811067ffffffffffffffff821117156154ca576154c9615637565b5b80604052505050565b60006154de826154ef565b9050919050565b6000819050919050565b60006154fa826156a2565b9050919050565b6000819050919050565b600061551682615695565b9050919050565b7f4e487b7100000000000000000000000000000000000000000000000000000000600052601160045260246000fd5b7f4e487b7100000000000000000000000000000000000000000000000000000000600052601260045260246000fd5b7f4e487b7100000000000000000000000000000000000000000000000000000000600052602160045260246000fd5b7f4e487b7100000000000000000000000000000000000000000000000000000000600052602260045260246000fd5b7f4e487b7100000000000000000000000000000000000000000000000000000000600052603160045260246000fd5b7f4e487b7100000000000000000000000000000000000000000000000000000000600052603260045260246000fd5b7f4e487b7100000000000000000000000000000000000000000000000000000000600052604160045260246000fd5b600080fd5b600080fd5b600080fd5b600080fd5b600080fd5b600080fd5b6000601f19601f8301169050919050565b60008160f81b9050919050565b60008160601b9050919050565b60008160011c9050919050565b7f45434453413a20696e76616c6964207369676e61747572650000000000000000600082015250565b7f537472696e67733a20686578206c656e67746820696e73756666696369656e74600082015250565b7f56616c69646174653a20696e76616c6964207369676e61747572650000000000600082015250565b7f455243323052657365727661626c653a2063616e6e6f7420657865637574652060008201527f66726f6d207a65726f2061646472657373000000000000000000000000000000602082015250565b7f45434453413a20696e76616c6964207369676e6174757265206c656e67746800600082015250565b7f19457468657265756d205369676e6564204d6573736167653a0a333200000000600082015250565b7f455243323052657365727661626c653a207265736572766174696f6e2068617360008201527f206578706972656420616e642063616e6e6f7420626520657865637574656400602082015250565b7f455243323052657365727661626c653a20696e76616c6964207265736572766160008201527f74696f6e2073746174757320746f207265636c61696d00000000000000000000602082015250565b7f45434453413a20696e76616c6964207369676e6174757265202773272076616c60008201527f7565000000000000000000000000000000000000000000000000000000000000602082015250565b7f455243323052657365727661626c653a20696e73756666696369656e7420756e60008201527f72657365727665642062616c616e636500000000000000000000000000000000602082015250565b7f455243323052657365727661626c653a207265736572766174696f6e2068617360008201527f206e6f742065787069726564206f7220796f7520617265206e6f74207468652060208201527f6578656375746f7220616e642063616e6e6f74206265207265636c61696d6564604082015250565b7f436f6e7665727469626c653a20546865206261736520746f6b656e206973206e60008201527f6f7420737570706f727465642e00000000000000000000000000000000000000602082015250565b7f496e697469616c697a61626c653a20636f6e747261637420697320616c72656160008201527f647920696e697469616c697a6564000000000000000000000000000000000000602082015250565b7f455243323052657365727661626c653a206f6e6c79207468652073656e64657260008201527f206f7220746865206578656375746f722063616e207265636c61696d2074686560208201527f207265736572766174696f6e206261636b20746f207468652073656e64657200604082015250565b7f45434453413a20696e76616c6964207369676e6174757265202776272076616c60008201527f7565000000000000000000000000000000000000000000000000000000000000602082015250565b7f45524332303a207472616e736665722066726f6d206f7220746f20746865207a60008201527f65726f2061646472657373000000000000000000000000000000000000000000602082015250565b7f436f6e7665727469626c653a2043616e2774207769746864726177207468652060008201527f746f6b656e20616d6f756e740000000000000000000000000000000000000000602082015250565b7f455243323052657365727661626c653a20696e76616c6964207265736572766160008201527f74696f6e2073746174757320746f206578656375746500000000000000000000602082015250565b7f455243323052657365727661626c653a207472616e7366657220616d6f756e7460008201527f206578636565647320756e72657365727665642062616c616e63650000000000602082015250565b7f455243323052657365727661626c653a207468652073656e646572207573656460008201527f20746865206e6f6e636520616c72656164790000000000000000000000000000602082015250565b7f416363657373436f6e74726f6c3a206163636f756e7420000000000000000000600082015250565b7f455243323052657365727661626c653a2074686973206164647265737320697360008201527f206e6f7420617574686f72697a656420746f206578656375746520746869732060208201527f7265736572766174696f6e000000000000000000000000000000000000000000604082015250565b7f436f6e7665727469626c653a2043616e2774206c6f636b2074686520746f6b6560008201527f6e20616d6f756e74000000000000000000000000000000000000000000000000602082015250565b7f455243323052657365727661626c653a207265736572766174696f6e20646f6560008201527f73206e6f74206578697374000000000000000000000000000000000000000000602082015250565b7f206973206d697373696e6720726f6c6520000000000000000000000000000000600082015250565b7f45524332303a20617070726f76652066726f6d206f7220746f20746865207a6560008201527f726f206164647265737300000000000000000000000000000000000000000000602082015250565b7f416363657373436f6e74726f6c3a2063616e206f6e6c792072656e6f756e636560008201527f20726f6c657320666f722073656c660000000000000000000000000000000000602082015250565b7f45524332303a206d696e7420746f20746865207a65726f206164647265737300600082015250565b7f455243323052657365727661626c653a20696e76616c696420626c6f636b206560008201527f7870697279206e756d6265720000000000000000000000000000000000000000602082015250565b60048110615f0257615f0161557b565b5b50565b60058110615f1657615f1561557b565b5b50565b615f228161530d565b8114615f2d57600080fd5b50565b615f398161531f565b8114615f4457600080fd5b50565b615f508161532b565b8114615f5b57600080fd5b50565b615f6781615335565b8114615f7257600080fd5b50565b615f7e81615361565b8114615f8957600080fd5b50565b615f95816153b9565b8114615fa057600080fd5b50565b615fac816153c3565b8114615fb757600080fd5b50565b615fc3816153d3565b8114615fce57600080fd5b5056fea26469706673582212206870a1b0fa0e674d9fb0a99a98f62e8da0a6faf747ff898f9617861da3871b8b64736f6c63430008070033",
  "immutableReferences": {},
  "source": "// SPDX-License-Identifier: MIT\npragma solidity >=0.8.6;\n\nimport \"./abstracts/ContextUpgradeable.sol\";\nimport \"./abstracts/ERC20Reservable.sol\";\nimport \"./abstracts/Convertible.sol\";\nimport \"./abstracts/ETHlessTransfer.sol\";\n\n/**\n * @dev Extension of {ERC20} that adds a set of accounts with the {MinterRole},\n * which have permission to mint (create) new tokens as they see fit.\n *\n * At construction, the deployer of the contract is the only minter.\n */\ncontract GluwacoinSandbox is\n    ContextUpgradeable,\n    ERC20Reservable,\n    Convertible,\n    ETHlessTransfer\n{\n    function initialize(string memory name_, string memory symbol_, uint256 amount)\n        external\n        initializer\n    {\n        __ERC20ETHless_init_unchained(name_, symbol_);\n        __Convertible_init_unchained(decimals());\n        _setupRole(DEFAULT_ADMIN_ROLE, _msgSender());\n        _mint(_msgSender(), amount);\n    }\n\n    function setTokenExchange(\n        IERC20 token,\n        uint8 decimals,\n        uint32 newExchangeRate,\n        uint32 newExchangeRateDecimalPlaceBase\n    ) external onlyRole(DEFAULT_ADMIN_ROLE) returns (bool) {\n        return\n            _setTokenExchange(\n                token,\n                decimals,\n                newExchangeRate,\n                newExchangeRateDecimalPlaceBase\n            );\n    }\n\n    function lockFrom(\n        address account,\n        IERC20 token,\n        uint256 amount\n    ) external onlyRole(DEFAULT_ADMIN_ROLE) returns (bool) {\n        return _lockFrom(account, token, amount);\n    }\n\n    function convertAllFrom(address account, IERC20 token)\n        external\n        onlyRole(DEFAULT_ADMIN_ROLE)\n        returns (bool)\n    {\n        uint256 lockedAmount = _locks[account][token];\n        _release(account, token, lockedAmount);\n\n        uint256 convertedAmount = _calculateConversion(token, lockedAmount);\n        _mint(account, convertedAmount);\n\n        return true;\n    }\n\n    function convertFrom(\n        address account,\n        IERC20 token,\n        uint256 amount\n    ) external onlyRole(DEFAULT_ADMIN_ROLE) returns (bool) {\n        return _convert(account, token, amount);\n    }\n\n    function convert(IERC20 token, uint256 amount) external returns (bool) {\n        return _convert(_msgSender(), token, amount);\n    }\n\n    function _convert(\n        address account,\n        IERC20 token,\n        uint256 amount\n    ) private returns (bool) {\n        _release(account, token, amount);\n\n        uint256 convertedAmount = _calculateConversion(token, amount);\n        _mint(account, convertedAmount);\n\n        return true;\n    }\n\n    /** @dev check the amount of available tokens of sender to transfer.\n     * Must override all the parent's functions\n     * Do 2 checks:\n     * - Total balance must be equal or higher than the transferring amount.\n     * - Unreserving (the amount of tokens are not put as a reserve) must be equal or higher than the transferring amount.\n     */\n\n    function _beforeTokenTransfer(\n        address from,\n        address to,\n        uint256 amount\n    ) internal override(ETHlessTransfer, ERC20Reservable) {\n        ETHlessTransfer._beforeTokenTransfer(from, to, amount);\n        ERC20Reservable._beforeTokenTransfer(from, to, amount);\n    }\n\n    uint256[50] private __gap;\n}\n",
  "sourcePath": "/home/osboxes/KRWC-G-1/contracts/GluwacoinSandbox.sol",
  "compiler": {
    "name": "solc",
    "version": "0.8.7+commit.e28d00a7.Emscripten.clang"
  },
  "schemaVersion": "3.3.4",
  "updatedAt": "2021-08-12T23:27:18.053Z",
  "devdoc": {
    "details": "Extension of {ERC20} that adds a set of accounts with the {MinterRole}, which have permission to mint (create) new tokens as they see fit. At construction, the deployer of the contract is the only minter.",
    "kind": "dev",
    "methods": {
      "allowance(address,address)": {
        "details": "See {IERC20-allowance}."
      },
      "approve(address,uint256)": {
        "details": "See {IERC20-approve}. Requirements: - `spender` cannot be the zero address."
      },
      "balanceOf(address)": {
        "details": "See {IERC20-balanceOf}."
      },
      "decimals()": {
        "details": "Returns the number of decimals used to get its user representation. For example, if `decimals` equals `2`, a balance of `505` tokens should be displayed to a user as `5,05` (`505 / 10 ** 2`). Tokens usually opt for a value of 18, imitating the relationship between Ether and Wei. This is the value {ERC20} uses, unless this function is overridden; NOTE: This information is only used for _display_ purposes: it in no way affects any of the arithmetic of the contract, including {IERC20-balanceOf} and {IERC20-transfer}."
      },
      "decreaseAllowance(address,uint256)": {
        "details": "Atomically decreases the allowance granted to `spender` by the caller. This is an alternative to {approve} that can be used as a mitigation for problems described in {IERC20-approve}. Emits an {Approval} event indicating the updated allowance. Requirements: - `spender` cannot be the zero address. - `spender` must have allowance for the caller of at least `subtractedValue`."
      },
      "getRoleAdmin(bytes32)": {
        "details": "Returns the admin role that controls `role`. See {grantRole} and {revokeRole}. To change a role's admin, use {_setRoleAdmin}."
      },
      "getRoleMember(bytes32,uint256)": {
        "details": "Returns one of the accounts that have `role`. `index` must be a value between 0 and {getRoleMemberCount}, non-inclusive. Role bearers are not sorted in any particular way, and their ordering may change at any point. WARNING: When using {getRoleMember} and {getRoleMemberCount}, make sure you perform all queries on the same block. See the following https://forum.openzeppelin.com/t/iterating-over-elements-on-enumerableset-in-openzeppelin-contracts/2296[forum post] for more information."
      },
      "getRoleMemberCount(bytes32)": {
        "details": "Returns the number of accounts that have `role`. Can be used together with {getRoleMember} to enumerate all bearers of a role."
      },
      "grantRole(bytes32,address)": {
        "details": "Overload {grantRole} to track enumerable memberships"
      },
      "hasRole(bytes32,address)": {
        "details": "Returns `true` if `account` has been granted `role`."
      },
      "increaseAllowance(address,uint256)": {
        "details": "Atomically increases the allowance granted to `spender` by the caller. This is an alternative to {approve} that can be used as a mitigation for problems described in {IERC20-approve}. Emits an {Approval} event indicating the updated allowance. Requirements: - `spender` cannot be the zero address."
      },
      "name()": {
        "details": "Returns the name of the token."
      },
      "renounceRole(bytes32,address)": {
        "details": "Overload {renounceRole} to track enumerable memberships"
      },
      "revokeRole(bytes32,address)": {
        "details": "Overload {revokeRole} to track enumerable memberships"
      },
      "supportsInterface(bytes4)": {
        "details": "See {IERC165-supportsInterface}."
      },
      "symbol()": {
        "details": "Returns the symbol of the token, usually a shorter version of the name."
      },
      "totalSupply()": {
        "details": "See {IERC20-totalSupply}."
      },
      "transfer(address,uint256)": {
        "details": "See {IERC20-transfer}. Requirements: - `recipient` cannot be the zero address. - the caller must have a balance of at least `amount`."
      },
      "transferFrom(address,address,uint256)": {
        "details": "See {IERC20-transferFrom}. Emits an {Approval} event indicating the updated allowance. This is not required by the EIP. See the note at the beginning of {ERC20}. Requirements: - `sender` and `recipient` cannot be the zero address. - `sender` must have a balance of at least `amount`. - the caller must have allowance for ``sender``'s tokens of at least `amount`."
      }
    },
    "version": 1
  },
  "userdoc": {
    "kind": "user",
    "methods": {},
    "version": 1
  }
}