{
  "contractName": "Gluwacoin",
  "abi": [
    {
      "anonymous": false,
      "inputs": [
        {
          "indexed": true,
          "internalType": "address",
          "name": "owner",
          "type": "address"
        },
        {
          "indexed": true,
          "internalType": "address",
          "name": "spender",
          "type": "address"
        },
        {
          "indexed": false,
          "internalType": "uint256",
          "name": "value",
          "type": "uint256"
        }
      ],
      "name": "Approval",
      "type": "event"
    },
    {
      "anonymous": false,
      "inputs": [
        {
          "indexed": true,
          "internalType": "address",
          "name": "sender",
          "type": "address"
        },
        {
          "indexed": true,
          "internalType": "contract IERC20",
          "name": "token",
          "type": "address"
        },
        {
          "indexed": false,
          "internalType": "uint256",
          "name": "_value",
          "type": "uint256"
        }
      ],
      "name": "Locked",
      "type": "event"
    },
    {
      "anonymous": false,
      "inputs": [
        {
          "indexed": true,
          "internalType": "bytes32",
          "name": "role",
          "type": "bytes32"
        },
        {
          "indexed": true,
          "internalType": "bytes32",
          "name": "previousAdminRole",
          "type": "bytes32"
        },
        {
          "indexed": true,
          "internalType": "bytes32",
          "name": "newAdminRole",
          "type": "bytes32"
        }
      ],
      "name": "RoleAdminChanged",
      "type": "event"
    },
    {
      "anonymous": false,
      "inputs": [
        {
          "indexed": true,
          "internalType": "bytes32",
          "name": "role",
          "type": "bytes32"
        },
        {
          "indexed": true,
          "internalType": "address",
          "name": "account",
          "type": "address"
        },
        {
          "indexed": true,
          "internalType": "address",
          "name": "sender",
          "type": "address"
        }
      ],
      "name": "RoleGranted",
      "type": "event"
    },
    {
      "anonymous": false,
      "inputs": [
        {
          "indexed": true,
          "internalType": "bytes32",
          "name": "role",
          "type": "bytes32"
        },
        {
          "indexed": true,
          "internalType": "address",
          "name": "account",
          "type": "address"
        },
        {
          "indexed": true,
          "internalType": "address",
          "name": "sender",
          "type": "address"
        }
      ],
      "name": "RoleRevoked",
      "type": "event"
    },
    {
      "anonymous": false,
      "inputs": [
        {
          "indexed": true,
          "internalType": "address",
          "name": "from",
          "type": "address"
        },
        {
          "indexed": true,
          "internalType": "address",
          "name": "to",
          "type": "address"
        },
        {
          "indexed": false,
          "internalType": "uint256",
          "name": "value",
          "type": "uint256"
        }
      ],
      "name": "Transfer",
      "type": "event"
    },
    {
      "inputs": [],
      "name": "DEFAULT_ADMIN_ROLE",
      "outputs": [
        {
          "internalType": "bytes32",
          "name": "",
          "type": "bytes32"
        }
      ],
      "stateMutability": "view",
      "type": "function"
    },
    {
      "inputs": [],
      "name": "RELAYER_ROLE",
      "outputs": [
        {
          "internalType": "bytes32",
          "name": "",
          "type": "bytes32"
        }
      ],
      "stateMutability": "view",
      "type": "function"
    },
    {
      "inputs": [
        {
          "internalType": "address",
          "name": "owner",
          "type": "address"
        },
        {
          "internalType": "address",
          "name": "spender",
          "type": "address"
        }
      ],
      "name": "allowance",
      "outputs": [
        {
          "internalType": "uint256",
          "name": "",
          "type": "uint256"
        }
      ],
      "stateMutability": "view",
      "type": "function"
    },
    {
      "inputs": [
        {
          "internalType": "address",
          "name": "spender",
          "type": "address"
        },
        {
          "internalType": "uint256",
          "name": "amount",
          "type": "uint256"
        }
      ],
      "name": "approve",
      "outputs": [
        {
          "internalType": "bool",
          "name": "",
          "type": "bool"
        }
      ],
      "stateMutability": "nonpayable",
      "type": "function"
    },
    {
      "inputs": [
        {
          "internalType": "address",
          "name": "account",
          "type": "address"
        }
      ],
      "name": "balanceOf",
      "outputs": [
        {
          "internalType": "uint256",
          "name": "",
          "type": "uint256"
        }
      ],
      "stateMutability": "view",
      "type": "function"
    },
    {
      "inputs": [],
      "name": "decimals",
      "outputs": [
        {
          "internalType": "uint8",
          "name": "",
          "type": "uint8"
        }
      ],
      "stateMutability": "view",
      "type": "function"
    },
    {
      "inputs": [
        {
          "internalType": "address",
          "name": "spender",
          "type": "address"
        },
        {
          "internalType": "uint256",
          "name": "subtractedValue",
          "type": "uint256"
        }
      ],
      "name": "decreaseAllowance",
      "outputs": [
        {
          "internalType": "bool",
          "name": "",
          "type": "bool"
        }
      ],
      "stateMutability": "nonpayable",
      "type": "function"
    },
    {
      "inputs": [
        {
          "internalType": "address",
          "name": "sender",
          "type": "address"
        },
        {
          "internalType": "uint256",
          "name": "nonce",
          "type": "uint256"
        }
      ],
      "name": "execute",
      "outputs": [
        {
          "internalType": "bool",
          "name": "success",
          "type": "bool"
        }
      ],
      "stateMutability": "nonpayable",
      "type": "function"
    },
    {
      "inputs": [
        {
          "internalType": "address",
          "name": "account",
          "type": "address"
        },
        {
          "internalType": "contract IERC20",
          "name": "token",
          "type": "address"
        }
      ],
      "name": "getLocked",
      "outputs": [
        {
          "internalType": "uint256",
          "name": "",
          "type": "uint256"
        }
      ],
      "stateMutability": "view",
      "type": "function"
    },
    {
      "inputs": [
        {
          "internalType": "address",
          "name": "sender",
          "type": "address"
        },
        {
          "internalType": "uint256",
          "name": "nonce",
          "type": "uint256"
        }
      ],
      "name": "getReservation",
      "outputs": [
        {
          "internalType": "uint256",
          "name": "amount",
          "type": "uint256"
        },
        {
          "internalType": "uint256",
          "name": "fee",
          "type": "uint256"
        },
        {
          "internalType": "address",
          "name": "recipient",
          "type": "address"
        },
        {
          "internalType": "address",
          "name": "executor",
          "type": "address"
        },
        {
          "internalType": "uint256",
          "name": "expiryBlockNum",
          "type": "uint256"
        },
        {
          "internalType": "enum ERC20Reservable.ReservationStatus",
          "name": "status",
          "type": "uint8"
        }
      ],
      "stateMutability": "view",
      "type": "function"
    },
    {
      "inputs": [
        {
          "internalType": "bytes32",
          "name": "role",
          "type": "bytes32"
        }
      ],
      "name": "getRoleAdmin",
      "outputs": [
        {
          "internalType": "bytes32",
          "name": "",
          "type": "bytes32"
        }
      ],
      "stateMutability": "view",
      "type": "function"
    },
    {
      "inputs": [
        {
          "internalType": "bytes32",
          "name": "role",
          "type": "bytes32"
        },
        {
          "internalType": "uint256",
          "name": "index",
          "type": "uint256"
        }
      ],
      "name": "getRoleMember",
      "outputs": [
        {
          "internalType": "address",
          "name": "",
          "type": "address"
        }
      ],
      "stateMutability": "view",
      "type": "function"
    },
    {
      "inputs": [
        {
          "internalType": "bytes32",
          "name": "role",
          "type": "bytes32"
        }
      ],
      "name": "getRoleMemberCount",
      "outputs": [
        {
          "internalType": "uint256",
          "name": "",
          "type": "uint256"
        }
      ],
      "stateMutability": "view",
      "type": "function"
    },
    {
      "inputs": [
        {
          "internalType": "contract IERC20",
          "name": "token",
          "type": "address"
        }
      ],
      "name": "getTokenExchangeDetails",
      "outputs": [
        {
          "components": [
            {
              "internalType": "uint32",
              "name": "rate",
              "type": "uint32"
            },
            {
              "internalType": "uint32",
              "name": "decimalPlaceBase",
              "type": "uint32"
            }
          ],
          "internalType": "struct GluwacoinModel.TokenExchangeModel",
          "name": "",
          "type": "tuple"
        }
      ],
      "stateMutability": "view",
      "type": "function"
    },
    {
      "inputs": [
        {
          "internalType": "bytes32",
          "name": "role",
          "type": "bytes32"
        },
        {
          "internalType": "address",
          "name": "account",
          "type": "address"
        }
      ],
      "name": "grantRole",
      "outputs": [],
      "stateMutability": "nonpayable",
      "type": "function"
    },
    {
      "inputs": [
        {
          "internalType": "bytes32",
          "name": "role",
          "type": "bytes32"
        },
        {
          "internalType": "address",
          "name": "account",
          "type": "address"
        }
      ],
      "name": "hasRole",
      "outputs": [
        {
          "internalType": "bool",
          "name": "",
          "type": "bool"
        }
      ],
      "stateMutability": "view",
      "type": "function"
    },
    {
      "inputs": [
        {
          "internalType": "address",
          "name": "spender",
          "type": "address"
        },
        {
          "internalType": "uint256",
          "name": "addedValue",
          "type": "uint256"
        }
      ],
      "name": "increaseAllowance",
      "outputs": [
        {
          "internalType": "bool",
          "name": "",
          "type": "bool"
        }
      ],
      "stateMutability": "nonpayable",
      "type": "function"
    },
    {
      "inputs": [
        {
          "internalType": "contract IERC20",
          "name": "token",
          "type": "address"
        },
        {
          "internalType": "uint256",
          "name": "amount",
          "type": "uint256"
        }
      ],
      "name": "lock",
      "outputs": [
        {
          "internalType": "bool",
          "name": "",
          "type": "bool"
        }
      ],
      "stateMutability": "nonpayable",
      "type": "function"
    },
    {
      "inputs": [],
      "name": "name",
      "outputs": [
        {
          "internalType": "string",
          "name": "",
          "type": "string"
        }
      ],
      "stateMutability": "view",
      "type": "function"
    },
    {
      "inputs": [
        {
          "internalType": "address",
          "name": "sender",
          "type": "address"
        },
        {
          "internalType": "uint256",
          "name": "nonce",
          "type": "uint256"
        }
      ],
      "name": "reclaim",
      "outputs": [
        {
          "internalType": "bool",
          "name": "success",
          "type": "bool"
        }
      ],
      "stateMutability": "nonpayable",
      "type": "function"
    },
    {
      "inputs": [
        {
          "internalType": "bytes32",
          "name": "role",
          "type": "bytes32"
        },
        {
          "internalType": "address",
          "name": "account",
          "type": "address"
        }
      ],
      "name": "renounceRole",
      "outputs": [],
      "stateMutability": "nonpayable",
      "type": "function"
    },
    {
      "inputs": [
        {
          "internalType": "address",
          "name": "sender",
          "type": "address"
        },
        {
          "internalType": "address",
          "name": "recipient",
          "type": "address"
        },
        {
          "internalType": "address",
          "name": "executor",
          "type": "address"
        },
        {
          "internalType": "uint256",
          "name": "amount",
          "type": "uint256"
        },
        {
          "internalType": "uint256",
          "name": "fee",
          "type": "uint256"
        },
        {
          "internalType": "uint256",
          "name": "nonce",
          "type": "uint256"
        },
        {
          "internalType": "uint256",
          "name": "expiryBlockNum",
          "type": "uint256"
        },
        {
          "internalType": "bytes",
          "name": "sig",
          "type": "bytes"
        }
      ],
      "name": "reserve",
      "outputs": [
        {
          "internalType": "bool",
          "name": "success",
          "type": "bool"
        }
      ],
      "stateMutability": "nonpayable",
      "type": "function"
    },
    {
      "inputs": [
        {
          "internalType": "address",
          "name": "account",
          "type": "address"
        }
      ],
      "name": "reservedBalanceOf",
      "outputs": [
        {
          "internalType": "uint256",
          "name": "amount",
          "type": "uint256"
        }
      ],
      "stateMutability": "view",
      "type": "function"
    },
    {
      "inputs": [
        {
          "internalType": "bytes32",
          "name": "role",
          "type": "bytes32"
        },
        {
          "internalType": "address",
          "name": "account",
          "type": "address"
        }
      ],
      "name": "revokeRole",
      "outputs": [],
      "stateMutability": "nonpayable",
      "type": "function"
    },
    {
      "inputs": [
        {
          "internalType": "bytes4",
          "name": "interfaceId",
          "type": "bytes4"
        }
      ],
      "name": "supportsInterface",
      "outputs": [
        {
          "internalType": "bool",
          "name": "",
          "type": "bool"
        }
      ],
      "stateMutability": "view",
      "type": "function"
    },
    {
      "inputs": [],
      "name": "symbol",
      "outputs": [
        {
          "internalType": "string",
          "name": "",
          "type": "string"
        }
      ],
      "stateMutability": "view",
      "type": "function"
    },
    {
      "inputs": [],
      "name": "totalSupply",
      "outputs": [
        {
          "internalType": "uint256",
          "name": "",
          "type": "uint256"
        }
      ],
      "stateMutability": "view",
      "type": "function"
    },
    {
      "inputs": [
        {
          "internalType": "address",
          "name": "sender",
          "type": "address"
        },
        {
          "internalType": "address",
          "name": "recipient",
          "type": "address"
        },
        {
          "internalType": "uint256",
          "name": "amount",
          "type": "uint256"
        },
        {
          "internalType": "uint256",
          "name": "fee",
          "type": "uint256"
        },
        {
          "internalType": "uint256",
          "name": "nonce",
          "type": "uint256"
        },
        {
          "internalType": "bytes",
          "name": "sig",
          "type": "bytes"
        }
      ],
      "name": "transfer",
      "outputs": [
        {
          "internalType": "bool",
          "name": "success",
          "type": "bool"
        }
      ],
      "stateMutability": "nonpayable",
      "type": "function"
    },
    {
      "inputs": [
        {
          "internalType": "address",
          "name": "recipient",
          "type": "address"
        },
        {
          "internalType": "uint256",
          "name": "amount",
          "type": "uint256"
        }
      ],
      "name": "transfer",
      "outputs": [
        {
          "internalType": "bool",
          "name": "",
          "type": "bool"
        }
      ],
      "stateMutability": "nonpayable",
      "type": "function"
    },
    {
      "inputs": [
        {
          "internalType": "address",
          "name": "sender",
          "type": "address"
        },
        {
          "internalType": "address",
          "name": "recipient",
          "type": "address"
        },
        {
          "internalType": "uint256",
          "name": "amount",
          "type": "uint256"
        }
      ],
      "name": "transferFrom",
      "outputs": [
        {
          "internalType": "bool",
          "name": "",
          "type": "bool"
        }
      ],
      "stateMutability": "nonpayable",
      "type": "function"
    },
    {
      "inputs": [
        {
          "internalType": "address",
          "name": "account",
          "type": "address"
        }
      ],
      "name": "unreservedBalanceOf",
      "outputs": [
        {
          "internalType": "uint256",
          "name": "amount",
          "type": "uint256"
        }
      ],
      "stateMutability": "view",
      "type": "function"
    },
    {
      "inputs": [
        {
          "internalType": "contract IERC20",
          "name": "token",
          "type": "address"
        },
        {
          "internalType": "uint256",
          "name": "amount",
          "type": "uint256"
        }
      ],
      "name": "withdraw",
      "outputs": [
        {
          "internalType": "bool",
          "name": "",
          "type": "bool"
        }
      ],
      "stateMutability": "nonpayable",
      "type": "function"
    },
    {
      "inputs": [
        {
          "internalType": "string",
          "name": "name_",
          "type": "string"
        },
        {
          "internalType": "string",
          "name": "symbol_",
          "type": "string"
        }
      ],
      "name": "initialize",
      "outputs": [],
      "stateMutability": "nonpayable",
      "type": "function"
    },
    {
      "inputs": [
        {
          "internalType": "contract IERC20",
          "name": "token",
          "type": "address"
        },
        {
          "internalType": "uint8",
          "name": "decimals",
          "type": "uint8"
        },
        {
          "internalType": "uint32",
          "name": "newExchangeRate",
          "type": "uint32"
        },
        {
          "internalType": "uint32",
          "name": "newExchangeRateDecimalPlaceBase",
          "type": "uint32"
        }
      ],
      "name": "setTokenExchange",
      "outputs": [
        {
          "internalType": "bool",
          "name": "",
          "type": "bool"
        }
      ],
      "stateMutability": "nonpayable",
      "type": "function"
    },
    {
      "inputs": [
        {
          "internalType": "address",
          "name": "account",
          "type": "address"
        },
        {
          "internalType": "contract IERC20",
          "name": "token",
          "type": "address"
        },
        {
          "internalType": "uint256",
          "name": "amount",
          "type": "uint256"
        }
      ],
      "name": "lockFrom",
      "outputs": [
        {
          "internalType": "bool",
          "name": "",
          "type": "bool"
        }
      ],
      "stateMutability": "nonpayable",
      "type": "function"
    },
    {
      "inputs": [
        {
          "internalType": "address",
          "name": "account",
          "type": "address"
        },
        {
          "internalType": "contract IERC20",
          "name": "token",
          "type": "address"
        }
      ],
      "name": "convertAllFrom",
      "outputs": [
        {
          "internalType": "bool",
          "name": "",
          "type": "bool"
        }
      ],
      "stateMutability": "nonpayable",
      "type": "function"
    },
    {
      "inputs": [
        {
          "internalType": "address",
          "name": "account",
          "type": "address"
        },
        {
          "internalType": "contract IERC20",
          "name": "token",
          "type": "address"
        },
        {
          "internalType": "uint256",
          "name": "amount",
          "type": "uint256"
        }
      ],
      "name": "convertFrom",
      "outputs": [
        {
          "internalType": "bool",
          "name": "",
          "type": "bool"
        }
      ],
      "stateMutability": "nonpayable",
      "type": "function"
    },
    {
      "inputs": [
        {
          "internalType": "contract IERC20",
          "name": "token",
          "type": "address"
        },
        {
          "internalType": "uint256",
          "name": "amount",
          "type": "uint256"
        }
      ],
      "name": "convert",
      "outputs": [
        {
          "internalType": "bool",
          "name": "",
          "type": "bool"
        }
      ],
      "stateMutability": "nonpayable",
      "type": "function"
    }
  ],
  "bytecode": "0x608060405234801561001057600080fd5b5061326f806100206000396000f3fe608060405234801561001057600080fd5b50600436106101c15760003560e01c8062aa0bce146101c657806301ffc9a7146101ec57806306fdde031461020f578063095ea7b3146102245780630982d5b01461023757806318160ddd1461024a57806323b872dd14610252578063248a9ca314610265578063282d3fdf146102785780632f2ff15d1461028b578063313ce567146102a057806332ff99d1146102af57806336568abe146102c257806336bd063a146102d557806339509351146102e85780633b89bb86146102fb5780633c8796e01461030e5780634cd88b7614610321578063604abf9e14610334578063615a1e2c146103ba57806367c6e39c146103cd578063708e91e5146103e057806370a08231146103f357806380c9dcf7146104065780638bd317eb146104195780639010d07c1461042c57806391d1485414610457578063926d7d7f1461046a57806395d89b411461047f578063a217fddf14610487578063a22ac5a91461048f578063a457c2d714610504578063a86e6ee414610517578063a9059cbb14610551578063ca15c87314610564578063d547741f14610577578063dd62ed3e1461058a578063f3fef3a3146105c3575b600080fd5b6101d96101d4366004612959565b6105d6565b6040519081526020015b60405180910390f35b6101ff6101fa366004612bc7565b6105fa565b60405190151581526020016101e3565b61021761061f565b6040516101e39190612dfb565b6101ff610232366004612b19565b6106b1565b6101ff610245366004612a94565b6106c7565b60cc546101d9565b6101ff610260366004612a53565b6107f2565b6101d9610273366004612b67565b610847565b6101ff610286366004612b19565b61085c565b61029e610299366004612b80565b610869565b005b604051601281526020016101e3565b6101ff6102bd366004612a53565b610890565b61029e6102d0366004612b80565b6108b1565b6101d96102e3366004612959565b6108d3565b6101ff6102f6366004612b19565b6108de565b6101ff610309366004612b19565b610915565b6101ff61031c366004612976565b610b9e565b61029e61032f366004612c4f565b610c02565b610396610342366004612959565b6040805180820190915260008082526020820152506001600160a01b03166000908152610135602090815260409182902082518084019093525463ffffffff8082168452600160201b909104169082015290565b60408051825163ffffffff90811682526020938401511692810192909252016101e3565b6101ff6103c8366004612bf1565b610c8e565b6101ff6103db366004612b19565b610cfe565b6101ff6103ee366004612a53565b610d0b565b6101d9610401366004612959565b610d23565b6101ff6104143660046129af565b610d3e565b6101ff610427366004612b19565b6110e6565b61043f61043a366004612ba5565b611392565b6040516001600160a01b0390911681526020016101e3565b6101ff610465366004612b80565b6113aa565b6101d960008051602061319a83398151915281565b6102176113d5565b6101d9600081565b6104f261049d366004612b19565b6001600160a01b0391821660009081526101016020908152604080832093835292905220805460018201546002830154600384015460048501546005909501549396929591821694911692909160ff90911690565b6040516101e396959493929190612ec7565b6101ff610512366004612b19565b6113e4565b6101d9610525366004612976565b6001600160a01b0391821660009081526101386020908152604080832093909416825291909152205490565b6101ff61055f366004612b19565b611423565b6101d9610572366004612b67565b611430565b61029e610585366004612b80565b611447565b6101d9610598366004612976565b6001600160a01b03918216600090815260cb6020908152604080832093909416825291909152205490565b6101ff6105d1366004612b19565b611451565b60006105e18261157d565b6105ea83610d23565b6105f4919061305b565b92915050565b60006001600160e01b03198216635a05180f60e01b14806105f457506105f4826115a0565b606060cd805461062e906130d8565b80601f016020809104026020016040519081016040528092919081815260200182805461065a906130d8565b80156106a75780601f1061067c576101008083540402835291602001916106a7565b820191906000526020600020905b81548152906001019060200180831161068a57829003601f168201915b5050505050905090565b60006106be3384846115d5565b50600192915050565b6000806106d389610d23565b90506106df8688612f14565b8110156107475760405162461bcd60e51b815260206004820152602b60248201527f45524332304554486c6573733a207468652062616c616e6365206973206e6f7460448201526a081cdd59999a58da595b9d60aa1b60648201526084015b60405180910390fd5b61075189866116b5565b6000600346308c8c8c8c8c604051602001610773989796959493929190612d32565b6040516020818303038152906040528051906020012090506107cc818b87878080601f01602080910402602001604051908101604052809392919081815260200183838082843760009201919091525061177d92505050565b506107d78a88611845565b6107e28a8a8a611869565b5060019998505050505050505050565b60006107ff848484611869565b6001600160a01b038416600090815260cb60209081526040808320338085529252909120549061083a908690610835868561305b565b6115d5565b60019150505b9392505050565b60009081526065602052604090206001015490565b6000610840338484611996565b6108738282611b88565b600082815260976020526040902061088b9082611ba5565b505050565b60008061089d8133611bba565b6108a8858585611c22565b95945050505050565b6108bb8282611c48565b600082815260976020526040902061088b9082611cc2565b60006105f48261157d565b33600081815260cb602090815260408083206001600160a01b038716845290915281205490916106be918590610835908690612f14565b6001600160a01b0382166000908152610101602090815260408083208484529091528120600481015461095a5760405162461bcd60e51b815260040161073e90612e7c565b336001600160a01b0385161480610986575060038101546001600160a01b0316336001600160a01b0316145b610a0c5760405162461bcd60e51b815260206004820152604b60248201527f455243323052657365727661626c653a2074686973206164647265737320697360448201527f206e6f7420617574686f72697a656420746f206578656375746520746869732060648201526a3932b9b2b93b30ba34b7b760a91b608482015260a40161073e565b43816004015411610a735760405162461bcd60e51b815260206004820152603f60248201526000805160206131da83398151915260448201527f206578706972656420616e642063616e6e6f7420626520657865637574656400606482015260840161073e565b6001600582015460ff166003811115610a8e57610a8e613129565b14610ae85760405162461bcd60e51b8152602060048201526036602482015260008051602061321a83398151915260448201527574696f6e2073746174757320746f206578656375746560501b606482015260840161073e565b60038101546002820154600183015483546001600160a01b0393841693909216916000610b158383612f14565b6001600160a01b038a166000818152610101602090815260408083208d84528252808320600501805460ff1916600317905592825261010290522054909150610b5f90829061305b565b6001600160a01b038a1660009081526101026020526040902055610b84898685611869565b610b8f898584611869565b50600198975050505050505050565b600080610bab8133611bba565b6001600160a01b0380851660009081526101386020908152604080832093871683529290522054610bdd858583611cd7565b506000610bea8583611d1e565b9050610bf68682611df5565b50600195945050505050565b600054610100900460ff1680610c1b575060005460ff16155b610c375760405162461bcd60e51b815260040161073e90612e2e565b600054610100900460ff16158015610c59576000805461ffff19166101011790555b610c638383611ece565b610c6d6012611f47565b610c78600033611fc3565b801561088b576000805461ff0019169055505050565b600080610c9b8133611bba565b6001600160a01b038616600090815261013660209081526040808320805460ff8a1660ff199091161790556101359091529020805463ffffffff858116600160201b026001600160401b03199092169087161717905560015b9695505050505050565b6000610840338484611c22565b600080610d188133611bba565b6108a8858585611996565b6001600160a01b0316600090815260ca602052604090205490565b6001600160a01b03891660009081526101016020908152604080832087845290915281206004015415610dce5760405162461bcd60e51b815260206004820152603260248201527f455243323052657365727661626c653a207468652073656e646572207573656460448201527120746865206e6f6e636520616c726561647960701b606482015260840161073e565b438411610e325760405162461bcd60e51b815260206004820152602c60248201527f455243323052657365727661626c653a20696e76616c696420626c6f636b206560448201526b3c3834b93c90373ab6b132b960a11b606482015260840161073e565b6001600160a01b038816610ea25760405162461bcd60e51b815260206004820152603160248201527f455243323052657365727661626c653a2063616e6e6f7420657865637574652060448201527066726f6d207a65726f206164647265737360781b606482015260840161073e565b6000610eae8789612f14565b905080610eba8c61157d565b1015610f215760405162461bcd60e51b815260206004820152603060248201527f455243323052657365727661626c653a20696e73756666696369656e7420756e60448201526f72657365727665642062616c616e636560801b606482015260840161073e565b6000600446308e8e8e8e8e8e8e604051602001610f479a99989796959493929190612cc9565b604051602081830303815290604052805190602001209050610fa0818d87878080601f01602080910402602001604051908101604052809392919081815260200183838082843760009201919091525061177d92505050565b506040518060c001604052808a81526020018981526020018c6001600160a01b031681526020018b6001600160a01b0316815260200187815260200160016003811115610fef57610fef613129565b90526001600160a01b03808e166000908152610101602090815260408083208c84528252918290208451815590840151600180830191909155918401516002820180549185166001600160a01b03199283161790556060850151600380840180549290961691909216179093556080840151600482015560a084015160058201805492949193909260ff191691849081111561108d5761108d613129565b021790555050506001600160a01b038c16600090815261010260205260409020546110b9908390612f14565b6001600160a01b038d16600090815261010260205260409020555060019150509998505050505050505050565b6001600160a01b0382166000908152610101602090815260408083208484529091528120600481015461112b5760405162461bcd60e51b815260040161073e90612e7c565b336001600160a01b0385161480611157575060038101546001600160a01b0316336001600160a01b0316145b6111ef5760405162461bcd60e51b815260206004820152605f60248201527f455243323052657365727661626c653a206f6e6c79207468652073656e64657260448201527f206f7220746865206578656375746f722063616e207265636c61696d2074686560648201527f207265736572766174696f6e206261636b20746f207468652073656e64657200608482015260a40161073e565b438160040154111580611217575060038101546001600160a01b0316336001600160a01b0316145b61129d5760405162461bcd60e51b815260206004820152606060248201526000805160206131da83398151915260448201527f206e6f742065787069726564206f7220796f7520617265206e6f74207468652060648201527f6578656375746f7220616e642063616e6e6f74206265207265636c61696d6564608482015260a40161073e565b6001600582015460ff1660038111156112b8576112b8613129565b146113125760405162461bcd60e51b8152602060048201526036602482015260008051602061321a83398151915260448201527574696f6e2073746174757320746f207265636c61696d60501b606482015260840161073e565b6001600160a01b0384166000818152610101602090815260408083208784528252808320600501805460ff19166002179055600185015485549484526101029092529091205490916113639161305b565b61136d919061305b565b6001600160a01b03851660009081526101026020526040902055506001905092915050565b60008281526097602052604081206108409083611fcd565b60009182526065602090815260408084206001600160a01b0393909316845291905290205460ff1690565b606060ce805461062e906130d8565b33600081815260cb602090815260408083206001600160a01b038716845290915281205490916114199085610835868561305b565b5060019392505050565b60006106be338484611869565b60008181526097602052604081206105f490611fd9565b6108bb8282611fe3565b336000908152610138602090815260408083206001600160a01b038616845290915281208054839190839061148790849061305b565b90915550506001600160a01b03831663a9059cbb336040516001600160e01b031960e084901b1681526001600160a01b03909116600482015260248101859052604401602060405180830381600087803b1580156114e457600080fd5b505af11580156114f8573d6000803e3d6000fd5b505050506040513d601f19601f8201168201806040525081019061151c9190612b45565b6106be5760405162461bcd60e51b815260206004820152602c60248201527f436f6e7665727469626c653a2043616e2774207769746864726177207468652060448201526b1d1bdad95b88185b5bdd5b9d60a21b606482015260840161073e565b6001600160a01b038116600090815261010260205260408120546105ea83610d23565b60006001600160e01b03198216637965db0b60e01b14806105f457506301ffc9a760e01b6001600160e01b03198316146105f4565b6001600160a01b038316158015906115f557506001600160a01b03821615155b6116545760405162461bcd60e51b815260206004820152602a60248201527f45524332303a20617070726f76652066726f6d206f7220746f20746865207a65604482015269726f206164647265737360b01b606482015260840161073e565b6001600160a01b03838116600081815260cb602090815260408083209487168084529482529182902085905590518481527f8c5be1e5ebec7d5bd14f71427d1e84f3dd0314c0f7b2291e5b200ac8c7c3b925910160405180910390a3505050565b6001600160a01b038216600090815261016b6020908152604080832084845290915290205460ff161561174c5760405162461bcd60e51b815260206004820152603960248201527f4554486c6573733a20746865206e6f6e63652068617320616c7265616479206260448201527865656e207573656420666f722074686973206164647265737360381b606482015260840161073e565b6001600160a01b03909116600090815261016b6020908152604080832093835292905220805460ff19166001179055565b6000806117d6856040517b0ca2ba3432b932bab69029b4b3b732b21026b2b9b9b0b3b29d05199960211b6020820152603c8101829052600090605c01604051602081830303815290604052805190602001209050919050565b905060006117e48285612000565b9050846001600160a01b0316816001600160a01b031614610bf65760405162461bcd60e51b815260206004820152601b60248201527a56616c69646174653a20696e76616c6964207369676e617475726560281b604482015260640161073e565b600061186060008051602061319a8339815191526000611392565b905061088b8382845b6001600160a01b0383161580159061188957506001600160a01b03821615155b6118e95760405162461bcd60e51b815260206004820152602b60248201527f45524332303a207472616e736665722066726f6d206f7220746f20746865207a60448201526a65726f206164647265737360a81b606482015260840161073e565b6118f48383836120a4565b6001600160a01b038316600090815260ca6020526040902054611917828261305b565b6001600160a01b03808616600090815260ca6020526040808220939093559085168152908120805484929061194d908490612f14565b92505081905550826001600160a01b0316846001600160a01b03166000805160206131fa8339815191528460405161198791815260200190565b60405180910390a35b50505050565b6001600160a01b0382166000908152610135602052604081205463ffffffff16611a065760405162461bcd60e51b815260206004820152602d60248201526000805160206131ba83398151915260448201526c37ba1039bab83837b93a32b21760991b606482015260840161073e565b6040516323b872dd60e01b81526001600160a01b038581166004830152306024830152604482018490528416906323b872dd90606401602060405180830381600087803b158015611a5657600080fd5b505af1158015611a6a573d6000803e3d6000fd5b505050506040513d601f19601f82011682018060405250810190611a8e9190612b45565b611aeb5760405162461bcd60e51b815260206004820152602860248201527f436f6e7665727469626c653a2043616e2774206c6f636b2074686520746f6b656044820152671b88185b5bdd5b9d60c21b606482015260840161073e565b6001600160a01b0380851660009081526101386020908152604080832093871683529290522054611b1d908390612f14565b6001600160a01b03858116600081815261013860209081526040808320948916808452948252918290209490945551858152919290917f989eaa915cbb416ea3d6f9a63b1a3de51770c7674b11fe21ecdf76b4e1d13910910160405180910390a35060019392505050565b611b9182610847565b611b9b8133611bba565b61088b83836120af565b6000610840836001600160a01b038416612135565b611bc482826113aa565b611c1e57611bdc816001600160a01b03166014612184565b611be7836020612184565b604051602001611bf8929190612d8c565b60408051601f198184030181529082905262461bcd60e51b825261073e91600401612dfb565b5050565b6000611c2f848484611cd7565b506000611c3c8484611d1e565b905061083a8582611df5565b6001600160a01b0381163314611cb85760405162461bcd60e51b815260206004820152602f60248201527f416363657373436f6e74726f6c3a2063616e206f6e6c792072656e6f756e636560448201526e103937b632b9903337b91039b2b63360891b606482015260840161073e565b611c1e828261231f565b6000610840836001600160a01b038416612386565b6001600160a01b03808416600090815261013860209081526040808320938616835292905290812080548391908390611d1190849061305b565b9091555091949350505050565b6001600160a01b038216600090815261013560205260408120805463ffffffff16611d8e5760405162461bcd60e51b815260206004820152602c60248201526000805160206131ba83398151915260448201526b1bdd081cdd5c1c1bdc9d195960a21b606482015260840161073e565b6001600160a01b0384166000908152610136602090815260408083205461013754610135909352922054611ded9260ff90811692169063ffffffff600160201b8204811691611dde91168861303c565b611de89190612f2c565b612479565b949350505050565b6001600160a01b038216611e4b5760405162461bcd60e51b815260206004820152601f60248201527f45524332303a206d696e7420746f20746865207a65726f206164647265737300604482015260640161073e565b611e57600083836120a4565b8060cc6000828254611e699190612f14565b90915550506001600160a01b038216600090815260ca602052604081208054839290611e96908490612f14565b90915550506040518181526001600160a01b038316906000906000805160206131fa8339815191529060200160405180910390a35050565b600054610100900460ff1680611ee7575060005460ff16155b611f035760405162461bcd60e51b815260040161073e90612e2e565b600054610100900460ff16158015611f25576000805461ffff19166101011790555b611f2f83836124ce565b610c7860008051602061319a83398151915233611fc3565b600054610100900460ff1680611f60575060005460ff16155b611f7c5760405162461bcd60e51b815260040161073e90612e2e565b600054610100900460ff16158015611f9e576000805461ffff19166101011790555b610137805460ff191660ff84161790558015611c1e576000805461ff00191690555050565b6108738282612563565b6000610840838361256d565b60006105f4825490565b611fec82610847565b611ff68133611bba565b61088b838361231f565b60008151604114156120345760208201516040830151606084015160001a61202a86828585612597565b93505050506105f4565b81516040141561205c5760208201516040830151612053858383612728565b925050506105f4565b60405162461bcd60e51b815260206004820152601f60248201527f45434453413a20696e76616c6964207369676e6174757265206c656e67746800604482015260640161073e565b61088b838383612748565b6120b982826113aa565b611c1e5760008281526065602090815260408083206001600160a01b03851684529091529020805460ff191660011790556120f13390565b6001600160a01b0316816001600160a01b0316837f2f8788117e7eff1d82e926ec794901d17c78024a50270940304540a733656f0d60405160405180910390a45050565b600081815260018301602052604081205461217c575081546001818101845560008481526020808220909301849055845484825282860190935260409020919091556105f4565b5060006105f4565b6060600061219383600261303c565b61219e906002612f14565b6001600160401b038111156121b5576121b561316b565b6040519080825280601f01601f1916602001820160405280156121df576020820181803683370190505b509050600360fc1b816000815181106121fa576121fa613155565b60200101906001600160f81b031916908160001a905350600f60fb1b8160018151811061222957612229613155565b60200101906001600160f81b031916908160001a905350600061224d84600261303c565b612258906001612f14565b90505b60018111156122d0576f181899199a1a9b1b9c1cb0b131b232b360811b85600f166010811061228c5761228c613155565b1a60f81b8282815181106122a2576122a2613155565b60200101906001600160f81b031916908160001a90535060049490941c936122c9816130c1565b905061225b565b5083156108405760405162461bcd60e51b815260206004820181905260248201527f537472696e67733a20686578206c656e67746820696e73756666696369656e74604482015260640161073e565b61232982826113aa565b15611c1e5760008281526065602090815260408083206001600160a01b0385168085529252808320805460ff1916905551339285917ff6391f5c32d9c69d2a47ea670b442974b53935d1edc7fd64eb21e047a839171b9190a45050565b6000818152600183016020526040812054801561246f5760006123aa60018361305b565b85549091506000906123be9060019061305b565b90508181146124235760008660000182815481106123de576123de613155565b906000526020600020015490508087600001848154811061240157612401613155565b6000918252602080832090910192909255918252600188019052604090208390555b85548690806124345761243461313f565b6001900381819060005260206000200160009055905585600101600086815260200190815260200160002060009055600193505050506105f4565b60009150506105f4565b60008260ff168460ff1610156124af576124938484613072565b61249e90600a612f91565b6124a8908361303c565b9050610840565b6124b98385613072565b6124c490600a612f91565b6124a89083612f2c565b600054610100900460ff16806124e7575060005460ff16155b6125035760405162461bcd60e51b815260040161073e90612e2e565b600054610100900460ff16158015612525576000805461ffff19166101011790555b82516125389060cd9060208601906127d3565b50815161254c9060ce9060208501906127d3565b50801561088b576000805461ff0019169055505050565b611c1e82826120af565b600082600001828154811061258457612584613155565b9060005260206000200154905092915050565b60006fa2a8918ca85bafe22016d0b997e4df60600160ff1b0382111561260a5760405162461bcd60e51b815260206004820152602260248201527f45434453413a20696e76616c6964207369676e6174757265202773272076616c604482015261756560f01b606482015260840161073e565b8360ff16601b148061261f57508360ff16601c145b6126765760405162461bcd60e51b815260206004820152602260248201527f45434453413a20696e76616c6964207369676e6174757265202776272076616c604482015261756560f01b606482015260840161073e565b6040805160008082526020820180845288905260ff871692820192909252606081018590526080810184905260019060a0016020604051602081039080840390855afa1580156126ca573d6000803e3d6000fd5b5050604051601f1901519150506001600160a01b0381166108a85760405162461bcd60e51b815260206004820152601860248201527745434453413a20696e76616c6964207369676e617475726560401b604482015260640161073e565b60006001600160ff1b03821660ff83901c601b01610cf486828785612597565b6001600160a01b0383161561088b57806127618461157d565b101561088b5760405162461bcd60e51b815260206004820152603b60248201527f455243323052657365727661626c653a207472616e7366657220616d6f756e7460448201527a206578636565647320756e72657365727665642062616c616e636560281b606482015260840161073e565b8280546127df906130d8565b90600052602060002090601f0160209004810192826128015760008555612847565b82601f1061281a57805160ff1916838001178555612847565b82800160010185558215612847579182015b8281111561284757825182559160200191906001019061282c565b50612853929150612857565b5090565b5b808211156128535760008155600101612858565b60008083601f84011261287e57600080fd5b5081356001600160401b0381111561289557600080fd5b6020830191508360208285010111156128ad57600080fd5b9250929050565b600082601f8301126128c557600080fd5b81356001600160401b03808211156128df576128df61316b565b604051601f8301601f19908116603f011681019082821181831017156129075761290761316b565b8160405283815286602085880101111561292057600080fd5b836020870160208301376000602085830101528094505050505092915050565b803563ffffffff8116811461295457600080fd5b919050565b60006020828403121561296b57600080fd5b813561084081613181565b6000806040838503121561298957600080fd5b823561299481613181565b915060208301356129a481613181565b809150509250929050565b60008060008060008060008060006101008a8c0312156129ce57600080fd5b89356129d981613181565b985060208a01356129e981613181565b975060408a01356129f981613181565b965060608a0135955060808a0135945060a08a0135935060c08a0135925060e08a01356001600160401b03811115612a3057600080fd5b612a3c8c828d0161286c565b915080935050809150509295985092959850929598565b600080600060608486031215612a6857600080fd5b8335612a7381613181565b92506020840135612a8381613181565b929592945050506040919091013590565b600080600080600080600060c0888a031215612aaf57600080fd5b8735612aba81613181565b96506020880135612aca81613181565b955060408801359450606088013593506080880135925060a08801356001600160401b03811115612afa57600080fd5b612b068a828b0161286c565b989b979a50959850939692959293505050565b60008060408385031215612b2c57600080fd5b8235612b3781613181565b946020939093013593505050565b600060208284031215612b5757600080fd5b8151801515811461084057600080fd5b600060208284031215612b7957600080fd5b5035919050565b60008060408385031215612b9357600080fd5b8235915060208301356129a481613181565b60008060408385031215612bb857600080fd5b50508035926020909101359150565b600060208284031215612bd957600080fd5b81356001600160e01b03198116811461084057600080fd5b60008060008060808587031215612c0757600080fd5b8435612c1281613181565b9350602085013560ff81168114612c2857600080fd5b9250612c3660408601612940565b9150612c4460608601612940565b905092959194509250565b60008060408385031215612c6257600080fd5b82356001600160401b0380821115612c7957600080fd5b612c85868387016128b4565b93506020850135915080821115612c9b57600080fd5b50612ca8858286016128b4565b9150509250929050565b60058110612cc257612cc2613129565b60f81b9052565b612cd3818c612cb2565b60018101999099526001600160601b0319606098891b811660218b015296881b871660358a015294871b861660498901529290951b909316605d8601526071850192909252609184019290925260b183015260d182015260f101919050565b612d3c818a612cb2565b60018101979097526001600160601b0319606096871b8116602189015294861b851660358801529290941b9092166049850152605d840191909152607d830191909152609d82015260bd01919050565b76020b1b1b2b9b9a1b7b73a3937b61d1030b1b1b7bab73a1604d1b815260008351612dbe816017850160208801613095565b7001034b99036b4b9b9b4b733903937b6329607d1b6017918401918201528351612def816028840160208801613095565b01602801949350505050565b6020815260008251806020840152612e1a816040850160208701613095565b601f01601f19169190910160400192915050565b6020808252602e908201527f496e697469616c697a61626c653a20636f6e747261637420697320616c72656160408201526d191e481a5b9a5d1a585b1a5e995960921b606082015260800190565b6020808252602b908201527f455243323052657365727661626c653a207265736572766174696f6e20646f6560408201526a1cc81b9bdd08195e1a5cdd60aa1b606082015260800190565b868152602081018690526001600160a01b038581166040830152841660608201526080810183905260c0810160048310612f0357612f03613129565b8260a0830152979650505050505050565b60008219821115612f2757612f27613113565b500190565b600082612f4957634e487b7160e01b600052601260045260246000fd5b500490565b600181815b80851115612f89578160001904821115612f6f57612f6f613113565b80851615612f7c57918102915b93841c9390800290612f53565b509250929050565b600061084060ff841683600082612faa575060016105f4565b81612fb7575060006105f4565b8160018114612fcd5760028114612fd757612ff3565b60019150506105f4565b60ff841115612fe857612fe8613113565b50506001821b6105f4565b5060208310610133831016604e8410600b8410161715613016575081810a6105f4565b6130208383612f4e565b806000190482111561303457613034613113565b029392505050565b600081600019048311821515161561305657613056613113565b500290565b60008282101561306d5761306d613113565b500390565b600060ff821660ff84168082101561308c5761308c613113565b90039392505050565b60005b838110156130b0578181015183820152602001613098565b838111156119905750506000910152565b6000816130d0576130d0613113565b506000190190565b600181811c908216806130ec57607f821691505b6020821081141561310d57634e487b7160e01b600052602260045260246000fd5b50919050565b634e487b7160e01b600052601160045260246000fd5b634e487b7160e01b600052602160045260246000fd5b634e487b7160e01b600052603160045260246000fd5b634e487b7160e01b600052603260045260246000fd5b634e487b7160e01b600052604160045260246000fd5b6001600160a01b038116811461319657600080fd5b5056fee2b7fb3b832174769106daebcfd6d1970523240dda11281102db9363b83b0dc4436f6e7665727469626c653a20546865206261736520746f6b656e206973206e455243323052657365727661626c653a207265736572766174696f6e20686173ddf252ad1be2c89b69c2b068fc378daa952ba7f163c4a11628f55a4df523b3ef455243323052657365727661626c653a20696e76616c69642072657365727661a26469706673582212205387062fe8822548e75281eb05291a77588d27cec5cbd64a14173e3542944fe564736f6c63430008070033",
  "immutableReferences": {},
  "source": "// SPDX-License-Identifier: MIT\npragma solidity >=0.8.6;\n\nimport \"./abstracts/ContextUpgradeable.sol\";\nimport \"./abstracts/ERC20Reservable.sol\";\nimport \"./abstracts/Convertible.sol\";\nimport \"./abstracts/ETHlessTransfer.sol\";\n\n/**\n * @dev Extension of {ERC20} that adds a set of accounts with the {MinterRole},\n * which have permission to mint (create) new tokens as they see fit.\n *\n * At construction, the deployer of the contract is the only minter.\n */\ncontract Gluwacoin is\n    ContextUpgradeable,\n    ERC20Reservable,\n    Convertible,\n    ETHlessTransfer\n{\n    function initialize(string memory name_, string memory symbol_)\n        external\n        initializer\n    {\n        __ERC20ETHless_init_unchained(name_, symbol_);\n        __Convertible_init_unchained(decimals());\n        _setupRole(DEFAULT_ADMIN_ROLE, _msgSender());\n    }\n\n    function setTokenExchange(\n        IERC20 token,\n        uint8 decimals,\n        uint32 newExchangeRate,\n        uint32 newExchangeRateDecimalPlaceBase\n    ) external onlyRole(DEFAULT_ADMIN_ROLE) returns (bool) {\n        return\n            _setTokenExchange(\n                token,\n                decimals,\n                newExchangeRate,\n                newExchangeRateDecimalPlaceBase\n            );\n    }\n\n    function lockFrom(\n        address account,\n        IERC20 token,\n        uint256 amount\n    ) external onlyRole(DEFAULT_ADMIN_ROLE) returns (bool) {\n        return _lockFrom(account, token, amount);\n    }\n\n    function convertAllFrom(address account, IERC20 token)\n        external\n        onlyRole(DEFAULT_ADMIN_ROLE)\n        returns (bool)\n    {\n        uint256 lockedAmount = _locks[account][token];\n        _release(account, token, lockedAmount);\n\n        uint256 convertedAmount = _calculateConversion(token, lockedAmount);\n        _mint(account, convertedAmount);\n\n        return true;\n    }\n\n    function convertFrom(\n        address account,\n        IERC20 token,\n        uint256 amount\n    ) external onlyRole(DEFAULT_ADMIN_ROLE) returns (bool) {\n        return _convert(account, token, amount);\n    }\n\n    function convert(IERC20 token, uint256 amount) external returns (bool) {\n        return _convert(_msgSender(), token, amount);\n    }\n\n    function _convert(\n        address account,\n        IERC20 token,\n        uint256 amount\n    ) private returns (bool) {\n        _release(account, token, amount);\n\n        uint256 convertedAmount = _calculateConversion(token, amount);\n        _mint(account, convertedAmount);\n\n        return true;\n    }  \n\n    /** @dev check the amount of available tokens of sender to transfer.\n     * Must override all the parent's functions\n     * Do 2 checks:\n     * - Total balance must be equal or higher than the transferring amount.\n     * - Unreserving (the amount of tokens are not put as a reserve) must be equal or higher than the transferring amount.\n     */\n\n    function _beforeTokenTransfer(\n        address from,\n        address to,\n        uint256 amount\n    ) internal override(ETHlessTransfer, ERC20Reservable) {\n        ETHlessTransfer._beforeTokenTransfer(from, to, amount);\n        ERC20Reservable._beforeTokenTransfer(from, to, amount);\n    }\n\n    uint256[50] private __gap;\n}\n",
  "sourcePath": "/home/osboxes/KRWC-G-1/contracts/Gluwacoin.sol",
  "compiler": {
    "name": "solc",
    "version": "0.8.7+commit.e28d00a7.Emscripten.clang"
  },
  "schemaVersion": "3.3.4",
  "updatedAt": "2021-08-19T02:20:03.372Z",
  "devdoc": {
    "details": "Extension of {ERC20} that adds a set of accounts with the {MinterRole}, which have permission to mint (create) new tokens as they see fit. At construction, the deployer of the contract is the only minter.",
    "kind": "dev",
    "methods": {
      "allowance(address,address)": {
        "details": "See {IERC20-allowance}."
      },
      "approve(address,uint256)": {
        "details": "See {IERC20-approve}. Requirements: - `spender` cannot be the zero address."
      },
      "balanceOf(address)": {
        "details": "See {IERC20-balanceOf}."
      },
      "decimals()": {
        "details": "Returns the number of decimals used to get its user representation. For example, if `decimals` equals `2`, a balance of `505` tokens should be displayed to a user as `5,05` (`505 / 10 ** 2`). Tokens usually opt for a value of 18, imitating the relationship between Ether and Wei. This is the value {ERC20} uses, unless this function is overridden; NOTE: This information is only used for _display_ purposes: it in no way affects any of the arithmetic of the contract, including {IERC20-balanceOf} and {IERC20-transfer}."
      },
      "decreaseAllowance(address,uint256)": {
        "details": "Atomically decreases the allowance granted to `spender` by the caller. This is an alternative to {approve} that can be used as a mitigation for problems described in {IERC20-approve}. Emits an {Approval} event indicating the updated allowance. Requirements: - `spender` cannot be the zero address. - `spender` must have allowance for the caller of at least `subtractedValue`."
      },
      "getRoleAdmin(bytes32)": {
        "details": "Returns the admin role that controls `role`. See {grantRole} and {revokeRole}. To change a role's admin, use {_setRoleAdmin}."
      },
      "getRoleMember(bytes32,uint256)": {
        "details": "Returns one of the accounts that have `role`. `index` must be a value between 0 and {getRoleMemberCount}, non-inclusive. Role bearers are not sorted in any particular way, and their ordering may change at any point. WARNING: When using {getRoleMember} and {getRoleMemberCount}, make sure you perform all queries on the same block. See the following https://forum.openzeppelin.com/t/iterating-over-elements-on-enumerableset-in-openzeppelin-contracts/2296[forum post] for more information."
      },
      "getRoleMemberCount(bytes32)": {
        "details": "Returns the number of accounts that have `role`. Can be used together with {getRoleMember} to enumerate all bearers of a role."
      },
      "grantRole(bytes32,address)": {
        "details": "Overload {grantRole} to track enumerable memberships"
      },
      "hasRole(bytes32,address)": {
        "details": "Returns `true` if `account` has been granted `role`."
      },
      "increaseAllowance(address,uint256)": {
        "details": "Atomically increases the allowance granted to `spender` by the caller. This is an alternative to {approve} that can be used as a mitigation for problems described in {IERC20-approve}. Emits an {Approval} event indicating the updated allowance. Requirements: - `spender` cannot be the zero address."
      },
      "name()": {
        "details": "Returns the name of the token."
      },
      "renounceRole(bytes32,address)": {
        "details": "Overload {renounceRole} to track enumerable memberships"
      },
      "revokeRole(bytes32,address)": {
        "details": "Overload {revokeRole} to track enumerable memberships"
      },
      "supportsInterface(bytes4)": {
        "details": "See {IERC165-supportsInterface}."
      },
      "symbol()": {
        "details": "Returns the symbol of the token, usually a shorter version of the name."
      },
      "totalSupply()": {
        "details": "See {IERC20-totalSupply}."
      },
      "transfer(address,address,uint256,uint256,uint256,bytes)": {
        "details": "Moves `amount` tokens from the `sender`'s account to `recipient` and moves `fee` tokens from the `sender`'s account to a relayer's address. Returns a boolean value indicating whether the operation succeeded. Emits two {Transfer} events. Requirements: - `recipient` cannot be the zero address. - the `sender` must have a balance of at least the sum of `amount` and `fee`. - the `nonce` is only used once per `sender`."
      },
      "transfer(address,uint256)": {
        "details": "See {IERC20-transfer}. Requirements: - `recipient` cannot be the zero address. - the caller must have a balance of at least `amount`."
      },
      "transferFrom(address,address,uint256)": {
        "details": "See {IERC20-transferFrom}. Emits an {Approval} event indicating the updated allowance. This is not required by the EIP. See the note at the beginning of {ERC20}. Requirements: - `sender` and `recipient` cannot be the zero address. - `sender` must have a balance of at least `amount`. - the caller must have allowance for ``sender``'s tokens of at least `amount`."
      }
    },
    "version": 1
  },
  "userdoc": {
    "kind": "user",
    "methods": {},
    "version": 1
  }
}