{
  "contractName": "Gluwacoin",
  "abi": [
    {
      "anonymous": false,
      "inputs": [
        {
          "indexed": true,
          "internalType": "address",
          "name": "owner",
          "type": "address"
        },
        {
          "indexed": true,
          "internalType": "address",
          "name": "spender",
          "type": "address"
        },
        {
          "indexed": false,
          "internalType": "uint256",
          "name": "value",
          "type": "uint256"
        }
      ],
      "name": "Approval",
      "type": "event"
    },
    {
      "anonymous": false,
      "inputs": [
        {
          "indexed": true,
          "internalType": "address",
          "name": "sender",
          "type": "address"
        },
        {
          "indexed": true,
          "internalType": "contract IERC20",
          "name": "token",
          "type": "address"
        },
        {
          "indexed": false,
          "internalType": "uint256",
          "name": "_value",
          "type": "uint256"
        }
      ],
      "name": "Locked",
      "type": "event"
    },
    {
      "anonymous": false,
      "inputs": [
        {
          "indexed": true,
          "internalType": "bytes32",
          "name": "role",
          "type": "bytes32"
        },
        {
          "indexed": true,
          "internalType": "bytes32",
          "name": "previousAdminRole",
          "type": "bytes32"
        },
        {
          "indexed": true,
          "internalType": "bytes32",
          "name": "newAdminRole",
          "type": "bytes32"
        }
      ],
      "name": "RoleAdminChanged",
      "type": "event"
    },
    {
      "anonymous": false,
      "inputs": [
        {
          "indexed": true,
          "internalType": "bytes32",
          "name": "role",
          "type": "bytes32"
        },
        {
          "indexed": true,
          "internalType": "address",
          "name": "account",
          "type": "address"
        },
        {
          "indexed": true,
          "internalType": "address",
          "name": "sender",
          "type": "address"
        }
      ],
      "name": "RoleGranted",
      "type": "event"
    },
    {
      "anonymous": false,
      "inputs": [
        {
          "indexed": true,
          "internalType": "bytes32",
          "name": "role",
          "type": "bytes32"
        },
        {
          "indexed": true,
          "internalType": "address",
          "name": "account",
          "type": "address"
        },
        {
          "indexed": true,
          "internalType": "address",
          "name": "sender",
          "type": "address"
        }
      ],
      "name": "RoleRevoked",
      "type": "event"
    },
    {
      "anonymous": false,
      "inputs": [
        {
          "indexed": true,
          "internalType": "address",
          "name": "from",
          "type": "address"
        },
        {
          "indexed": true,
          "internalType": "address",
          "name": "to",
          "type": "address"
        },
        {
          "indexed": false,
          "internalType": "uint256",
          "name": "value",
          "type": "uint256"
        }
      ],
      "name": "Transfer",
      "type": "event"
    },
    {
      "inputs": [],
      "name": "DEFAULT_ADMIN_ROLE",
      "outputs": [
        {
          "internalType": "bytes32",
          "name": "",
          "type": "bytes32"
        }
      ],
      "stateMutability": "view",
      "type": "function"
    },
    {
      "inputs": [],
      "name": "RELAYER_ROLE",
      "outputs": [
        {
          "internalType": "bytes32",
          "name": "",
          "type": "bytes32"
        }
      ],
      "stateMutability": "view",
      "type": "function"
    },
    {
      "inputs": [
        {
          "internalType": "address",
          "name": "owner",
          "type": "address"
        },
        {
          "internalType": "address",
          "name": "spender",
          "type": "address"
        }
      ],
      "name": "allowance",
      "outputs": [
        {
          "internalType": "uint256",
          "name": "",
          "type": "uint256"
        }
      ],
      "stateMutability": "view",
      "type": "function"
    },
    {
      "inputs": [
        {
          "internalType": "address",
          "name": "spender",
          "type": "address"
        },
        {
          "internalType": "uint256",
          "name": "amount",
          "type": "uint256"
        }
      ],
      "name": "approve",
      "outputs": [
        {
          "internalType": "bool",
          "name": "",
          "type": "bool"
        }
      ],
      "stateMutability": "nonpayable",
      "type": "function"
    },
    {
      "inputs": [
        {
          "internalType": "address",
          "name": "account",
          "type": "address"
        }
      ],
      "name": "balanceOf",
      "outputs": [
        {
          "internalType": "uint256",
          "name": "",
          "type": "uint256"
        }
      ],
      "stateMutability": "view",
      "type": "function"
    },
    {
      "inputs": [],
      "name": "decimals",
      "outputs": [
        {
          "internalType": "uint8",
          "name": "",
          "type": "uint8"
        }
      ],
      "stateMutability": "view",
      "type": "function"
    },
    {
      "inputs": [
        {
          "internalType": "address",
          "name": "spender",
          "type": "address"
        },
        {
          "internalType": "uint256",
          "name": "subtractedValue",
          "type": "uint256"
        }
      ],
      "name": "decreaseAllowance",
      "outputs": [
        {
          "internalType": "bool",
          "name": "",
          "type": "bool"
        }
      ],
      "stateMutability": "nonpayable",
      "type": "function"
    },
    {
      "inputs": [
        {
          "internalType": "address",
          "name": "sender",
          "type": "address"
        },
        {
          "internalType": "uint256",
          "name": "nonce",
          "type": "uint256"
        }
      ],
      "name": "execute",
      "outputs": [
        {
          "internalType": "bool",
          "name": "success",
          "type": "bool"
        }
      ],
      "stateMutability": "nonpayable",
      "type": "function"
    },
    {
      "inputs": [
        {
          "internalType": "address",
          "name": "account",
          "type": "address"
        },
        {
          "internalType": "contract IERC20",
          "name": "token",
          "type": "address"
        }
      ],
      "name": "getLocked",
      "outputs": [
        {
          "internalType": "uint256",
          "name": "",
          "type": "uint256"
        }
      ],
      "stateMutability": "view",
      "type": "function"
    },
    {
      "inputs": [
        {
          "internalType": "address",
          "name": "sender",
          "type": "address"
        },
        {
          "internalType": "uint256",
          "name": "nonce",
          "type": "uint256"
        }
      ],
      "name": "getReservation",
      "outputs": [
        {
          "internalType": "uint256",
          "name": "amount",
          "type": "uint256"
        },
        {
          "internalType": "uint256",
          "name": "fee",
          "type": "uint256"
        },
        {
          "internalType": "address",
          "name": "recipient",
          "type": "address"
        },
        {
          "internalType": "address",
          "name": "executor",
          "type": "address"
        },
        {
          "internalType": "uint256",
          "name": "expiryBlockNum",
          "type": "uint256"
        },
        {
          "internalType": "enum ERC20Reservable.ReservationStatus",
          "name": "status",
          "type": "uint8"
        }
      ],
      "stateMutability": "view",
      "type": "function"
    },
    {
      "inputs": [
        {
          "internalType": "bytes32",
          "name": "role",
          "type": "bytes32"
        }
      ],
      "name": "getRoleAdmin",
      "outputs": [
        {
          "internalType": "bytes32",
          "name": "",
          "type": "bytes32"
        }
      ],
      "stateMutability": "view",
      "type": "function"
    },
    {
      "inputs": [
        {
          "internalType": "bytes32",
          "name": "role",
          "type": "bytes32"
        },
        {
          "internalType": "uint256",
          "name": "index",
          "type": "uint256"
        }
      ],
      "name": "getRoleMember",
      "outputs": [
        {
          "internalType": "address",
          "name": "",
          "type": "address"
        }
      ],
      "stateMutability": "view",
      "type": "function"
    },
    {
      "inputs": [
        {
          "internalType": "bytes32",
          "name": "role",
          "type": "bytes32"
        }
      ],
      "name": "getRoleMemberCount",
      "outputs": [
        {
          "internalType": "uint256",
          "name": "",
          "type": "uint256"
        }
      ],
      "stateMutability": "view",
      "type": "function"
    },
    {
      "inputs": [
        {
          "internalType": "contract IERC20",
          "name": "token",
          "type": "address"
        }
      ],
      "name": "getTokenExchangeDetails",
      "outputs": [
        {
          "components": [
            {
              "internalType": "uint32",
              "name": "rate",
              "type": "uint32"
            },
            {
              "internalType": "uint32",
              "name": "decimalPlaceBase",
              "type": "uint32"
            }
          ],
          "internalType": "struct GluwacoinModel.TokenExchangeModel",
          "name": "",
          "type": "tuple"
        }
      ],
      "stateMutability": "view",
      "type": "function"
    },
    {
      "inputs": [
        {
          "internalType": "bytes32",
          "name": "role",
          "type": "bytes32"
        },
        {
          "internalType": "address",
          "name": "account",
          "type": "address"
        }
      ],
      "name": "grantRole",
      "outputs": [],
      "stateMutability": "nonpayable",
      "type": "function"
    },
    {
      "inputs": [
        {
          "internalType": "bytes32",
          "name": "role",
          "type": "bytes32"
        },
        {
          "internalType": "address",
          "name": "account",
          "type": "address"
        }
      ],
      "name": "hasRole",
      "outputs": [
        {
          "internalType": "bool",
          "name": "",
          "type": "bool"
        }
      ],
      "stateMutability": "view",
      "type": "function"
    },
    {
      "inputs": [
        {
          "internalType": "address",
          "name": "spender",
          "type": "address"
        },
        {
          "internalType": "uint256",
          "name": "addedValue",
          "type": "uint256"
        }
      ],
      "name": "increaseAllowance",
      "outputs": [
        {
          "internalType": "bool",
          "name": "",
          "type": "bool"
        }
      ],
      "stateMutability": "nonpayable",
      "type": "function"
    },
    {
      "inputs": [
        {
          "internalType": "contract IERC20",
          "name": "token",
          "type": "address"
        },
        {
          "internalType": "uint256",
          "name": "amount",
          "type": "uint256"
        }
      ],
      "name": "lock",
      "outputs": [
        {
          "internalType": "bool",
          "name": "",
          "type": "bool"
        }
      ],
      "stateMutability": "nonpayable",
      "type": "function"
    },
    {
      "inputs": [],
      "name": "name",
      "outputs": [
        {
          "internalType": "string",
          "name": "",
          "type": "string"
        }
      ],
      "stateMutability": "view",
      "type": "function"
    },
    {
      "inputs": [
        {
          "internalType": "address",
          "name": "sender",
          "type": "address"
        },
        {
          "internalType": "uint256",
          "name": "nonce",
          "type": "uint256"
        }
      ],
      "name": "reclaim",
      "outputs": [
        {
          "internalType": "bool",
          "name": "success",
          "type": "bool"
        }
      ],
      "stateMutability": "nonpayable",
      "type": "function"
    },
    {
      "inputs": [
        {
          "internalType": "bytes32",
          "name": "role",
          "type": "bytes32"
        },
        {
          "internalType": "address",
          "name": "account",
          "type": "address"
        }
      ],
      "name": "renounceRole",
      "outputs": [],
      "stateMutability": "nonpayable",
      "type": "function"
    },
    {
      "inputs": [
        {
          "internalType": "address",
          "name": "sender",
          "type": "address"
        },
        {
          "internalType": "address",
          "name": "recipient",
          "type": "address"
        },
        {
          "internalType": "address",
          "name": "executor",
          "type": "address"
        },
        {
          "internalType": "uint256",
          "name": "amount",
          "type": "uint256"
        },
        {
          "internalType": "uint256",
          "name": "fee",
          "type": "uint256"
        },
        {
          "internalType": "uint256",
          "name": "nonce",
          "type": "uint256"
        },
        {
          "internalType": "uint256",
          "name": "expiryBlockNum",
          "type": "uint256"
        },
        {
          "internalType": "bytes",
          "name": "sig",
          "type": "bytes"
        }
      ],
      "name": "reserve",
      "outputs": [
        {
          "internalType": "bool",
          "name": "success",
          "type": "bool"
        }
      ],
      "stateMutability": "nonpayable",
      "type": "function"
    },
    {
      "inputs": [
        {
          "internalType": "address",
          "name": "account",
          "type": "address"
        }
      ],
      "name": "reservedBalanceOf",
      "outputs": [
        {
          "internalType": "uint256",
          "name": "amount",
          "type": "uint256"
        }
      ],
      "stateMutability": "view",
      "type": "function"
    },
    {
      "inputs": [
        {
          "internalType": "bytes32",
          "name": "role",
          "type": "bytes32"
        },
        {
          "internalType": "address",
          "name": "account",
          "type": "address"
        }
      ],
      "name": "revokeRole",
      "outputs": [],
      "stateMutability": "nonpayable",
      "type": "function"
    },
    {
      "inputs": [
        {
          "internalType": "bytes4",
          "name": "interfaceId",
          "type": "bytes4"
        }
      ],
      "name": "supportsInterface",
      "outputs": [
        {
          "internalType": "bool",
          "name": "",
          "type": "bool"
        }
      ],
      "stateMutability": "view",
      "type": "function"
    },
    {
      "inputs": [],
      "name": "symbol",
      "outputs": [
        {
          "internalType": "string",
          "name": "",
          "type": "string"
        }
      ],
      "stateMutability": "view",
      "type": "function"
    },
    {
      "inputs": [],
      "name": "totalSupply",
      "outputs": [
        {
          "internalType": "uint256",
          "name": "",
          "type": "uint256"
        }
      ],
      "stateMutability": "view",
      "type": "function"
    },
    {
      "inputs": [
        {
          "internalType": "address",
          "name": "recipient",
          "type": "address"
        },
        {
          "internalType": "uint256",
          "name": "amount",
          "type": "uint256"
        }
      ],
      "name": "transfer",
      "outputs": [
        {
          "internalType": "bool",
          "name": "",
          "type": "bool"
        }
      ],
      "stateMutability": "nonpayable",
      "type": "function"
    },
    {
      "inputs": [
        {
          "internalType": "address",
          "name": "sender",
          "type": "address"
        },
        {
          "internalType": "address",
          "name": "recipient",
          "type": "address"
        },
        {
          "internalType": "uint256",
          "name": "amount",
          "type": "uint256"
        }
      ],
      "name": "transferFrom",
      "outputs": [
        {
          "internalType": "bool",
          "name": "",
          "type": "bool"
        }
      ],
      "stateMutability": "nonpayable",
      "type": "function"
    },
    {
      "inputs": [
        {
          "internalType": "address",
          "name": "account",
          "type": "address"
        }
      ],
      "name": "unreservedBalanceOf",
      "outputs": [
        {
          "internalType": "uint256",
          "name": "amount",
          "type": "uint256"
        }
      ],
      "stateMutability": "view",
      "type": "function"
    },
    {
      "inputs": [
        {
          "internalType": "contract IERC20",
          "name": "token",
          "type": "address"
        },
        {
          "internalType": "uint256",
          "name": "amount",
          "type": "uint256"
        }
      ],
      "name": "withdraw",
      "outputs": [
        {
          "internalType": "bool",
          "name": "",
          "type": "bool"
        }
      ],
      "stateMutability": "nonpayable",
      "type": "function"
    },
    {
      "inputs": [
        {
          "internalType": "string",
          "name": "name_",
          "type": "string"
        },
        {
          "internalType": "string",
          "name": "symbol_",
          "type": "string"
        }
      ],
      "name": "initialize",
      "outputs": [],
      "stateMutability": "nonpayable",
      "type": "function"
    },
    {
      "inputs": [
        {
          "internalType": "contract IERC20",
          "name": "token",
          "type": "address"
        },
        {
          "internalType": "uint8",
          "name": "decimals",
          "type": "uint8"
        },
        {
          "internalType": "uint32",
          "name": "newExchangeRate",
          "type": "uint32"
        },
        {
          "internalType": "uint32",
          "name": "newExchangeRateDecimalPlaceBase",
          "type": "uint32"
        }
      ],
      "name": "setTokenExchange",
      "outputs": [
        {
          "internalType": "bool",
          "name": "",
          "type": "bool"
        }
      ],
      "stateMutability": "nonpayable",
      "type": "function"
    },
    {
      "inputs": [
        {
          "internalType": "address",
          "name": "account",
          "type": "address"
        },
        {
          "internalType": "contract IERC20",
          "name": "token",
          "type": "address"
        },
        {
          "internalType": "uint256",
          "name": "amount",
          "type": "uint256"
        }
      ],
      "name": "lockFrom",
      "outputs": [
        {
          "internalType": "bool",
          "name": "",
          "type": "bool"
        }
      ],
      "stateMutability": "nonpayable",
      "type": "function"
    },
    {
      "inputs": [
        {
          "internalType": "address",
          "name": "account",
          "type": "address"
        },
        {
          "internalType": "contract IERC20",
          "name": "token",
          "type": "address"
        }
      ],
      "name": "convertAllFrom",
      "outputs": [
        {
          "internalType": "bool",
          "name": "",
          "type": "bool"
        }
      ],
      "stateMutability": "nonpayable",
      "type": "function"
    },
    {
      "inputs": [
        {
          "internalType": "address",
          "name": "account",
          "type": "address"
        },
        {
          "internalType": "contract IERC20",
          "name": "token",
          "type": "address"
        },
        {
          "internalType": "uint256",
          "name": "amount",
          "type": "uint256"
        }
      ],
      "name": "convertFrom",
      "outputs": [
        {
          "internalType": "bool",
          "name": "",
          "type": "bool"
        }
      ],
      "stateMutability": "nonpayable",
      "type": "function"
    },
    {
      "inputs": [
        {
          "internalType": "contract IERC20",
          "name": "token",
          "type": "address"
        },
        {
          "internalType": "uint256",
          "name": "amount",
          "type": "uint256"
        }
      ],
      "name": "convert",
      "outputs": [
        {
          "internalType": "bool",
          "name": "",
          "type": "bool"
        }
      ],
      "stateMutability": "nonpayable",
      "type": "function"
    }
  ],
  "bytecode": "0x608060405234801561001057600080fd5b50615fd680620000216000396000f3fe608060405234801561001057600080fd5b50600436106101b65760003560e01c8062aa0bce146101bb57806301ffc9a7146101eb57806306fdde031461021b578063095ea7b31461023957806318160ddd1461026957806323b872dd14610287578063248a9ca3146102b7578063282d3fdf146102e75780632f2ff15d14610317578063313ce5671461033357806332ff99d11461035157806336568abe1461038157806336bd063a1461039d57806339509351146103cd5780633b89bb86146103fd5780633c8796e01461042d5780634cd88b761461045d578063604abf9e14610479578063615a1e2c146104a957806367c6e39c146104d9578063708e91e51461050957806370a082311461053957806380c9dcf7146105695780638bd317eb146105995780639010d07c146105c957806391d14854146105f9578063926d7d7f1461062957806395d89b4114610647578063a217fddf14610665578063a22ac5a914610683578063a457c2d7146106b8578063a86e6ee4146106e8578063a9059cbb14610718578063ca15c87314610748578063d547741f14610778578063dd62ed3e14610794578063f3fef3a3146107c4575b600080fd5b6101d560048036038101906101d09190613f87565b6107f4565b6040516101e29190614f0e565b60405180910390f35b610205600480360381019061020091906142ca565b610819565b6040516102129190614b16565b60405180910390f35b610223610893565b6040516102309190614b91565b60405180910390f35b610253600480360381019061024e91906141b0565b610925565b6040516102609190614b16565b60405180910390f35b610271610943565b60405161027e9190614f0e565b60405180910390f35b6102a1600480360381019061029c91906140ca565b61094d565b6040516102ae9190614b16565b60405180910390f35b6102d160048036038101906102cc919061421d565b610a0b565b6040516102de9190614b31565b60405180910390f35b61030160048036038101906102fc9190614324565b610a2b565b60405161030e9190614b16565b60405180910390f35b610331600480360381019061032c919061424a565b610a47565b005b61033b610a7b565b6040516103489190614f8a565b60405180910390f35b61036b6004803603810190610366919061415d565b610a84565b6040516103789190614b16565b60405180910390f35b61039b6004803603810190610396919061424a565b610ab0565b005b6103b760048036038101906103b29190613f87565b610ae4565b6040516103c49190614f0e565b60405180910390f35b6103e760048036038101906103e291906141b0565b610af6565b6040516103f49190614b16565b60405180910390f35b610417600480360381019061041291906141b0565b610ba2565b6040516104249190614b16565b60405180910390f35b6104476004803603810190610442919061411d565b610f7b565b6040516104549190614b16565b60405180910390f35b610477600480360381019061047291906143cb565b611045565b005b610493600480360381019061048e91906142f7565b61114e565b6040516104a09190614ef3565b60405180910390f35b6104c360048036038101906104be9190614364565b6111f4565b6040516104d09190614b16565b60405180910390f35b6104f360048036038101906104ee9190614324565b611222565b6040516105009190614b16565b60405180910390f35b610523600480360381019061051e919061415d565b61123e565b6040516105309190614b16565b60405180910390f35b610553600480360381019061054e9190613f87565b61126a565b6040516105609190614f0e565b60405180910390f35b610583600480360381019061057e9190613ff4565b6112b3565b6040516105909190614b16565b60405180910390f35b6105b360048036038101906105ae91906141b0565b611723565b6040516105c09190614b16565b60405180910390f35b6105e360048036038101906105de919061428a565b611ae2565b6040516105f09190614a9b565b60405180910390f35b610613600480360381019061060e919061424a565b611b11565b6040516106209190614b16565b60405180910390f35b610631611b7c565b60405161063e9190614b31565b60405180910390f35b61064f611ba0565b60405161065c9190614b91565b60405180910390f35b61066d611c32565b60405161067a9190614b31565b60405180910390f35b61069d600480360381019061069891906141b0565b611c39565b6040516106af96959493929190614f29565b60405180910390f35b6106d260048036038101906106cd91906141b0565b611d19565b6040516106df9190614b16565b60405180910390f35b61070260048036038101906106fd919061411d565b611dca565b60405161070f9190614f0e565b60405180910390f35b610732600480360381019061072d91906141b0565b611e52565b60405161073f9190614b16565b60405180910390f35b610762600480360381019061075d919061421d565b611e70565b60405161076f9190614f0e565b60405180910390f35b610792600480360381019061078d919061424a565b611e94565b005b6107ae60048036038101906107a99190613fb4565b611ec8565b6040516107bb9190614f0e565b60405180910390f35b6107de60048036038101906107d99190614324565b611f4f565b6040516107eb9190614b16565b60405180910390f35b60006107ff826120c9565b6108088361126a565b6108129190615274565b9050919050565b60007f5a05180f000000000000000000000000000000000000000000000000000000007bffffffffffffffffffffffffffffffffffffffffffffffffffffffff1916827bffffffffffffffffffffffffffffffffffffffffffffffffffffffff1916148061088c575061088b82612126565b5b9050919050565b606060cd80546108a29061543f565b80601f01602080910402602001604051908101604052809291908181526020018280546108ce9061543f565b801561091b5780601f106108f05761010080835404028352916020019161091b565b820191906000526020600020905b8154815290600101906020018083116108fe57829003601f168201915b5050505050905090565b60006109396109326121a0565b84846121a8565b6001905092915050565b600060cc54905090565b600061095a84848461233c565b600060cb60008673ffffffffffffffffffffffffffffffffffffffff1673ffffffffffffffffffffffffffffffffffffffff16815260200190815260200160002060006109a56121a0565b73ffffffffffffffffffffffffffffffffffffffff1673ffffffffffffffffffffffffffffffffffffffff1681526020019081526020016000205490506109ff856109ee6121a0565b85846109fa9190615274565b6121a8565b60019150509392505050565b600060656000838152602001908152602001600020600101549050919050565b6000610a3f610a386121a0565b848461254f565b905092915050565b610a518282612834565b610a76816097600085815260200190815260200160002061285d90919063ffffffff16565b505050565b60006012905090565b60008060001b610a9b81610a966121a0565b61288d565b610aa685858561292a565b9150509392505050565b610aba828261295c565b610adf81609760008581526020019081526020016000206129df90919063ffffffff16565b505050565b6000610aef826120c9565b9050919050565b6000610b98610b036121a0565b848460cb6000610b116121a0565b73ffffffffffffffffffffffffffffffffffffffff1673ffffffffffffffffffffffffffffffffffffffff16815260200190815260200160002060008873ffffffffffffffffffffffffffffffffffffffff1673ffffffffffffffffffffffffffffffffffffffff16815260200190815260200160002054610b939190615022565b6121a8565b6001905092915050565b60008061010160008573ffffffffffffffffffffffffffffffffffffffff1673ffffffffffffffffffffffffffffffffffffffff16815260200190815260200160002060008481526020019081526020016000209050600081600401541415610c40576040517f08c379a0000000000000000000000000000000000000000000000000000000008152600401610c3790614e53565b60405180910390fd5b8373ffffffffffffffffffffffffffffffffffffffff16610c5f6121a0565b73ffffffffffffffffffffffffffffffffffffffff161480610cd757508060030160009054906101000a900473ffffffffffffffffffffffffffffffffffffffff1673ffffffffffffffffffffffffffffffffffffffff16610cbf6121a0565b73ffffffffffffffffffffffffffffffffffffffff16145b610d16576040517f08c379a0000000000000000000000000000000000000000000000000000000008152600401610d0d90614e13565b60405180910390fd5b43816004015411610d5c576040517f08c379a0000000000000000000000000000000000000000000000000000000008152600401610d5390614c53565b60405180910390fd5b60016003811115610d7057610d6f61554a565b5b8160050160009054906101000a900460ff166003811115610d9457610d9361554a565b5b14610dd4576040517f08c379a0000000000000000000000000000000000000000000000000000000008152600401610dcb90614db3565b60405180910390fd5b60008160030160009054906101000a900473ffffffffffffffffffffffffffffffffffffffff16905060008260020160009054906101000a900473ffffffffffffffffffffffffffffffffffffffff16905060008360010154905060008460000154905060008282610e469190615022565b9050600361010160008b73ffffffffffffffffffffffffffffffffffffffff1673ffffffffffffffffffffffffffffffffffffffff16815260200190815260200160002060008a815260200190815260200160002060050160006101000a81548160ff02191690836003811115610ec057610ebf61554a565b5b02179055508061010260008b73ffffffffffffffffffffffffffffffffffffffff1673ffffffffffffffffffffffffffffffffffffffff16815260200190815260200160002054610f119190615274565b61010260008b73ffffffffffffffffffffffffffffffffffffffff1673ffffffffffffffffffffffffffffffffffffffff16815260200190815260200160002081905550610f6089868561233c565b610f6b89858461233c565b6001965050505050505092915050565b60008060001b610f9281610f8d6121a0565b61288d565b600061013860008673ffffffffffffffffffffffffffffffffffffffff1673ffffffffffffffffffffffffffffffffffffffff16815260200190815260200160002060008573ffffffffffffffffffffffffffffffffffffffff1673ffffffffffffffffffffffffffffffffffffffff16815260200190815260200160002054905061101f858583612a0f565b50600061102c8583612aaf565b90506110388682612c8a565b6001935050505092915050565b600060019054906101000a900460ff168061106b575060008054906101000a900460ff16155b6110aa576040517f08c379a00000000000000000000000000000000000000000000000000000000081526004016110a190614d13565b60405180910390fd5b60008060019054906101000a900460ff1615905080156110fa576001600060016101000a81548160ff02191690831515021790555060016000806101000a81548160ff0219169083151502179055505b6111048383612ddf565b61111461110f610a7b565b612ef5565b6111286000801b6111236121a0565b612feb565b80156111495760008060016101000a81548160ff0219169083151502179055505b505050565b611156613d50565b61013560008373ffffffffffffffffffffffffffffffffffffffff1673ffffffffffffffffffffffffffffffffffffffff1681526020019081526020016000206040518060400160405290816000820160009054906101000a900463ffffffff1663ffffffff1663ffffffff1681526020016000820160049054906101000a900463ffffffff1663ffffffff1663ffffffff16815250509050919050565b60008060001b61120b816112066121a0565b61288d565b6112178686868661301f565b915050949350505050565b600061123661122f6121a0565b848461292a565b905092915050565b60008060001b611255816112506121a0565b61288d565b61126085858561254f565b9150509392505050565b600060ca60008373ffffffffffffffffffffffffffffffffffffffff1673ffffffffffffffffffffffffffffffffffffffff168152602001908152602001600020549050919050565b60008061010160008c73ffffffffffffffffffffffffffffffffffffffff1673ffffffffffffffffffffffffffffffffffffffff1681526020019081526020016000206000878152602001908152602001600020600401541461134b576040517f08c379a000000000000000000000000000000000000000000000000000000000815260040161134290614df3565b60405180910390fd5b43841161138d576040517f08c379a000000000000000000000000000000000000000000000000000000000815260040161138490614ed3565b60405180910390fd5b600073ffffffffffffffffffffffffffffffffffffffff168873ffffffffffffffffffffffffffffffffffffffff1614156113fd576040517f08c379a00000000000000000000000000000000000000000000000000000000081526004016113f490614c13565b60405180910390fd5b6000868861140b9190615022565b9050806114178c6120c9565b1015611458576040517f08c379a000000000000000000000000000000000000000000000000000000000815260040161144f90614cb3565b60405180910390fd5b6000600446308e8e8d8d8d8d60405160200161147c99989796959493929190614998565b6040516020818303038152906040528051906020012090506114e3818d87878080601f016020809104026020016040519081016040528093929190818152602001838380828437600081840152601f19601f8201169050808301925050505050505061314a565b506040518060c001604052808a81526020018981526020018c73ffffffffffffffffffffffffffffffffffffffff1681526020018b73ffffffffffffffffffffffffffffffffffffffff1681526020018781526020016001600381111561154d5761154c61554a565b5b81525061010160008e73ffffffffffffffffffffffffffffffffffffffff1673ffffffffffffffffffffffffffffffffffffffff1681526020019081526020016000206000898152602001908152602001600020600082015181600001556020820151816001015560408201518160020160006101000a81548173ffffffffffffffffffffffffffffffffffffffff021916908373ffffffffffffffffffffffffffffffffffffffff16021790555060608201518160030160006101000a81548173ffffffffffffffffffffffffffffffffffffffff021916908373ffffffffffffffffffffffffffffffffffffffff1602179055506080820151816004015560a08201518160050160006101000a81548160ff021916908360038111156116785761167761554a565b5b02179055509050508161010260008e73ffffffffffffffffffffffffffffffffffffffff1673ffffffffffffffffffffffffffffffffffffffff168152602001908152602001600020546116cc9190615022565b61010260008e73ffffffffffffffffffffffffffffffffffffffff1673ffffffffffffffffffffffffffffffffffffffff168152602001908152602001600020819055506001925050509998505050505050505050565b60008061010160008573ffffffffffffffffffffffffffffffffffffffff1673ffffffffffffffffffffffffffffffffffffffff168152602001908152602001600020600084815260200190815260200160002090506000816004015414156117c1576040517f08c379a00000000000000000000000000000000000000000000000000000000081526004016117b890614e53565b60405180910390fd5b8373ffffffffffffffffffffffffffffffffffffffff166117e06121a0565b73ffffffffffffffffffffffffffffffffffffffff16148061185857508060030160009054906101000a900473ffffffffffffffffffffffffffffffffffffffff1673ffffffffffffffffffffffffffffffffffffffff166118406121a0565b73ffffffffffffffffffffffffffffffffffffffff16145b611897576040517f08c379a000000000000000000000000000000000000000000000000000000000815260040161188e90614d33565b60405180910390fd5b43816004015411158061190057508060030160009054906101000a900473ffffffffffffffffffffffffffffffffffffffff1673ffffffffffffffffffffffffffffffffffffffff166118e86121a0565b73ffffffffffffffffffffffffffffffffffffffff16145b61193f576040517f08c379a000000000000000000000000000000000000000000000000000000000815260040161193690614cd3565b60405180910390fd5b600160038111156119535761195261554a565b5b8160050160009054906101000a900460ff1660038111156119775761197661554a565b5b146119b7576040517f08c379a00000000000000000000000000000000000000000000000000000000081526004016119ae90614c73565b60405180910390fd5b600261010160008673ffffffffffffffffffffffffffffffffffffffff1673ffffffffffffffffffffffffffffffffffffffff168152602001908152602001600020600085815260200190815260200160002060050160006101000a81548160ff02191690836003811115611a2f57611a2e61554a565b5b02179055508060010154816000015461010260008773ffffffffffffffffffffffffffffffffffffffff1673ffffffffffffffffffffffffffffffffffffffff16815260200190815260200160002054611a899190615274565b611a939190615274565b61010260008673ffffffffffffffffffffffffffffffffffffffff1673ffffffffffffffffffffffffffffffffffffffff16815260200190815260200160002081905550600191505092915050565b6000611b0982609760008681526020019081526020016000206131ea90919063ffffffff16565b905092915050565b60006065600084815260200190815260200160002060000160008373ffffffffffffffffffffffffffffffffffffffff1673ffffffffffffffffffffffffffffffffffffffff16815260200190815260200160002060009054906101000a900460ff16905092915050565b7fe2b7fb3b832174769106daebcfd6d1970523240dda11281102db9363b83b0dc481565b606060ce8054611baf9061543f565b80601f0160208091040260200160405190810160405280929190818152602001828054611bdb9061543f565b8015611c285780601f10611bfd57610100808354040283529160200191611c28565b820191906000526020600020905b815481529060010190602001808311611c0b57829003601f168201915b5050505050905090565b6000801b81565b600080600080600080600061010160008a73ffffffffffffffffffffffffffffffffffffffff1673ffffffffffffffffffffffffffffffffffffffff1681526020019081526020016000206000898152602001908152602001600020905080600001549650806001015495508060020160009054906101000a900473ffffffffffffffffffffffffffffffffffffffff1694508060030160009054906101000a900473ffffffffffffffffffffffffffffffffffffffff169350806004015492508060050160009054906101000a900460ff169150509295509295509295565b60008060cb6000611d286121a0565b73ffffffffffffffffffffffffffffffffffffffff1673ffffffffffffffffffffffffffffffffffffffff16815260200190815260200160002060008573ffffffffffffffffffffffffffffffffffffffff1673ffffffffffffffffffffffffffffffffffffffff168152602001908152602001600020549050611dbf611dad6121a0565b858584611dba9190615274565b6121a8565b600191505092915050565b600061013860008473ffffffffffffffffffffffffffffffffffffffff1673ffffffffffffffffffffffffffffffffffffffff16815260200190815260200160002060008373ffffffffffffffffffffffffffffffffffffffff1673ffffffffffffffffffffffffffffffffffffffff16815260200190815260200160002054905092915050565b6000611e66611e5f6121a0565b848461233c565b6001905092915050565b6000611e8d60976000848152602001908152602001600020613204565b9050919050565b611e9e8282613219565b611ec381609760008581526020019081526020016000206129df90919063ffffffff16565b505050565b600060cb60008473ffffffffffffffffffffffffffffffffffffffff1673ffffffffffffffffffffffffffffffffffffffff16815260200190815260200160002060008373ffffffffffffffffffffffffffffffffffffffff1673ffffffffffffffffffffffffffffffffffffffff16815260200190815260200160002054905092915050565b6000816101386000611f5f6121a0565b73ffffffffffffffffffffffffffffffffffffffff1673ffffffffffffffffffffffffffffffffffffffff16815260200190815260200160002060008573ffffffffffffffffffffffffffffffffffffffff1673ffffffffffffffffffffffffffffffffffffffff1681526020019081526020016000206000828254611fe59190615274565b925050819055508273ffffffffffffffffffffffffffffffffffffffff1663a9059cbb6120106121a0565b846040518363ffffffff1660e01b815260040161202e929190614aed565b602060405180830381600087803b15801561204857600080fd5b505af115801561205c573d6000803e3d6000fd5b505050506040513d601f19601f8201168201806040525081019061208091906141f0565b6120bf576040517f08c379a00000000000000000000000000000000000000000000000000000000081526004016120b690614d93565b60405180910390fd5b6001905092915050565b600061010260008373ffffffffffffffffffffffffffffffffffffffff1673ffffffffffffffffffffffffffffffffffffffff168152602001908152602001600020546121158361126a565b61211f9190615274565b9050919050565b60007f7965db0b000000000000000000000000000000000000000000000000000000007bffffffffffffffffffffffffffffffffffffffffffffffffffffffff1916827bffffffffffffffffffffffffffffffffffffffffffffffffffffffff19161480612199575061219882613242565b5b9050919050565b600033905090565b600073ffffffffffffffffffffffffffffffffffffffff168373ffffffffffffffffffffffffffffffffffffffff16141580156122125750600073ffffffffffffffffffffffffffffffffffffffff168273ffffffffffffffffffffffffffffffffffffffff1614155b612251576040517f08c379a000000000000000000000000000000000000000000000000000000000815260040161224890614e73565b60405180910390fd5b8060cb60008573ffffffffffffffffffffffffffffffffffffffff1673ffffffffffffffffffffffffffffffffffffffff16815260200190815260200160002060008473ffffffffffffffffffffffffffffffffffffffff1673ffffffffffffffffffffffffffffffffffffffff168152602001908152602001600020819055508173ffffffffffffffffffffffffffffffffffffffff168373ffffffffffffffffffffffffffffffffffffffff167f8c5be1e5ebec7d5bd14f71427d1e84f3dd0314c0f7b2291e5b200ac8c7c3b9258360405161232f9190614f0e565b60405180910390a3505050565b600073ffffffffffffffffffffffffffffffffffffffff168373ffffffffffffffffffffffffffffffffffffffff16141580156123a65750600073ffffffffffffffffffffffffffffffffffffffff168273ffffffffffffffffffffffffffffffffffffffff1614155b6123e5576040517f08c379a00000000000000000000000000000000000000000000000000000000081526004016123dc90614d73565b60405180910390fd5b6123f08383836132ac565b600060ca60008573ffffffffffffffffffffffffffffffffffffffff1673ffffffffffffffffffffffffffffffffffffffff16815260200190815260200160002054905081816124409190615274565b60ca60008673ffffffffffffffffffffffffffffffffffffffff1673ffffffffffffffffffffffffffffffffffffffff168152602001908152602001600020819055508160ca60008573ffffffffffffffffffffffffffffffffffffffff1673ffffffffffffffffffffffffffffffffffffffff16815260200190815260200160002060008282546124d29190615022565b925050819055508273ffffffffffffffffffffffffffffffffffffffff168473ffffffffffffffffffffffffffffffffffffffff167fddf252ad1be2c89b69c2b068fc378daa952ba7f163c4a11628f55a4df523b3ef846040516125369190614f0e565b60405180910390a36125498484846132c7565b50505050565b60008061013560008573ffffffffffffffffffffffffffffffffffffffff1673ffffffffffffffffffffffffffffffffffffffff16815260200190815260200160002060000160009054906101000a900463ffffffff1663ffffffff16116125ec576040517f08c379a00000000000000000000000000000000000000000000000000000000081526004016125e390614cf3565b60405180910390fd5b8273ffffffffffffffffffffffffffffffffffffffff166323b872dd8530856040518463ffffffff1660e01b815260040161262993929190614ab6565b602060405180830381600087803b15801561264357600080fd5b505af1158015612657573d6000803e3d6000fd5b505050506040513d601f19601f8201168201806040525081019061267b91906141f0565b6126ba576040517f08c379a00000000000000000000000000000000000000000000000000000000081526004016126b190614e33565b60405180910390fd5b8161013860008673ffffffffffffffffffffffffffffffffffffffff1673ffffffffffffffffffffffffffffffffffffffff16815260200190815260200160002060008573ffffffffffffffffffffffffffffffffffffffff1673ffffffffffffffffffffffffffffffffffffffff168152602001908152602001600020546127439190615022565b61013860008673ffffffffffffffffffffffffffffffffffffffff1673ffffffffffffffffffffffffffffffffffffffff16815260200190815260200160002060008573ffffffffffffffffffffffffffffffffffffffff1673ffffffffffffffffffffffffffffffffffffffff168152602001908152602001600020819055508273ffffffffffffffffffffffffffffffffffffffff168473ffffffffffffffffffffffffffffffffffffffff167f989eaa915cbb416ea3d6f9a63b1a3de51770c7674b11fe21ecdf76b4e1d13910846040516128219190614f0e565b60405180910390a3600190509392505050565b61283d82610a0b565b61284e816128496121a0565b61288d565b61285883836132cc565b505050565b6000612885836000018373ffffffffffffffffffffffffffffffffffffffff1660001b6133ad565b905092915050565b6128978282611b11565b612926576128bc8173ffffffffffffffffffffffffffffffffffffffff16601461341d565b6128ca8360001c602061341d565b6040516020016128db929190614a61565b6040516020818303038152906040526040517f08c379a000000000000000000000000000000000000000000000000000000000815260040161291d9190614b91565b60405180910390fd5b5050565b6000612937848484612a0f565b5060006129448484612aaf565b90506129508582612c8a565b60019150509392505050565b6129646121a0565b73ffffffffffffffffffffffffffffffffffffffff168173ffffffffffffffffffffffffffffffffffffffff16146129d1576040517f08c379a00000000000000000000000000000000000000000000000000000000081526004016129c890614e93565b60405180910390fd5b6129db8282613659565b5050565b6000612a07836000018373ffffffffffffffffffffffffffffffffffffffff1660001b61373b565b905092915050565b60008161013860008673ffffffffffffffffffffffffffffffffffffffff1673ffffffffffffffffffffffffffffffffffffffff16815260200190815260200160002060008573ffffffffffffffffffffffffffffffffffffffff1673ffffffffffffffffffffffffffffffffffffffff1681526020019081526020016000206000828254612a9e9190615274565b925050819055508190509392505050565b60008061013560008573ffffffffffffffffffffffffffffffffffffffff1673ffffffffffffffffffffffffffffffffffffffff168152602001908152602001600020905060008160000160009054906101000a900463ffffffff1663ffffffff1611612b51576040517f08c379a0000000000000000000000000000000000000000000000000000000008152600401612b4890614cf3565b60405180910390fd5b612c8161013660008673ffffffffffffffffffffffffffffffffffffffff1673ffffffffffffffffffffffffffffffffffffffff16815260200190815260200160002060009054906101000a900460ff1661013760009054906101000a900460ff1661013560008873ffffffffffffffffffffffffffffffffffffffff1673ffffffffffffffffffffffffffffffffffffffff16815260200190815260200160002060000160049054906101000a900463ffffffff1663ffffffff1661013560008973ffffffffffffffffffffffffffffffffffffffff1673ffffffffffffffffffffffffffffffffffffffff16815260200190815260200160002060000160009054906101000a900463ffffffff1663ffffffff1687612c72919061521a565b612c7c9190615078565b61384f565b91505092915050565b600073ffffffffffffffffffffffffffffffffffffffff168273ffffffffffffffffffffffffffffffffffffffff161415612cfa576040517f08c379a0000000000000000000000000000000000000000000000000000000008152600401612cf190614eb3565b60405180910390fd5b8060cc6000828254612d0c9190615022565b925050819055508060ca60008473ffffffffffffffffffffffffffffffffffffffff1673ffffffffffffffffffffffffffffffffffffffff1681526020019081526020016000206000828254612d629190615022565b925050819055508173ffffffffffffffffffffffffffffffffffffffff16600073ffffffffffffffffffffffffffffffffffffffff167fddf252ad1be2c89b69c2b068fc378daa952ba7f163c4a11628f55a4df523b3ef83604051612dc79190614f0e565b60405180910390a3612ddb600083836132c7565b5050565b600060019054906101000a900460ff1680612e05575060008054906101000a900460ff16155b612e44576040517f08c379a0000000000000000000000000000000000000000000000000000000008152600401612e3b90614d13565b60405180910390fd5b60008060019054906101000a900460ff161590508015612e94576001600060016101000a81548160ff02191690831515021790555060016000806101000a81548160ff0219169083151502179055505b612e9e83836138b6565b612ecf7fe2b7fb3b832174769106daebcfd6d1970523240dda11281102db9363b83b0dc4612eca6121a0565b612feb565b8015612ef05760008060016101000a81548160ff0219169083151502179055505b505050565b600060019054906101000a900460ff1680612f1b575060008054906101000a900460ff16155b612f5a576040517f08c379a0000000000000000000000000000000000000000000000000000000008152600401612f5190614d13565b60405180910390fd5b60008060019054906101000a900460ff161590508015612faa576001600060016101000a81548160ff02191690831515021790555060016000806101000a81548160ff0219169083151502179055505b8161013760006101000a81548160ff021916908360ff1602179055508015612fe75760008060016101000a81548160ff0219169083151502179055505b5050565b612ff582826139bf565b61301a816097600085815260200190815260200160002061285d90919063ffffffff16565b505050565b60008361013660008773ffffffffffffffffffffffffffffffffffffffff1673ffffffffffffffffffffffffffffffffffffffff16815260200190815260200160002060006101000a81548160ff021916908360ff1602179055508261013560008773ffffffffffffffffffffffffffffffffffffffff1673ffffffffffffffffffffffffffffffffffffffff16815260200190815260200160002060000160006101000a81548163ffffffff021916908363ffffffff1602179055508161013560008773ffffffffffffffffffffffffffffffffffffffff1673ffffffffffffffffffffffffffffffffffffffff16815260200190815260200160002060000160046101000a81548163ffffffff021916908363ffffffff16021790555060019050949350505050565b600080613156856139cd565b9050600061316d84836139fd90919063ffffffff16565b90508473ffffffffffffffffffffffffffffffffffffffff168173ffffffffffffffffffffffffffffffffffffffff16146131dd576040517f08c379a00000000000000000000000000000000000000000000000000000000081526004016131d490614bf3565b60405180910390fd5b6001925050509392505050565b60006131f98360000183613aac565b60001c905092915050565b600061321282600001613ad7565b9050919050565b61322282610a0b565b6132338161322e6121a0565b61288d565b61323d8383613659565b505050565b60007f01ffc9a7000000000000000000000000000000000000000000000000000000007bffffffffffffffffffffffffffffffffffffffffffffffffffffffff1916827bffffffffffffffffffffffffffffffffffffffffffffffffffffffff1916149050919050565b6132b7838383613ae8565b6132c2838383613af8565b505050565b505050565b6132d68282611b11565b6133a95760016065600084815260200190815260200160002060000160008373ffffffffffffffffffffffffffffffffffffffff1673ffffffffffffffffffffffffffffffffffffffff16815260200190815260200160002060006101000a81548160ff02191690831515021790555061334e6121a0565b73ffffffffffffffffffffffffffffffffffffffff168173ffffffffffffffffffffffffffffffffffffffff16837f2f8788117e7eff1d82e926ec794901d17c78024a50270940304540a733656f0d60405160405180910390a45b5050565b60006133b98383613b53565b613412578260000182908060018154018082558091505060019003906000526020600020016000909190919091505582600001805490508360010160008481526020019081526020016000208190555060019050613417565b600090505b92915050565b606060006002836002613430919061521a565b61343a9190615022565b67ffffffffffffffff81111561345357613452615606565b5b6040519080825280601f01601f1916602001820160405280156134855781602001600182028036833780820191505090505b5090507f3000000000000000000000000000000000000000000000000000000000000000816000815181106134bd576134bc6155d7565b5b60200101907effffffffffffffffffffffffffffffffffffffffffffffffffffffffffffff1916908160001a9053507f780000000000000000000000000000000000000000000000000000000000000081600181518110613521576135206155d7565b5b60200101907effffffffffffffffffffffffffffffffffffffffffffffffffffffffffffff1916908160001a90535060006001846002613561919061521a565b61356b9190615022565b90505b600181111561360b577f3031323334353637383961626364656600000000000000000000000000000000600f8616601081106135ad576135ac6155d7565b5b1a60f81b8282815181106135c4576135c36155d7565b5b60200101907effffffffffffffffffffffffffffffffffffffffffffffffffffffffffffff1916908160001a905350600485901c94508061360490615415565b905061356e565b506000841461364f576040517f08c379a000000000000000000000000000000000000000000000000000000000815260040161364690614bd3565b60405180910390fd5b8091505092915050565b6136638282611b11565b156137375760006065600084815260200190815260200160002060000160008373ffffffffffffffffffffffffffffffffffffffff1673ffffffffffffffffffffffffffffffffffffffff16815260200190815260200160002060006101000a81548160ff0219169083151502179055506136dc6121a0565b73ffffffffffffffffffffffffffffffffffffffff168173ffffffffffffffffffffffffffffffffffffffff16837ff6391f5c32d9c69d2a47ea670b442974b53935d1edc7fd64eb21e047a839171b60405160405180910390a45b5050565b6000808360010160008481526020019081526020016000205490506000811461384357600060018261376d9190615274565b90506000600186600001805490506137859190615274565b90508181146137f45760008660000182815481106137a6576137a56155d7565b5b90600052602060002001549050808760000184815481106137ca576137c96155d7565b5b90600052602060002001819055508387600101600083815260200190815260200160002081905550505b85600001805480613808576138076155a8565b5b600190038181906000526020600020016000905590558560010160008681526020019081526020016000206000905560019350505050613849565b60009150505b92915050565b60008260ff168460ff16101561388957838361386b91906152a8565b600a61387791906150fc565b82613882919061521a565b90506138af565b828461389591906152a8565b600a6138a191906150fc565b826138ac9190615078565b90505b9392505050565b600060019054906101000a900460ff16806138dc575060008054906101000a900460ff16155b61391b576040517f08c379a000000000000000000000000000000000000000000000000000000000815260040161391290614d13565b60405180910390fd5b60008060019054906101000a900460ff16159050801561396b576001600060016101000a81548160ff02191690831515021790555060016000806101000a81548160ff0219169083151502179055505b8260cd9080519060200190613981929190613d76565b508160ce9080519060200190613998929190613d76565b5080156139ba5760008060016101000a81548160ff0219169083151502179055505b505050565b6139c982826132cc565b5050565b6000816040516020016139e09190614a3b565b604051602081830303815290604052805190602001209050919050565b6000604182511415613a3c5760008060006020850151925060408501519150606085015160001a9050613a3286828585613b76565b9350505050613aa6565b604082511415613a6b576000806020840151915060408401519050613a62858383613d01565b92505050613aa6565b6040517f08c379a0000000000000000000000000000000000000000000000000000000008152600401613a9d90614c33565b60405180910390fd5b92915050565b6000826000018281548110613ac457613ac36155d7565b5b9060005260206000200154905092915050565b600081600001805490509050919050565b613af3838383613d4b565b505050565b80613b02846120c9565b1015613b43576040517f08c379a0000000000000000000000000000000000000000000000000000000008152600401613b3a90614dd3565b60405180910390fd5b613b4e838383613d4b565b505050565b600080836001016000848152602001908152602001600020541415905092915050565b60007f7fffffffffffffffffffffffffffffff5d576e7357a4501ddfe92f46681b20a08260001c1115613bde576040517f08c379a0000000000000000000000000000000000000000000000000000000008152600401613bd590614c93565b60405180910390fd5b601b8460ff161480613bf35750601c8460ff16145b613c32576040517f08c379a0000000000000000000000000000000000000000000000000000000008152600401613c2990614d53565b60405180910390fd5b600060018686868660405160008152602001604052604051613c579493929190614b4c565b6020604051602081039080840390855afa158015613c79573d6000803e3d6000fd5b505050602060405103519050600073ffffffffffffffffffffffffffffffffffffffff168173ffffffffffffffffffffffffffffffffffffffff161415613cf5576040517f08c379a0000000000000000000000000000000000000000000000000000000008152600401613cec90614bb3565b60405180910390fd5b80915050949350505050565b60008060007f7fffffffffffffffffffffffffffffffffffffffffffffffffffffffffffffff84169150601b8460ff1c019050613d4086828785613b76565b925050509392505050565b505050565b6040518060400160405280600063ffffffff168152602001600063ffffffff1681525090565b828054613d829061543f565b90600052602060002090601f016020900481019282613da45760008555613deb565b82601f10613dbd57805160ff1916838001178555613deb565b82800160010185558215613deb579182015b82811115613dea578251825591602001919060010190613dcf565b5b509050613df89190613dfc565b5090565b5b80821115613e15576000816000905550600101613dfd565b5090565b6000613e2c613e2784614fca565b614fa5565b905082815260208101848484011115613e4857613e47615644565b5b613e538482856153d3565b509392505050565b600081359050613e6a81615ee8565b92915050565b600081519050613e7f81615eff565b92915050565b600081359050613e9481615f16565b92915050565b600081359050613ea981615f2d565b92915050565b60008083601f840112613ec557613ec461563a565b5b8235905067ffffffffffffffff811115613ee257613ee1615635565b5b602083019150836001820283011115613efe57613efd61563f565b5b9250929050565b600081359050613f1481615f44565b92915050565b600082601f830112613f2f57613f2e61563a565b5b8135613f3f848260208601613e19565b91505092915050565b600081359050613f5781615f5b565b92915050565b600081359050613f6c81615f72565b92915050565b600081359050613f8181615f89565b92915050565b600060208284031215613f9d57613f9c61564e565b5b6000613fab84828501613e5b565b91505092915050565b60008060408385031215613fcb57613fca61564e565b5b6000613fd985828601613e5b565b9250506020613fea85828601613e5b565b9150509250929050565b60008060008060008060008060006101008a8c0312156140175761401661564e565b5b60006140258c828d01613e5b565b99505060206140368c828d01613e5b565b98505060406140478c828d01613e5b565b97505060606140588c828d01613f48565b96505060806140698c828d01613f48565b95505060a061407a8c828d01613f48565b94505060c061408b8c828d01613f48565b93505060e08a013567ffffffffffffffff8111156140ac576140ab615649565b5b6140b88c828d01613eaf565b92509250509295985092959850929598565b6000806000606084860312156140e3576140e261564e565b5b60006140f186828701613e5b565b935050602061410286828701613e5b565b925050604061411386828701613f48565b9150509250925092565b600080604083850312156141345761413361564e565b5b600061414285828601613e5b565b925050602061415385828601613f05565b9150509250929050565b6000806000606084860312156141765761417561564e565b5b600061418486828701613e5b565b935050602061419586828701613f05565b92505060406141a686828701613f48565b9150509250925092565b600080604083850312156141c7576141c661564e565b5b60006141d585828601613e5b565b92505060206141e685828601613f48565b9150509250929050565b6000602082840312156142065761420561564e565b5b600061421484828501613e70565b91505092915050565b6000602082840312156142335761423261564e565b5b600061424184828501613e85565b91505092915050565b600080604083850312156142615761426061564e565b5b600061426f85828601613e85565b925050602061428085828601613e5b565b9150509250929050565b600080604083850312156142a1576142a061564e565b5b60006142af85828601613e85565b92505060206142c085828601613f48565b9150509250929050565b6000602082840312156142e0576142df61564e565b5b60006142ee84828501613e9a565b91505092915050565b60006020828403121561430d5761430c61564e565b5b600061431b84828501613f05565b91505092915050565b6000806040838503121561433b5761433a61564e565b5b600061434985828601613f05565b925050602061435a85828601613f48565b9150509250929050565b6000806000806080858703121561437e5761437d61564e565b5b600061438c87828801613f05565b945050602061439d87828801613f72565b93505060406143ae87828801613f5d565b92505060606143bf87828801613f5d565b91505092959194509250565b600080604083850312156143e2576143e161564e565b5b600083013567ffffffffffffffff811115614400576143ff615649565b5b61440c85828601613f1a565b925050602083013567ffffffffffffffff81111561442d5761442c615649565b5b61443985828601613f1a565b9150509250929050565b61444c816152dc565b82525050565b61446361445e826152dc565b6154a2565b82525050565b614472816152ee565b82525050565b614481816152fa565b82525050565b614498614493826152fa565b6154b4565b82525050565b6144a7816153af565b82525050565b6144be6144b9826153c1565b6154da565b82525050565b60006144cf82614ffb565b6144d98185615006565b93506144e98185602086016153e2565b6144f281615653565b840191505092915050565b600061450882614ffb565b6145128185615017565b93506145228185602086016153e2565b80840191505092915050565b600061453b601883615006565b91506145468261568b565b602082019050919050565b600061455e602083615006565b9150614569826156b4565b602082019050919050565b6000614581601b83615006565b915061458c826156dd565b602082019050919050565b60006145a4603183615006565b91506145af82615706565b604082019050919050565b60006145c7601f83615006565b91506145d282615755565b602082019050919050565b60006145ea601c83615017565b91506145f58261577e565b601c82019050919050565b600061460d603f83615006565b9150614618826157a7565b604082019050919050565b6000614630603683615006565b915061463b826157f6565b604082019050919050565b6000614653602283615006565b915061465e82615845565b604082019050919050565b6000614676603083615006565b915061468182615894565b604082019050919050565b6000614699606083615006565b91506146a4826158e3565b606082019050919050565b60006146bc602d83615006565b91506146c782615958565b604082019050919050565b60006146df602e83615006565b91506146ea826159a7565b604082019050919050565b6000614702605f83615006565b915061470d826159f6565b606082019050919050565b6000614725602283615006565b915061473082615a6b565b604082019050919050565b6000614748602b83615006565b915061475382615aba565b604082019050919050565b600061476b602c83615006565b915061477682615b09565b604082019050919050565b600061478e603683615006565b915061479982615b58565b604082019050919050565b60006147b1603b83615006565b91506147bc82615ba7565b604082019050919050565b60006147d4603283615006565b91506147df82615bf6565b604082019050919050565b60006147f7601783615017565b915061480282615c45565b601782019050919050565b600061481a604b83615006565b915061482582615c6e565b606082019050919050565b600061483d602883615006565b915061484882615ce3565b604082019050919050565b6000614860602b83615006565b915061486b82615d32565b604082019050919050565b6000614883601183615017565b915061488e82615d81565b601182019050919050565b60006148a6602a83615006565b91506148b182615daa565b604082019050919050565b60006148c9602f83615006565b91506148d482615df9565b604082019050919050565b60006148ec601f83615006565b91506148f782615e48565b602082019050919050565b600061490f602c83615006565b915061491a82615e71565b604082019050919050565b60408201600082015161493b600085018261497a565b50602082015161494e602085018261497a565b50505050565b61495d81615388565b82525050565b61497461496f82615388565b6154d0565b82525050565b61498381615392565b82525050565b614992816153a2565b82525050565b60006149a4828c6144ad565b6001820191506149b4828b614963565b6020820191506149c4828a614452565b6014820191506149d48289614452565b6014820191506149e48288614452565b6014820191506149f48287614963565b602082019150614a048286614963565b602082019150614a148285614963565b602082019150614a248284614963565b6020820191508190509a9950505050505050505050565b6000614a46826145dd565b9150614a528284614487565b60208201915081905092915050565b6000614a6c826147ea565b9150614a7882856144fd565b9150614a8382614876565b9150614a8f82846144fd565b91508190509392505050565b6000602082019050614ab06000830184614443565b92915050565b6000606082019050614acb6000830186614443565b614ad86020830185614443565b614ae56040830184614954565b949350505050565b6000604082019050614b026000830185614443565b614b0f6020830184614954565b9392505050565b6000602082019050614b2b6000830184614469565b92915050565b6000602082019050614b466000830184614478565b92915050565b6000608082019050614b616000830187614478565b614b6e6020830186614989565b614b7b6040830185614478565b614b886060830184614478565b95945050505050565b60006020820190508181036000830152614bab81846144c4565b905092915050565b60006020820190508181036000830152614bcc8161452e565b9050919050565b60006020820190508181036000830152614bec81614551565b9050919050565b60006020820190508181036000830152614c0c81614574565b9050919050565b60006020820190508181036000830152614c2c81614597565b9050919050565b60006020820190508181036000830152614c4c816145ba565b9050919050565b60006020820190508181036000830152614c6c81614600565b9050919050565b60006020820190508181036000830152614c8c81614623565b9050919050565b60006020820190508181036000830152614cac81614646565b9050919050565b60006020820190508181036000830152614ccc81614669565b9050919050565b60006020820190508181036000830152614cec8161468c565b9050919050565b60006020820190508181036000830152614d0c816146af565b9050919050565b60006020820190508181036000830152614d2c816146d2565b9050919050565b60006020820190508181036000830152614d4c816146f5565b9050919050565b60006020820190508181036000830152614d6c81614718565b9050919050565b60006020820190508181036000830152614d8c8161473b565b9050919050565b60006020820190508181036000830152614dac8161475e565b9050919050565b60006020820190508181036000830152614dcc81614781565b9050919050565b60006020820190508181036000830152614dec816147a4565b9050919050565b60006020820190508181036000830152614e0c816147c7565b9050919050565b60006020820190508181036000830152614e2c8161480d565b9050919050565b60006020820190508181036000830152614e4c81614830565b9050919050565b60006020820190508181036000830152614e6c81614853565b9050919050565b60006020820190508181036000830152614e8c81614899565b9050919050565b60006020820190508181036000830152614eac816148bc565b9050919050565b60006020820190508181036000830152614ecc816148df565b9050919050565b60006020820190508181036000830152614eec81614902565b9050919050565b6000604082019050614f086000830184614925565b92915050565b6000602082019050614f236000830184614954565b92915050565b600060c082019050614f3e6000830189614954565b614f4b6020830188614954565b614f586040830187614443565b614f656060830186614443565b614f726080830185614954565b614f7f60a083018461449e565b979650505050505050565b6000602082019050614f9f6000830184614989565b92915050565b6000614faf614fc0565b9050614fbb8282615471565b919050565b6000604051905090565b600067ffffffffffffffff821115614fe557614fe4615606565b5b614fee82615653565b9050602081019050919050565b600081519050919050565b600082825260208201905092915050565b600081905092915050565b600061502d82615388565b915061503883615388565b9250827fffffffffffffffffffffffffffffffffffffffffffffffffffffffffffffffff0382111561506d5761506c6154ec565b5b828201905092915050565b600061508382615388565b915061508e83615388565b92508261509e5761509d61551b565b5b828204905092915050565b6000808291508390505b60018511156150f3578086048111156150cf576150ce6154ec565b5b60018516156150de5780820291505b80810290506150ec8561567e565b94506150b3565b94509492505050565b600061510782615388565b9150615112836153a2565b925061513f7fffffffffffffffffffffffffffffffffffffffffffffffffffffffffffffffff8484615147565b905092915050565b6000826151575760019050615213565b816151655760009050615213565b816001811461517b5760028114615185576151b4565b6001915050615213565b60ff841115615197576151966154ec565b5b8360020a9150848211156151ae576151ad6154ec565b5b50615213565b5060208310610133831016604e8410600b84101617156151e95782820a9050838111156151e4576151e36154ec565b5b615213565b6151f684848460016150a9565b9250905081840481111561520d5761520c6154ec565b5b81810290505b9392505050565b600061522582615388565b915061523083615388565b9250817fffffffffffffffffffffffffffffffffffffffffffffffffffffffffffffffff0483118215151615615269576152686154ec565b5b828202905092915050565b600061527f82615388565b915061528a83615388565b92508282101561529d5761529c6154ec565b5b828203905092915050565b60006152b3826153a2565b91506152be836153a2565b9250828210156152d1576152d06154ec565b5b828203905092915050565b60006152e782615368565b9050919050565b60008115159050919050565b6000819050919050565b60007fffffffff0000000000000000000000000000000000000000000000000000000082169050919050565b600061533b826152dc565b9050919050565b600081905061535082615ec0565b919050565b600081905061536382615ed4565b919050565b600073ffffffffffffffffffffffffffffffffffffffff82169050919050565b6000819050919050565b600063ffffffff82169050919050565b600060ff82169050919050565b60006153ba82615342565b9050919050565b60006153cc82615355565b9050919050565b82818337600083830152505050565b60005b838110156154005780820151818401526020810190506153e5565b8381111561540f576000848401525b50505050565b600061542082615388565b91506000821415615434576154336154ec565b5b600182039050919050565b6000600282049050600182168061545757607f821691505b6020821081141561546b5761546a615579565b5b50919050565b61547a82615653565b810181811067ffffffffffffffff8211171561549957615498615606565b5b80604052505050565b60006154ad826154be565b9050919050565b6000819050919050565b60006154c982615671565b9050919050565b6000819050919050565b60006154e582615664565b9050919050565b7f4e487b7100000000000000000000000000000000000000000000000000000000600052601160045260246000fd5b7f4e487b7100000000000000000000000000000000000000000000000000000000600052601260045260246000fd5b7f4e487b7100000000000000000000000000000000000000000000000000000000600052602160045260246000fd5b7f4e487b7100000000000000000000000000000000000000000000000000000000600052602260045260246000fd5b7f4e487b7100000000000000000000000000000000000000000000000000000000600052603160045260246000fd5b7f4e487b7100000000000000000000000000000000000000000000000000000000600052603260045260246000fd5b7f4e487b7100000000000000000000000000000000000000000000000000000000600052604160045260246000fd5b600080fd5b600080fd5b600080fd5b600080fd5b600080fd5b600080fd5b6000601f19601f8301169050919050565b60008160f81b9050919050565b60008160601b9050919050565b60008160011c9050919050565b7f45434453413a20696e76616c6964207369676e61747572650000000000000000600082015250565b7f537472696e67733a20686578206c656e67746820696e73756666696369656e74600082015250565b7f56616c69646174653a20696e76616c6964207369676e61747572650000000000600082015250565b7f455243323052657365727661626c653a2063616e6e6f7420657865637574652060008201527f66726f6d207a65726f2061646472657373000000000000000000000000000000602082015250565b7f45434453413a20696e76616c6964207369676e6174757265206c656e67746800600082015250565b7f19457468657265756d205369676e6564204d6573736167653a0a333200000000600082015250565b7f455243323052657365727661626c653a207265736572766174696f6e2068617360008201527f206578706972656420616e642063616e6e6f7420626520657865637574656400602082015250565b7f455243323052657365727661626c653a20696e76616c6964207265736572766160008201527f74696f6e2073746174757320746f207265636c61696d00000000000000000000602082015250565b7f45434453413a20696e76616c6964207369676e6174757265202773272076616c60008201527f7565000000000000000000000000000000000000000000000000000000000000602082015250565b7f455243323052657365727661626c653a20696e73756666696369656e7420756e60008201527f72657365727665642062616c616e636500000000000000000000000000000000602082015250565b7f455243323052657365727661626c653a207265736572766174696f6e2068617360008201527f206e6f742065787069726564206f7220796f7520617265206e6f74207468652060208201527f6578656375746f7220616e642063616e6e6f74206265207265636c61696d6564604082015250565b7f436f6e7665727469626c653a20546865206261736520746f6b656e206973206e60008201527f6f7420737570706f727465642e00000000000000000000000000000000000000602082015250565b7f496e697469616c697a61626c653a20636f6e747261637420697320616c72656160008201527f647920696e697469616c697a6564000000000000000000000000000000000000602082015250565b7f455243323052657365727661626c653a206f6e6c79207468652073656e64657260008201527f206f7220746865206578656375746f722063616e207265636c61696d2074686560208201527f207265736572766174696f6e206261636b20746f207468652073656e64657200604082015250565b7f45434453413a20696e76616c6964207369676e6174757265202776272076616c60008201527f7565000000000000000000000000000000000000000000000000000000000000602082015250565b7f45524332303a207472616e736665722066726f6d206f7220746f20746865207a60008201527f65726f2061646472657373000000000000000000000000000000000000000000602082015250565b7f436f6e7665727469626c653a2043616e2774207769746864726177207468652060008201527f746f6b656e20616d6f756e740000000000000000000000000000000000000000602082015250565b7f455243323052657365727661626c653a20696e76616c6964207265736572766160008201527f74696f6e2073746174757320746f206578656375746500000000000000000000602082015250565b7f455243323052657365727661626c653a207472616e7366657220616d6f756e7460008201527f206578636565647320756e72657365727665642062616c616e63650000000000602082015250565b7f455243323052657365727661626c653a207468652073656e646572207573656460008201527f20746865206e6f6e636520616c72656164790000000000000000000000000000602082015250565b7f416363657373436f6e74726f6c3a206163636f756e7420000000000000000000600082015250565b7f455243323052657365727661626c653a2074686973206164647265737320697360008201527f206e6f7420617574686f72697a656420746f206578656375746520746869732060208201527f7265736572766174696f6e000000000000000000000000000000000000000000604082015250565b7f436f6e7665727469626c653a2043616e2774206c6f636b2074686520746f6b6560008201527f6e20616d6f756e74000000000000000000000000000000000000000000000000602082015250565b7f455243323052657365727661626c653a207265736572766174696f6e20646f6560008201527f73206e6f74206578697374000000000000000000000000000000000000000000602082015250565b7f206973206d697373696e6720726f6c6520000000000000000000000000000000600082015250565b7f45524332303a20617070726f76652066726f6d206f7220746f20746865207a6560008201527f726f206164647265737300000000000000000000000000000000000000000000602082015250565b7f416363657373436f6e74726f6c3a2063616e206f6e6c792072656e6f756e636560008201527f20726f6c657320666f722073656c660000000000000000000000000000000000602082015250565b7f45524332303a206d696e7420746f20746865207a65726f206164647265737300600082015250565b7f455243323052657365727661626c653a20696e76616c696420626c6f636b206560008201527f7870697279206e756d6265720000000000000000000000000000000000000000602082015250565b60048110615ed157615ed061554a565b5b50565b60058110615ee557615ee461554a565b5b50565b615ef1816152dc565b8114615efc57600080fd5b50565b615f08816152ee565b8114615f1357600080fd5b50565b615f1f816152fa565b8114615f2a57600080fd5b50565b615f3681615304565b8114615f4157600080fd5b50565b615f4d81615330565b8114615f5857600080fd5b50565b615f6481615388565b8114615f6f57600080fd5b50565b615f7b81615392565b8114615f8657600080fd5b50565b615f92816153a2565b8114615f9d57600080fd5b5056fea2646970667358221220af994f2e9432132e0620372d7414ca70435b17e952047928675fff2ec322fc4064736f6c63430008070033",
  "immutableReferences": {},
  "source": "// SPDX-License-Identifier: MIT\npragma solidity >=0.8.6;\n\nimport \"./abstracts/ContextUpgradeable.sol\";\nimport \"./abstracts/ERC20Reservable.sol\";\nimport \"./abstracts/Convertible.sol\";\nimport \"./abstracts/ETHlessTransfer.sol\";\n\n/**\n * @dev Extension of {ERC20} that adds a set of accounts with the {MinterRole},\n * which have permission to mint (create) new tokens as they see fit.\n *\n * At construction, the deployer of the contract is the only minter.\n */\ncontract Gluwacoin is\n    ContextUpgradeable,\n    ERC20Reservable,\n    Convertible,\n    ETHlessTransfer\n{\n    function initialize(string memory name_, string memory symbol_)\n        external\n        initializer\n    {\n        __ERC20ETHless_init_unchained(name_, symbol_);\n        __Convertible_init_unchained(decimals());\n        _setupRole(DEFAULT_ADMIN_ROLE, _msgSender());\n    }\n\n    function setTokenExchange(\n        IERC20 token,\n        uint8 decimals,\n        uint32 newExchangeRate,\n        uint32 newExchangeRateDecimalPlaceBase\n    ) external onlyRole(DEFAULT_ADMIN_ROLE) returns (bool) {\n        return\n            _setTokenExchange(\n                token,\n                decimals,\n                newExchangeRate,\n                newExchangeRateDecimalPlaceBase\n            );\n    }\n\n    function lockFrom(\n        address account,\n        IERC20 token,\n        uint256 amount\n    ) external onlyRole(DEFAULT_ADMIN_ROLE) returns (bool) {\n        return _lockFrom(account, token, amount);\n    }\n\n    function convertAllFrom(address account, IERC20 token)\n        external\n        onlyRole(DEFAULT_ADMIN_ROLE)\n        returns (bool)\n    {\n        uint256 lockedAmount = _locks[account][token];\n        _release(account, token, lockedAmount);\n\n        uint256 convertedAmount = _calculateConversion(token, lockedAmount);\n        _mint(account, convertedAmount);\n\n        return true;\n    }\n\n    function convertFrom(\n        address account,\n        IERC20 token,\n        uint256 amount\n    ) external onlyRole(DEFAULT_ADMIN_ROLE) returns (bool) {\n        return _convert(account, token, amount);\n    }\n\n    function convert(IERC20 token, uint256 amount) external returns (bool) {\n        return _convert(_msgSender(), token, amount);\n    }\n\n    function _convert(\n        address account,\n        IERC20 token,\n        uint256 amount\n    ) private returns (bool) {\n        _release(account, token, amount);\n\n        uint256 convertedAmount = _calculateConversion(token, amount);\n        _mint(account, convertedAmount);\n\n        return true;\n    }\n\n    /** @dev check the amount of available tokens of sender to transfer.\n     * Must override all the parent's functions\n     * Do 2 checks:\n     * - Total balance must be equal or higher than the transferring amount.\n     * - Unreserving (the amount of tokens are not put as a reserve) must be equal or higher than the transferring amount.\n     */\n\n    function _beforeTokenTransfer(\n        address from,\n        address to,\n        uint256 amount\n    ) internal override(ETHlessTransfer, ERC20Reservable) {\n        ETHlessTransfer._beforeTokenTransfer(from, to, amount);\n        ERC20Reservable._beforeTokenTransfer(from, to, amount);\n    }\n\n    uint256[50] private __gap;\n}\n",
  "sourcePath": "/home/osboxes/KRWC-G-1/contracts/Gluwacoin.sol",
  "compiler": {
    "name": "solc",
    "version": "0.8.7+commit.e28d00a7.Emscripten.clang"
  },
  "schemaVersion": "3.3.4",
  "updatedAt": "2021-08-13T05:51:40.855Z",
  "devdoc": {
    "details": "Extension of {ERC20} that adds a set of accounts with the {MinterRole}, which have permission to mint (create) new tokens as they see fit. At construction, the deployer of the contract is the only minter.",
    "kind": "dev",
    "methods": {
      "allowance(address,address)": {
        "details": "See {IERC20-allowance}."
      },
      "approve(address,uint256)": {
        "details": "See {IERC20-approve}. Requirements: - `spender` cannot be the zero address."
      },
      "balanceOf(address)": {
        "details": "See {IERC20-balanceOf}."
      },
      "decimals()": {
        "details": "Returns the number of decimals used to get its user representation. For example, if `decimals` equals `2`, a balance of `505` tokens should be displayed to a user as `5,05` (`505 / 10 ** 2`). Tokens usually opt for a value of 18, imitating the relationship between Ether and Wei. This is the value {ERC20} uses, unless this function is overridden; NOTE: This information is only used for _display_ purposes: it in no way affects any of the arithmetic of the contract, including {IERC20-balanceOf} and {IERC20-transfer}."
      },
      "decreaseAllowance(address,uint256)": {
        "details": "Atomically decreases the allowance granted to `spender` by the caller. This is an alternative to {approve} that can be used as a mitigation for problems described in {IERC20-approve}. Emits an {Approval} event indicating the updated allowance. Requirements: - `spender` cannot be the zero address. - `spender` must have allowance for the caller of at least `subtractedValue`."
      },
      "getRoleAdmin(bytes32)": {
        "details": "Returns the admin role that controls `role`. See {grantRole} and {revokeRole}. To change a role's admin, use {_setRoleAdmin}."
      },
      "getRoleMember(bytes32,uint256)": {
        "details": "Returns one of the accounts that have `role`. `index` must be a value between 0 and {getRoleMemberCount}, non-inclusive. Role bearers are not sorted in any particular way, and their ordering may change at any point. WARNING: When using {getRoleMember} and {getRoleMemberCount}, make sure you perform all queries on the same block. See the following https://forum.openzeppelin.com/t/iterating-over-elements-on-enumerableset-in-openzeppelin-contracts/2296[forum post] for more information."
      },
      "getRoleMemberCount(bytes32)": {
        "details": "Returns the number of accounts that have `role`. Can be used together with {getRoleMember} to enumerate all bearers of a role."
      },
      "grantRole(bytes32,address)": {
        "details": "Overload {grantRole} to track enumerable memberships"
      },
      "hasRole(bytes32,address)": {
        "details": "Returns `true` if `account` has been granted `role`."
      },
      "increaseAllowance(address,uint256)": {
        "details": "Atomically increases the allowance granted to `spender` by the caller. This is an alternative to {approve} that can be used as a mitigation for problems described in {IERC20-approve}. Emits an {Approval} event indicating the updated allowance. Requirements: - `spender` cannot be the zero address."
      },
      "name()": {
        "details": "Returns the name of the token."
      },
      "renounceRole(bytes32,address)": {
        "details": "Overload {renounceRole} to track enumerable memberships"
      },
      "revokeRole(bytes32,address)": {
        "details": "Overload {revokeRole} to track enumerable memberships"
      },
      "supportsInterface(bytes4)": {
        "details": "See {IERC165-supportsInterface}."
      },
      "symbol()": {
        "details": "Returns the symbol of the token, usually a shorter version of the name."
      },
      "totalSupply()": {
        "details": "See {IERC20-totalSupply}."
      },
      "transfer(address,uint256)": {
        "details": "See {IERC20-transfer}. Requirements: - `recipient` cannot be the zero address. - the caller must have a balance of at least `amount`."
      },
      "transferFrom(address,address,uint256)": {
        "details": "See {IERC20-transferFrom}. Emits an {Approval} event indicating the updated allowance. This is not required by the EIP. See the note at the beginning of {ERC20}. Requirements: - `sender` and `recipient` cannot be the zero address. - `sender` must have a balance of at least `amount`. - the caller must have allowance for ``sender``'s tokens of at least `amount`."
      }
    },
    "version": 1
  },
  "userdoc": {
    "kind": "user",
    "methods": {},
    "version": 1
  }
}